{
  "_format": "hh-sol-artifact-1",
  "contractName": "UpdateStateVerifier",
  "sourceName": "contracts/UpdateStateVerifier.sol",
  "abi": [
    {
      "inputs": [
        {
          "internalType": "uint256[2]",
          "name": "a",
          "type": "uint256[2]"
        },
        {
          "internalType": "uint256[2][2]",
          "name": "b",
          "type": "uint256[2][2]"
        },
        {
          "internalType": "uint256[2]",
          "name": "c",
          "type": "uint256[2]"
        },
        {
          "internalType": "uint256[8]",
          "name": "input",
          "type": "uint256[8]"
        }
      ],
      "name": "verifyProof",
      "outputs": [
        {
          "internalType": "bool",
          "name": "r",
          "type": "bool"
        }
      ],
      "stateMutability": "view",
      "type": "function"
    }
  ],
  "bytecode": "0x60806040523461001b575b604051611829610029823961182990f35b610023600080fd5b61000a56fe60806040526004361015610018575b610016600080fd5b005b60003560e01c63c9219a7a0361000e5761003061026a565b61000e565b50634e487b7160e01b600052604160045260246000fd5b90601f01601f1916810190811067ffffffffffffffff82111761006e57604052565b610076610035565b604052565b9061008f61008860405190565b928361004c565b565b60209067ffffffffffffffff81116100a7570290565b6100af610035565b0290565b909291926100c86100c382610091565b61007b565b9360208592028301928184116100f8575b915b8383106100e85750505050565b82358152602092830192016100db565b610100600080fd5b6100d9565b9061011e9181601f82011215610121575b6002906100b3565b90565b610129600080fd5b610116565b9092919261013e6100c382610091565b936040859202830192818411610178575b915b83831061015e5750505050565b602060409161016d8486610105565b815201920191610151565b610180600080fd5b61014f565b9061011e9181601f8201121561019e575b60029061012e565b6101a6600080fd5b610196565b909291926101bb6100c382610091565b9360208592028301928184116101eb575b915b8383106101db5750505050565b82358152602092830192016101ce565b6101f3600080fd5b6101cc565b9061011e9181601f82011215610211575b6008906101ab565b610219600080fd5b610209565b6102008183031261025d575b6102348282610105565b9261011e6102458460408501610185565b936102538160c08601610105565b93610100016101f8565b610265600080fd5b61022a565b50346102a1575b61029d61028b61028236600461021e565b92919091610473565b60405191829182901515815260200190565b0390f35b6102a9600080fd5b610271565b61011e606061007b565b61011e604061007b565b6102ca6102b8565b906000825260006020830152565b905250565b61011e6102c2565b6100c361011e91610091565b369037565b9061008f61030c610306846102e5565b93610091565b836102f1565b61011e60026102f6565b6103246102b8565b9061032d610312565b825260208083016102d8610312565b61011e61031c565b61034c6102ae565b906103556102dd565b825260208080840161036561033c565b8152016102d86102dd565b61011e610344565b61011e61011e61011e9290565b50634e487b7160e01b600052603260045260246000fd5b9060209060025b8110156103b0575b020190565b6103ab610385565b6020809167ffffffffffffffff81116103d057020190565b6103ab610035565b906103e56100c3836103b8565b918252565b9061008f6104006103fa846103d8565b936103b8565b601f1901602084016102f1565b50634e487b7160e01b600052601160045260246000fd5b6001906000198114610434570190565b61043c61040d565b0190565b9060209060086103a3565b9060208091610458845190565b811015610466575b02010190565b61046e610385565b610460565b9290919061047f610370565b9160009361048c85610378565b610496908761039c565b516001966104a388610378565b6104ac9161039c565b516104b56102b8565b916104c09088840152565b6020820152858501526104d360026102e5565b906104dd86610378565b6104e7908261039c565b516104f187610378565b6104fa9161039c565b518683015261050886610378565b610512908261039c565b5161051c88610378565b6105259161039c565b51602083015261053560026102e5565b9061053f88610378565b610549908261039c565b5161055388610378565b61055c9161039c565b518783015261056a88610378565b6105739161039c565b5161057d88610378565b6105869161039c565b5160208201526105946102b8565b91868301906105a09152565b602082015260208401526105b384610378565b6105bd908261039c565b51906105c886610378565b6105d19161039c565b516105da6102b8565b916105e59086840152565b60208201526040830152836008916105fc836103ea565b928261060787610378565b905b61063a575b505050509061061c91610719565b61062c61062883610378565b9190565b03610635575090565b905090565b81811015610672578061066761065a61065661066c9487610440565b5190565b610664838961044b565b52565b610424565b83610609565b61060e565b9190820180921161068457565b61008f61040d565b1561069357565b60405162461bcd60e51b81526020600482015260126024820152711d995c9a599a595c8b5898590b5a5b9c1d5d60721b6044820152606490fd5b156106d457565b60405162461bcd60e51b815260206004820152601f60248201527f76657269666965722d6774652d736e61726b2d7363616c61722d6669656c64006044820152606490fd5b61076e91906107477f30644e72e131a029b85045b68181585d2833e84879b9709143e1f593f0000001610378565b91610750611144565b90610759835190565b93600195869561076887610378565b90610677565b9361078c608085019561078661062861011e89515190565b1461068c565b600094866107986102b8565b926107a288610378565b99846107af8c8b81980152565b6107ba866020830152565b9585935b61082c575b5050505061081694926107df61081a9795936107e6935161044b565b5190610a16565b6107f2848301516108f4565b93602083015190840151602085015191606060408088015196015196015196610c1a565b1590565b610822575090565b61011e9150610378565b91939461083e61011e86989395985190565b8710156108af575061089e6108a49161086461085d6106568a8961044b565b85116106cd565b610898610884885161087e61087889610378565b8c610677565b9061044b565b516108926106568b8a61044b565b90610b0e565b90610a16565b95610424565b918a949391816107be565b9493839196506107c3565b50634e487b7160e01b600052601260045260246000fd5b81156108db570690565b6108e36108ba565b0690565b9190820391821161068457565b6108fc6102dd565b506109267f30644e72e131a029b85045b68181585d97816a916871ca8d3c208c16d87cfd47610378565b81519160009261093861062885610378565b14806109a8575b610987576109806109718361096b61011e9561096660206109608a89015190565b97015190565b6108d1565b906108e7565b9161097a6102b8565b94850152565b6020830152565b505061011e6109946102b8565b916109806109a182610378565b8092850152565b5060208101516109ba61062885610378565b1461093f565b61011e60046102f6565b9060209060046103a3565b156109dc57565b60405162461bcd60e51b81526020600482015260126024820152711c185a5c9a5b99cb5859190b59985a5b195960721b6044820152606490fd5b919091610a216102dd565b9283610a2b6109c0565b91610a34845190565b93600094610a4186610378565b610a4b90866109ca565b5260200151610a5a6001610378565b610a6490856109ca565b5283810151610a736002610378565b610a7d90856109ca565b5260200151610a8c6003610378565b610a9690846109ca565b525a6107d09003606092600660c092fa809114610ab65761008f906109d5565bfe5b61011e60036102f6565b9060209060036103a3565b15610ad457565b60405162461bcd60e51b81526020600482015260126024820152711c185a5c9a5b99cb5b5d5b0b59985a5b195960721b6044820152606490fd5b6060610b4f919392936080610b216102dd565b91610b808397610b6d610b5a6020610b37610ab8565b95610b55610b43825190565b61066460009d8e610378565b8a610ac2565b015190565b610664610b676001610378565b86610ac2565b610664610b7a6002610378565b84610ac2565b60076107d05a03fa809114610ab65761008f90610acd565b60005b828110610ba757505050565b602090610bb26102dd565b8184015201610b9b565b9061008f610bcc6103fa846103d8565b601f190160208401610b98565b60005b828110610be857505050565b602090610bf361033c565b8184015201610bdc565b9061008f610c0d6103fa846103d8565b601f190160208401610bd9565b9693929594919095610c2a600090565b50610c356004610378565b97610c3f89610bbc565b98610c4990610bfd565b97600091610c5683610378565b610c60908c61044b565b52610c6a82610378565b610c74908b61044b565b50600193610c8185610378565b610c8b908c61044b565b52610c9584610378565b610c9f908b61044b565b50600295610cac87610378565b610cb6908c61044b565b52610cc086610378565b610cca908b61044b565b50600397610cd789610378565b610ce1908c61044b565b52610ceb88610378565b610cf5908b61044b565b50610cff82610378565b610d09908a61044b565b52610d1390610378565b610d1d908861044b565b50610d2782610378565b610d31908861044b565b52610d3b90610378565b610d45908661044b565b50610d4f82610378565b610d59908661044b565b52610d6390610378565b610d6d908461044b565b50610d7782610378565b610d81908461044b565b52610d8b90610378565b610d95908261044b565b5061011e91610e58565b15610da657565b60405162461bcd60e51b81526020600482015260166024820152751c185a5c9a5b99cb5b195b99dd1a1ccb59985a5b195960521b6044820152606490fd5b8060001904821181151516610df7570290565b6100af61040d565b61011e60016102f6565b15610e1057565b60405162461bcd60e51b81526020600482015260156024820152741c185a5c9a5b99cb5bdc18dbd9194b59985a5b1959605a1b6044820152606490fd5b9060209060016103a3565b90916000610e7b610e67845190565b610e7561062861011e885190565b14610d9f565b825193600693610e93610e8d86610378565b87610de4565b93610e9d856103ea565b94600094610eaa86610378565b895b8110156110925786610ebe828761044b565b510151610eca8a610378565b610ed49083610de4565b610edd89610378565b610ee691610677565b610ef0908a61044b565b52610efb818661044b565b5160200151610f098a610378565b610f139083610de4565b90600191610f2083610378565b610f2991610677565b610f33908b61044b565b5287610f3f838961044b565b510151610f4b89610378565b610f549161039c565b51610f5e8b610378565b610f689084610de4565b610f726002610378565b610f7b91610677565b610f85908b61044b565b5287610f91838961044b565b510151610f9d82610378565b610fa69161039c565b51610fb08b610378565b610fba9084610de4565b610fc46003610378565b610fcd91610677565b610fd7908b61044b565b52610fe2828861044b565b5160200151610ff089610378565b610ff99161039c565b516110038b610378565b61100d9084610de4565b6110176004610378565b61102091610677565b61102a908b61044b565b52611035828861044b565b51602001519061104490610378565b61104d9161039c565b516110578a610378565b6110619083610de4565b61106b6005610378565b61107491610677565b61107e908a61044b565b5261108b610eac91610424565b9050610eaa565b5093509491509550602092945082806110a9610dff565b9586945002910160086107d05a03fa808314610ab6576110e46106566110ea936110d561062894610e09565b6110de86610378565b90610e4d565b92610378565b141590565b61011e60a061007b565b6111016110ef565b9061110a6102dd565b8252602080808080860161111c61033c565b81520161112761033c565b81520161113261033c565b8152016060905250565b61011e6110f9565b61114c61113c565b906117f0827f2d4d9aa7e302d9df41749d5507949d05dbea33fbb16c643b22f599a2be6df2e26111b66109807f14bedd503c37ceb061d8ec60209fe345ce89830a19230301f076caff004d19266111b16111ad6111a76102b8565b95610378565b8552565b610378565b81526111c260026102e5565b6111f26111ee7f0967032fcbf776d1afc985f88877f182d38480a653f2decaa9794cbc3bf3060c610378565b8252565b61121e6109807f0e187847ad4c798374d0d6732bf501847dd68bc0e071241e0213bc7fc13db7ab610378565b61129361122b60026102e5565b6112576111ee7f304cfbd1e08a704a99f5e847d93f8c3caafddec46b7a0d379da69a4d112346a7610378565b6112836109807f1739c1b1a457a8c7313123d24d2f9192f896b7c63eea05a9d57f06547ad0cec8610378565b61098061128e6102b8565b938452565b60208201526112a260026102e5565b6113b16112ce7f198e9393920d483a7260bfb731fb5d25f1aa493335a9e71297e485b7aef312c2610378565b916112d7838252565b6112836113037f1800deef121f1e76426a00665e5c4479674322d4f75edadd46debd5cd992f6ed610378565b61130e816020850152565b6113a461131b60026102e5565b916113457f090689d0585ff075ec9e99ad690c3395bc4b313370b38ef355acdadcd122975b610378565b9461134e868552565b61138661137a7f12c85ea5db8c6deb4aab71808dcb408fe3d1e7690c43d37b4ce6cc0166fa7daa610378565b94611283866020830152565b604089015261139d61139860026102e5565b978852565b6020870152565b61098061128e60026102e5565b606082015260806113ca6113c56009610378565b610bbc565b910190815261087e7f2311215d34d84c0bd07eb74a767c69f03b1d97c92a6ef3390647721fe445d5899161143a6114337f20acdfa51f1382fdb8450bac27640c111b751f6e35f1ba6a34bd8dac8e3f362f6111b161142f6114296102b8565b97610378565b8752565b6020850152565b61145e815160009461145461144e87610378565b8361044b565b5261087e85610378565b506114df7f2cee5bab1d72cde928c6c75624dc16ddbe2dbd719f3b70095d698b22dbcc4ccf6114be6109807f06e891e0877a79cbf32471e75fe2b57c0efec36135ab78967801d8b630f4a0066111b16114b86111a76102b8565b89860152565b61087e8351916001906114d96114d383610378565b8561044b565b52610378565b5061154e7f1b0e4bedef2d13953dc337c19397df536ee4b8e32877d235fbee5e46df8e28906115396109807f04a4fa0beb6d947cf50e48558daded885f7646977b4b1a8c33b3efb0a3bea8736111b16114b86111a76102b8565b61087e8351916002906114d96114d383610378565b506115bd7f241fb156e4d11abecea9cf77c2ae1c93b557e6d51fdff459a3f09e22e12cacb96115a86109807f0420e18af65c4098bc9135a5b87c305ffdb7ee196520e8c9350c557711576f0d6111b16114b86111a76102b8565b61087e8351916003906114d96114d383610378565b5061162c7f24b87ebe873eab5caaa0c8f970ab5fcf1f3a5b0d045920b475a9853e4a759ae86116176109807f16eb181ef4a13a0c754a58ecfa3e69a11010a01548f14572e54febdb2d9dbdd46111b16114b86111a76102b8565b61087e8351916004906114d96114d383610378565b5061169b7f10d2b9fd57a080498fe4d373ce456aada138c87bbe4cf7a49b94745063b189916116866109807f09c9e64ee532d0fc191f30f665f67a90dd9ac2f5fe319d33a3158acb3806525f6111b16114b86111a76102b8565b61087e8351916005906114d96114d383610378565b5061170a7f305275a70d154c364bca9c5113311e79db229974de7f777475a4e0f202021aaf6116f56109807f02ed2ab99fc93761006d6241483daf6ba42d368d7adc04d345b9e929de1f2bdc6111b16114b86111a76102b8565b61087e8351916006906114d96114d383610378565b506117797f242ae1e9f4486ba27cd3c5156f4d6e78aeefff1afb25486b4007b4256d17dc896117646109807f15c6dd35f284512a052ffd98de10682d54cafff931a44e3cbbb15bf1693a00676111b16114b86111a76102b8565b61087e8351916007906114d96114d383610378565b51506117df6114337f273b477346c746570d014e8fcbf9ba7bd15f7c46393faa3de5970c2e6255704a946111b17f1440ea68ae1a18c94a9424607cdeecf5e5f4859d584a712204ca921477438f5a916117d96117d36102b8565b98610378565b90880152565b51916008906114d96114d383610378565b5056fea264697066735822122018db1c17e92a7783fec60c6dc7156f57908ad7bb219a13a9b4a73de968c0571d64736f6c63430008100033",
  "linkReferences": {},
  "deployedLinkReferences": {}
}