{
  "_format": "hh-sol-artifact-1",
  "contractName": "UpdateStateVerifier",
  "sourceName": "contracts/UpdateStateVerifier.sol",
  "abi": [
    {
      "inputs": [
        {
          "internalType": "uint256[2]",
          "name": "a",
          "type": "uint256[2]"
        },
        {
          "internalType": "uint256[2][2]",
          "name": "b",
          "type": "uint256[2][2]"
        },
        {
          "internalType": "uint256[2]",
          "name": "c",
          "type": "uint256[2]"
        },
        {
          "internalType": "uint256[8]",
          "name": "input",
          "type": "uint256[8]"
        }
      ],
      "name": "verifyProof",
      "outputs": [
        {
          "internalType": "bool",
          "name": "r",
          "type": "bool"
        }
      ],
      "stateMutability": "view",
      "type": "function"
    }
  ],
  "bytecode": "0x608060405234801561001057600080fd5b5061142e806100206000396000f3fe608060405234801561001057600080fd5b506004361061002b5760003560e01c8063c9219a7a14610030575b600080fd5b61004361003e36600461126e565b610057565b604051901515815260200160405180910390f35b6000610061611081565b60408051808201825287518152602080890151818301529083528151608081018352875151818401908152885183015160608301528152825180840184528883018051518252518301518184015281830152838201528151808301835286518152868201518183015283830152815160088082526101208201909352600092909182016101008036833701905050905060005b60088110156101435784816008811061010f5761010f61134c565b60200201518282815181106101265761012661134c565b60209081029190910101528061013b81611378565b9150506100f4565b5061014e818361016f565b60000361016057600192505050610167565b6000925050505b949350505050565b60007f30644e72e131a029b85045b68181585d2833e84879b9709143e1f593f00000018161019b610366565b9050806080015151855160016101b19190611391565b146101f85760405162461bcd60e51b81526020600482015260126024820152711d995c9a599a595c8b5898590b5a5b9c1d5d60721b60448201526064015b60405180910390fd5b604080518082019091526000808252602082018190525b86518110156102e9578387828151811061022b5761022b61134c565b6020026020010151106102805760405162461bcd60e51b815260206004820152601f60248201527f76657269666965722d6774652d736e61726b2d7363616c61722d6669656c640060448201526064016101ef565b6102d5826102d085608001518460016102999190611391565b815181106102a9576102a961134c565b60200260200101518a85815181106102c3576102c361134c565b60200260200101516109d0565b610a66565b9150806102e181611378565b91505061020f565b506103128183608001516000815181106103055761030561134c565b6020026020010151610a66565b90506103486103248660000151610aff565b8660200151846000015185602001518587604001518b604001518960600151610b9e565b6103585760019350505050610360565b600093505050505b92915050565b61036e6110d2565b6040805180820182527f2d4d9aa7e302d9df41749d5507949d05dbea33fbb16c643b22f599a2be6df2e281527f14bedd503c37ceb061d8ec60209fe345ce89830a19230301f076caff004d19266020808301919091529083528151608080820184527f0967032fcbf776d1afc985f88877f182d38480a653f2decaa9794cbc3bf3060c8285019081527f0e187847ad4c798374d0d6732bf501847dd68bc0e071241e0213bc7fc13db7ab606080850191909152908352845180860186527f304cfbd1e08a704a99f5e847d93f8c3caafddec46b7a0d379da69a4d112346a781527f1739c1b1a457a8c7313123d24d2f9192f896b7c63eea05a9d57f06547ad0cec8818601528385015285840192909252835180820185527f198e9393920d483a7260bfb731fb5d25f1aa493335a9e71297e485b7aef312c28186018181527f1800deef121f1e76426a00665e5c4479674322d4f75edadd46debd5cd992f6ed838601819052908352865180880188527f090689d0585ff075ec9e99ad690c3395bc4b313370b38ef355acdadcd122975b8082527f12c85ea5db8c6deb4aab71808dcb408fe3d1e7690c43d37b4ce6cc0166fa7daa8289018190528589019290925289890194909452875194850188528488019283528486019190915290835285518087018752918252818501528184015290840152815160098082526101408201909352919082015b604080518082019091526000808252602082015281526020019060019003908161057757505060808201908152604080518082019091527f24f9352caefd6a1f2b998529e9df9e08562153f96ed29b7334822d903f139e1a81527f0f5cb0aa5075e606587c5acefff547a494dd40f287be8726ff17bb10ed9cb42c60208201529051805160009061060a5761060a61134c565b602002602001018190525060405180604001604052807f201d0672eece8d60cb116acd002cd6583ba9c281cfbaf041102dcd6383f8040781526020017f14e0584a22580556dcf8646a7b10475bef9e52c91318d5b59ea69661fc0a2efb81525081608001516001815181106106815761068161134c565b602002602001018190525060405180604001604052807f0de9f79ce32b1820abf398813c7526d538cdc9f2471fab6eebf6cd61146d9b9981526020017f1940bf6a879826fa36fb7ca505a533405e4c90e2add7a788265ea71968f585cd81525081608001516002815181106106f8576106f861134c565b602002602001018190525060405180604001604052807f16df29fde461864321931790780df102c42fc8a149e6a18ce074fa74f0126f9081526020017f0ca1af3c89b1c2b51b0a6f95ea9479b1213a9ffecd14249a796fe019486c842c815250816080015160038151811061076f5761076f61134c565b602002602001018190525060405180604001604052807f08d7334f1a17b15c6a87c8431659f27729294806b25f6a1a06c8262dc6bc6a6381526020017f15a9410a6d3e7b53e0f4a55a732d4a5f1a8d99f8252581c1be85c95277160a1481525081608001516004815181106107e6576107e661134c565b602002602001018190525060405180604001604052807f0f9a7226c280228340c98c37ee29b46f10e28ff3dfb82cef9f29f6ee903684c781526020017f2da646717517194bfaf8166b701517bee19202f07f2a3b07a2001fc3c7d45ac0815250816080015160058151811061085d5761085d61134c565b602002602001018190525060405180604001604052807f2ee38f47a1c3dd9103bb60de6a594041c99d9171f25c8809380d80244daaf6d581526020017f25f4aa914e2f2b97f2018f5178af54101a62fa06206c0a907d5c3f332d047f6681525081608001516006815181106108d4576108d461134c565b602002602001018190525060405180604001604052807f25edca551af251960db332b440ab0f4ba03a4d06e2bb9262a011ba529881b86181526020017f276a02807034aed59279a5d2ba47ba92dd6302b122c45e7608703801bef2baa3815250816080015160078151811061094b5761094b61134c565b602002602001018190525060405180604001604052807f1a17b27499b155d5ceffe608b03a1c2324580013972abbcbf0e7a0a37f53085081526020017f2d5a7d5afe8fbb2f1273b4f3e9073a71f94dc3dbcadadff8f46d15af72ff819381525081608001516008815181106109c2576109c261134c565b602002602001018190525090565b60408051808201909152600080825260208201526109ec611123565b835181526020808501519082015260408101839052600060608360808460076107d05a03fa90508080610a1b57fe5b5080610a5e5760405162461bcd60e51b81526020600482015260126024820152711c185a5c9a5b99cb5b5d5b0b59985a5b195960721b60448201526064016101ef565b505092915050565b6040805180820190915260008082526020820152610a82611141565b8351815260208085015181830152835160408301528301516060808301919091526000908360c08460066107d05a03fa90508080610abc57fe5b5080610a5e5760405162461bcd60e51b81526020600482015260126024820152711c185a5c9a5b99cb5859190b59985a5b195960721b60448201526064016101ef565b604080518082019091526000808252602082015281517f30644e72e131a029b85045b68181585d97816a916871ca8d3c208c16d87cfd4790158015610b4657506020830151155b15610b665750506040805180820190915260008082526020820152919050565b604051806040016040528084600001518152602001828560200151610b8b91906113a4565b610b9590846113c6565b90529392505050565b60408051600480825260a08201909252600091829190816020015b6040805180820190915260008082526020820152815260200190600190039081610bb957505060408051600480825260a0820190925291925060009190602082015b610c0361115f565b815260200190600190039081610bfb5790505090508a82600081518110610c2c57610c2c61134c565b60200260200101819052508882600181518110610c4b57610c4b61134c565b60200260200101819052508682600281518110610c6a57610c6a61134c565b60200260200101819052508482600381518110610c8957610c8961134c565b60200260200101819052508981600081518110610ca857610ca861134c565b60200260200101819052508781600181518110610cc757610cc761134c565b60200260200101819052508581600281518110610ce657610ce661134c565b60200260200101819052508381600381518110610d0557610d0561134c565b6020026020010181905250610d1a8282610d29565b9b9a5050505050505050505050565b60008151835114610d755760405162461bcd60e51b81526020600482015260166024820152751c185a5c9a5b99cb5b195b99dd1a1ccb59985a5b195960521b60448201526064016101ef565b82516000610d848260066113d9565b905060008167ffffffffffffffff811115610da157610da16111bb565b604051908082528060200260200182016040528015610dca578160200160208202803683370190505b50905060005b8381101561100557868181518110610dea57610dea61134c565b60200260200101516000015182826006610e0491906113d9565b610e0f906000611391565b81518110610e1f57610e1f61134c565b602002602001018181525050868181518110610e3d57610e3d61134c565b60200260200101516020015182826006610e5791906113d9565b610e62906001611391565b81518110610e7257610e7261134c565b602002602001018181525050858181518110610e9057610e9061134c565b6020908102919091010151515182610ea98360066113d9565b610eb4906002611391565b81518110610ec457610ec461134c565b602002602001018181525050858181518110610ee257610ee261134c565b60209081029190910181015151015182610efd8360066113d9565b610f08906003611391565b81518110610f1857610f1861134c565b602002602001018181525050858181518110610f3657610f3661134c565b602002602001015160200151600060028110610f5457610f5461134c565b602002015182610f658360066113d9565b610f70906004611391565b81518110610f8057610f8061134c565b602002602001018181525050858181518110610f9e57610f9e61134c565b602002602001015160200151600160028110610fbc57610fbc61134c565b602002015182610fcd8360066113d9565b610fd8906005611391565b81518110610fe857610fe861134c565b602090810291909101015280610ffd81611378565b915050610dd0565b5061100e61117f565b6000602082602086026020860160086107d05a03fa9050808061102d57fe5b50806110735760405162461bcd60e51b81526020600482015260156024820152741c185a5c9a5b99cb5bdc18dbd9194b59985a5b1959605a1b60448201526064016101ef565b505115159695505050505050565b6040805160a0810190915260006060820181815260808301919091528152602081016110ab61115f565b81526020016110cd604051806040016040528060008152602001600081525090565b905290565b6040805160e08101909152600060a0820181815260c08301919091528152602081016110fc61115f565b815260200161110961115f565b815260200161111661115f565b8152602001606081525090565b60405180606001604052806003906020820280368337509192915050565b60405180608001604052806004906020820280368337509192915050565b604051806040016040528061117261119d565b81526020016110cd61119d565b60405180602001604052806001906020820280368337509192915050565b60405180604001604052806002906020820280368337509192915050565b634e487b7160e01b600052604160045260246000fd5b6040805190810167ffffffffffffffff811182821017156111f4576111f46111bb565b60405290565b604051610100810167ffffffffffffffff811182821017156111f4576111f46111bb565b600082601f83011261122f57600080fd5b6112376111d1565b80604084018581111561124957600080fd5b845b8181101561126357803584526020938401930161124b565b509095945050505050565b60008060008061020080868803121561128657600080fd5b611290878761121e565b9450604087605f8801126112a357600080fd5b6112ab6111d1565b8060c089018a8111156112bd57600080fd5b838a015b818110156112e2576112d38c8261121e565b845260209093019284016112c1565b508197506112f08b8261121e565b9650505050508661011f87011261130657600080fd5b61130e6111fa565b90860190808883111561132057600080fd5b61010088015b8381101561133e578035835260209283019201611326565b509598949750929550505050565b634e487b7160e01b600052603260045260246000fd5b634e487b7160e01b600052601160045260246000fd5b60006001820161138a5761138a611362565b5060010190565b8082018082111561036057610360611362565b6000826113c157634e487b7160e01b600052601260045260246000fd5b500690565b8181038181111561036057610360611362565b60008160001904831182151516156113f3576113f3611362565b50029056fea2646970667358221220f6e8c3df5cde89111bfa7dc87ff609c2deb5c88ad5b1ad992b42ff25e18307ef64736f6c63430008100033",
  "linkReferences": {},
  "deployedLinkReferences": {}
}