{
  "_format": "hh-sol-artifact-1",
  "contractName": "UpdateStateVerifier",
  "sourceName": "contracts/UpdateStateVerifier.sol",
  "abi": [
    {
      "inputs": [
        {
          "internalType": "uint256[2]",
          "name": "a",
          "type": "uint256[2]"
        },
        {
          "internalType": "uint256[2][2]",
          "name": "b",
          "type": "uint256[2][2]"
        },
        {
          "internalType": "uint256[2]",
          "name": "c",
          "type": "uint256[2]"
        },
        {
          "internalType": "uint256[24]",
          "name": "input",
          "type": "uint256[24]"
        }
      ],
      "name": "verifyProof",
      "outputs": [
        {
          "internalType": "bool",
          "name": "r",
          "type": "bool"
        }
      ],
      "stateMutability": "view",
      "type": "function"
    }
  ],
  "bytecode": "0x608060405234801561001057600080fd5b50611b9e806100206000396000f3fe608060405234801561001057600080fd5b506004361061002b5760003560e01c80634d01c5a014610030575b600080fd5b61004361003e3660046119de565b610057565b604051901515815260200160405180910390f35b60006100616117f1565b60408051808201825287518152602080890151818301529083528151608081018352875151818401908152885183015160608301528152825180840184528883018051518252518301518184015281830152838201528151808301835286518152868201518183015283830152815160188082526103208201909352600092909182016103008036833701905050905060005b60188110156101435784816018811061010f5761010f611abc565b602002015182828151811061012657610126611abc565b60209081029190910101528061013b81611ae8565b9150506100f4565b5061014e818361016f565b60000361016057600192505050610167565b6000925050505b949350505050565b60007f30644e72e131a029b85045b68181585d2833e84879b9709143e1f593f00000018161019b610366565b9050806080015151855160016101b19190611b01565b146101f85760405162461bcd60e51b81526020600482015260126024820152711d995c9a599a595c8b5898590b5a5b9c1d5d60721b60448201526064015b60405180910390fd5b604080518082019091526000808252602082018190525b86518110156102e9578387828151811061022b5761022b611abc565b6020026020010151106102805760405162461bcd60e51b815260206004820152601f60248201527f76657269666965722d6774652d736e61726b2d7363616c61722d6669656c640060448201526064016101ef565b6102d5826102d085608001518460016102999190611b01565b815181106102a9576102a9611abc565b60200260200101518a85815181106102c3576102c3611abc565b6020026020010151611140565b6111d6565b9150806102e181611ae8565b91505061020f565b5061031281836080015160008151811061030557610305611abc565b60200260200101516111d6565b9050610348610324866000015161126f565b8660200151846000015185602001518587604001518b60400151896060015161130e565b6103585760019350505050610360565b600093505050505b92915050565b61036e611842565b6040805180820182527f2d4d9aa7e302d9df41749d5507949d05dbea33fbb16c643b22f599a2be6df2e281527f14bedd503c37ceb061d8ec60209fe345ce89830a19230301f076caff004d19266020808301919091529083528151608080820184527f0967032fcbf776d1afc985f88877f182d38480a653f2decaa9794cbc3bf3060c8285019081527f0e187847ad4c798374d0d6732bf501847dd68bc0e071241e0213bc7fc13db7ab606080850191909152908352845180860186527f304cfbd1e08a704a99f5e847d93f8c3caafddec46b7a0d379da69a4d112346a781527f1739c1b1a457a8c7313123d24d2f9192f896b7c63eea05a9d57f06547ad0cec8818601528385015285840192909252835180820185527f198e9393920d483a7260bfb731fb5d25f1aa493335a9e71297e485b7aef312c28186018181527f1800deef121f1e76426a00665e5c4479674322d4f75edadd46debd5cd992f6ed838601819052908352865180880188527f090689d0585ff075ec9e99ad690c3395bc4b313370b38ef355acdadcd122975b8082527f12c85ea5db8c6deb4aab71808dcb408fe3d1e7690c43d37b4ce6cc0166fa7daa8289018190528589019290925289890194909452875194850188528488019283528486019190915290835285518087018752918252818501528184015290840152815160198082526103408201909352919082015b604080518082019091526000808252602082015281526020019060019003908161057757505060808201908152604080518082019091527f2d0ff6401de334c6fb2a8a2d45cf5d4f49d46a8617aa26cec6c9cf4a127fc5fe81527f17d46f8492447076636522feb6827e9cbc9cfaa80fde84dafb52645553c4953860208201529051805160009061060a5761060a611abc565b602002602001018190525060405180604001604052807f12693227d5b449029d6cb0788231a4d284e35d5cde057116a1b0a8ac3945779081526020017f060bf524b85f30174cc502f456268dd7dc9783fa030d08e50f358975898721b9815250816080015160018151811061068157610681611abc565b602002602001018190525060405180604001604052807f0d7f810408f18e7add5b19e17c98d6bf074e40585e2f3ed1d9d91476b50c0f2b81526020017f2abee5ec1538391d35588ba7998fd8347d3670cd22391639f3fe28c552d6269281525081608001516002815181106106f8576106f8611abc565b602002602001018190525060405180604001604052807f0ffa3008bcaa42bc4c2719d2a7cda0286cd93bbc6d2a90fa96405d329427e67e81526020017f21a95855c5f25062cb1dcbebdee85a53180f81341910e4d45e2a2aa211b22688815250816080015160038151811061076f5761076f611abc565b602002602001018190525060405180604001604052807f1493478095f20c5c60ba1a724def437a0b6cd0a910db7c2e51182785539ecd6381526020017f2443dfb9215f12fbc378b91a2e59bb5725a373e347c2b8d698760cbfc78eb97181525081608001516004815181106107e6576107e6611abc565b602002602001018190525060405180604001604052807f06c386979535dfff14eadb485cc02d8ea6e713ef3952882be3eba7e839f1c4bd81526020017f1b8ccfaad9759e59dc3423acb6920b1ffc4b528cf00f600bb0be92940dab38ab815250816080015160058151811061085d5761085d611abc565b602002602001018190525060405180604001604052807f1e683c0127669216c823b6fc6a5c0e9dacabef6199ef80361466e05658e19c1a81526020017f3055b0092701fb6ac0c97d369e2a76f368522554e3003d322a702a24f98ec1e081525081608001516006815181106108d4576108d4611abc565b602002602001018190525060405180604001604052807f1e6216afb9d6bcea31c1dafd97776c4dcbdd07c4b7978971bcfaada40069609281526020017f13c4031829885511b951d5e1d56b0cc268eccdc762cf5e939c77981978522ac1815250816080015160078151811061094b5761094b611abc565b602002602001018190525060405180604001604052807f0eac871dd22312379b273cd7c863ed242abc53c3cd2ee3e0f5ab56f97257394c81526020017f119db23da0614b5479552dc7628961c55217fc32dda654e206865595771dcefa81525081608001516008815181106109c2576109c2611abc565b602002602001018190525060405180604001604052807f1f4c17f19a0f92ac43fad9b4742d97f72b8143e9094f14bc43f33b10af51066f81526020017f10640472ed2a969e792d08e3fd9b19d7be49fec7a55aa553055a3fbb0c4723668152508160800151600981518110610a3957610a39611abc565b602002602001018190525060405180604001604052807f0981dd4a5c95df6e77e4b90123dae129f47c7b164bb78b157b4d3a713fec018181526020017f0bf41a381c2269768474d999985b4402772cb8232eb4733aecfdb024b0c8eac08152508160800151600a81518110610ab057610ab0611abc565b602002602001018190525060405180604001604052807f22b91630641c588500a830a1b9ce63f0e333c0d9e0bd343871277c7b83a83a6a81526020017f293fc840a0b29b0d3bbb21f2982609b0ced980e2ede1e3e8a27d4769263a15898152508160800151600b81518110610b2757610b27611abc565b602002602001018190525060405180604001604052807f1c905d48b5772d6ac05eb8fc8e44deb4e203e36355acf621e2ed70b6f4f5a3fc81526020017f27981191aac05ca04dca139f2a76e385502ff9817e6bd51c041075d15d46798f8152508160800151600c81518110610b9e57610b9e611abc565b602002602001018190525060405180604001604052807f1c95c010b735812e079aa08b60d57b3d454364280752bf0da8672e27fab62f1881526020017f1fc50328cb1536848ec980d40f25248673da012f1d0dd4e68da2a6305c64fcff8152508160800151600d81518110610c1557610c15611abc565b602002602001018190525060405180604001604052807f0634c7efefad0f8be7968f3285684f9eec6bbe191ef83bd74f0fdb87ca5660c081526020017f1432ca07d064d74a78c8609707ab82ff9de6c5cc017a974bfdea1441271ee69d8152508160800151600e81518110610c8c57610c8c611abc565b602002602001018190525060405180604001604052807f2b3d8d81f63d0ca76bdfa81f5422c058ee584286fecdae01d27dd2cfc8a83e2c81526020017f27f415e4f2d184c515ae39c3d51840828edd1d1993188fc1ae51e703c65fbc868152508160800151600f81518110610d0357610d03611abc565b602002602001018190525060405180604001604052807f0ba74147e81555ba4ae494d0f19d4862cc1a045c6821ac3b94f2060b5549d63f81526020017f1073eb551d762cb7dac9f3c1a7b5b29045cea25508d1d248972f4bc7afdf68958152508160800151601081518110610d7a57610d7a611abc565b602002602001018190525060405180604001604052807f2dd9c3f6e8976b4ffa8163eabec77e9894d01a99156727cf7ba0d8ced004469d81526020017f1c2851364b7108c261893fee0d8b43d0e696eb154ce335518d2bc92d251f84ba8152508160800151601181518110610df157610df1611abc565b602002602001018190525060405180604001604052807f13457545614b95bddebe115aa7660cb88828e522225de1ccbf39ed0ee8a2c08781526020017f09a1aee3b13f7dbd92d958e717683d090e9d9aa66165ef38e3721a7aeca086548152508160800151601281518110610e6857610e68611abc565b602002602001018190525060405180604001604052807f23fddba09d77d3d7c17c845a69401f80a88639f5756e6a8fcb12f646ca73db4d81526020017f18d14aac51ba2ded0b5414f30b3bd673b93822c9e34dab3c71d6e247d1c1f3528152508160800151601381518110610edf57610edf611abc565b602002602001018190525060405180604001604052807f0fb0be0d70bcc08cdaa452e0a274dedc2bef1606de7fc3789da5bcc5ecebb7f281526020017f2131c3f5da1447cf72897eb36bae9e78249f355120b60074cf1c372c92e8596e8152508160800151601481518110610f5657610f56611abc565b602002602001018190525060405180604001604052807f0edc4caaa5d62a8b8b9a239ac87cbf4a8a9552310b0a4eea3566155edc37281d81526020017f07e4ee0a11a0ef5507c37c6f94d618feebe041037c03e0d2ceea793d8aab8e978152508160800151601581518110610fcd57610fcd611abc565b602002602001018190525060405180604001604052807f1a5305dbfc204af36d940d13bea4e2e138895247143b5aadd86a54c19b603ec681526020017f2ea522517e8fc07e9949561100882fd67a16293639e5f378e2071af416855d1a815250816080015160168151811061104457611044611abc565b602002602001018190525060405180604001604052807f1cf7be84ee5238c04dcbae334fc7627752ccc6cda3d174b0641f8255c9052df081526020017f2db9227f9bc9ed4824c45631baef034919826064dba78769322c4748ad250c2081525081608001516017815181106110bb576110bb611abc565b602002602001018190525060405180604001604052807f29bf68be6a8796b6f54f88b5f9e2c58b69e13956bfc5031562c3ca55f8591be581526020017f050cdff7891c6de75b5e3d8d6484d64fbf674be7419eb93116c9705feb6be38f815250816080015160188151811061113257611132611abc565b602002602001018190525090565b604080518082019091526000808252602082015261115c611893565b835181526020808501519082015260408101839052600060608360808460076107d05a03fa9050808061118b57fe5b50806111ce5760405162461bcd60e51b81526020600482015260126024820152711c185a5c9a5b99cb5b5d5b0b59985a5b195960721b60448201526064016101ef565b505092915050565b60408051808201909152600080825260208201526111f26118b1565b8351815260208085015181830152835160408301528301516060808301919091526000908360c08460066107d05a03fa9050808061122c57fe5b50806111ce5760405162461bcd60e51b81526020600482015260126024820152711c185a5c9a5b99cb5859190b59985a5b195960721b60448201526064016101ef565b604080518082019091526000808252602082015281517f30644e72e131a029b85045b68181585d97816a916871ca8d3c208c16d87cfd47901580156112b657506020830151155b156112d65750506040805180820190915260008082526020820152919050565b6040518060400160405280846000015181526020018285602001516112fb9190611b14565b6113059084611b36565b90529392505050565b60408051600480825260a08201909252600091829190816020015b604080518082019091526000808252602082015281526020019060019003908161132957505060408051600480825260a0820190925291925060009190602082015b6113736118cf565b81526020019060019003908161136b5790505090508a8260008151811061139c5761139c611abc565b602002602001018190525088826001815181106113bb576113bb611abc565b602002602001018190525086826002815181106113da576113da611abc565b602002602001018190525084826003815181106113f9576113f9611abc565b6020026020010181905250898160008151811061141857611418611abc565b6020026020010181905250878160018151811061143757611437611abc565b6020026020010181905250858160028151811061145657611456611abc565b6020026020010181905250838160038151811061147557611475611abc565b602002602001018190525061148a8282611499565b9b9a5050505050505050505050565b600081518351146114e55760405162461bcd60e51b81526020600482015260166024820152751c185a5c9a5b99cb5b195b99dd1a1ccb59985a5b195960521b60448201526064016101ef565b825160006114f4826006611b49565b905060008167ffffffffffffffff8111156115115761151161192b565b60405190808252806020026020018201604052801561153a578160200160208202803683370190505b50905060005b838110156117755786818151811061155a5761155a611abc565b602002602001015160000151828260066115749190611b49565b61157f906000611b01565b8151811061158f5761158f611abc565b6020026020010181815250508681815181106115ad576115ad611abc565b602002602001015160200151828260066115c79190611b49565b6115d2906001611b01565b815181106115e2576115e2611abc565b60200260200101818152505085818151811061160057611600611abc565b6020908102919091010151515182611619836006611b49565b611624906002611b01565b8151811061163457611634611abc565b60200260200101818152505085818151811061165257611652611abc565b6020908102919091018101515101518261166d836006611b49565b611678906003611b01565b8151811061168857611688611abc565b6020026020010181815250508581815181106116a6576116a6611abc565b6020026020010151602001516000600281106116c4576116c4611abc565b6020020151826116d5836006611b49565b6116e0906004611b01565b815181106116f0576116f0611abc565b60200260200101818152505085818151811061170e5761170e611abc565b60200260200101516020015160016002811061172c5761172c611abc565b60200201518261173d836006611b49565b611748906005611b01565b8151811061175857611758611abc565b60209081029190910101528061176d81611ae8565b915050611540565b5061177e6118ef565b6000602082602086026020860160086107d05a03fa9050808061179d57fe5b50806117e35760405162461bcd60e51b81526020600482015260156024820152741c185a5c9a5b99cb5bdc18dbd9194b59985a5b1959605a1b60448201526064016101ef565b505115159695505050505050565b6040805160a08101909152600060608201818152608083019190915281526020810161181b6118cf565b815260200161183d604051806040016040528060008152602001600081525090565b905290565b6040805160e08101909152600060a0820181815260c083019190915281526020810161186c6118cf565b81526020016118796118cf565b81526020016118866118cf565b8152602001606081525090565b60405180606001604052806003906020820280368337509192915050565b60405180608001604052806004906020820280368337509192915050565b60405180604001604052806118e261190d565b815260200161183d61190d565b60405180602001604052806001906020820280368337509192915050565b60405180604001604052806002906020820280368337509192915050565b634e487b7160e01b600052604160045260246000fd5b6040805190810167ffffffffffffffff811182821017156119645761196461192b565b60405290565b604051610300810167ffffffffffffffff811182821017156119645761196461192b565b600082601f83011261199f57600080fd5b6119a7611941565b8060408401858111156119b957600080fd5b845b818110156119d35780358452602093840193016119bb565b509095945050505050565b6000806000806104008086880312156119f657600080fd5b611a00878761198e565b9450604087605f880112611a1357600080fd5b611a1b611941565b8060c089018a811115611a2d57600080fd5b838a015b81811015611a5257611a438c8261198e565b84526020909301928401611a31565b50819750611a608b8261198e565b9650505050508661011f870112611a7657600080fd5b611a7e61196a565b908601908088831115611a9057600080fd5b61010088015b83811015611aae578035835260209283019201611a96565b509598949750929550505050565b634e487b7160e01b600052603260045260246000fd5b634e487b7160e01b600052601160045260246000fd5b600060018201611afa57611afa611ad2565b5060010190565b8082018082111561036057610360611ad2565b600082611b3157634e487b7160e01b600052601260045260246000fd5b500690565b8181038181111561036057610360611ad2565b6000816000190483118215151615611b6357611b63611ad2565b50029056fea264697066735822122087611e4ab61c3d938bc386ad3e3c90bd4ae21a9e9e01548ce6f62135285db3ba64736f6c63430008100033",
  "linkReferences": {},
  "deployedLinkReferences": {}
}