{
  "_format": "hh-sol-artifact-1",
  "contractName": "UpdateStateVerifier",
  "sourceName": "contracts/UpdateStateVerifier.sol",
  "abi": [
    {
      "inputs": [
        {
          "internalType": "uint256[2]",
          "name": "a",
          "type": "uint256[2]"
        },
        {
          "internalType": "uint256[2][2]",
          "name": "b",
          "type": "uint256[2][2]"
        },
        {
          "internalType": "uint256[2]",
          "name": "c",
          "type": "uint256[2]"
        },
        {
          "internalType": "uint256[24]",
          "name": "input",
          "type": "uint256[24]"
        }
      ],
      "name": "verifyProof",
      "outputs": [
        {
          "internalType": "bool",
          "name": "r",
          "type": "bool"
        }
      ],
      "stateMutability": "view",
      "type": "function"
    }
  ],
  "bytecode": "0x608060405234801561001057600080fd5b50611b9d806100206000396000f3fe608060405234801561001057600080fd5b506004361061002b5760003560e01c80634d01c5a014610030575b600080fd5b61004361003e3660046119dd565b610057565b604051901515815260200160405180910390f35b60006100616117f0565b60408051808201825287518152602080890151818301529083528151608081018352875151818401908152885183015160608301528152825180840184528883018051518252518301518184015281830152838201528151808301835286518152868201518183015283830152815160188082526103208201909352600092909182016103008036833701905050905060005b60188110156101435784816018811061010f5761010f611abb565b602002015182828151811061012657610126611abb565b60209081029190910101528061013b81611ae7565b9150506100f4565b5061014e818361016f565b60000361016057600192505050610167565b6000925050505b949350505050565b60007f30644e72e131a029b85045b68181585d2833e84879b9709143e1f593f00000018161019b610366565b9050806080015151855160016101b19190611b00565b146101f85760405162461bcd60e51b81526020600482015260126024820152711d995c9a599a595c8b5898590b5a5b9c1d5d60721b60448201526064015b60405180910390fd5b604080518082019091526000808252602082018190525b86518110156102e9578387828151811061022b5761022b611abb565b6020026020010151106102805760405162461bcd60e51b815260206004820152601f60248201527f76657269666965722d6774652d736e61726b2d7363616c61722d6669656c640060448201526064016101ef565b6102d5826102d085608001518460016102999190611b00565b815181106102a9576102a9611abb565b60200260200101518a85815181106102c3576102c3611abb565b602002602001015161113f565b6111d5565b9150806102e181611ae7565b91505061020f565b5061031281836080015160008151811061030557610305611abb565b60200260200101516111d5565b9050610348610324866000015161126e565b8660200151846000015185602001518587604001518b60400151896060015161130d565b6103585760019350505050610360565b600093505050505b92915050565b61036e611841565b6040805180820182527f2d4d9aa7e302d9df41749d5507949d05dbea33fbb16c643b22f599a2be6df2e281527f14bedd503c37ceb061d8ec60209fe345ce89830a19230301f076caff004d19266020808301919091529083528151608080820184527f0967032fcbf776d1afc985f88877f182d38480a653f2decaa9794cbc3bf3060c8285019081527f0e187847ad4c798374d0d6732bf501847dd68bc0e071241e0213bc7fc13db7ab606080850191909152908352845180860186527f304cfbd1e08a704a99f5e847d93f8c3caafddec46b7a0d379da69a4d112346a781527f1739c1b1a457a8c7313123d24d2f9192f896b7c63eea05a9d57f06547ad0cec8818601528385015285840192909252835180820185527f198e9393920d483a7260bfb731fb5d25f1aa493335a9e71297e485b7aef312c28186018181527f1800deef121f1e76426a00665e5c4479674322d4f75edadd46debd5cd992f6ed838601819052908352865180880188527f090689d0585ff075ec9e99ad690c3395bc4b313370b38ef355acdadcd122975b8082527f12c85ea5db8c6deb4aab71808dcb408fe3d1e7690c43d37b4ce6cc0166fa7daa8289018190528589019290925289890194909452875194850188528488019283528486019190915290835285518087018752918252818501528184015290840152815160198082526103408201909352919082015b604080518082019091526000808252602082015281526020019060019003908161057757505060808201908152604080518082019091527f0cac0e1b63c696e18f3304df391fa96a1422721c0eab3fc09e5ef954123a3d1081527f185137a6d641a06e75d9d898dc753a22f8d32815f9783ea75707d3e657d390d960208201529051805160009061060a5761060a611abb565b602002602001018190525060405180604001604052807eb0d468d13e89cf3f98b841cd2c96ba221e04cfe2914acc5dba55cb97a0759c81526020017f2544a2cb25e0455d418949b99b50b915f0472de0fb50fb21112e5f37b825a2ea815250816080015160018151811061068057610680611abb565b602002602001018190525060405180604001604052807f083a29b13ef07b0aa191b3848d7d9549ddfc750b20427ba69f78198a58a2870481526020017f0519ecbbcf896eaa78613cbe1e034b6e54e3e7c46627641e58b2593e7f50518181525081608001516002815181106106f7576106f7611abb565b602002602001018190525060405180604001604052807f1cd0f0857b4121ef97061f6b093bb83e23f754d8925bde24760d705e284cffda81526020017f209c68eb237bd191b9acf2e705328311a53c0cf72d8822f25260034d2d6353ec815250816080015160038151811061076e5761076e611abb565b602002602001018190525060405180604001604052807f0accb836ad3a59aa8a0af2e413c37cd207ca8ab6735ed25132707a66b08cac7781526020017f1269ae0291d57df88ba57e7f0732d52f051fcd9ef7a95144f1ca56fd293208f981525081608001516004815181106107e5576107e5611abb565b602002602001018190525060405180604001604052807f1ccf46f0c280958068dd51bb680a29de0240c9628f7441a04a519780eee0a95e81526020017f1ef764f5845f2c74d5a9ef3a0693231f9ccb82923cf791c0abbc04bfab5621cb815250816080015160058151811061085c5761085c611abb565b602002602001018190525060405180604001604052807f0a16a98155884f098811006c40e9deab1af7f8918cf03da068fded747ef97dd781526020017f10121db08cf6e1e8bf25e1f1358e9460b0a6dc1a81f2321a55b05d863f23de0e81525081608001516006815181106108d3576108d3611abb565b602002602001018190525060405180604001604052807f0419110199fb6abd7a898a4acd973663e55cf32712b70ef594a1cdad68e98d2e81526020017f2f13e70d38e91ba7255512ba0ed8774ac3580610dcb11c6eace23f30d8df6048815250816080015160078151811061094a5761094a611abb565b602002602001018190525060405180604001604052807f2819321ba9cc9031e61232e2e416b6bc880672e2f2dd691338876fd4eaf1462181526020017f01a54183d2689d5bed6fcd16538ef8aa1c6be02ec69410fd3aaac21ecb574f5481525081608001516008815181106109c1576109c1611abb565b602002602001018190525060405180604001604052807f18b4240088ba27498d9ac3388a4f40555a594b34fb074b6dfceceb349ab05b0281526020017f2122497f2c4ea8a8b62a566cca0f52a76041eb68ecae9b7bfd6c4663331a021d8152508160800151600981518110610a3857610a38611abb565b602002602001018190525060405180604001604052807f0ad3ec91b8ada0d517f3e16776271e7bca6844af49fb743bff083bc4c7dea1c381526020017f2c9ddfefb6b686d228fd1aa1f920596fdb43fb22b718a02b7e06f3f2fca276d58152508160800151600a81518110610aaf57610aaf611abb565b602002602001018190525060405180604001604052807f1c82580cfc1c06add39968cc8c11a2b312cef8050ba94cdb00fac333322e897781526020017f09f721ca357b31c29da0c9ab36d6dff1ee992079f16e5e2d1856370ffed8d3958152508160800151600b81518110610b2657610b26611abb565b602002602001018190525060405180604001604052807f138e9dff5d70c3c5077fcf041827ea8eed754339f7ab9bf4c3a0c10e194e5fd781526020017f21284a79a05b8a15ee83e18ea638a210fa36d4cd6e920fe63b30648a85f192828152508160800151600c81518110610b9d57610b9d611abb565b602002602001018190525060405180604001604052807f20b85b1a6b05a33cb59a62332e5d481745589a0065f06890f42269ac21c8742681526020017f21aa12c492649553aeebe62dcb2ee80052e4d46bdbef3edd788e5a6dc4ed16818152508160800151600d81518110610c1457610c14611abb565b602002602001018190525060405180604001604052807f2d592dbc8f8851105517424d9468b5177cdc0b78788532adfee774e3b0042cfd81526020017f16d60ea85fa7116bf77c43637c0e24fabf1ee8acef983d8ceef15b3ab9eec4f88152508160800151600e81518110610c8b57610c8b611abb565b602002602001018190525060405180604001604052807f2543af25d835ac4e5ab27dd768f24cb758cf712dc8a7d2a14cce6ccc1537877c81526020017f2086dbe287ba6848c957b13bddce295d749ac0895fd188c662fb1f8e57b1c0f18152508160800151600f81518110610d0257610d02611abb565b602002602001018190525060405180604001604052807f149cf52d962617f15b6d8aac5cae2de9b6c0ac6ef61134184941de1a0c7bf0ae81526020017f05d61b476a6779196272682add5f0daa8fbdde49678bf0a5dafb86b9b2cc99548152508160800151601081518110610d7957610d79611abb565b602002602001018190525060405180604001604052807f13fc60f3f6980354d39b5f7c7581cd574db39089b63ec7cc0957d5d2cbd5f29081526020017f2d0f09f0422f8080abb7568389391dcd3595edb814fcdb5c483dde1400eab4eb8152508160800151601181518110610df057610df0611abb565b602002602001018190525060405180604001604052807f1ccb7662d6389537f50aa7f9fdf7b225b97e0b0bd62a90bcdc2653d6321a478081526020017f136ab60a071a79bc35a7e05e74e65ab3b9b6e46dae5aeb7e1f2c4e0efa9c2a9d8152508160800151601281518110610e6757610e67611abb565b602002602001018190525060405180604001604052807f2d2f827f8d89b8f4f8baa6183a5e0eb94c7e446b47c8bea408b0222f7745226e81526020017f2de0f448a2a64b860b3bdac41d14c111b204b8f4b11cd01ecbc4ab856e32bec88152508160800151601381518110610ede57610ede611abb565b602002602001018190525060405180604001604052807f1835794fdedd470586f0a6683451009789a97c60a108aa1f583b003bc6e2942081526020017f1c581916d18b3228c99b7e1e630fb649e465c5d3ec7cb4200bd16f8fd68515cd8152508160800151601481518110610f5557610f55611abb565b602002602001018190525060405180604001604052807f1021cb8c259a26ce6b0dc796d0f0d7d35885be22b4827b1727490420a8d7cdf281526020017f18219c355e550df5ea1378044d045201fe99bd1f421c278f844e476fb85becea8152508160800151601581518110610fcc57610fcc611abb565b602002602001018190525060405180604001604052807f250faeda779ba0454fc4118d53d9ad5bd3c9ddd20db9aef3d5860cb9b5fe935c81526020017f13977e6ce239761a6d1fedbee8b2099971e7b0fb26e7b3d19685130b36524fe7815250816080015160168151811061104357611043611abb565b602002602001018190525060405180604001604052807f197cd43338dab8fbba57bffa5eb35da8fce738dbb959ecbfbddc16226f42122a81526020017f26972e95c693d94073e88f68eb7c3f1e6caa84127c4dd3b595773a0e050f6ec481525081608001516017815181106110ba576110ba611abb565b602002602001018190525060405180604001604052807f106640c5e4d2abb91e55416459746fc5cdf021cce06f0c546188572be773d11f81526020017f26e0cf407c811a19a9fdc1f7d495dc109805eaa1bf22d7af4879bc5c5cf610f7815250816080015160188151811061113157611131611abb565b602002602001018190525090565b604080518082019091526000808252602082015261115b611892565b835181526020808501519082015260408101839052600060608360808460076107d05a03fa9050808061118a57fe5b50806111cd5760405162461bcd60e51b81526020600482015260126024820152711c185a5c9a5b99cb5b5d5b0b59985a5b195960721b60448201526064016101ef565b505092915050565b60408051808201909152600080825260208201526111f16118b0565b8351815260208085015181830152835160408301528301516060808301919091526000908360c08460066107d05a03fa9050808061122b57fe5b50806111cd5760405162461bcd60e51b81526020600482015260126024820152711c185a5c9a5b99cb5859190b59985a5b195960721b60448201526064016101ef565b604080518082019091526000808252602082015281517f30644e72e131a029b85045b68181585d97816a916871ca8d3c208c16d87cfd47901580156112b557506020830151155b156112d55750506040805180820190915260008082526020820152919050565b6040518060400160405280846000015181526020018285602001516112fa9190611b13565b6113049084611b35565b90529392505050565b60408051600480825260a08201909252600091829190816020015b604080518082019091526000808252602082015281526020019060019003908161132857505060408051600480825260a0820190925291925060009190602082015b6113726118ce565b81526020019060019003908161136a5790505090508a8260008151811061139b5761139b611abb565b602002602001018190525088826001815181106113ba576113ba611abb565b602002602001018190525086826002815181106113d9576113d9611abb565b602002602001018190525084826003815181106113f8576113f8611abb565b6020026020010181905250898160008151811061141757611417611abb565b6020026020010181905250878160018151811061143657611436611abb565b6020026020010181905250858160028151811061145557611455611abb565b6020026020010181905250838160038151811061147457611474611abb565b60200260200101819052506114898282611498565b9b9a5050505050505050505050565b600081518351146114e45760405162461bcd60e51b81526020600482015260166024820152751c185a5c9a5b99cb5b195b99dd1a1ccb59985a5b195960521b60448201526064016101ef565b825160006114f3826006611b48565b905060008167ffffffffffffffff8111156115105761151061192a565b604051908082528060200260200182016040528015611539578160200160208202803683370190505b50905060005b838110156117745786818151811061155957611559611abb565b602002602001015160000151828260066115739190611b48565b61157e906000611b00565b8151811061158e5761158e611abb565b6020026020010181815250508681815181106115ac576115ac611abb565b602002602001015160200151828260066115c69190611b48565b6115d1906001611b00565b815181106115e1576115e1611abb565b6020026020010181815250508581815181106115ff576115ff611abb565b6020908102919091010151515182611618836006611b48565b611623906002611b00565b8151811061163357611633611abb565b60200260200101818152505085818151811061165157611651611abb565b6020908102919091018101515101518261166c836006611b48565b611677906003611b00565b8151811061168757611687611abb565b6020026020010181815250508581815181106116a5576116a5611abb565b6020026020010151602001516000600281106116c3576116c3611abb565b6020020151826116d4836006611b48565b6116df906004611b00565b815181106116ef576116ef611abb565b60200260200101818152505085818151811061170d5761170d611abb565b60200260200101516020015160016002811061172b5761172b611abb565b60200201518261173c836006611b48565b611747906005611b00565b8151811061175757611757611abb565b60209081029190910101528061176c81611ae7565b91505061153f565b5061177d6118ee565b6000602082602086026020860160086107d05a03fa9050808061179c57fe5b50806117e25760405162461bcd60e51b81526020600482015260156024820152741c185a5c9a5b99cb5bdc18dbd9194b59985a5b1959605a1b60448201526064016101ef565b505115159695505050505050565b6040805160a08101909152600060608201818152608083019190915281526020810161181a6118ce565b815260200161183c604051806040016040528060008152602001600081525090565b905290565b6040805160e08101909152600060a0820181815260c083019190915281526020810161186b6118ce565b81526020016118786118ce565b81526020016118856118ce565b8152602001606081525090565b60405180606001604052806003906020820280368337509192915050565b60405180608001604052806004906020820280368337509192915050565b60405180604001604052806118e161190c565b815260200161183c61190c565b60405180602001604052806001906020820280368337509192915050565b60405180604001604052806002906020820280368337509192915050565b634e487b7160e01b600052604160045260246000fd5b6040805190810167ffffffffffffffff811182821017156119635761196361192a565b60405290565b604051610300810167ffffffffffffffff811182821017156119635761196361192a565b600082601f83011261199e57600080fd5b6119a6611940565b8060408401858111156119b857600080fd5b845b818110156119d25780358452602093840193016119ba565b509095945050505050565b6000806000806104008086880312156119f557600080fd5b6119ff878761198d565b9450604087605f880112611a1257600080fd5b611a1a611940565b8060c089018a811115611a2c57600080fd5b838a015b81811015611a5157611a428c8261198d565b84526020909301928401611a30565b50819750611a5f8b8261198d565b9650505050508661011f870112611a7557600080fd5b611a7d611969565b908601908088831115611a8f57600080fd5b61010088015b83811015611aad578035835260209283019201611a95565b509598949750929550505050565b634e487b7160e01b600052603260045260246000fd5b634e487b7160e01b600052601160045260246000fd5b600060018201611af957611af9611ad1565b5060010190565b8082018082111561036057610360611ad1565b600082611b3057634e487b7160e01b600052601260045260246000fd5b500690565b8181038181111561036057610360611ad1565b6000816000190483118215151615611b6257611b62611ad1565b50029056fea26469706673582212205b23dff07190369fb16575239229c7cfac04d06783a671535919433e178a4fc764736f6c63430008100033",
  "linkReferences": {},
  "deployedLinkReferences": {}
}