{
  "_format": "hh-sol-artifact-1",
  "contractName": "SMT",
  "sourceName": "contracts/SMT.sol",
  "abi": [
    {
      "inputs": [
        {
          "internalType": "address",
          "name": "_poseidon2InputsContractAddr",
          "type": "address"
        },
        {
          "internalType": "address",
          "name": "_poseidon3InputsContractAddr",
          "type": "address"
        }
      ],
      "stateMutability": "nonpayable",
      "type": "constructor"
    },
    {
      "inputs": [
        {
          "internalType": "uint256[]",
          "name": "siblings",
          "type": "uint256[]"
        },
        {
          "internalType": "uint256",
          "name": "key",
          "type": "uint256"
        },
        {
          "internalType": "uint256",
          "name": "value",
          "type": "uint256"
        },
        {
          "internalType": "uint256",
          "name": "oldKey",
          "type": "uint256"
        },
        {
          "internalType": "uint256",
          "name": "oldValue",
          "type": "uint256"
        },
        {
          "internalType": "bool",
          "name": "isNonExistence",
          "type": "bool"
        },
        {
          "internalType": "bool",
          "name": "isOld",
          "type": "bool"
        },
        {
          "internalType": "uint256",
          "name": "maxLevels",
          "type": "uint256"
        }
      ],
      "name": "smtVerifier",
      "outputs": [
        {
          "internalType": "uint256",
          "name": "",
          "type": "uint256"
        }
      ],
      "stateMutability": "view",
      "type": "function"
    }
  ],
  "bytecode": "0x60806040523462000032575b62000020620000196200010f565b9062000196565b6040516107bb620001c582396107bb90f35b6200003b600080fd5b6200000b565b600080fd5b50634e487b7160e01b600052604160045260246000fd5b90601f01601f191681019081106001600160401b038211176200007f57604052565b6200008962000046565b604052565b90620000a56200009d60405190565b92836200005d565b565b6001600160a01b031690565b90565b6001600160a01b038116036200004157565b90505190620000a582620000b6565b9190620000b39060408482031262000100575b620000f68185620000c8565b93602001620000c8565b62000109600080fd5b620000ea565b62000132620009808038038062000126816200008e565b928339810190620000d7565b9091565b620000b390620000a7906001600160a01b031682565b620000b39062000136565b620000b3906200014c565b9062000176620000b3620001929262000157565b82546001600160a01b0319166001600160a01b03919091161790565b9055565b620000a591620001b6620001ae620001bc9362000157565b600062000162565b62000157565b60016200016256fe60806040526004361015610018575b610016600080fd5b005b60003560e01c6312a365410361000e57610030610217565b61000e565b600080fd5b50634e487b7160e01b600052604160045260246000fd5b90601f01601f1916810190811067ffffffffffffffff82111761007357604052565b61007b61003a565b604052565b9061009461008d60405190565b9283610051565b565b6020809167ffffffffffffffff81116100ae57020190565b6100b661003a565b020190565b805b0361003557565b90503590610094826100bb565b909291926100e66100e182610096565b610080565b9381855260208086019202830192818411610124575b915b83831061010b5750505050565b6020809161011984866100c4565b8152019201916100fe565b61012c600080fd5b6100fc565b9061014d9181601f82011215610150575b6020813591016100d1565b90565b610158600080fd5b610142565b8015156100bd565b905035906100948261015d565b91906101008382031261020a575b61019d81843567ffffffffffffffff81116101fd575b8501610131565b926101ab82602083016100c4565b926101b983604084016100c4565b926101c781606085016100c4565b926101d582608083016100c4565b9261014d6101e68460a08501610165565b936101f48160c08601610165565b9360e0016100c4565b610205600080fd5b610196565b610212600080fd5b610180565b5034610252575b61024e61023e61022f366004610172565b9695909594919493929361034e565b6040519182918290815260200190565b0390f35b61025a600080fd5b61021e565b61014d61014d61014d9290565b61014d9061028161027d61014d9490565b9190565b901c90565b61029361014d61014d9290565b60ff1690565b61014d61014d61014d9260ff1690565b50634e487b7160e01b600052601160045260246000fd5b919082018092116102cd57565b6100946102a9565b919080830392600090911280158285131691841216176102cd57565b600190600160ff1b8114610303570390565b61030b6102a9565b0390565b50634e487b7160e01b600052603260045260246000fd5b9060208091610333845190565b811015610341575b02010190565b61034961030f565b61033b565b9490939592979661035d600090565b9682889581610530575b5061045f575b50506103aa949596975060001461044c57509291925b9350610395610390835190565b61025f565b9060019384926103a48461025f565b906102d5565b935b6103b8575b5050505090565b909192936103c6600061025f565b85126104465761042f83916103da8761025f565b6103fd6103f86103f16103ed848b610326565b5190565b928761026c565b610286565b61040685610286565b1661041a61041386610286565b9160ff1690565b0361043857906104299161062e565b956102f1565b939291906103ac565b6104419161062e565b610429565b936103b1565b610457915082610729565b929192610383565b9496935096949160006104718161025f565b805b61047c8361025f565b811480610527575b156104de57506104d861049a6103f8838e61026c565b916104d26104cc8c6104bc6103f8856001986104b58a610286565b169361026c565b6104c587610286565b1618610299565b9361025f565b906102c0565b90610473565b919294979a939598969950506104f661027d8361025f565b1461051657506103aa94959661050b91610729565b91879695943861036d565b9550505050505061014d915061025f565b508a8210610484565b905038610367565b60209067ffffffffffffffff811161054e570290565b61055661003a565b0290565b6100e161014d91610538565b61014d905b6001600160a01b031690565b61014d9054610566565b61014d9061056b906001600160a01b031682565b61014d90610581565b61014d90610595565b90505190610094826100bb565b9061014d91602081830312156105a7576105cc600080fd5b6105a7565b6105dd61027d60029390565b6000915b8383106105ee5750505050565b6106086106016001928451815260200190565b9260200190565b920191906105e1565b60408101929161009491906105d1565b506040513d6000823e3d90fd5b60209061065961069493610640600090565b5061065361064e600261055a565b938452565b83830152565b61066b6106666000610577565b61059e565b6106896329a5f2f661067c60405190565b9586948593849360e01b90565b835260048301610611565b03915afa9081156106d3575b6000916106ab575090565b61014d915060203d81116106cc575b6106c48183610051565b8101906105b4565b503d6106ba565b6106db610621565b6106a0565b6106ec61027d60039390565b6000915b8383106106fd5750505050565b6107106106016001928451815260200190565b920191906106f0565b60608101929161009491906106e0565b6020906107496106949361073b600090565b5061065361064e600361055a565b610769610666600161076461075d8261025f565b6040860152565b610577565b61077a6325cc70e861067c60405190565b83526004830161071956fea2646970667358221220e648655cc964effef1cdf539fa64f7a6f7fe2b373ddffdf582e642567194d19764736f6c63430008100033",
  "linkReferences": {},
  "deployedLinkReferences": {}
}