{
  "_format": "hh-sol-artifact-1",
  "contractName": "SMT",
  "sourceName": "contracts/SMT.sol",
  "abi": [
    {
      "anonymous": false,
      "inputs": [
        {
          "indexed": false,
          "internalType": "uint8",
          "name": "version",
          "type": "uint8"
        }
      ],
      "name": "Initialized",
      "type": "event"
    },
    {
      "inputs": [
        {
          "internalType": "address",
          "name": "_poseidon2InputsContractAddr",
          "type": "address"
        },
        {
          "internalType": "address",
          "name": "_poseidon3InputsContractAddr",
          "type": "address"
        }
      ],
      "name": "initialize",
      "outputs": [],
      "stateMutability": "nonpayable",
      "type": "function"
    },
    {
      "inputs": [
        {
          "internalType": "uint256[]",
          "name": "siblings",
          "type": "uint256[]"
        },
        {
          "internalType": "uint256",
          "name": "key",
          "type": "uint256"
        },
        {
          "internalType": "uint256",
          "name": "value",
          "type": "uint256"
        },
        {
          "internalType": "uint256",
          "name": "oldKey",
          "type": "uint256"
        },
        {
          "internalType": "uint256",
          "name": "oldValue",
          "type": "uint256"
        },
        {
          "internalType": "bool",
          "name": "isNonExistence",
          "type": "bool"
        },
        {
          "internalType": "bool",
          "name": "isOld",
          "type": "bool"
        },
        {
          "internalType": "uint256",
          "name": "maxLevels",
          "type": "uint256"
        }
      ],
      "name": "smtVerifier",
      "outputs": [
        {
          "internalType": "uint256",
          "name": "",
          "type": "uint256"
        }
      ],
      "stateMutability": "view",
      "type": "function"
    }
  ],
  "bytecode": "0x608060405234801561001057600080fd5b506105c1806100206000396000f3fe608060405234801561001057600080fd5b50600436106100365760003560e01c806312a365411461003b578063485cc95514610060575b600080fd5b61004e61004936600461033e565b610075565b60405190815260200160405180910390f35b61007361006e366004610463565b61018c565b005b6000808480156100825750835b156100e8576000805b8115801561009857508481105b156100c557808b901c600116818a901c6001161860ff1691506001816100be91906104ac565b905061008b565b816000036100d95760009350505050610180565b6100e38989610235565b925050505b6000856100fe576100f98a8a610235565b610100565b815b905060008060018d5161011391906104bf565b90505b60008112610179578c8181518110610130576101306104e6565b6020908102919091010151915060018c821c811614806101595761015484846102ca565b610163565b61016383856102ca565b9350508080610171906104fc565b915050610116565b5090925050505b98975050505050505050565b600054610100900460ff166101fb5760405162461bcd60e51b815260206004820152602b60248201527f496e697469616c697a61626c653a20636f6e7472616374206973206e6f74206960448201526a6e697469616c697a696e6760a81b606482015260840160405180910390fd5b6000805462010000600160b01b031916620100006001600160a01b0394851602179055600180546001600160a01b03191691909216179055565b604080516060810182528381526020810183905260018183018190525491516304b98e1d60e31b81526000926001600160a01b0316906325cc70e89061027f908490600401610519565b602060405180830381865afa15801561029c573d6000803e3d6000fd5b505050506040513d601f19601f820116820180604052508101906102c0919061054a565b9150505b92915050565b604080518082018252838152602081018390526000805492516314d2f97b60e11b815290926201000090046001600160a01b0316906329a5f2f69061027f908490600401610563565b634e487b7160e01b600052604160045260246000fd5b8035801515811461033957600080fd5b919050565b600080600080600080600080610100898b03121561035b57600080fd5b883567ffffffffffffffff8082111561037357600080fd5b818b0191508b601f83011261038757600080fd5b813560208282111561039b5761039b610313565b8160051b604051601f19603f830116810181811086821117156103c0576103c0610313565b60405292835281830193508481018201928f8411156103de57600080fd5b948201945b838610156103fc578535855294820194938201936103e3565b9c50508c01359950505060408a0135965050606089013594506080890135935061042860a08a01610329565b925061043660c08a01610329565b915060e089013590509295985092959890939650565b80356001600160a01b038116811461033957600080fd5b6000806040838503121561047657600080fd5b61047f8361044c565b915061048d6020840161044c565b90509250929050565b634e487b7160e01b600052601160045260246000fd5b808201808211156102c4576102c4610496565b81810360008312801583831316838312821617156104df576104df610496565b5092915050565b634e487b7160e01b600052603260045260246000fd5b6000600160ff1b820161051157610511610496565b506000190190565b60608101818360005b6003811015610541578151835260209283019290910190600101610522565b50505092915050565b60006020828403121561055c57600080fd5b5051919050565b60408101818360005b600281101561054157815183526020928301929091019060010161056c56fea2646970667358221220793255c2b8360253fe4513d403b5d3f70b41361a86640f09920bf5365e377e5264736f6c63430008100033",
  "linkReferences": {},
  "deployedLinkReferences": {}
}