{
  "_format": "hh-sol-artifact-1",
  "contractName": "SMT",
  "sourceName": "contracts/SMT.sol",
  "abi": [
    {
      "inputs": [
        {
          "internalType": "address",
          "name": "_poseidon2InputsContractAddr",
          "type": "address"
        },
        {
          "internalType": "address",
          "name": "_poseidon3InputsContractAddr",
          "type": "address"
        }
      ],
      "stateMutability": "nonpayable",
      "type": "constructor"
    },
    {
      "inputs": [
        {
          "internalType": "uint256[]",
          "name": "siblings",
          "type": "uint256[]"
        },
        {
          "internalType": "uint256",
          "name": "key",
          "type": "uint256"
        },
        {
          "internalType": "uint256",
          "name": "value",
          "type": "uint256"
        },
        {
          "internalType": "uint256",
          "name": "oldKey",
          "type": "uint256"
        },
        {
          "internalType": "uint256",
          "name": "oldValue",
          "type": "uint256"
        },
        {
          "internalType": "bool",
          "name": "isNonExistence",
          "type": "bool"
        },
        {
          "internalType": "bool",
          "name": "isOld",
          "type": "bool"
        },
        {
          "internalType": "uint256",
          "name": "maxLevels",
          "type": "uint256"
        }
      ],
      "name": "smtVerifier",
      "outputs": [
        {
          "internalType": "uint256",
          "name": "",
          "type": "uint256"
        }
      ],
      "stateMutability": "view",
      "type": "function"
    }
  ],
  "bytecode": "0x608060405234801561001057600080fd5b5060405161056638038061056683398101604081905261002f9161007c565b600080546001600160a01b039384166001600160a01b031991821617909155600180549290931691161790556100af565b80516001600160a01b038116811461007757600080fd5b919050565b6000806040838503121561008f57600080fd5b61009883610060565b91506100a660208401610060565b90509250929050565b6104a8806100be6000396000f3fe608060405234801561001057600080fd5b506004361061002b5760003560e01c806312a3654114610030575b600080fd5b61004361003e36600461026f565b610055565b60405190815260200160405180910390f35b6000808480156100625750835b156100c8576000805b8115801561007857508481105b156100a557808b901c600116818a901c6001161860ff16915060018161009e9190610393565b905061006b565b816000036100b95760009350505050610160565b6100c3898961016c565b925050505b6000856100de576100d98a8a61016c565b6100e0565b815b905060008060018d516100f391906103a6565b90505b60008112610159578c8181518110610110576101106103cd565b6020908102919091010151915060018c821c81161480610139576101348484610201565b610143565b6101438385610201565b9350508080610151906103e3565b9150506100f6565b5090925050505b98975050505050505050565b604080516060810182528381526020810183905260018183018190525491516304b98e1d60e31b81526000926001600160a01b0316906325cc70e8906101b6908490600401610400565b602060405180830381865afa1580156101d3573d6000803e3d6000fd5b505050506040513d601f19601f820116820180604052508101906101f79190610431565b9150505b92915050565b604080518082018252838152602081018390526000805492516314d2f97b60e11b815290926001600160a01b0316906329a5f2f6906101b690849060040161044a565b634e487b7160e01b600052604160045260246000fd5b8035801515811461026a57600080fd5b919050565b600080600080600080600080610100898b03121561028c57600080fd5b883567ffffffffffffffff808211156102a457600080fd5b818b0191508b601f8301126102b857600080fd5b81356020828211156102cc576102cc610244565b8160051b604051601f19603f830116810181811086821117156102f1576102f1610244565b60405292835281830193508481018201928f84111561030f57600080fd5b948201945b8386101561032d57853585529482019493820193610314565b9c50508c01359950505060408a0135965050606089013594506080890135935061035960a08a0161025a565b925061036760c08a0161025a565b915060e089013590509295985092959890939650565b634e487b7160e01b600052601160045260246000fd5b808201808211156101fb576101fb61037d565b81810360008312801583831316838312821617156103c6576103c661037d565b5092915050565b634e487b7160e01b600052603260045260246000fd5b6000600160ff1b82016103f8576103f861037d565b506000190190565b60608101818360005b6003811015610428578151835260209283019290910190600101610409565b50505092915050565b60006020828403121561044357600080fd5b5051919050565b60408101818360005b600281101561042857815183526020928301929091019060010161045356fea2646970667358221220758b302c030c9139e1c80322439ab7aa280c05c52099454f6f1456d341adabc064736f6c63430008100033",
  "linkReferences": {},
  "deployedLinkReferences": {}
}