{
  "_format": "hh-sol-artifact-1",
  "contractName": "SMTMock",
  "sourceName": "contracts/SMTMock.sol",
  "abi": [
    {
      "anonymous": false,
      "inputs": [
        {
          "indexed": false,
          "internalType": "uint8",
          "name": "version",
          "type": "uint8"
        }
      ],
      "name": "Initialized",
      "type": "event"
    },
    {
      "inputs": [
        {
          "internalType": "address",
          "name": "_poseidon2InputsContractAddr",
          "type": "address"
        },
        {
          "internalType": "address",
          "name": "_poseidon3InputsContractAddr",
          "type": "address"
        }
      ],
      "name": "initialize",
      "outputs": [],
      "stateMutability": "nonpayable",
      "type": "function"
    },
    {
      "inputs": [
        {
          "internalType": "address",
          "name": "_poseidon2ContractAddr",
          "type": "address"
        },
        {
          "internalType": "address",
          "name": "_poseidon3ContractAddr",
          "type": "address"
        }
      ],
      "name": "initializeSMT",
      "outputs": [],
      "stateMutability": "nonpayable",
      "type": "function"
    },
    {
      "inputs": [
        {
          "internalType": "uint256[]",
          "name": "siblings",
          "type": "uint256[]"
        },
        {
          "internalType": "uint256",
          "name": "key",
          "type": "uint256"
        },
        {
          "internalType": "uint256",
          "name": "value",
          "type": "uint256"
        },
        {
          "internalType": "uint256",
          "name": "oldKey",
          "type": "uint256"
        },
        {
          "internalType": "uint256",
          "name": "oldValue",
          "type": "uint256"
        },
        {
          "internalType": "bool",
          "name": "isNonExistence",
          "type": "bool"
        },
        {
          "internalType": "bool",
          "name": "isOld",
          "type": "bool"
        },
        {
          "internalType": "uint256",
          "name": "maxLevels",
          "type": "uint256"
        }
      ],
      "name": "smtVerifier",
      "outputs": [
        {
          "internalType": "uint256",
          "name": "",
          "type": "uint256"
        }
      ],
      "stateMutability": "view",
      "type": "function"
    }
  ],
  "bytecode": "0x608060405234801561001057600080fd5b506106f5806100206000396000f3fe608060405234801561001057600080fd5b50600436106100415760003560e01c806312a3654114610046578063485cc9551461006b578063fe80e14914610080575b600080fd5b610059610054366004610472565b610093565b60405190815260200160405180910390f35b61007e610079366004610597565b6101aa565b005b61007e61008e366004610597565b610254565b6000808480156100a05750835b15610106576000805b811580156100b657508481105b156100e357808b901c600116818a901c6001161860ff1691506001816100dc91906105e0565b90506100a9565b816000036100f7576000935050505061019e565b6101018989610369565b925050505b60008561011c576101178a8a610369565b61011e565b815b905060008060018d5161013191906105f3565b90505b60008112610197578c818151811061014e5761014e61061a565b6020908102919091010151915060018c821c811614806101775761017284846103fe565b610181565b61018183856103fe565b935050808061018f90610630565b915050610134565b5090925050505b98975050505050505050565b600054610100900460ff1661021a5760405162461bcd60e51b815260206004820152602b60248201527f496e697469616c697a61626c653a20636f6e7472616374206973206e6f74206960448201526a6e697469616c697a696e6760a81b60648201526084015b60405180910390fd5b6000805462010000600160b01b031916620100006001600160a01b0394851602179055600180546001600160a01b03191691909216179055565b600054610100900460ff16158080156102745750600054600160ff909116105b8061028e5750303b15801561028e575060005460ff166001145b6102f15760405162461bcd60e51b815260206004820152602e60248201527f496e697469616c697a61626c653a20636f6e747261637420697320616c72656160448201526d191e481a5b9a5d1a585b1a5e995960921b6064820152608401610211565b6000805460ff191660011790558015610314576000805461ff0019166101001790555b61031e83836101aa565b8015610364576000805461ff0019169055604051600181527f7f26b83ff96e1f2b6a682f133852f6798a09c465da95921460cefb38474024989060200160405180910390a15b505050565b604080516060810182528381526020810183905260018183018190525491516304b98e1d60e31b81526000926001600160a01b0316906325cc70e8906103b390849060040161064d565b602060405180830381865afa1580156103d0573d6000803e3d6000fd5b505050506040513d601f19601f820116820180604052508101906103f4919061067e565b9150505b92915050565b604080518082018252838152602081018390526000805492516314d2f97b60e11b815290926201000090046001600160a01b0316906329a5f2f6906103b3908490600401610697565b634e487b7160e01b600052604160045260246000fd5b8035801515811461046d57600080fd5b919050565b600080600080600080600080610100898b03121561048f57600080fd5b883567ffffffffffffffff808211156104a757600080fd5b818b0191508b601f8301126104bb57600080fd5b81356020828211156104cf576104cf610447565b8160051b604051601f19603f830116810181811086821117156104f4576104f4610447565b60405292835281830193508481018201928f84111561051257600080fd5b948201945b8386101561053057853585529482019493820193610517565b9c50508c01359950505060408a0135965050606089013594506080890135935061055c60a08a0161045d565b925061056a60c08a0161045d565b915060e089013590509295985092959890939650565b80356001600160a01b038116811461046d57600080fd5b600080604083850312156105aa57600080fd5b6105b383610580565b91506105c160208401610580565b90509250929050565b634e487b7160e01b600052601160045260246000fd5b808201808211156103f8576103f86105ca565b8181036000831280158383131683831282161715610613576106136105ca565b5092915050565b634e487b7160e01b600052603260045260246000fd5b6000600160ff1b8201610645576106456105ca565b506000190190565b60608101818360005b6003811015610675578151835260209283019290910190600101610656565b50505092915050565b60006020828403121561069057600080fd5b5051919050565b60408101818360005b60028110156106755781518352602092830192909101906001016106a056fea2646970667358221220291c5418b153f0301bc7a6e207463a74319f5ec27182c80ec10438f5362be1cb64736f6c63430008100033",
  "linkReferences": {},
  "deployedLinkReferences": {}
}