{
  "_format": "hh-sol-artifact-1",
  "contractName": "ModuleProxy",
  "sourceName": "contracts/ModuleProxy.sol",
  "abi": [
    {
      "inputs": [
        {
          "internalType": "address",
          "name": "_admin",
          "type": "address"
        }
      ],
      "stateMutability": "nonpayable",
      "type": "constructor"
    },
    {
      "anonymous": false,
      "inputs": [
        {
          "indexed": true,
          "internalType": "address",
          "name": "newAdmin",
          "type": "address"
        }
      ],
      "name": "NewAdmin",
      "type": "event"
    },
    {
      "anonymous": false,
      "inputs": [
        {
          "indexed": false,
          "internalType": "address",
          "name": "oldImplementation",
          "type": "address"
        },
        {
          "indexed": false,
          "internalType": "address",
          "name": "newImplementation",
          "type": "address"
        }
      ],
      "name": "NewImplementation",
      "type": "event"
    },
    {
      "stateMutability": "payable",
      "type": "fallback"
    },
    {
      "inputs": [],
      "name": "admin",
      "outputs": [
        {
          "internalType": "address",
          "name": "",
          "type": "address"
        }
      ],
      "stateMutability": "view",
      "type": "function"
    },
    {
      "inputs": [],
      "name": "getImplementation",
      "outputs": [
        {
          "internalType": "address",
          "name": "",
          "type": "address"
        }
      ],
      "stateMutability": "view",
      "type": "function"
    },
    {
      "inputs": [],
      "name": "implementation",
      "outputs": [
        {
          "internalType": "address",
          "name": "",
          "type": "address"
        }
      ],
      "stateMutability": "view",
      "type": "function"
    },
    {
      "inputs": [
        {
          "internalType": "address",
          "name": "_admin",
          "type": "address"
        }
      ],
      "name": "setAdmin",
      "outputs": [],
      "stateMutability": "nonpayable",
      "type": "function"
    },
    {
      "inputs": [
        {
          "internalType": "address",
          "name": "_imp",
          "type": "address"
        }
      ],
      "name": "setImplementation",
      "outputs": [],
      "stateMutability": "nonpayable",
      "type": "function"
    }
  ],
  "bytecode": "0x608060405234801561001057600080fd5b506040516103b23803806103b283398101604081905261002f91610054565b600180546001600160a01b0319166001600160a01b0392909216919091179055610084565b60006020828403121561006657600080fd5b81516001600160a01b038116811461007d57600080fd5b9392505050565b61031f806100936000396000f3fe60806040526004361061004a5760003560e01c80635c60da1b14610076578063704b6c02146100b2578063aaf10f42146100d2578063d784d426146100f0578063f851a44014610110575b6000546001600160a01b031661005f57600080fd5b600054610074906001600160a01b0316610130565b005b34801561008257600080fd5b50600054610096906001600160a01b031681565b6040516001600160a01b03909116815260200160405180910390f35b3480156100be57600080fd5b506100746100cd3660046102b9565b610155565b3480156100de57600080fd5b506000546001600160a01b0316610096565b3480156100fc57600080fd5b5061007461010b3660046102b9565b6101fe565b34801561011c57600080fd5b50600154610096906001600160a01b031681565b3660008037600080366000845af43d806000803e81801561015057816000f35b816000fd5b6001546001600160a01b031633146101b45760405162461bcd60e51b815260206004820152601760248201527f4f6e6c792061646d696e2063616e2073657441646d696e00000000000000000060448201526064015b60405180910390fd5b600180546001600160a01b0319166001600160a01b0383169081179091556040517f71614071b88dee5e0b2ae578a9dd7b2ebbe9ae832ba419dc0242cd065a290b6c90600090a250565b6001546001600160a01b031633146102585760405162461bcd60e51b815260206004820181905260248201527f4f6e6c792061646d696e2063616e20736574496d706c656d656e746174696f6e60448201526064016101ab565b600080546001600160a01b038381166001600160a01b031983168117909355604080519190921680825260208201939093527fd604de94d45953f9138079ec1b82d533cb2160c906d1076d1f7ed54befbca97a910160405180910390a15050565b6000602082840312156102cb57600080fd5b81356001600160a01b03811681146102e257600080fd5b939250505056fea2646970667358221220a348b7c4510a1eaa1807d8f9b7cca577c05fb5eacf965b9615166b9b8b8eebff64736f6c63430008100033",
  "linkReferences": {},
  "deployedLinkReferences": {}
}