{
  "_format": "hh-sol-artifact-1",
  "contractName": "ModuleProxy",
  "sourceName": "contracts/ModuleProxy.sol",
  "abi": [
    {
      "inputs": [
        {
          "internalType": "address",
          "name": "_logic",
          "type": "address"
        },
        {
          "internalType": "address",
          "name": "admin_",
          "type": "address"
        },
        {
          "internalType": "bytes",
          "name": "_data",
          "type": "bytes"
        }
      ],
      "stateMutability": "payable",
      "type": "constructor"
    },
    {
      "anonymous": false,
      "inputs": [
        {
          "indexed": false,
          "internalType": "address",
          "name": "previousAdmin",
          "type": "address"
        },
        {
          "indexed": false,
          "internalType": "address",
          "name": "newAdmin",
          "type": "address"
        }
      ],
      "name": "AdminChanged",
      "type": "event"
    },
    {
      "anonymous": false,
      "inputs": [
        {
          "indexed": true,
          "internalType": "address",
          "name": "beacon",
          "type": "address"
        }
      ],
      "name": "BeaconUpgraded",
      "type": "event"
    },
    {
      "anonymous": false,
      "inputs": [
        {
          "indexed": true,
          "internalType": "address",
          "name": "implementation",
          "type": "address"
        }
      ],
      "name": "Upgraded",
      "type": "event"
    },
    {
      "stateMutability": "payable",
      "type": "fallback"
    },
    {
      "inputs": [],
      "name": "admin",
      "outputs": [
        {
          "internalType": "address",
          "name": "admin_",
          "type": "address"
        }
      ],
      "stateMutability": "nonpayable",
      "type": "function"
    },
    {
      "inputs": [
        {
          "internalType": "address",
          "name": "newAdmin",
          "type": "address"
        }
      ],
      "name": "changeAdmin",
      "outputs": [],
      "stateMutability": "nonpayable",
      "type": "function"
    },
    {
      "inputs": [],
      "name": "implementation",
      "outputs": [
        {
          "internalType": "address",
          "name": "implementation_",
          "type": "address"
        }
      ],
      "stateMutability": "nonpayable",
      "type": "function"
    },
    {
      "inputs": [
        {
          "internalType": "address",
          "name": "newImplementation",
          "type": "address"
        }
      ],
      "name": "upgradeTo",
      "outputs": [],
      "stateMutability": "nonpayable",
      "type": "function"
    },
    {
      "inputs": [
        {
          "internalType": "address",
          "name": "newImplementation",
          "type": "address"
        },
        {
          "internalType": "bytes",
          "name": "data",
          "type": "bytes"
        }
      ],
      "name": "upgradeToAndCall",
      "outputs": [],
      "stateMutability": "payable",
      "type": "function"
    },
    {
      "stateMutability": "payable",
      "type": "receive"
    }
  ],
  "bytecode": "0x608060405260405162000ec238038062000ec28339810160408190526200002691620004e6565b828162000036828260006200009a565b5062000066905060017fb53127684a568b3173ae13b9f8a6016e243e63b6e8ee1178d6a717850b5d6104620005c6565b60008051602062000e7b83398151915214620000865762000086620005e8565b6200009182620000d7565b50505062000651565b620000a58362000132565b600082511180620000b35750805b15620000d257620000d083836200017460201b6200022e1760201c565b505b505050565b7f7e644d79422f17c01e4894b5f4f588d331ebfa28653d42ae832dc59e38c9798f62000102620001a5565b604080516001600160a01b03928316815291841660208301520160405180910390a16200012f81620001de565b50565b6200013d8162000293565b6040516001600160a01b038216907fbc7cd75a20ee27fd9adebab32041f755214dbc6bffa90cc0225b39da2e5c2d3b90600090a250565b60606200019c838360405180606001604052806027815260200162000e9b6027913962000347565b90505b92915050565b6000620001cf60008051602062000e7b83398151915260001b620003c660201b620001ea1760201c565b546001600160a01b0316919050565b6001600160a01b038116620002495760405162461bcd60e51b815260206004820152602660248201527f455243313936373a206e65772061646d696e20697320746865207a65726f206160448201526564647265737360d01b60648201526084015b60405180910390fd5b806200027260008051602062000e7b83398151915260001b620003c660201b620001ea1760201c565b80546001600160a01b0319166001600160a01b039290921691909117905550565b620002a981620003c960201b6200025a1760201c565b6200030d5760405162461bcd60e51b815260206004820152602d60248201527f455243313936373a206e657720696d706c656d656e746174696f6e206973206e60448201526c1bdd08184818dbdb9d1c9858dd609a1b606482015260840162000240565b80620002727f360894a13ba1a3210667c828492db98dca3e2076cc3735a920a3ca505d382bbc60001b620003c660201b620001ea1760201c565b6060600080856001600160a01b031685604051620003669190620005fe565b600060405180830381855af49150503d8060008114620003a3576040519150601f19603f3d011682016040523d82523d6000602084013e620003a8565b606091505b509092509050620003bc86838387620003d8565b9695505050505050565b90565b6001600160a01b03163b151590565b606083156200044c57825160000362000444576001600160a01b0385163b620004445760405162461bcd60e51b815260206004820152601d60248201527f416464726573733a2063616c6c20746f206e6f6e2d636f6e7472616374000000604482015260640162000240565b508162000458565b62000458838362000460565b949350505050565b815115620004715781518083602001fd5b8060405162461bcd60e51b81526004016200024091906200061c565b80516001600160a01b0381168114620004a557600080fd5b919050565b634e487b7160e01b600052604160045260246000fd5b60005b83811015620004dd578181015183820152602001620004c3565b50506000910152565b600080600060608486031215620004fc57600080fd5b62000507846200048d565b925062000517602085016200048d565b60408501519092506001600160401b03808211156200053557600080fd5b818601915086601f8301126200054a57600080fd5b8151818111156200055f576200055f620004aa565b604051601f8201601f19908116603f011681019083821181831017156200058a576200058a620004aa565b81604052828152896020848701011115620005a457600080fd5b620005b7836020830160208801620004c0565b80955050505050509250925092565b818103818111156200019f57634e487b7160e01b600052601160045260246000fd5b634e487b7160e01b600052600160045260246000fd5b6000825162000612818460208701620004c0565b9190910192915050565b60208152600082518060208401526200063d816040850160208701620004c0565b601f01601f19169190910160400192915050565b61081a80620006616000396000f3fe60806040526004361061004e5760003560e01c80633659cfe6146100655780634f1ef286146100855780635c60da1b146100985780638f283970146100c9578063f851a440146100e95761005d565b3661005d5761005b6100fe565b005b61005b6100fe565b34801561007157600080fd5b5061005b6100803660046106ac565b610118565b61005b6100933660046106c7565b610155565b3480156100a457600080fd5b506100ad6101bc565b6040516001600160a01b03909116815260200160405180910390f35b3480156100d557600080fd5b5061005b6100e43660046106ac565b6101ed565b3480156100f557600080fd5b506100ad61020d565b610106610269565b6101166101116102e8565b6102f2565b565b610120610316565b6001600160a01b0316330361014d5761014a81604051806020016040528060008152506000610349565b50565b61014a6100fe565b61015d610316565b6001600160a01b031633036101b4576101af8383838080601f01602080910402602001604051908101604052809392919081815260200183838082843760009201919091525060019250610349915050565b505050565b6101af6100fe565b60006101c6610316565b6001600160a01b031633036101e2576101dd6102e8565b905090565b6101ea6100fe565b90565b6101f5610316565b6001600160a01b0316330361014d5761014a81610374565b6000610217610316565b6001600160a01b031633036101e2576101dd610316565b606061025383836040518060600160405280602781526020016107be602791396103c8565b9392505050565b6001600160a01b03163b151590565b610271610316565b6001600160a01b031633036101165760405162461bcd60e51b815260206004820152603260248201527f4d6f64756c6550726f78793a2061646d696e2063616e6e6f742066616c6c626160448201527118dac81d1bc81c1c9bde1e481d185c99d95d60721b60648201526084015b60405180910390fd5b60006101dd610440565b3660008037600080366000845af43d6000803e808015610311573d6000f35b3d6000fd5b60007fb53127684a568b3173ae13b9f8a6016e243e63b6e8ee1178d6a717850b5d61035b546001600160a01b0316919050565b61035283610468565b60008251118061035f5750805b156101af5761036e838361022e565b50505050565b7f7e644d79422f17c01e4894b5f4f588d331ebfa28653d42ae832dc59e38c9798f61039d610316565b604080516001600160a01b03928316815291841660208301520160405180910390a161014a816104a8565b6060600080856001600160a01b0316856040516103e5919061076e565b600060405180830381855af49150503d8060008114610420576040519150601f19603f3d011682016040523d82523d6000602084013e610425565b606091505b509150915061043686838387610551565b9695505050505050565b60007f360894a13ba1a3210667c828492db98dca3e2076cc3735a920a3ca505d382bbc61033a565b610471816105d2565b6040516001600160a01b038216907fbc7cd75a20ee27fd9adebab32041f755214dbc6bffa90cc0225b39da2e5c2d3b90600090a250565b6001600160a01b03811661050d5760405162461bcd60e51b815260206004820152602660248201527f455243313936373a206e65772061646d696e20697320746865207a65726f206160448201526564647265737360d01b60648201526084016102df565b807fb53127684a568b3173ae13b9f8a6016e243e63b6e8ee1178d6a717850b5d61035b80546001600160a01b0319166001600160a01b039290921691909117905550565b606083156105c05782516000036105b9576001600160a01b0385163b6105b95760405162461bcd60e51b815260206004820152601d60248201527f416464726573733a2063616c6c20746f206e6f6e2d636f6e747261637400000060448201526064016102df565b50816105ca565b6105ca8383610666565b949350505050565b6001600160a01b0381163b61063f5760405162461bcd60e51b815260206004820152602d60248201527f455243313936373a206e657720696d706c656d656e746174696f6e206973206e60448201526c1bdd08184818dbdb9d1c9858dd609a1b60648201526084016102df565b807f360894a13ba1a3210667c828492db98dca3e2076cc3735a920a3ca505d382bbc610530565b8151156106765781518083602001fd5b8060405162461bcd60e51b81526004016102df919061078a565b80356001600160a01b03811681146106a757600080fd5b919050565b6000602082840312156106be57600080fd5b61025382610690565b6000806000604084860312156106dc57600080fd5b6106e584610690565b9250602084013567ffffffffffffffff8082111561070257600080fd5b818601915086601f83011261071657600080fd5b81358181111561072557600080fd5b87602082850101111561073757600080fd5b6020830194508093505050509250925092565b60005b8381101561076557818101518382015260200161074d565b50506000910152565b6000825161078081846020870161074a565b9190910192915050565b60208152600082518060208401526107a981604085016020870161074a565b601f01601f1916919091016040019291505056fe416464726573733a206c6f772d6c6576656c2064656c65676174652063616c6c206661696c6564a2646970667358221220f8827d827b77212593992215db8e03db2fb11a2bbc4cea7437e809675042894e64736f6c63430008100033b53127684a568b3173ae13b9f8a6016e243e63b6e8ee1178d6a717850b5d6103416464726573733a206c6f772d6c6576656c2064656c65676174652063616c6c206661696c6564",
  "linkReferences": {},
  "deployedLinkReferences": {}
}