{
  "_format": "hh-sol-artifact-1",
  "contractName": "PoseidonUnit5L",
  "sourceName": "contracts/libs/Poseidon.sol",
  "abi": [
    {
      "inputs": [
        {
          "internalType": "uint256[5]",
          "name": "",
          "type": "uint256[5]"
        }
      ],
      "name": "poseidon",
      "outputs": [
        {
          "internalType": "uint256",
          "name": "",
          "type": "uint256"
        }
      ],
      "stateMutability": "pure",
      "type": "function"
    }
  ],
  "bytecode": "0x60806040523461001d575b60405160c561002b82393081505060c590f35b610025600080fd5b61000a56fe608060405260043610156016575b6014600080fd5b005b60003560e01c634937a25803600d57602b606c565b600d565b919060a0830111603b57565b6042600080fd5b565b9060559160a081830312605857602f565b90565b605f600080fd5b602f565b90815260200190565b50608b6080607a3660046044565b50600090565b604051918291826063565b0390f3fea264697066735822122034f88f682874c2c8ee81060a25f11745d83376a47791daa75ecd854ae5f5347364736f6c63430008100033",
  "linkReferences": {},
  "deployedLinkReferences": {}
}