{
  "_format": "hh-sol-artifact-1",
  "contractName": "PoseidonUnit5L",
  "sourceName": "contracts/libs/Poseidon.sol",
  "abi": [
    {
      "inputs": [
        {
          "internalType": "uint256[5]",
          "name": "",
          "type": "uint256[5]"
        }
      ],
      "name": "poseidon",
      "outputs": [
        {
          "internalType": "uint256",
          "name": "",
          "type": "uint256"
        }
      ],
      "stateMutability": "pure",
      "type": "function"
    }
  ],
  "bytecode": "0x60b7610039600b82828239805160001a60731461002c57634e487b7160e01b600052600060045260246000fd5b30600052607381538281f3fe730000000000000000000000000000000000000000301460806040526004361060335760003560e01c80634937a258146038575b600080fd5b60496043366004605b565b50600090565b60405190815260200160405180910390f35b600060a08284031215606c57600080fd5b8260a083011115607b57600080fd5b5091905056fea2646970667358221220a7136b6f30cf97d51cb1d76e426039df92d875e3e877705f43f7621fcbbe43b864736f6c63430008100033",
  "linkReferences": {},
  "deployedLinkReferences": {}
}