{
  "_format": "hh-sol-artifact-1",
  "contractName": "PoseidonUnit3L",
  "sourceName": "contracts/libs/Poseidon.sol",
  "abi": [
    {
      "inputs": [
        {
          "internalType": "uint256[3]",
          "name": "",
          "type": "uint256[3]"
        }
      ],
      "name": "poseidon",
      "outputs": [
        {
          "internalType": "uint256",
          "name": "",
          "type": "uint256"
        }
      ],
      "stateMutability": "pure",
      "type": "function"
    }
  ],
  "bytecode": "0x60b7610039600b82828239805160001a60731461002c57634e487b7160e01b600052600060045260246000fd5b30600052607381538281f3fe730000000000000000000000000000000000000000301460806040526004361060335760003560e01c806325cc70e8146038575b600080fd5b60496043366004605b565b50600090565b60405190815260200160405180910390f35b600060608284031215606c57600080fd5b82606083011115607b57600080fd5b5091905056fea2646970667358221220383976410feff214393d3883c3e623f3fa23ebc26a2bd20d1925caf29a8a235564736f6c63430008100033",
  "linkReferences": {},
  "deployedLinkReferences": {}
}