{
  "_format": "hh-sol-artifact-1",
  "contractName": "PoseidonUnit4L",
  "sourceName": "contracts/libs/Poseidon.sol",
  "abi": [
    {
      "inputs": [
        {
          "internalType": "uint256[4]",
          "name": "",
          "type": "uint256[4]"
        }
      ],
      "name": "poseidon",
      "outputs": [
        {
          "internalType": "uint256",
          "name": "",
          "type": "uint256"
        }
      ],
      "stateMutability": "pure",
      "type": "function"
    }
  ],
  "bytecode": "0x60806040523461001d575b60405160c561002b82393081505060c590f35b610025600080fd5b61000a56fe608060405260043610156016575b6014600080fd5b005b60003560e01c63248f667703600d57602b606c565b600d565b91906080830111603b57565b6042600080fd5b565b90605591608081830312605857602f565b90565b605f600080fd5b602f565b90815260200190565b50608b6080607a3660046044565b50600090565b604051918291826063565b0390f3fea2646970667358221220c3bc26a4b77f03861c9e9ecf8ba6ed84a9edaea85947d141471599e5e48f5e9564736f6c63430008100033",
  "linkReferences": {},
  "deployedLinkReferences": {}
}