{
  "_format": "hh-sol-artifact-1",
  "contractName": "PoseidonFacade",
  "sourceName": "contracts/libs/Poseidon.sol",
  "abi": [
    {
      "inputs": [
        {
          "internalType": "uint256[1]",
          "name": "el",
          "type": "uint256[1]"
        }
      ],
      "name": "poseidon1",
      "outputs": [
        {
          "internalType": "uint256",
          "name": "",
          "type": "uint256"
        }
      ],
      "stateMutability": "pure",
      "type": "function"
    },
    {
      "inputs": [
        {
          "internalType": "uint256[2]",
          "name": "el",
          "type": "uint256[2]"
        }
      ],
      "name": "poseidon2",
      "outputs": [
        {
          "internalType": "uint256",
          "name": "",
          "type": "uint256"
        }
      ],
      "stateMutability": "pure",
      "type": "function"
    },
    {
      "inputs": [
        {
          "internalType": "uint256[3]",
          "name": "el",
          "type": "uint256[3]"
        }
      ],
      "name": "poseidon3",
      "outputs": [
        {
          "internalType": "uint256",
          "name": "",
          "type": "uint256"
        }
      ],
      "stateMutability": "pure",
      "type": "function"
    },
    {
      "inputs": [
        {
          "internalType": "uint256[4]",
          "name": "el",
          "type": "uint256[4]"
        }
      ],
      "name": "poseidon4",
      "outputs": [
        {
          "internalType": "uint256",
          "name": "",
          "type": "uint256"
        }
      ],
      "stateMutability": "pure",
      "type": "function"
    },
    {
      "inputs": [
        {
          "internalType": "uint256[5]",
          "name": "el",
          "type": "uint256[5]"
        }
      ],
      "name": "poseidon5",
      "outputs": [
        {
          "internalType": "uint256",
          "name": "",
          "type": "uint256"
        }
      ],
      "stateMutability": "pure",
      "type": "function"
    },
    {
      "inputs": [
        {
          "internalType": "uint256[6]",
          "name": "el",
          "type": "uint256[6]"
        }
      ],
      "name": "poseidon6",
      "outputs": [
        {
          "internalType": "uint256",
          "name": "",
          "type": "uint256"
        }
      ],
      "stateMutability": "pure",
      "type": "function"
    },
    {
      "inputs": [
        {
          "internalType": "uint256[]",
          "name": "el",
          "type": "uint256[]"
        }
      ],
      "name": "poseidonSponge",
      "outputs": [
        {
          "internalType": "uint256",
          "name": "",
          "type": "uint256"
        }
      ],
      "stateMutability": "pure",
      "type": "function"
    }
  ],
  "bytecode": "0x60806040523461001f575b6040516106bd61002d8239308150506106bd90f35b610027600080fd5b61000a56fe60806040526004361015610018575b610016600080fd5b005b60003560e01c806327babae2146100a4578063476326281461009b5780638844c1a614610092578063a8ba0b2814610089578063ac490f2614610080578063c2720d54146100775763db809cd50361000e576100726102ec565b61000e565b506100726102ab565b5061007261026a565b50610072610228565b5061007261017e565b5061007261013d565b506100726100e8565b919060608301116100ba57565b6100c2600080fd5b565b906100d8916060818303126100db576100ad565b90565b6100e3600080fd5b6100ad565b5061010f6100ff6100fa3660046100c4565b6104a5565b6040519182918290815260200190565b0390f35b919060408301116100ba57565b906100d8916040818303121561011357610138600080fd5b610113565b5061010f6100ff61014f366004610120565b610449565b919060208301116100ba57565b906100d8916020818303121561015457610179600080fd5b610154565b5061010f6100ff610190366004610161565b610394565b909182601f830112156101d4575b602082359267ffffffffffffffff84116101c7575b0192602083028401116100ba57565b6101cf600080fd5b6101b8565b6101dc600080fd5b6101a3565b9061020a9160208183031261021b575b80359067ffffffffffffffff821161020e575b01610195565b9091565b610216600080fd5b610204565b610223600080fd5b6101f1565b5061010f6100ff61023a3660046101e1565b90610643565b919060808301116100ba57565b906100d8916080818303121561024057610265600080fd5b610240565b5061010f6100ff61027c36600461024d565b610501565b919060a08301116100ba57565b906100d89160a08183031215610281576102a6600080fd5b610281565b5061010f6100ff6102bd36600461028e565b61055d565b919060c08301116100ba57565b906100d89160c081830312156102c2576102e7600080fd5b6102c2565b5061010f6100ff6102fe3660046102cf565b6105b9565b50634e487b7160e01b600052604160045260246000fd5b90601f01601f1916810190811067ffffffffffffffff82111761033c57604052565b610344610303565b604052565b90505190565b906100d8916020818303121561034957610349600080fd5b9037565b6100c291602091610367565b6020810192916100c2919061036b565b506040513d6000823e3d90fd5b60206103e1916103a2600090565b5073__$b798475344e5b42ea17f794ebe84cab7e8$__6103d6631caab9a76103c960405190565b9586948593849360e01b90565b835260048301610377565b03915af4908115610420575b6000916103f8575090565b6100d8915060203d8111610419575b610411818361031a565b81019061034f565b503d610407565b610428610387565b6103ed565b6100c291604091610367565b6040810192916100c2919061042d565b60206103e191610457600090565b5073__$fbeb5befa027514ec1a78eb8886549b8a2$__61047e6329a5f2f66103c960405190565b835260048301610439565b6100c291606091610367565b6060810192916100c29190610489565b60206103e1916104b3600090565b5073__$7be08fecc3807f84aa6f1379df4a0bacab$__6104da6325cc70e86103c960405190565b835260048301610495565b6100c291608091610367565b6080810192916100c291906104e5565b60206103e19161050f600090565b5073__$7fddcf72717bc68d45d8d6a2b537d0d172$__61053663248f66776103c960405190565b8352600483016104f1565b6100c29160a091610367565b60a0810192916100c29190610541565b60206103e19161056b600090565b5073__$f2ef9f8a42f13e3f4cfe2f1fe5c7444a7e$__610592634937a2586103c960405190565b83526004830161054d565b6100c29160c091610367565b60c0810192916100c2919061059d565b60206103e1916105c7600090565b5073__$263aa3b0735d68f8af8b7219d3f4695519$__6105ee63f5b4a7886103c960405190565b8352600483016105a9565b818352602092610621919084019384936001600160fb1b038111610625575b02938491610367565b0190565b61062d600080fd5b610618565b60208082526100d8939101916105f9565b60209073__$1b25989371b4022db49653cc4d10b17012$__61067c6340ec6e496103e161066f60405190565b9687958694859460e01b90565b84526004840161063256fea26469706673582212207c120b35420fe2629792fb778996cf9a614e5fa31b87d8ba9d5d8364ae85389664736f6c63430008100033",
  "linkReferences": {
    "contracts/libs/Poseidon.sol": {
      "PoseidonUnit1L": [
        {
          "length": 20,
          "start": 978
        }
      ],
      "PoseidonUnit2L": [
        {
          "length": 20,
          "start": 1159
        }
      ],
      "PoseidonUnit3L": [
        {
          "length": 20,
          "start": 1251
        }
      ],
      "PoseidonUnit4L": [
        {
          "length": 20,
          "start": 1343
        }
      ],
      "PoseidonUnit5L": [
        {
          "length": 20,
          "start": 1435
        }
      ],
      "PoseidonUnit6L": [
        {
          "length": 20,
          "start": 1527
        }
      ],
      "SpongePoseidon": [
        {
          "length": 20,
          "start": 1653
        }
      ]
    }
  },
  "deployedLinkReferences": {
    "contracts/libs/Poseidon.sol": {
      "PoseidonUnit1L": [
        {
          "length": 20,
          "start": 933
        }
      ],
      "PoseidonUnit2L": [
        {
          "length": 20,
          "start": 1114
        }
      ],
      "PoseidonUnit3L": [
        {
          "length": 20,
          "start": 1206
        }
      ],
      "PoseidonUnit4L": [
        {
          "length": 20,
          "start": 1298
        }
      ],
      "PoseidonUnit5L": [
        {
          "length": 20,
          "start": 1390
        }
      ],
      "PoseidonUnit6L": [
        {
          "length": 20,
          "start": 1482
        }
      ],
      "SpongePoseidon": [
        {
          "length": 20,
          "start": 1608
        }
      ]
    }
  }
}