{
  "_format": "hh-sol-artifact-1",
  "contractName": "PoseidonFacade",
  "sourceName": "contracts/libs/Poseidon.sol",
  "abi": [
    {
      "inputs": [
        {
          "internalType": "uint256[1]",
          "name": "el",
          "type": "uint256[1]"
        }
      ],
      "name": "poseidon1",
      "outputs": [
        {
          "internalType": "uint256",
          "name": "",
          "type": "uint256"
        }
      ],
      "stateMutability": "pure",
      "type": "function"
    },
    {
      "inputs": [
        {
          "internalType": "uint256[2]",
          "name": "el",
          "type": "uint256[2]"
        }
      ],
      "name": "poseidon2",
      "outputs": [
        {
          "internalType": "uint256",
          "name": "",
          "type": "uint256"
        }
      ],
      "stateMutability": "pure",
      "type": "function"
    },
    {
      "inputs": [
        {
          "internalType": "uint256[3]",
          "name": "el",
          "type": "uint256[3]"
        }
      ],
      "name": "poseidon3",
      "outputs": [
        {
          "internalType": "uint256",
          "name": "",
          "type": "uint256"
        }
      ],
      "stateMutability": "pure",
      "type": "function"
    },
    {
      "inputs": [
        {
          "internalType": "uint256[4]",
          "name": "el",
          "type": "uint256[4]"
        }
      ],
      "name": "poseidon4",
      "outputs": [
        {
          "internalType": "uint256",
          "name": "",
          "type": "uint256"
        }
      ],
      "stateMutability": "pure",
      "type": "function"
    },
    {
      "inputs": [
        {
          "internalType": "uint256[5]",
          "name": "el",
          "type": "uint256[5]"
        }
      ],
      "name": "poseidon5",
      "outputs": [
        {
          "internalType": "uint256",
          "name": "",
          "type": "uint256"
        }
      ],
      "stateMutability": "pure",
      "type": "function"
    },
    {
      "inputs": [
        {
          "internalType": "uint256[6]",
          "name": "el",
          "type": "uint256[6]"
        }
      ],
      "name": "poseidon6",
      "outputs": [
        {
          "internalType": "uint256",
          "name": "",
          "type": "uint256"
        }
      ],
      "stateMutability": "pure",
      "type": "function"
    },
    {
      "inputs": [
        {
          "internalType": "uint256[]",
          "name": "el",
          "type": "uint256[]"
        }
      ],
      "name": "poseidonSponge",
      "outputs": [
        {
          "internalType": "uint256",
          "name": "",
          "type": "uint256"
        }
      ],
      "stateMutability": "pure",
      "type": "function"
    }
  ],
  "bytecode": "0x61057361003a600b82828239805160001a60731461002d57634e487b7160e01b600052600060045260246000fd5b30600052607381538281f3fe73000000000000000000000000000000000000000030146080604052600436106100875760003560e01c8063a8ba0b2811610065578063a8ba0b28146100d7578063ac490f26146100ea578063c2720d54146100fd578063db809cd51461011057600080fd5b806327babae21461008c57806347632628146100b15780638844c1a6146100c4575b600080fd5b61009f61009a36600461034a565b610123565b60405190815260200160405180910390f35b61009f6100bf366004610372565b6101a4565b61009f6100d2366004610394565b6101de565b61009f6100e53660046103b6565b610218565b61009f6100f836600461042b565b61029c565b61009f61010b36600461044d565b6102d6565b61009f61011e36600461046f565b610310565b6040516304b98e1d60e31b815260009073__$7be08fecc3807f84aa6f1379df4a0bacab$__906325cc70e89061015d908590600401610491565b602060405180830381865af415801561017a573d6000803e3d6000fd5b505050506040513d601f19601f8201168201806040525081019061019e91906104a0565b92915050565b6040516314d2f97b60e11b815260009073__$fbeb5befa027514ec1a78eb8886549b8a2$__906329a5f2f69061015d9085906004016104b9565b604051631caab9a760e01b815260009073__$b798475344e5b42ea17f794ebe84cab7e8$__90631caab9a79061015d9085906004016104c8565b6040516340ec6e4960e01b815260009073__$1b25989371b4022db49653cc4d10b17012$__906340ec6e499061025490869086906004016104d7565b602060405180830381865af4158015610271573d6000803e3d6000fd5b505050506040513d601f19601f8201168201806040525081019061029591906104a0565b9392505050565b60405163248f667760e01b815260009073__$7fddcf72717bc68d45d8d6a2b537d0d172$__9063248f66779061015d908590600401610510565b604051630926f44b60e31b815260009073__$f2ef9f8a42f13e3f4cfe2f1fe5c7444a7e$__90634937a2589061015d90859060040161051f565b604051631eb694f160e31b815260009073__$263aa3b0735d68f8af8b7219d3f4695519$__9063f5b4a7889061015d90859060040161052e565b60006060828403121561035c57600080fd5b8260608301111561036c57600080fd5b50919050565b60006040828403121561038457600080fd5b8260408301111561036c57600080fd5b6000602082840312156103a657600080fd5b8260208301111561036c57600080fd5b600080602083850312156103c957600080fd5b823567ffffffffffffffff808211156103e157600080fd5b818501915085601f8301126103f557600080fd5b81358181111561040457600080fd5b8660208260051b850101111561041957600080fd5b60209290920196919550909350505050565b60006080828403121561043d57600080fd5b8260808301111561036c57600080fd5b600060a0828403121561045f57600080fd5b8260a08301111561036c57600080fd5b600060c0828403121561048157600080fd5b8260c08301111561036c57600080fd5b60608181019083833792915050565b6000602082840312156104b257600080fd5b5051919050565b60408181019083833792915050565b60208181019083833792915050565b6020808252810182905260006001600160fb1b038311156104f757600080fd5b8260051b80856040850137919091016040019392505050565b60808181019083833792915050565b60a08181019083833792915050565b60c0818101908383379291505056fea2646970667358221220493eddbb8c3d010cb063c0651ac45c232deedb602b23df87c4b30c63bdcdf5e864736f6c63430008100033",
  "linkReferences": {
    "contracts/libs/Poseidon.sol": {
      "PoseidonUnit1L": [
        {
          "length": 20,
          "start": 554
        }
      ],
      "PoseidonUnit2L": [
        {
          "length": 20,
          "start": 496
        }
      ],
      "PoseidonUnit3L": [
        {
          "length": 20,
          "start": 367
        }
      ],
      "PoseidonUnit4L": [
        {
          "length": 20,
          "start": 744
        }
      ],
      "PoseidonUnit5L": [
        {
          "length": 20,
          "start": 802
        }
      ],
      "PoseidonUnit6L": [
        {
          "length": 20,
          "start": 860
        }
      ],
      "SpongePoseidon": [
        {
          "length": 20,
          "start": 612
        }
      ]
    }
  },
  "deployedLinkReferences": {
    "contracts/libs/Poseidon.sol": {
      "PoseidonUnit1L": [
        {
          "length": 20,
          "start": 496
        }
      ],
      "PoseidonUnit2L": [
        {
          "length": 20,
          "start": 438
        }
      ],
      "PoseidonUnit3L": [
        {
          "length": 20,
          "start": 309
        }
      ],
      "PoseidonUnit4L": [
        {
          "length": 20,
          "start": 686
        }
      ],
      "PoseidonUnit5L": [
        {
          "length": 20,
          "start": 744
        }
      ],
      "PoseidonUnit6L": [
        {
          "length": 20,
          "start": 802
        }
      ],
      "SpongePoseidon": [
        {
          "length": 20,
          "start": 554
        }
      ]
    }
  }
}