{
  "_format": "hh-sol-artifact-1",
  "contractName": "PoseidonUnit1L",
  "sourceName": "contracts/libs/Poseidon.sol",
  "abi": [
    {
      "inputs": [
        {
          "internalType": "uint256[1]",
          "name": "",
          "type": "uint256[1]"
        }
      ],
      "name": "poseidon",
      "outputs": [
        {
          "internalType": "uint256",
          "name": "",
          "type": "uint256"
        }
      ],
      "stateMutability": "pure",
      "type": "function"
    }
  ],
  "bytecode": "0x60806040523461001d575b60405160c561002b82393081505060c590f35b610025600080fd5b61000a56fe608060405260043610156016575b6014600080fd5b005b60003560e01c631caab9a703600d57602b606c565b600d565b91906020830111603b57565b6042600080fd5b565b90605591602081830312605857602f565b90565b605f600080fd5b602f565b90815260200190565b50608b6080607a3660046044565b50600090565b604051918291826063565b0390f3fea26469706673582212209f2bbddaa700489dfac0ab643609d2c4bcd7adc5c3dc9589881504e16b8356c964736f6c63430008100033",
  "linkReferences": {},
  "deployedLinkReferences": {}
}