{
  "_format": "hh-sol-artifact-1",
  "contractName": "PoseidonUnit4L",
  "sourceName": "contracts/libs/Poseidon.sol",
  "abi": [
    {
      "inputs": [
        {
          "internalType": "uint256[4]",
          "name": "",
          "type": "uint256[4]"
        }
      ],
      "name": "poseidon",
      "outputs": [
        {
          "internalType": "uint256",
          "name": "",
          "type": "uint256"
        }
      ],
      "stateMutability": "pure",
      "type": "function"
    }
  ],
  "bytecode": "0x60b7610039600b82828239805160001a60731461002c57634e487b7160e01b600052600060045260246000fd5b30600052607381538281f3fe730000000000000000000000000000000000000000301460806040526004361060335760003560e01c8063248f6677146038575b600080fd5b60496043366004605b565b50600090565b60405190815260200160405180910390f35b600060808284031215606c57600080fd5b82608083011115607b57600080fd5b5091905056fea264697066735822122095c3af99b03531fc44f91b7f46747458a3ba7a1cfbc1e1b214bc4691337f797d64736f6c63430008100033",
  "linkReferences": {},
  "deployedLinkReferences": {}
}