{
  "_format": "hh-sol-artifact-1",
  "contractName": "SpongePoseidon",
  "sourceName": "contracts/libs/Poseidon.sol",
  "abi": [
    {
      "inputs": [
        {
          "internalType": "uint256[]",
          "name": "values",
          "type": "uint256[]"
        }
      ],
      "name": "hash",
      "outputs": [
        {
          "internalType": "uint256",
          "name": "",
          "type": "uint256"
        }
      ],
      "stateMutability": "pure",
      "type": "function"
    }
  ],
  "bytecode": "0x6103f361003a600b82828239805160001a60731461002d57634e487b7160e01b600052600060045260246000fd5b30600052607381538281f3fe73000000000000000000000000000000000000000030146080604052600436106100355760003560e01c806340ec6e491461003a575b600080fd5b61004d61004836600461028b565b61005f565b60405190815260200160405180910390f35b6000806040518060c001604052806000815260200160008152602001600081526020016000815260200160008152602001600081525090506000806000805b63ffffffff81168711156101ff576001935087878263ffffffff168181106100c8576100c8610300565b90506020020135858363ffffffff16600681106100e7576100e7610300565b60200201526100f86001600661032c565b63ffffffff168263ffffffff16036101df57604051631eb694f160e31b815273__$263aa3b0735d68f8af8b7219d3f4695519$__9063f5b4a78890610141908890600401610350565b602060405180830381865af415801561015e573d6000803e3d6000fd5b505050506040513d601f19601f820116820180604052508101906101829190610381565b9250600093506040518060c0016040528060008152602001600081526020016000815260200160008152602001600081526020016000815250945082856000600681106101d1576101d1610300565b6020020152600191506101ed565b816101e98161039a565b9250505b806101f78161039a565b91505061009e565b50821561028157604051631eb694f160e31b815273__$263aa3b0735d68f8af8b7219d3f4695519$__9063f5b4a7889061023d908790600401610350565b602060405180830381865af415801561025a573d6000803e3d6000fd5b505050506040513d601f19601f8201168201806040525081019061027e9190610381565b91505b5095945050505050565b6000806020838503121561029e57600080fd5b823567ffffffffffffffff808211156102b657600080fd5b818501915085601f8301126102ca57600080fd5b8135818111156102d957600080fd5b8660208260051b85010111156102ee57600080fd5b60209290920196919550909350505050565b634e487b7160e01b600052603260045260246000fd5b634e487b7160e01b600052601160045260246000fd5b63ffffffff82811682821603908082111561034957610349610316565b5092915050565b60c08101818360005b6006811015610378578151835260209283019290910190600101610359565b50505092915050565b60006020828403121561039357600080fd5b5051919050565b600063ffffffff8083168181036103b3576103b3610316565b600101939250505056fea26469706673582212207bf002017e14d6dda8bf3cb2508730f02aa6b0cb9440429a3a780e2293c5b32064736f6c63430008100033",
  "linkReferences": {
    "contracts/libs/Poseidon.sol": {
      "PoseidonUnit6L": [
        {
          "length": 20,
          "start": 339
        },
        {
          "length": 20,
          "start": 591
        }
      ]
    }
  },
  "deployedLinkReferences": {
    "contracts/libs/Poseidon.sol": {
      "PoseidonUnit6L": [
        {
          "length": 20,
          "start": 281
        },
        {
          "length": 20,
          "start": 533
        }
      ]
    }
  }
}