{
  "_format": "hh-sol-artifact-1",
  "contractName": "SpongePoseidon",
  "sourceName": "contracts/libs/Poseidon.sol",
  "abi": [
    {
      "inputs": [
        {
          "internalType": "uint256[]",
          "name": "values",
          "type": "uint256[]"
        }
      ],
      "name": "hash",
      "outputs": [
        {
          "internalType": "uint256",
          "name": "",
          "type": "uint256"
        }
      ],
      "stateMutability": "pure",
      "type": "function"
    }
  ],
  "bytecode": "0x60806040523461001f575b6040516105bd61002d8239308150506105bd90f35b610027600080fd5b61000a56fe60806040526004361015610018575b610016600080fd5b005b60003560e01c6340ec6e490361000e576100306100d2565b61000e565b909182601f8301121561007e575b602082359267ffffffffffffffff8411610071575b01926020830284011161006757565b61006f600080fd5b565b610079600080fd5b610058565b610086600080fd5b610043565b906100b4916020818303126100c5575b80359067ffffffffffffffff82116100b8575b01610035565b9091565b6100c0600080fd5b6100ae565b6100cd600080fd5b61009b565b506100fa6100ea6100e436600461008b565b906102f4565b6040519182918290815260200190565b0390f35b61010e61010b61010b9290565b90565b63ffffffff1690565b61010b60066100fe565b50634e487b7160e01b600052604160045260246000fd5b90601f01601f1916810190811067ffffffffffffffff82111761015a57604052565b610162610121565b604052565b9061006f61017460405190565b9283610138565b60209067ffffffffffffffff8111610191570290565b610199610121565b0290565b6101a961010b9161017b565b610167565b61010b61010b61010b9290565b50634e487b7160e01b600052601160045260246000fd5b60019063ffffffff1663ffffffff81146101ea570190565b6101f26101bb565b0190565b61010b61010b61010b9263ffffffff1690565b50634e487b7160e01b600052603260045260246000fd5b9160209181101561023057020190565b610238610209565b020190565b3590565b90602090600681101561023057020190565b63ffffffff908116911690039063ffffffff821161026d57565b61006f6101bb565b90505190565b9061010b916020818303121561027557610275600080fd5b6102a361029f60069390565b9190565b6000915b8383106102b45750505050565b6102ce6102c76001928451815260200190565b9260200190565b920191906102a7565b60c08101929161006f9190610293565b506040513d6000823e3d90fd5b9190610300600661019d565b9060009161030d836101ae565b906103188285830152565b610323826020830152565b61032e826040830152565b610339826060830152565b610344826080830152565b61034f8260a0830152565b938390829561035d866100fe565b80935b8661036a866101f6565b10156104ff575060019788916103aa6103956103908d8b61038a8b6101f6565b91610220565b61023d565b6103a76103a1846101f6565b87610241565b52565b6103c761010e6103b8610117565b6103c18d6100fe565b90610253565b63ffffffff8216036104eb5750505090602061042293926103f973__$263aa3b0735d68f8af8b7219d3f4695519$__90565b61041763f5b4a78861040a60405190565b9788948593849360e01b90565b8352600483016102d7565b03915af49283156104de575b6000936104ae575b50826104a461049e889961049961044d600661019d565b976104588a8d8b0152565b6104638a60208b0152565b61046e8a60408b0152565b6104798a60608b0152565b6104848a60808b0152565b61048f8a60a08b0152565b6103a78a8a610241565b6100fe565b936101d2565b9391929097610360565b6104d091935060203d81116104d7575b6104c88183610138565b81019061027b565b9138610436565b503d6104be565b6104e66102e7565b61042e565b6104a49192995061049e90959493956101d2565b955050945095505050610510575090565b61054b915060209073__$263aa3b0735d68f8af8b7219d3f4695519$__61041763f5b4a78861053e60405190565b9586948593849360e01b90565b03915af490811561057a575b600091610562575090565b61010b915060203d81116104d7576104c88183610138565b6105826102e7565b61055756fea26469706673582212203c9f3e991c5c46d6f5323de0da9134f4954054a320f45453eac32e1faa4407b864736f6c63430008100033",
  "linkReferences": {
    "contracts/libs/Poseidon.sol": {
      "PoseidonUnit6L": [
        {
          "length": 20,
          "start": 1040
        },
        {
          "length": 20,
          "start": 1351
        }
      ]
    }
  },
  "deployedLinkReferences": {
    "contracts/libs/Poseidon.sol": {
      "PoseidonUnit6L": [
        {
          "length": 20,
          "start": 995
        },
        {
          "length": 20,
          "start": 1306
        }
      ]
    }
  }
}