{
  "_format": "hh-sol-artifact-1",
  "contractName": "TokenRegistry",
  "sourceName": "contracts/TokenRegistry.sol",
  "abi": [
    {
      "inputs": [
        {
          "internalType": "address",
          "name": "_coordinator",
          "type": "address"
        }
      ],
      "stateMutability": "nonpayable",
      "type": "constructor"
    },
    {
      "inputs": [
        {
          "internalType": "address",
          "name": "tokenContract",
          "type": "address"
        }
      ],
      "name": "approveToken",
      "outputs": [],
      "stateMutability": "nonpayable",
      "type": "function"
    },
    {
      "inputs": [],
      "name": "coordinator",
      "outputs": [
        {
          "internalType": "address",
          "name": "",
          "type": "address"
        }
      ],
      "stateMutability": "view",
      "type": "function"
    },
    {
      "inputs": [],
      "name": "numTokens",
      "outputs": [
        {
          "internalType": "uint256",
          "name": "",
          "type": "uint256"
        }
      ],
      "stateMutability": "view",
      "type": "function"
    },
    {
      "inputs": [
        {
          "internalType": "address",
          "name": "",
          "type": "address"
        }
      ],
      "name": "pendingTokens",
      "outputs": [
        {
          "internalType": "bool",
          "name": "",
          "type": "bool"
        }
      ],
      "stateMutability": "view",
      "type": "function"
    },
    {
      "inputs": [
        {
          "internalType": "address",
          "name": "tokenContract",
          "type": "address"
        }
      ],
      "name": "registerToken",
      "outputs": [],
      "stateMutability": "nonpayable",
      "type": "function"
    },
    {
      "inputs": [
        {
          "internalType": "uint256",
          "name": "",
          "type": "uint256"
        }
      ],
      "name": "registeredTokens",
      "outputs": [
        {
          "internalType": "address",
          "name": "",
          "type": "address"
        }
      ],
      "stateMutability": "view",
      "type": "function"
    },
    {
      "inputs": [],
      "name": "rollupNC",
      "outputs": [
        {
          "internalType": "address",
          "name": "",
          "type": "address"
        }
      ],
      "stateMutability": "view",
      "type": "function"
    },
    {
      "inputs": [
        {
          "internalType": "address",
          "name": "_rollupNC",
          "type": "address"
        }
      ],
      "name": "setRollupNC",
      "outputs": [],
      "stateMutability": "nonpayable",
      "type": "function"
    }
  ],
  "bytecode": "0x608060405234801561001057600080fd5b5060405161046838038061046883398101604081905261002f91610059565b600080546001600160a01b0319166001600160a01b03929092169190911790556001600455610089565b60006020828403121561006b57600080fd5b81516001600160a01b038116811461008257600080fd5b9392505050565b6103d0806100986000396000f3fe608060405234801561001057600080fd5b50600436106100885760003560e01c806380b2edd81161005b57806380b2edd8146100f85780638e499bcf1461010b5780639a0ba2ea14610122578063c031a66f1461014b57600080fd5b806309824a801461008d5780630a009097146100a25780634351da2e146100d25780637bc7aa6e146100e5575b600080fd5b6100a061009b366004610314565b61017e565b005b6000546100b5906001600160a01b031681565b6040516001600160a01b0390911681526020015b60405180910390f35b6100a06100e0366004610314565b610210565b6001546100b5906001600160a01b031681565b6100a0610106366004610314565b61024c565b61011460045481565b6040519081526020016100c9565b6100b5610130366004610344565b6003602052600090815260409020546001600160a01b031681565b61016e610159366004610314565b60026020526000908152604090205460ff1681565b60405190151581526020016100c9565b6001600160a01b03811660009081526002602052604090205460ff16156101ec5760405162461bcd60e51b815260206004820152601960248201527f546f6b656e20616c726561647920726567697374657265642e0000000000000060448201526064015b60405180910390fd5b6001600160a01b03166000908152600260205260409020805460ff19166001179055565b6000546001600160a01b0316331461022a5761022a61035d565b600180546001600160a01b0319166001600160a01b0392909216919091179055565b6001546001600160a01b031633146102665761026661035d565b6001600160a01b03811660009081526002602052604090205460ff166102ce5760405162461bcd60e51b815260206004820152601860248201527f546f6b656e20776173206e6f742072656769737465726564000000000000000060448201526064016101e3565b600480549060006102de83610373565b9091555050600454600090815260036020526040902080546001600160a01b0319166001600160a01b0392909216919091179055565b60006020828403121561032657600080fd5b81356001600160a01b038116811461033d57600080fd5b9392505050565b60006020828403121561035657600080fd5b5035919050565b634e487b7160e01b600052600160045260246000fd5b60006001820161039357634e487b7160e01b600052601160045260246000fd5b506001019056fea26469706673582212207036d60662a7b2d204b3f1233ea7e6c5664d92b338ba2a1ac002d931336cb5a464736f6c63430008100033",
  "linkReferences": {},
  "deployedLinkReferences": {}
}