{
  "_format": "hh-sol-artifact-1",
  "contractName": "TokenRegistry",
  "sourceName": "contracts/TokenRegistry.sol",
  "abi": [
    {
      "inputs": [
        {
          "internalType": "address",
          "name": "_coordinator",
          "type": "address"
        }
      ],
      "stateMutability": "nonpayable",
      "type": "constructor"
    },
    {
      "inputs": [
        {
          "internalType": "address",
          "name": "tokenContract",
          "type": "address"
        }
      ],
      "name": "approveToken",
      "outputs": [],
      "stateMutability": "nonpayable",
      "type": "function"
    },
    {
      "inputs": [],
      "name": "coordinator",
      "outputs": [
        {
          "internalType": "address",
          "name": "",
          "type": "address"
        }
      ],
      "stateMutability": "view",
      "type": "function"
    },
    {
      "inputs": [],
      "name": "numTokens",
      "outputs": [
        {
          "internalType": "uint256",
          "name": "",
          "type": "uint256"
        }
      ],
      "stateMutability": "view",
      "type": "function"
    },
    {
      "inputs": [
        {
          "internalType": "address",
          "name": "",
          "type": "address"
        }
      ],
      "name": "pendingTokens",
      "outputs": [
        {
          "internalType": "bool",
          "name": "",
          "type": "bool"
        }
      ],
      "stateMutability": "view",
      "type": "function"
    },
    {
      "inputs": [
        {
          "internalType": "address",
          "name": "tokenContract",
          "type": "address"
        }
      ],
      "name": "registerToken",
      "outputs": [],
      "stateMutability": "nonpayable",
      "type": "function"
    },
    {
      "inputs": [
        {
          "internalType": "uint256",
          "name": "",
          "type": "uint256"
        }
      ],
      "name": "registeredTokens",
      "outputs": [
        {
          "internalType": "address",
          "name": "",
          "type": "address"
        }
      ],
      "stateMutability": "view",
      "type": "function"
    },
    {
      "inputs": [],
      "name": "rollupNC",
      "outputs": [
        {
          "internalType": "address",
          "name": "",
          "type": "address"
        }
      ],
      "stateMutability": "view",
      "type": "function"
    },
    {
      "inputs": [
        {
          "internalType": "address",
          "name": "_rollupNC",
          "type": "address"
        }
      ],
      "name": "setRollupNC",
      "outputs": [],
      "stateMutability": "nonpayable",
      "type": "function"
    }
  ],
  "bytecode": "0x60806040523462000031575b6200001f62000019620000f7565b620001b2565b604051610692620001d8823961069290f35b6200003a600080fd5b6200000b565b600080fd5b50634e487b7160e01b600052604160045260246000fd5b90601f01601f191681019081106001600160401b038211176200007e57604052565b6200008862000045565b604052565b90620000a46200009c60405190565b92836200005c565b565b6001600160a01b031690565b90565b6001600160a01b038116036200004057565b90505190620000a482620000b5565b90620000b29160208183031215620000c757620000f1600080fd5b620000c7565b620000b26200086a803803806200010e816200008d565b928339810190620000d6565b906001600160a01b03905b9181191691161790565b620000b290620000a6906001600160a01b031682565b620000b2906200012f565b620000b29062000145565b906200016f620000b2620001779262000150565b82546200011a565b9055565b620000b2620000b2620000b29290565b906000199062000125565b90620001aa620000b262000177926200017b565b82546200018b565b620001bf9060006200015b565b620000a4620001cf60016200017b565b60046200019656fe60806040526004361015610018575b610016600080fd5b005b60003560e01c806309824a80146100b85780630a009097146100af5780634351da2e146100a65780637bc7aa6e1461009d57806380b2edd8146100945780638e499bcf1461008b5780639a0ba2ea146100825763c031a66f0361000e5761007d61039b565b61000e565b5061007d610310565b5061007d61026a565b5061007d610221565b5061007d6101f7565b5061007d6101c4565b5061007d610180565b5061007d610113565b600080fd5b6001600160a01b031690565b90565b6001600160a01b0381165b036100c157565b905035906100f4826100d5565b565b906100d291602081830312156100e75761010e600080fd5b6100e7565b5034610136575b61012d6101283660046100f6565b610507565b604051005b0390f35b61013e600080fd5b61011a565b600091031261014e57565b6100f4600080fd5b6100d2916008021c6001600160a01b031690565b906100d29154610156565b6100d260008061016a565b50346101b7575b610192366004610143565b61013261019d610175565b604051918291826001600160a01b03909116815260200190565b6101bf600080fd5b610187565b50346101de575b61012d6101d93660046100f6565b61047b565b6101e6600080fd5b6101cb565b6100d26000600161016a565b5034610214575b610209366004610143565b61013261019d6101eb565b61021c600080fd5b6101fe565b503461023b575b61012d6102363660046100f6565b610653565b610243600080fd5b610228565b6100d2916008021c81565b906100d29154610248565b6100d260006004610253565b5034610297575b61027c366004610143565b61013261028761025e565b6040519182918290815260200190565b61029f600080fd5b610271565b806100e0565b905035906100f4826102a4565b906100d291602081830312156102aa576102cf600080fd5b6102aa565b6100d26100d26100d29290565b906102eb906102d4565b600052602052604060002090565b6100d29061030b6003916000926102e1565b61016a565b503461032d575b61013261019d6103283660046102b7565b6102f9565b610335600080fd5b610317565b6100d2906100c6906001600160a01b031682565b6100d29061033a565b6100d29061034e565b906102eb90610357565b6100d2916008021c5b60ff1690565b906100d2915461036a565b6100d290610396600291600092610360565b610379565b50346103ca575b6101326103b86103b33660046100f6565b610384565b60405191829182901515815260200190565b6103d2600080fd5b6103a2565b6100d2906100c6565b6100d290546103d7565b50634e487b7160e01b600052600160045260246000fd5b1561040857565b6100f46103ea565b6100f49061043b336104356104286100c660006103e0565b916001600160a01b031690565b14610401565b610470565b906001600160a01b03905b9181191691161790565b906104656100d261046c92610357565b8254610440565b9055565b6100f4906001610455565b6100f490610410565b6100d290610373565b6100d29054610484565b0190565b156104a257565b60405162461bcd60e51b815260206004820152601960248201527f546f6b656e20616c726561647920726567697374657265642e000000000000006044820152606490fd5b9060ff9061044b565b906105006100d261046c92151590565b82546104e7565b6100f49061053460029161052c6105266105218386610360565b61048d565b1561049b565b600192610360565b6104f0565b6100f490610551336104356104286100c660016103e0565b610603565b1561055d57565b60405162461bcd60e51b815260206004820152601860248201527f546f6b656e20776173206e6f74207265676973746572656400000000000000006044820152606490fd5b6100d29081565b6100d290546105a2565b50634e487b7160e01b600052601160045260246000fd5b60019060001981146105da570190565b6104976105b3565b906000199061044b565b906105fc6100d261046c926102d4565b82546105e2565b6100f49061061d610618610521836002610360565b610556565b61063961063261062d60046105a9565b6105ca565b60046105ec565b61064e600361064860046105a9565b906102e1565b610455565b6100f49061053956fea26469706673582212205e3cda1c7ec0845279631422b3d23852fccfe2bc577664b36cb716d1ae4fe0df64736f6c63430008100033",
  "linkReferences": {},
  "deployedLinkReferences": {}
}