{
  "_format": "hh-sol-artifact-1",
  "contractName": "WithdrawVerifier",
  "sourceName": "contracts/WithdrawVerifier.sol",
  "abi": [
    {
      "inputs": [
        {
          "internalType": "uint256[2]",
          "name": "a",
          "type": "uint256[2]"
        },
        {
          "internalType": "uint256[2][2]",
          "name": "b",
          "type": "uint256[2][2]"
        },
        {
          "internalType": "uint256[2]",
          "name": "c",
          "type": "uint256[2]"
        },
        {
          "internalType": "uint256[3]",
          "name": "input",
          "type": "uint256[3]"
        }
      ],
      "name": "verifyProof",
      "outputs": [
        {
          "internalType": "bool",
          "name": "r",
          "type": "bool"
        }
      ],
      "stateMutability": "view",
      "type": "function"
    }
  ],
  "bytecode": "0x608060405234801561001057600080fd5b506111e0806100206000396000f3fe608060405234801561001057600080fd5b506004361061002b5760003560e01c806311479fea14610030575b600080fd5b61004361003e366004611020565b610057565b604051901515815260200160405180910390f35b6000610061610e34565b60408051808201825287518152602080890151818301529083528151608080820184528851518285019081528951840151606080850191909152908352845180860186528a8501805151825251850151818601528385015285840192909252835180850185528851815288840151818501528585015283516003808252918101909452600093929091908301908036833701905050905060005b600381101561014a57848160038110610116576101166110fe565b602002015182828151811061012d5761012d6110fe565b6020908102919091010152806101428161112a565b9150506100fb565b506101558183610176565b6000036101675760019250505061016e565b6000925050505b949350505050565b60007f30644e72e131a029b85045b68181585d2833e84879b9709143e1f593f0000001816101a261036d565b9050806080015151855160016101b89190611143565b146101ff5760405162461bcd60e51b81526020600482015260126024820152711d995c9a599a595c8b5898590b5a5b9c1d5d60721b60448201526064015b60405180910390fd5b604080518082019091526000808252602082018190525b86518110156102f05783878281518110610232576102326110fe565b6020026020010151106102875760405162461bcd60e51b815260206004820152601f60248201527f76657269666965722d6774652d736e61726b2d7363616c61722d6669656c640060448201526064016101f6565b6102dc826102d785608001518460016102a09190611143565b815181106102b0576102b06110fe565b60200260200101518a85815181106102ca576102ca6110fe565b6020026020010151610783565b610819565b9150806102e88161112a565b915050610216565b5061031981836080015160008151811061030c5761030c6110fe565b6020026020010151610819565b905061034f61032b86600001516108b2565b8660200151846000015185602001518587604001518b604001518960600151610951565b61035f5760019350505050610367565b600093505050505b92915050565b610375610e85565b6040805180820182527f2d4d9aa7e302d9df41749d5507949d05dbea33fbb16c643b22f599a2be6df2e281527f14bedd503c37ceb061d8ec60209fe345ce89830a19230301f076caff004d19266020808301919091529083528151608080820184527f0967032fcbf776d1afc985f88877f182d38480a653f2decaa9794cbc3bf3060c8285019081527f0e187847ad4c798374d0d6732bf501847dd68bc0e071241e0213bc7fc13db7ab606080850191909152908352845180860186527f304cfbd1e08a704a99f5e847d93f8c3caafddec46b7a0d379da69a4d112346a781527f1739c1b1a457a8c7313123d24d2f9192f896b7c63eea05a9d57f06547ad0cec8818601528385015285840192909252835180820185527f198e9393920d483a7260bfb731fb5d25f1aa493335a9e71297e485b7aef312c28186018181527f1800deef121f1e76426a00665e5c4479674322d4f75edadd46debd5cd992f6ed838601819052908352865180880188527f090689d0585ff075ec9e99ad690c3395bc4b313370b38ef355acdadcd122975b8082527f12c85ea5db8c6deb4aab71808dcb408fe3d1e7690c43d37b4ce6cc0166fa7daa82890181905285890192909252898901949094528751948501885284880192835284860191909152908352855180870187529182528185015281840152908401528151600480825260a08201909352919082015b604080518082019091526000808252602082015281526020019060019003908161057d57505060808201908152604080518082019091527f2093e8493deb7a4b972f6d6dfff1aed4bee267cc2e059d40cdbcd2e58a2a9be881527f1dfcc6ed73b3e94b7cc8f22d3042e4e2878ea170125814897248f75fa7d94704602082015290518051600090610610576106106110fe565b602002602001018190525060405180604001604052807f14c91308ab95656ff35e966dc96e138df07b646005df0b1854e858ae346872a181526020017f08215eee1420b1d95e7dcea7a9cbf3c032b81c28da38620670174d0c90ae24668152508160800151600181518110610687576106876110fe565b602002602001018190525060405180604001604052807f0c14c37264e19702f7d5d4f1ccf586624fd832fd2bf088d6d672356cae8c78f481526020017f305525a805d0800d123efe27790f0680687c2706dea189fe80fb4b97e6769d5181525081608001516002815181106106fe576106fe6110fe565b602002602001018190525060405180604001604052807f22d9c2d063bcf7941393eeeab3e2605b7be2859f7c4e11cdc98ab2c4ff22db4181526020017f240bee8cb88692669601cbaa7d5c22ffc5f94d2efab827accdb5d66f5272a3428152508160800151600381518110610775576107756110fe565b602002602001018190525090565b604080518082019091526000808252602082015261079f610ed6565b835181526020808501519082015260408101839052600060608360808460076107d05a03fa905080806107ce57fe5b50806108115760405162461bcd60e51b81526020600482015260126024820152711c185a5c9a5b99cb5b5d5b0b59985a5b195960721b60448201526064016101f6565b505092915050565b6040805180820190915260008082526020820152610835610ef4565b8351815260208085015181830152835160408301528301516060808301919091526000908360c08460066107d05a03fa9050808061086f57fe5b50806108115760405162461bcd60e51b81526020600482015260126024820152711c185a5c9a5b99cb5859190b59985a5b195960721b60448201526064016101f6565b604080518082019091526000808252602082015281517f30644e72e131a029b85045b68181585d97816a916871ca8d3c208c16d87cfd47901580156108f957506020830151155b156109195750506040805180820190915260008082526020820152919050565b60405180604001604052808460000151815260200182856020015161093e9190611156565b6109489084611178565b90529392505050565b60408051600480825260a08201909252600091829190816020015b604080518082019091526000808252602082015281526020019060019003908161096c57505060408051600480825260a0820190925291925060009190602082015b6109b6610f12565b8152602001906001900390816109ae5790505090508a826000815181106109df576109df6110fe565b602002602001018190525088826001815181106109fe576109fe6110fe565b60200260200101819052508682600281518110610a1d57610a1d6110fe565b60200260200101819052508482600381518110610a3c57610a3c6110fe565b60200260200101819052508981600081518110610a5b57610a5b6110fe565b60200260200101819052508781600181518110610a7a57610a7a6110fe565b60200260200101819052508581600281518110610a9957610a996110fe565b60200260200101819052508381600381518110610ab857610ab86110fe565b6020026020010181905250610acd8282610adc565b9b9a5050505050505050505050565b60008151835114610b285760405162461bcd60e51b81526020600482015260166024820152751c185a5c9a5b99cb5b195b99dd1a1ccb59985a5b195960521b60448201526064016101f6565b82516000610b3782600661118b565b905060008167ffffffffffffffff811115610b5457610b54610f6e565b604051908082528060200260200182016040528015610b7d578160200160208202803683370190505b50905060005b83811015610db857868181518110610b9d57610b9d6110fe565b60200260200101516000015182826006610bb7919061118b565b610bc2906000611143565b81518110610bd257610bd26110fe565b602002602001018181525050868181518110610bf057610bf06110fe565b60200260200101516020015182826006610c0a919061118b565b610c15906001611143565b81518110610c2557610c256110fe565b602002602001018181525050858181518110610c4357610c436110fe565b6020908102919091010151515182610c5c83600661118b565b610c67906002611143565b81518110610c7757610c776110fe565b602002602001018181525050858181518110610c9557610c956110fe565b60209081029190910181015151015182610cb083600661118b565b610cbb906003611143565b81518110610ccb57610ccb6110fe565b602002602001018181525050858181518110610ce957610ce96110fe565b602002602001015160200151600060028110610d0757610d076110fe565b602002015182610d1883600661118b565b610d23906004611143565b81518110610d3357610d336110fe565b602002602001018181525050858181518110610d5157610d516110fe565b602002602001015160200151600160028110610d6f57610d6f6110fe565b602002015182610d8083600661118b565b610d8b906005611143565b81518110610d9b57610d9b6110fe565b602090810291909101015280610db08161112a565b915050610b83565b50610dc1610f32565b6000602082602086026020860160086107d05a03fa90508080610de057fe5b5080610e265760405162461bcd60e51b81526020600482015260156024820152741c185a5c9a5b99cb5bdc18dbd9194b59985a5b1959605a1b60448201526064016101f6565b505115159695505050505050565b6040805160a081019091526000606082018181526080830191909152815260208101610e5e610f12565b8152602001610e80604051806040016040528060008152602001600081525090565b905290565b6040805160e08101909152600060a0820181815260c0830191909152815260208101610eaf610f12565b8152602001610ebc610f12565b8152602001610ec9610f12565b8152602001606081525090565b60405180606001604052806003906020820280368337509192915050565b60405180608001604052806004906020820280368337509192915050565b6040518060400160405280610f25610f50565b8152602001610e80610f50565b60405180602001604052806001906020820280368337509192915050565b60405180604001604052806002906020820280368337509192915050565b634e487b7160e01b600052604160045260246000fd5b6040805190810167ffffffffffffffff81118282101715610fa757610fa7610f6e565b60405290565b6040516060810167ffffffffffffffff81118282101715610fa757610fa7610f6e565b600082601f830112610fe157600080fd5b610fe9610f84565b806040840185811115610ffb57600080fd5b845b81811015611015578035845260209384019301610ffd565b509095945050505050565b60008060008061016080868803121561103857600080fd5b6110428787610fd0565b9450604087605f88011261105557600080fd5b61105d610f84565b8060c089018a81111561106f57600080fd5b838a015b81811015611094576110858c82610fd0565b84526020909301928401611073565b508197506110a28b82610fd0565b9650505050508661011f8701126110b857600080fd5b6110c0610fad565b9086019080888311156110d257600080fd5b61010088015b838110156110f05780358352602092830192016110d8565b509598949750929550505050565b634e487b7160e01b600052603260045260246000fd5b634e487b7160e01b600052601160045260246000fd5b60006001820161113c5761113c611114565b5060010190565b8082018082111561036757610367611114565b60008261117357634e487b7160e01b600052601260045260246000fd5b500690565b8181038181111561036757610367611114565b60008160001904831182151516156111a5576111a5611114565b50029056fea26469706673582212205e9441c6aca7a4be3b6d6a8510c86b483777d0874acbec70ce84410debc8b8dc64736f6c63430008100033",
  "linkReferences": {},
  "deployedLinkReferences": {}
}