{
  "_format": "hh-sol-artifact-1",
  "contractName": "WithdrawVerifier",
  "sourceName": "contracts/WithdrawVerifier.sol",
  "abi": [
    {
      "inputs": [
        {
          "internalType": "uint256[2]",
          "name": "a",
          "type": "uint256[2]"
        },
        {
          "internalType": "uint256[2][2]",
          "name": "b",
          "type": "uint256[2][2]"
        },
        {
          "internalType": "uint256[2]",
          "name": "c",
          "type": "uint256[2]"
        },
        {
          "internalType": "uint256[3]",
          "name": "input",
          "type": "uint256[3]"
        }
      ],
      "name": "verifyProof",
      "outputs": [
        {
          "internalType": "bool",
          "name": "r",
          "type": "bool"
        }
      ],
      "stateMutability": "view",
      "type": "function"
    }
  ],
  "bytecode": "0x60806040523461001b575b6040516115f361002982396115f390f35b610023600080fd5b61000a56fe60806040526004361015610018575b610016600080fd5b005b60003560e01c6311479fea0361000e5761003061026a565b61000e565b50634e487b7160e01b600052604160045260246000fd5b90601f01601f1916810190811067ffffffffffffffff82111761006e57604052565b610076610035565b604052565b9061008f61008860405190565b928361004c565b565b60209067ffffffffffffffff81116100a7570290565b6100af610035565b0290565b909291926100c86100c382610091565b61007b565b9360208592028301928184116100f8575b915b8383106100e85750505050565b82358152602092830192016100db565b610100600080fd5b6100d9565b9061011e9181601f82011215610121575b6002906100b3565b90565b610129600080fd5b610116565b9092919261013e6100c382610091565b936040859202830192818411610178575b915b83831061015e5750505050565b602060409161016d8486610105565b815201920191610151565b610180600080fd5b61014f565b9061011e9181601f8201121561019e575b60029061012e565b6101a6600080fd5b610196565b909291926101bb6100c382610091565b9360208592028301928184116101eb575b915b8383106101db5750505050565b82358152602092830192016101ce565b6101f3600080fd5b6101cc565b9061011e9181601f82011215610211575b6003906101ab565b610219600080fd5b610209565b6101608183031261025d575b6102348282610105565b9261011e6102458460408501610185565b936102538160c08601610105565b93610100016101f8565b610265600080fd5b61022a565b50346102a1575b61029d61028b61028236600461021e565b92919091610473565b60405191829182901515815260200190565b0390f35b6102a9600080fd5b610271565b61011e606061007b565b61011e604061007b565b6102ca6102b8565b906000825260006020830152565b905250565b61011e6102c2565b6100c361011e91610091565b369037565b9061008f61030c610306846102e5565b93610091565b836102f1565b61011e60026102f6565b6103246102b8565b9061032d610312565b825260208083016102d8610312565b61011e61031c565b61034c6102ae565b906103556102dd565b825260208080840161036561033c565b8152016102d86102dd565b61011e610344565b61011e61011e61011e9290565b50634e487b7160e01b600052603260045260246000fd5b9060209060025b8110156103b0575b020190565b6103ab610385565b6020809167ffffffffffffffff81116103d057020190565b6103ab610035565b906103e56100c3836103b8565b918252565b9061008f6104006103fa846103d8565b936103b8565b601f1901602084016102f1565b50634e487b7160e01b600052601160045260246000fd5b6001906000198114610434570190565b61043c61040d565b0190565b9060209060036103a3565b9060208091610458845190565b811015610466575b02010190565b61046e610385565b610460565b9290919061047f610370565b9160009361048c85610378565b610496908761039c565b516001966104a388610378565b6104ac9161039c565b516104b56102b8565b916104c09088840152565b6020820152858501526104d360026102e5565b906104dd86610378565b6104e7908261039c565b516104f187610378565b6104fa9161039c565b518683015261050886610378565b610512908261039c565b5161051c88610378565b6105259161039c565b51602083015261053560026102e5565b9061053f88610378565b610549908261039c565b5161055388610378565b61055c9161039c565b518783015261056a88610378565b6105739161039c565b5161057d88610378565b6105869161039c565b5160208201526105946102b8565b91868301906105a09152565b602082015260208401526105b384610378565b6105bd908261039c565b51906105c886610378565b6105d19161039c565b516105da6102b8565b916105e59086840152565b60208201526040830152836003916105fc836103ea565b928261060787610378565b905b61063a575b505050509061061c91610719565b61062c61062883610378565b9190565b03610635575090565b905090565b81811015610672578061066761065a61065661066c9487610440565b5190565b610664838961044b565b52565b610424565b83610609565b61060e565b9190820180921161068457565b61008f61040d565b1561069357565b60405162461bcd60e51b81526020600482015260126024820152711d995c9a599a595c8b5898590b5a5b9c1d5d60721b6044820152606490fd5b156106d457565b60405162461bcd60e51b815260206004820152601f60248201527f76657269666965722d6774652d736e61726b2d7363616c61722d6669656c64006044820152606490fd5b61076e91906107477f30644e72e131a029b85045b68181585d2833e84879b9709143e1f593f0000001610378565b91610750611139565b90610759835190565b93600195869561076887610378565b90610677565b9361078c608085019561078661062861011e89515190565b1461068c565b600094866107986102b8565b926107a288610378565b99846107af8c8b81980152565b6107ba866020830152565b9585935b61082c575b5050505061081694926107df61081a9795936107e6935161044b565b5190610a16565b6107f2848301516108f4565b93602083015190840151602085015191606060408088015196015196015196610c0f565b1590565b610822575090565b61011e9150610378565b91939461083e61011e86989395985190565b8710156108af575061089e6108a49161086461085d6106568a8961044b565b85116106cd565b610898610884885161087e61087889610378565b8c610677565b9061044b565b516108926106568b8a61044b565b90610b03565b90610a16565b95610424565b918a949391816107be565b9493839196506107c3565b50634e487b7160e01b600052601260045260246000fd5b81156108db570690565b6108e36108ba565b0690565b9190820391821161068457565b6108fc6102dd565b506109267f30644e72e131a029b85045b68181585d97816a916871ca8d3c208c16d87cfd47610378565b81519160009261093861062885610378565b14806109a8575b610987576109806109718361096b61011e9561096660206109608a89015190565b97015190565b6108d1565b906108e7565b9161097a6102b8565b94850152565b6020830152565b505061011e6109946102b8565b916109806109a182610378565b8092850152565b5060208101516109ba61062885610378565b1461093f565b61011e60046102f6565b9060209060046103a3565b156109dc57565b60405162461bcd60e51b81526020600482015260126024820152711c185a5c9a5b99cb5859190b59985a5b195960721b6044820152606490fd5b919091610a216102dd565b9283610a2b6109c0565b91610a34845190565b93600094610a4186610378565b610a4b90866109ca565b5260200151610a5a6001610378565b610a6490856109ca565b5283810151610a736002610378565b610a7d90856109ca565b5260200151610a8c6003610378565b610a9690846109ca565b525a6107d09003606092600660c092fa809114610ab65761008f906109d5565bfe5b61011e60036102f6565b15610ac957565b60405162461bcd60e51b81526020600482015260126024820152711c185a5c9a5b99cb5b5d5b0b59985a5b195960721b6044820152606490fd5b6060610b44919392936080610b166102dd565b91610b758397610b62610b4f6020610b2c610ab8565b95610b4a610b38825190565b61066460009d8e610378565b8a610440565b015190565b610664610b5c6001610378565b86610440565b610664610b6f6002610378565b84610440565b60076107d05a03fa809114610ab65761008f90610ac2565b60005b828110610b9c57505050565b602090610ba76102dd565b8184015201610b90565b9061008f610bc16103fa846103d8565b601f190160208401610b8d565b60005b828110610bdd57505050565b602090610be861033c565b8184015201610bd1565b9061008f610c026103fa846103d8565b601f190160208401610bce565b9693929594919095610c1f600090565b50610c2a6004610378565b97610c3489610bb1565b98610c3e90610bf2565b97600091610c4b83610378565b610c55908c61044b565b52610c5f82610378565b610c69908b61044b565b50600193610c7685610378565b610c80908c61044b565b52610c8a84610378565b610c94908b61044b565b50600295610ca187610378565b610cab908c61044b565b52610cb586610378565b610cbf908b61044b565b50600397610ccc89610378565b610cd6908c61044b565b52610ce088610378565b610cea908b61044b565b50610cf482610378565b610cfe908a61044b565b52610d0890610378565b610d12908861044b565b50610d1c82610378565b610d26908861044b565b52610d3090610378565b610d3a908661044b565b50610d4482610378565b610d4e908661044b565b52610d5890610378565b610d62908461044b565b50610d6c82610378565b610d76908461044b565b52610d8090610378565b610d8a908261044b565b5061011e91610e4d565b15610d9b57565b60405162461bcd60e51b81526020600482015260166024820152751c185a5c9a5b99cb5b195b99dd1a1ccb59985a5b195960521b6044820152606490fd5b8060001904821181151516610dec570290565b6100af61040d565b61011e60016102f6565b15610e0557565b60405162461bcd60e51b81526020600482015260156024820152741c185a5c9a5b99cb5bdc18dbd9194b59985a5b1959605a1b6044820152606490fd5b9060209060016103a3565b90916000610e70610e5c845190565b610e6a61062861011e885190565b14610d94565b825193600693610e88610e8286610378565b87610dd9565b93610e92856103ea565b94600094610e9f86610378565b895b8110156110875786610eb3828761044b565b510151610ebf8a610378565b610ec99083610dd9565b610ed289610378565b610edb91610677565b610ee5908a61044b565b52610ef0818661044b565b5160200151610efe8a610378565b610f089083610dd9565b90600191610f1583610378565b610f1e91610677565b610f28908b61044b565b5287610f34838961044b565b510151610f4089610378565b610f499161039c565b51610f538b610378565b610f5d9084610dd9565b610f676002610378565b610f7091610677565b610f7a908b61044b565b5287610f86838961044b565b510151610f9282610378565b610f9b9161039c565b51610fa58b610378565b610faf9084610dd9565b610fb96003610378565b610fc291610677565b610fcc908b61044b565b52610fd7828861044b565b5160200151610fe589610378565b610fee9161039c565b51610ff88b610378565b6110029084610dd9565b61100c6004610378565b61101591610677565b61101f908b61044b565b5261102a828861044b565b51602001519061103990610378565b6110429161039c565b5161104c8a610378565b6110569083610dd9565b6110606005610378565b61106991610677565b611073908a61044b565b52611080610ea191610424565b9050610e9f565b50935094915095506020929450828061109e610df4565b9586945002910160086107d05a03fa808314610ab6576110d96106566110df936110ca61062894610dfe565b6110d386610378565b90610e42565b92610378565b141590565b61011e60a061007b565b6110f66110e4565b906110ff6102dd565b8252602080808080860161111161033c565b81520161111c61033c565b81520161112761033c565b8152016060905250565b61011e6110ee565b611141611131565b906115ba827f2d4d9aa7e302d9df41749d5507949d05dbea33fbb16c643b22f599a2be6df2e26111ab6109807f14bedd503c37ceb061d8ec60209fe345ce89830a19230301f076caff004d19266111a66111a261119c6102b8565b95610378565b8552565b610378565b81526111b760026102e5565b6111e76111e37f0967032fcbf776d1afc985f88877f182d38480a653f2decaa9794cbc3bf3060c610378565b8252565b6112136109807f0e187847ad4c798374d0d6732bf501847dd68bc0e071241e0213bc7fc13db7ab610378565b61128861122060026102e5565b61124c6111e37f304cfbd1e08a704a99f5e847d93f8c3caafddec46b7a0d379da69a4d112346a7610378565b6112786109807f1739c1b1a457a8c7313123d24d2f9192f896b7c63eea05a9d57f06547ad0cec8610378565b6109806112836102b8565b938452565b602082015261129760026102e5565b6113a66112c37f198e9393920d483a7260bfb731fb5d25f1aa493335a9e71297e485b7aef312c2610378565b916112cc838252565b6112786112f87f1800deef121f1e76426a00665e5c4479674322d4f75edadd46debd5cd992f6ed610378565b611303816020850152565b61139961131060026102e5565b9161133a7f090689d0585ff075ec9e99ad690c3395bc4b313370b38ef355acdadcd122975b610378565b94611343868552565b61137b61136f7f12c85ea5db8c6deb4aab71808dcb408fe3d1e7690c43d37b4ce6cc0166fa7daa610378565b94611278866020830152565b604089015261139261138d60026102e5565b978852565b6020870152565b61098061128360026102e5565b606082015260806113bf6113ba6004610378565b610bb1565b910190815261087e7f2093e8493deb7a4b972f6d6dfff1aed4bee267cc2e059d40cdbcd2e58a2a9be89161142f6114287f1dfcc6ed73b3e94b7cc8f22d3042e4e2878ea170125814897248f75fa7d947046111a661142461141e6102b8565b97610378565b8752565b6020850152565b611453815160009461144961144387610378565b8361044b565b5261087e85610378565b506114d47f14c91308ab95656ff35e966dc96e138df07b646005df0b1854e858ae346872a16114b36109807f08215eee1420b1d95e7dcea7a9cbf3c032b81c28da38620670174d0c90ae24666111a66114ad61119c6102b8565b89860152565b61087e8351916001906114ce6114c883610378565b8561044b565b52610378565b506115437f0c14c37264e19702f7d5d4f1ccf586624fd832fd2bf088d6d672356cae8c78f461152e6109807f305525a805d0800d123efe27790f0680687c2706dea189fe80fb4b97e6769d516111a66114ad61119c6102b8565b61087e8351916002906114ce6114c883610378565b51506115a96114287f22d9c2d063bcf7941393eeeab3e2605b7be2859f7c4e11cdc98ab2c4ff22db41946111a67f240bee8cb88692669601cbaa7d5c22ffc5f94d2efab827accdb5d66f5272a342916115a361159d6102b8565b98610378565b90880152565b51916003906114ce6114c883610378565b5056fea2646970667358221220630bd85e8bdb55d89f641e4afab438e2563f205320e37017ac7b7814eb4b537a64736f6c63430008100033",
  "linkReferences": {},
  "deployedLinkReferences": {}
}