{
  "_format": "hh-sol-artifact-1",
  "contractName": "IERC20",
  "sourceName": "contracts/Rollup.sol",
  "abi": [
    {
      "inputs": [
        {
          "internalType": "address",
          "name": "owner",
          "type": "address"
        },
        {
          "internalType": "address",
          "name": "spender",
          "type": "address"
        }
      ],
      "name": "allowance",
      "outputs": [
        {
          "internalType": "uint256",
          "name": "",
          "type": "uint256"
        }
      ],
      "stateMutability": "view",
      "type": "function"
    },
    {
      "inputs": [
        {
          "internalType": "address",
          "name": "account",
          "type": "address"
        }
      ],
      "name": "balanceOf",
      "outputs": [
        {
          "internalType": "uint256",
          "name": "",
          "type": "uint256"
        }
      ],
      "stateMutability": "view",
      "type": "function"
    },
    {
      "inputs": [
        {
          "internalType": "address",
          "name": "recipient",
          "type": "address"
        },
        {
          "internalType": "uint256",
          "name": "value",
          "type": "uint256"
        }
      ],
      "name": "transfer",
      "outputs": [
        {
          "internalType": "bool",
          "name": "",
          "type": "bool"
        }
      ],
      "stateMutability": "nonpayable",
      "type": "function"
    },
    {
      "inputs": [
        {
          "internalType": "address",
          "name": "from",
          "type": "address"
        },
        {
          "internalType": "address",
          "name": "to",
          "type": "address"
        },
        {
          "internalType": "uint256",
          "name": "value",
          "type": "uint256"
        }
      ],
      "name": "transferFrom",
      "outputs": [
        {
          "internalType": "bool",
          "name": "",
          "type": "bool"
        }
      ],
      "stateMutability": "nonpayable",
      "type": "function"
    }
  ],
  "bytecode": "0x608060405234801561001057600080fd5b506101d0806100206000396000f3fe608060405234801561001057600080fd5b506004361061004c5760003560e01c806323b872dd1461005157806370a082311461007d578063a9059cbb1461009f578063dd62ed3e146100b5575b600080fd5b61006861005f3660046100df565b60009392505050565b60405190151581526020015b60405180910390f35b61009161008b36600461011b565b50600090565b604051908152602001610074565b6100686100ad36600461013d565b600092915050565b6100916100ad366004610167565b80356001600160a01b03811681146100da57600080fd5b919050565b6000806000606084860312156100f457600080fd5b6100fd846100c3565b925061010b602085016100c3565b9150604084013590509250925092565b60006020828403121561012d57600080fd5b610136826100c3565b9392505050565b6000806040838503121561015057600080fd5b610159836100c3565b946020939093013593505050565b6000806040838503121561017a57600080fd5b610183836100c3565b9150610191602084016100c3565b9050925092905056fea2646970667358221220b97d81c4b849adb2d8a8db69c8c086018d8f6ab87edb048316f500902275713464736f6c63430008100033",
  "linkReferences": {},
  "deployedLinkReferences": {}
}