{
  "_format": "hh-sol-artifact-1",
  "contractName": "IERC20",
  "sourceName": "contracts/Rollup.sol",
  "abi": [
    {
      "inputs": [
        {
          "internalType": "address",
          "name": "owner",
          "type": "address"
        },
        {
          "internalType": "address",
          "name": "spender",
          "type": "address"
        }
      ],
      "name": "allowance",
      "outputs": [
        {
          "internalType": "uint256",
          "name": "",
          "type": "uint256"
        }
      ],
      "stateMutability": "view",
      "type": "function"
    },
    {
      "inputs": [
        {
          "internalType": "address",
          "name": "account",
          "type": "address"
        }
      ],
      "name": "balanceOf",
      "outputs": [
        {
          "internalType": "uint256",
          "name": "",
          "type": "uint256"
        }
      ],
      "stateMutability": "view",
      "type": "function"
    },
    {
      "inputs": [
        {
          "internalType": "address",
          "name": "recipient",
          "type": "address"
        },
        {
          "internalType": "uint256",
          "name": "value",
          "type": "uint256"
        }
      ],
      "name": "transfer",
      "outputs": [
        {
          "internalType": "bool",
          "name": "",
          "type": "bool"
        }
      ],
      "stateMutability": "nonpayable",
      "type": "function"
    },
    {
      "inputs": [
        {
          "internalType": "address",
          "name": "from",
          "type": "address"
        },
        {
          "internalType": "address",
          "name": "to",
          "type": "address"
        },
        {
          "internalType": "uint256",
          "name": "value",
          "type": "uint256"
        }
      ],
      "name": "transferFrom",
      "outputs": [
        {
          "internalType": "bool",
          "name": "",
          "type": "bool"
        }
      ],
      "stateMutability": "nonpayable",
      "type": "function"
    }
  ],
  "bytecode": "0x60806040523461001b575b604051610281610029823961028190f35b610023600080fd5b61000a56fe60806040526004361015610018575b610016600080fd5b005b60003560e01c806323b872dd1461006857806370a082311461005f578063a9059cbb146100565763dd62ed3e0361000e57610051610211565b61000e565b506100516101b5565b50610051610149565b506100516100eb565b600080fd5b90565b6001600160a01b0381165b0361007157565b9050359061009882610079565b565b80610084565b905035906100988261009a565b90916060828403126100de575b6100766100c7848461008b565b936100d5816020860161008b565b936040016100a0565b6100e6600080fd5b6100ba565b503461011f575b61011b6101096101033660046100ad565b91610236565b60405191829182901515815260200190565b0390f35b610127600080fd5b6100f2565b90610076916020818303121561008b57610144600080fd5b61008b565b5034610177575b61011b61016761016136600461012c565b50600090565b6040519182918290815260200190565b61017f600080fd5b610150565b9190610076906040848203126101a8575b61019f818561008b565b936020016100a0565b6101b0600080fd5b610195565b50346101d3575b61011b6101096101cd366004610184565b90610241565b6101db600080fd5b6101bc565b919061007690604084820312610204575b6101fb818561008b565b9360200161008b565b61020c600080fd5b6101f1565b5034610229575b61011b6101676101cd3660046101e0565b610231600080fd5b610218565b505050610076600090565b505061007660009056fea2646970667358221220d862ef64f8e61a852914d4ca15140ee4725072a9171add41aa45f2e595e50c7364736f6c63430008100033",
  "linkReferences": {},
  "deployedLinkReferences": {}
}