{
  "_format": "hh-sol-artifact-1",
  "contractName": "ITokenRegistry",
  "sourceName": "contracts/Rollup.sol",
  "abi": [
    {
      "inputs": [
        {
          "internalType": "address",
          "name": "tokenContract",
          "type": "address"
        }
      ],
      "name": "approveToken",
      "outputs": [],
      "stateMutability": "nonpayable",
      "type": "function"
    },
    {
      "inputs": [],
      "name": "coordinator",
      "outputs": [
        {
          "internalType": "address",
          "name": "",
          "type": "address"
        }
      ],
      "stateMutability": "view",
      "type": "function"
    },
    {
      "inputs": [],
      "name": "numTokens",
      "outputs": [
        {
          "internalType": "uint256",
          "name": "",
          "type": "uint256"
        }
      ],
      "stateMutability": "view",
      "type": "function"
    },
    {
      "inputs": [
        {
          "internalType": "address",
          "name": "",
          "type": "address"
        }
      ],
      "name": "pendingTokens",
      "outputs": [
        {
          "internalType": "bool",
          "name": "",
          "type": "bool"
        }
      ],
      "stateMutability": "view",
      "type": "function"
    },
    {
      "inputs": [
        {
          "internalType": "address",
          "name": "tokenContract",
          "type": "address"
        }
      ],
      "name": "registerToken",
      "outputs": [],
      "stateMutability": "nonpayable",
      "type": "function"
    },
    {
      "inputs": [
        {
          "internalType": "uint256",
          "name": "",
          "type": "uint256"
        }
      ],
      "name": "registeredTokens",
      "outputs": [
        {
          "internalType": "address",
          "name": "",
          "type": "address"
        }
      ],
      "stateMutability": "view",
      "type": "function"
    }
  ],
  "bytecode": "0x608060405234801561001057600080fd5b506101df806100206000396000f3fe608060405234801561001057600080fd5b50600436106100625760003560e01c806309824a80146100675780630a0090971461007a57806380b2edd8146100aa5780638e499bcf146100bd5780639a0ba2ea146100d4578063c031a66f146100fd575b600080fd5b61007861007536600461014a565b50565b005b60005461008d906001600160a01b031681565b6040516001600160a01b0390911681526020015b60405180910390f35b6100786100b836600461014a565b610130565b6100c660015481565b6040519081526020016100a1565b61008d6100e236600461017a565b6003602052600090815260409020546001600160a01b031681565b61012061010b36600461014a565b60026020526000908152604090205460ff1681565b60405190151581526020016100a1565b6000546001600160a01b0316331461007557610075610193565b60006020828403121561015c57600080fd5b81356001600160a01b038116811461017357600080fd5b9392505050565b60006020828403121561018c57600080fd5b5035919050565b634e487b7160e01b600052600160045260246000fdfea264697066735822122079412f6b4c2ee3307cd1ebc49ef8bf42ec29d04e7983ce5b2af64a17c23f025064736f6c63430008100033",
  "linkReferences": {},
  "deployedLinkReferences": {}
}