{
  "_format": "hh-sol-artifact-1",
  "contractName": "ITokenRegistry",
  "sourceName": "contracts/Rollup.sol",
  "abi": [
    {
      "inputs": [
        {
          "internalType": "address",
          "name": "tokenContract",
          "type": "address"
        }
      ],
      "name": "approveToken",
      "outputs": [],
      "stateMutability": "nonpayable",
      "type": "function"
    },
    {
      "inputs": [],
      "name": "coordinator",
      "outputs": [
        {
          "internalType": "address",
          "name": "",
          "type": "address"
        }
      ],
      "stateMutability": "view",
      "type": "function"
    },
    {
      "inputs": [],
      "name": "numTokens",
      "outputs": [
        {
          "internalType": "uint256",
          "name": "",
          "type": "uint256"
        }
      ],
      "stateMutability": "view",
      "type": "function"
    },
    {
      "inputs": [
        {
          "internalType": "address",
          "name": "",
          "type": "address"
        }
      ],
      "name": "pendingTokens",
      "outputs": [
        {
          "internalType": "bool",
          "name": "",
          "type": "bool"
        }
      ],
      "stateMutability": "view",
      "type": "function"
    },
    {
      "inputs": [
        {
          "internalType": "address",
          "name": "tokenContract",
          "type": "address"
        }
      ],
      "name": "registerToken",
      "outputs": [],
      "stateMutability": "nonpayable",
      "type": "function"
    },
    {
      "inputs": [
        {
          "internalType": "uint256",
          "name": "",
          "type": "uint256"
        }
      ],
      "name": "registeredTokens",
      "outputs": [
        {
          "internalType": "address",
          "name": "",
          "type": "address"
        }
      ],
      "stateMutability": "view",
      "type": "function"
    }
  ],
  "bytecode": "0x60806040523461001b575b6040516103f461002982396103f490f35b610023600080fd5b61000a56fe60806040526004361015610018575b610016600080fd5b005b60003560e01c806309824a80146100905780630a0090971461008757806380b2edd81461007e5780638e499bcf146100755780639a0ba2ea1461006c5763c031a66f0361000e57610067610318565b61000e565b5061006761028e565b506100676101e8565b5061006761019a565b50610067610164565b506100676100eb565b600080fd5b6001600160a01b031690565b90565b6001600160a01b0381165b0361009957565b905035906100cc826100ad565b565b906100aa91602081830312156100bf576100e6600080fd5b6100bf565b5034610107575b6100fd3660046100ce565b50604051005b0390f35b61010f600080fd5b6100f2565b600091031261011f57565b6100cc600080fd5b6100aa916008021c6001600160a01b031690565b906100aa9154610127565b6100aa60008061013b565b6001600160a01b03909116815260200190565b503461018d575b610176366004610114565b610103610181610146565b60405191829182610151565b610195600080fd5b61016b565b50346101b9575b6101b46101af3660046100ce565b6103b5565b604051005b6101c1600080fd5b6101a1565b6100aa916008021c81565b906100aa91546101c6565b6100aa600060016101d1565b5034610215575b6101fa366004610114565b6101036102056101dc565b6040519182918290815260200190565b61021d600080fd5b6101ef565b806100b8565b905035906100cc82610222565b906100aa91602081830312156102285761024d600080fd5b610228565b6100aa6100aa6100aa9290565b9061026990610252565b600052602052604060002090565b6100aa9061028960039160009261025f565b61013b565b50346102ab575b6101036101816102a6366004610235565b610277565b6102b3600080fd5b610295565b6100aa9061009e906001600160a01b031682565b6100aa906102b8565b6100aa906102cc565b90610269906102d5565b6100aa916008021c60ff1690565b906100aa91546102e8565b6100aa906103136002916000926102de565b6102f6565b5034610347575b6101036103356103303660046100ce565b610301565b60405191829182901515815260200190565b61034f600080fd5b61031f565b6100aa9061009e565b6100aa9054610354565b50634e487b7160e01b600052600160045260246000fd5b1561038557565b6100cc610367565b506100cc336103af6103a261009e600061035d565b916001600160a01b031690565b1461037e565b6100cc9061038d56fea2646970667358221220d58960bb55949bc6dc52f5f260ccaea636d706ade1865ae5da78d34c8f8a8de064736f6c63430008100033",
  "linkReferences": {},
  "deployedLinkReferences": {}
}