{
  "_format": "hh-sol-artifact-1",
  "contractName": "Rollup",
  "sourceName": "contracts/Rollup.sol",
  "abi": [
    {
      "anonymous": false,
      "inputs": [
        {
          "indexed": false,
          "internalType": "uint8",
          "name": "version",
          "type": "uint8"
        }
      ],
      "name": "Initialized",
      "type": "event"
    },
    {
      "anonymous": false,
      "inputs": [
        {
          "indexed": false,
          "internalType": "uint256",
          "name": "publicAssetId",
          "type": "uint256"
        },
        {
          "indexed": false,
          "internalType": "address",
          "name": "tokenContract",
          "type": "address"
        }
      ],
      "name": "RegisteredToken",
      "type": "event"
    },
    {
      "anonymous": false,
      "inputs": [
        {
          "indexed": false,
          "internalType": "uint256[2]",
          "name": "pubkey",
          "type": "uint256[2]"
        },
        {
          "indexed": false,
          "internalType": "uint256",
          "name": "publicValue",
          "type": "uint256"
        },
        {
          "indexed": false,
          "internalType": "uint256",
          "name": "publicAssetId",
          "type": "uint256"
        }
      ],
      "name": "RequestDeposit",
      "type": "event"
    },
    {
      "anonymous": false,
      "inputs": [
        {
          "indexed": false,
          "internalType": "uint256",
          "name": "",
          "type": "uint256"
        },
        {
          "indexed": false,
          "internalType": "uint256",
          "name": "",
          "type": "uint256"
        },
        {
          "indexed": false,
          "internalType": "uint256",
          "name": "",
          "type": "uint256"
        }
      ],
      "name": "UpdatedState",
      "type": "event"
    },
    {
      "anonymous": false,
      "inputs": [
        {
          "components": [
            {
              "internalType": "uint256",
              "name": "publicValue",
              "type": "uint256"
            },
            {
              "internalType": "uint256[2]",
              "name": "publicOwner",
              "type": "uint256[2]"
            },
            {
              "internalType": "uint256",
              "name": "outputNc1",
              "type": "uint256"
            },
            {
              "internalType": "uint256",
              "name": "outputNc2",
              "type": "uint256"
            },
            {
              "internalType": "uint256",
              "name": "publicAssetId",
              "type": "uint256"
            },
            {
              "internalType": "uint256",
              "name": "dataTreeRoot",
              "type": "uint256"
            },
            {
              "internalType": "uint256[]",
              "name": "roots",
              "type": "uint256[]"
            },
            {
              "internalType": "uint256[]",
              "name": "keys",
              "type": "uint256[]"
            },
            {
              "internalType": "uint256[]",
              "name": "values",
              "type": "uint256[]"
            },
            {
              "internalType": "uint256[][]",
              "name": "siblings",
              "type": "uint256[][]"
            }
          ],
          "indexed": false,
          "internalType": "struct Rollup.TxInfo",
          "name": "",
          "type": "tuple"
        },
        {
          "indexed": false,
          "internalType": "address",
          "name": "",
          "type": "address"
        }
      ],
      "name": "Withdraw",
      "type": "event"
    },
    {
      "inputs": [],
      "name": "PROOF_ID_TYPE_DEPOSIT",
      "outputs": [
        {
          "internalType": "uint8",
          "name": "",
          "type": "uint8"
        }
      ],
      "stateMutability": "view",
      "type": "function"
    },
    {
      "inputs": [],
      "name": "PROOF_ID_TYPE_INVALID",
      "outputs": [
        {
          "internalType": "uint8",
          "name": "",
          "type": "uint8"
        }
      ],
      "stateMutability": "view",
      "type": "function"
    },
    {
      "inputs": [],
      "name": "PROOF_ID_TYPE_SEND",
      "outputs": [
        {
          "internalType": "uint8",
          "name": "",
          "type": "uint8"
        }
      ],
      "stateMutability": "view",
      "type": "function"
    },
    {
      "inputs": [],
      "name": "PROOF_ID_TYPE_WITHDRAW",
      "outputs": [
        {
          "internalType": "uint8",
          "name": "",
          "type": "uint8"
        }
      ],
      "stateMutability": "view",
      "type": "function"
    },
    {
      "inputs": [
        {
          "internalType": "address",
          "name": "tokenContractAddress",
          "type": "address"
        }
      ],
      "name": "approveToken",
      "outputs": [],
      "stateMutability": "nonpayable",
      "type": "function"
    },
    {
      "inputs": [],
      "name": "coordinator",
      "outputs": [
        {
          "internalType": "address",
          "name": "",
          "type": "address"
        }
      ],
      "stateMutability": "view",
      "type": "function"
    },
    {
      "inputs": [],
      "name": "dataTreeRoot",
      "outputs": [
        {
          "internalType": "uint256",
          "name": "",
          "type": "uint256"
        }
      ],
      "stateMutability": "view",
      "type": "function"
    },
    {
      "inputs": [
        {
          "internalType": "uint256[2]",
          "name": "pubkey",
          "type": "uint256[2]"
        },
        {
          "internalType": "uint256",
          "name": "publicAssetId",
          "type": "uint256"
        },
        {
          "internalType": "uint256",
          "name": "publicValue",
          "type": "uint256"
        },
        {
          "internalType": "uint256",
          "name": "nonce",
          "type": "uint256"
        }
      ],
      "name": "deposit",
      "outputs": [],
      "stateMutability": "payable",
      "type": "function"
    },
    {
      "inputs": [
        {
          "internalType": "address",
          "name": "_poseidon2ContractAddr",
          "type": "address"
        },
        {
          "internalType": "address",
          "name": "_poseidon3ContractAddr",
          "type": "address"
        },
        {
          "internalType": "address",
          "name": "_tokenRegistryAddr",
          "type": "address"
        }
      ],
      "name": "initialize",
      "outputs": [],
      "stateMutability": "nonpayable",
      "type": "function"
    },
    {
      "inputs": [],
      "name": "insPoseidon2",
      "outputs": [
        {
          "internalType": "contract IPoseidon2",
          "name": "",
          "type": "address"
        }
      ],
      "stateMutability": "view",
      "type": "function"
    },
    {
      "inputs": [],
      "name": "insPoseidon3",
      "outputs": [
        {
          "internalType": "contract IPoseidon3",
          "name": "",
          "type": "address"
        }
      ],
      "stateMutability": "view",
      "type": "function"
    },
    {
      "inputs": [
        {
          "internalType": "uint256",
          "name": "",
          "type": "uint256"
        }
      ],
      "name": "nullifierHashs",
      "outputs": [
        {
          "internalType": "bool",
          "name": "",
          "type": "bool"
        }
      ],
      "stateMutability": "view",
      "type": "function"
    },
    {
      "inputs": [
        {
          "internalType": "uint256",
          "name": "",
          "type": "uint256"
        }
      ],
      "name": "nullifierRoots",
      "outputs": [
        {
          "internalType": "bool",
          "name": "",
          "type": "bool"
        }
      ],
      "stateMutability": "view",
      "type": "function"
    },
    {
      "inputs": [
        {
          "internalType": "uint256",
          "name": "",
          "type": "uint256"
        }
      ],
      "name": "pendingDeposits",
      "outputs": [
        {
          "internalType": "uint256",
          "name": "publicAssetId",
          "type": "uint256"
        },
        {
          "internalType": "uint256",
          "name": "publicValue",
          "type": "uint256"
        },
        {
          "internalType": "uint256",
          "name": "nonce",
          "type": "uint256"
        }
      ],
      "stateMutability": "view",
      "type": "function"
    },
    {
      "inputs": [
        {
          "internalType": "uint256[]",
          "name": "keys",
          "type": "uint256[]"
        },
        {
          "internalType": "uint256[]",
          "name": "values",
          "type": "uint256[]"
        },
        {
          "internalType": "uint256[][]",
          "name": "siblings",
          "type": "uint256[][]"
        }
      ],
      "name": "processDeposits",
      "outputs": [
        {
          "internalType": "uint256",
          "name": "",
          "type": "uint256"
        }
      ],
      "stateMutability": "nonpayable",
      "type": "function"
    },
    {
      "inputs": [],
      "name": "queueNumber",
      "outputs": [
        {
          "internalType": "uint256",
          "name": "",
          "type": "uint256"
        }
      ],
      "stateMutability": "view",
      "type": "function"
    },
    {
      "inputs": [
        {
          "internalType": "address",
          "name": "tokenContractAddress",
          "type": "address"
        }
      ],
      "name": "registerToken",
      "outputs": [],
      "stateMutability": "nonpayable",
      "type": "function"
    },
    {
      "inputs": [],
      "name": "tokenContract",
      "outputs": [
        {
          "internalType": "contract IERC20",
          "name": "",
          "type": "address"
        }
      ],
      "stateMutability": "view",
      "type": "function"
    },
    {
      "inputs": [],
      "name": "tokenRegistry",
      "outputs": [
        {
          "internalType": "contract ITokenRegistry",
          "name": "",
          "type": "address"
        }
      ],
      "stateMutability": "view",
      "type": "function"
    },
    {
      "inputs": [
        {
          "internalType": "uint256[2]",
          "name": "a",
          "type": "uint256[2]"
        },
        {
          "internalType": "uint256[2][2]",
          "name": "b",
          "type": "uint256[2][2]"
        },
        {
          "internalType": "uint256[2]",
          "name": "c",
          "type": "uint256[2]"
        },
        {
          "internalType": "uint256[8]",
          "name": "input",
          "type": "uint256[8]"
        }
      ],
      "name": "update",
      "outputs": [],
      "stateMutability": "payable",
      "type": "function"
    },
    {
      "inputs": [
        {
          "components": [
            {
              "internalType": "uint256",
              "name": "publicValue",
              "type": "uint256"
            },
            {
              "internalType": "uint256[2]",
              "name": "publicOwner",
              "type": "uint256[2]"
            },
            {
              "internalType": "uint256",
              "name": "outputNc1",
              "type": "uint256"
            },
            {
              "internalType": "uint256",
              "name": "outputNc2",
              "type": "uint256"
            },
            {
              "internalType": "uint256",
              "name": "publicAssetId",
              "type": "uint256"
            },
            {
              "internalType": "uint256",
              "name": "dataTreeRoot",
              "type": "uint256"
            },
            {
              "internalType": "uint256[]",
              "name": "roots",
              "type": "uint256[]"
            },
            {
              "internalType": "uint256[]",
              "name": "keys",
              "type": "uint256[]"
            },
            {
              "internalType": "uint256[]",
              "name": "values",
              "type": "uint256[]"
            },
            {
              "internalType": "uint256[][]",
              "name": "siblings",
              "type": "uint256[][]"
            }
          ],
          "internalType": "struct Rollup.TxInfo",
          "name": "txInfo",
          "type": "tuple"
        },
        {
          "internalType": "address payable",
          "name": "recipient",
          "type": "address"
        },
        {
          "internalType": "uint256[2]",
          "name": "a",
          "type": "uint256[2]"
        },
        {
          "internalType": "uint256[2][2]",
          "name": "b",
          "type": "uint256[2][2]"
        },
        {
          "internalType": "uint256[2]",
          "name": "c",
          "type": "uint256[2]"
        }
      ],
      "name": "withdraw",
      "outputs": [],
      "stateMutability": "nonpayable",
      "type": "function"
    }
  ],
  "bytecode": "0x60806040523461001c575b604051616dcd6200002a8239616dcd90f35b610024600080fd5b61000a56fe608060405260043610156200001a575b62000018600080fd5b005b60003560e01c80620df53814620001fb57806309824a8014620001f05780630a00909714620001e5578063267fd76814620001da5780632fa6779a14620001cf5780633deaea4414620001c45780633e8f23c514620001b957806355a373d614620001ae5780635654d32514620001a35780637b5758b1146200019857806380b2edd8146200018d5780638bff301f14620001825780639d23c4c71462000177578063a7932794146200016c578063bf5b52a51462000161578063c0c53b8b1462000156578063ca66f7e8146200014b578063e1d75c921462000140578063e2c931021462000135578063f0d17cbc146200012a5763fa9f6a14036200000f5762000124620010a7565b6200000f565b506200012462000e86565b506200012462000e3f565b506200012462000df7565b506200012462000dc5565b506200012462000d41565b506200012462000cde565b506200012462000a7e565b506200012462000968565b506200012462000928565b5062000124620008ec565b5062000124620008a8565b5062000124620007f3565b506200012462000537565b5062000124620004f7565b50620001246200049b565b50620001246200043d565b5062000124620003ed565b506200012462000387565b506200012462000329565b5062000124620002a3565b600080fd5b60009103126200021757565b62000220600080fd5b565b62000238916008021c5b6001600160a01b031690565b90565b9062000238915462000222565b62000238600060016200023b565b62000238906200022c906001600160a01b031682565b620002389062000256565b62000238906200026c565b6200028d9062000277565b9052565b60208101929162000220919062000282565b5034620002d7575b620002b83660046200020b565b620002d3620002c662000248565b6040519182918262000291565b0390f35b620002e0600080fd5b620002ab565b620002f1816200022c565b036200020657565b905035906200022082620002e6565b90620002389160208183031215620002f95762000323600080fd5b620002f9565b50346200034d575b620003486200034236600462000308565b62003359565b604051005b62000356600080fd5b62000331565b62000238600060046200023b565b6200028d906200022c565b6020810192916200022091906200036a565b5034620003b7575b6200039c3660046200020b565b620002d3620003aa6200035c565b6040519182918262000375565b620003c0600080fd5b6200038f565b62000238916008021c81565b90620002389154620003c6565b6200023860006009620003d2565b503462000420575b620004023660046200020b565b620002d362000410620003df565b6040519182918290815260200190565b62000429600080fd5b620003f5565b6200023860006006620003d2565b503462000460575b620004523660046200020b565b620002d3620004106200042f565b62000469600080fd5b62000445565b6200047f62000238620002389290565b60ff1690565b6200023860006200046f565b6200023862000485565b5034620004d2575b620004b03660046200020b565b620002d3620004be62000491565b6040519182918260ff909116815260200190565b620004db600080fd5b620004a3565b6200023860016200046f565b62000238620004e1565b50346200051a575b6200050c3660046200020b565b620002d3620004be620004ed565b62000523600080fd5b620004ff565b62000238600060036200023b565b50346200055a575b6200054c3660046200020b565b620002d3620002c662000529565b62000563600080fd5b6200053f565b50634e487b7160e01b600052604160045260246000fd5b90601f01601f191681019081106001600160401b03821117620005a257604052565b620005ac62000569565b604052565b9062000220620005c060405190565b928362000580565b602080916001600160401b038111620005e057020190565b620005ea62000569565b020190565b80620002f1565b905035906200022082620005ef565b909291926200061e6200061882620005c8565b620005b1565b938185526020808601920283019281841162000661575b915b838310620006455750505050565b60208091620006558486620005f6565b81520192019162000637565b6200066a600080fd5b62000635565b90620002389181601f820112156200068f575b60208135910162000605565b62000698600080fd5b62000683565b90929192620006b16200061882620005c8565b938185526020808601920283019281841162000718575b80925b848410620006da575050505050565b60208091620006fd8587356001600160401b03811162000709575b860162000670565b815201930192620006cb565b62000712600080fd5b620006f5565b62000721600080fd5b620006c8565b90620002389181601f8201121562000746575b6020813591016200069e565b6200074f600080fd5b6200073a565b9091606082840312620007e4575b62000238620007868484356001600160401b038111620007d5575b850162000670565b93620007a88160208601356001600160401b0381116200070957860162000670565b936040810135906001600160401b038211620007c6575b0162000727565b620007cf600080fd5b620007bf565b620007de600080fd5b6200077e565b620007ed600080fd5b62000763565b503462000817575b620002d3620004106200081036600462000755565b916200211a565b62000820600080fd5b620007fb565b90620002389160208183031215620005f65762000841600080fd5b620005f6565b6200023862000238620002389290565b90620008639062000847565b600052602052604060002090565b62000238916008021c6200047f565b9062000238915462000871565b6200023890620008a260079160009262000857565b62000880565b5034620008dd575b620002d3620008cb620008c536600462000826565b6200088d565b60405191829182901515815260200190565b620008e6600080fd5b620008b0565b50346200090b575b620003486200090536600462000308565b6200359e565b62000914600080fd5b620008f4565b62000238600260006200023b565b50346200094b575b6200093d3660046200020b565b620002d3620002c66200091a565b62000954600080fd5b62000930565b62000238600060026200023b565b50346200098b575b6200097d3660046200020b565b620002d3620002c66200095a565b62000994600080fd5b62000970565b50634e487b7160e01b600052603260045260246000fd5b620009d4600591620009c1815490565b841015620009dd57600052602060002090565b91020190600090565b620009e76200099a565b600052602060002090565b620002389081565b620002389054620009f2565b9060059160009262000a16815490565b82101562000a575762000a2b929350620009b1565b5062000a3a60028201620009fa565b9162000238600462000a4f60038501620009fa565b9301620009fa565b8380fd5b9081526060810193926200022092909160409162000a7a906020830152565b0152565b503462000ab2575b620002d362000aa162000a9b36600462000826565b62000a06565b6040519193915b9384938462000a5b565b62000abb600080fd5b62000a86565b6020906001600160401b03811162000ad7570290565b62000ae162000569565b0290565b9092919262000af8620006188262000ac1565b93602085920283019281841162000b36575b915b83831062000b1a5750505050565b6020809162000b2a8486620005f6565b81520192019162000b0c565b62000b3f600080fd5b62000b0a565b90620002389181601f8201121562000b61575b60029062000ae5565b62000b6a600080fd5b62000b58565b9092919262000b83620006188262000ac1565b93604085920283019281841162000bc2575b915b83831062000ba55750505050565b602060409162000bb6848662000b45565b81520192019162000b97565b62000bcb600080fd5b62000b95565b90620002389181601f8201121562000bed575b60029062000b70565b62000bf6600080fd5b62000be4565b9092919262000c0f620006188262000ac1565b93602085920283019281841162000c4d575b915b83831062000c315750505050565b6020809162000c418486620005f6565b81520192019162000c23565b62000c56600080fd5b62000c21565b90620002389181601f8201121562000c78575b60089062000bfc565b62000c81600080fd5b62000c6f565b6102008183031262000ccf575b62000ca0828262000b45565b926200023862000cb4846040850162000bd1565b9362000cc48160c0860162000b45565b936101000162000c5c565b62000cd8600080fd5b62000c94565b506200034862000cf036600462000c87565b929190916200254c565b909160608284031262000d32575b6200023862000d188484620002f9565b9362000d288160208601620002f9565b93604001620002f9565b62000d3b600080fd5b62000d08565b503462000d61575b6200034862000d5a36600462000cfa565b916200158f565b62000d6a600080fd5b62000d49565b60a08183031262000db6575b62000d88828262000b45565b926200023862000d9c8460408501620005f6565b9362000dac8160608601620005f6565b93608001620005f6565b62000dbf600080fd5b62000d7c565b506200034862000dd736600462000d70565b9291909162001af0565b6200023860036200046f565b6200023862000de1565b503462000e1a575b62000e0c3660046200020b565b620002d3620004be62000ded565b62000e23600080fd5b62000dff565b6200023860026200046f565b6200023862000e29565b503462000e62575b62000e543660046200020b565b620002d3620004be62000e35565b62000e6b600080fd5b62000e47565b6200023890620008a260089160009262000857565b503462000ea9575b620002d3620008cb62000ea336600462000826565b62000e71565b62000eb2600080fd5b62000e8e565b919062000fe790610160848203126200100d575b62000ed9610140620005b1565b93600062000ee88383620005f6565b90860152602062000efc8382840162000b45565b90860152606062000f1083828401620005f6565b604087015260809062000f2684838501620005f6565b9087015260a09062000f3b84838501620005f6565b9087015260c09062000f5084838501620005f6565b9087015262000f768360e08401356001600160401b03811162000ffe575b840162000670565b9086015262000f9d826101008301356001600160401b03811162000fef575b830162000670565b60e086015262000fc4826101208301356001600160401b03811162000fef57830162000670565b610100860152610140810135906001600160401b038211620007c6570162000727565b610120830152565b62000ff8600080fd5b62000f95565b62001007600080fd5b62000f6e565b62001016600080fd5b62000ecc565b91906101408382031262001098575b6200104a8184356001600160401b03811162001089575b850162000eb8565b926200105a8260208301620002f9565b92620002386200106e846040850162000b45565b936200107e816080860162000bd1565b936101000162000b45565b62001092600080fd5b62001042565b620010a1600080fd5b6200102b565b5034620010ca575b62000348620010c03660046200101c565b9392909262002bd5565b620010d3600080fd5b620010af565b620002389060081c6200047f565b620002389054620010d9565b62000238906200047f565b620002389054620010f3565b0190565b156200111657565b60405162461bcd60e51b815260206004820152602e60248201527f496e697469616c697a61626c653a20636f6e747261637420697320616c72656160448201526d191e481a5b9a5d1a585b1a5e995960921b6064820152608490fd5b0390fd5b9060ff905b9181191691161790565b6200047f62000238620002389260ff1690565b90620011ac62000238620011b49262001185565b825462001176565b9055565b9061ff009060081b6200117b565b90620011d962000238620011b492151590565b8254620011b8565b6200028d906200046f565b602081019291620002209190620011e1565b916200125a9062001218620012146000620010e7565b1590565b92838062001313575b8015620012c1575b62001234906200110e565b600194846200124f62001247886200046f565b600062001198565b620012ae57620013ee565b620012625750565b6200126f600080620011c6565b620012a97f7f26b83ff96e1f2b6a682f133852f6798a09c465da95921460cefb3847402498916200129f60405190565b91829182620011ec565b0390a1565b620012bb866000620011c6565b620013ee565b50620012db62001214620012d53062000277565b6200159c565b801562001229575062001234620012f36000620010fe565b6200130a6200130360016200046f565b9160ff1690565b14905062001229565b50620013206000620010fe565b620013306200130360016200046f565b1062001221565b9160206200022092949362001355604082019660008301906200036a565b01906200036a565b506040513d6000823e3d90fd5b906001600160a01b03906200117b565b906200138e62000238620011b49262000277565b82546200136a565b9062010000600160b01b039060101b6200117b565b90620013bf62000238620011b49262000277565b825462001396565b90600019906200117b565b90620013e662000238620011b49262000847565b8254620013c7565b916200145b6200146962001471936200145b6200146162001479976200145b6200141760405190565b8062001446878561098084018481106001600160401b038211176200157f575b610980620035aa863962001337565b03906000f080156200156f575b600c6200137a565b62000277565b6000620013ab565b60016200137a565b60026200137a565b620014863360046200137a565b620002206000620014a36200149b8262000847565b6009620013d2565b620014ef620014b160405190565b80620014db61185282018281106001600160401b038211176200155f575b61185262003f2a843990565b039083f080156200154f575b600a6200137a565b604051806200151c61161c82018281106001600160401b038211176200153f575b61161c6200577c843990565b0391f080156200152f575b600b6200137a565b620015396200135d565b62001527565b6200154962000569565b62001510565b620015596200135d565b620014e7565b6200156962000569565b620014cf565b620015796200135d565b62001453565b6200158962000569565b62001437565b90620002209291620011fe565b3b620015b1620015ad600062000847565b9190565b1190565b15620015bd57565b60405162461bcd60e51b8152602060048201526024808201527f746f6b656e206465706f736974206d75737420626520677265617465722074686044820152630616e20360e41b6064820152608490fd5b62000238906200022c565b6200023890546200160e565b905051906200022082620002e6565b9062000238916020818303121562001625576200164f600080fd5b62001625565b801515620002f1565b90505190620002208262001655565b906200023891602081830312156200165e5762001688600080fd5b6200165e565b60409062000a7a620002209496959396620016b2606084019860008501906200036a565b60208301906200036a565b15620016c557565b60405162461bcd60e51b815260206004820152601b60248201527f746f6b656e207472616e73666572206e6f7420617070726f76656400000000006044820152606490fd5b156200171257565b60405162461bcd60e51b815260206004820152603760248201527f6d73672e76616c7565206d757374206174206c6561737420657175616c20737460448201527f61746564207075626c696356616c756520696e207765690000000000000000006064820152608490fd5b156200178557565b60405162461bcd60e51b815260206004820152602b60248201527f7075626c696341737365744964203020697320726573657276656420666f722060448201526a31b7b7b93234b730ba37b960a91b6064820152608490fd5b15620017e657565b60405162461bcd60e51b815260206004820152602860248201527f7075626c696341737365744964203020646f6573206e6f742068617665207265604482015267616c2076616c756560c01b6064820152608490fd5b620002386080620005b1565b50634e487b7160e01b600052600060045260246000fd5b50634e487b7160e01b600052601160045260246000fd5b80600019048211811515166200188a570290565b62000ae16200185f565b9160001960089290920291821b911b6200117b565b9190620018be62000238620011b49362000847565b90835462001894565b6200022091600091620018a9565b818110620018e1575050565b80620018f16000600193620018c7565b01620018d5565b90918281106200190757505050565b6200022092909162001918565b9290565b9081019101620018d5565b906200022091600160401b82116200193f575b600290620018f8565b6200194962000569565b62001936565b6002916001906200196b90620019149062000238868662001923565b92049160005b8381106200197f5750505050565b60019060206200199162000238865190565b940193818401550162001971565b9062000220916200194f565b90620019e8606060046200022094620019d460008201620019cd600088015190565b906200199f565b620019ef60028201620019e8602088015190565b90620013d2565b62001a0360038201620019e8604088015190565b0192015190565b62000220929115620019ab5762001a2062001848565b620019ab565b9062001a4d6200022092805490600160401b82101562001a54575b600182018155620009b1565b9062001a0a565b62001a5e62000569565b62001a41565b600190600019811462001a75570190565b6200110a6200185f565b62001a8d620015ad60029390565b6000915b83831062001a9f5750505050565b62001abb62001ab46001928451815260200190565b9260200190565b9201919062001a91565b60609062000a7a62000220949695939662001ae96080840198600085019062001a7f565b6040830152565b909262001b999060009062001b058262000847565b860362001c135762001b393362001b3262001b2b62001b25600462001619565b6200022c565b916200022c565b146200177d565b62001b448262000847565b85148062001bf5575b62001b5890620017de565b62001b9360059162001b748662001b6e6200183c565b95860152565b62001b80886020860152565b62001b8c876040860152565b6060840152565b62001a26565b62001bbb62001bb362001bad6006620009fa565b62001a64565b6006620013d2565b620012a97f595b7e310cd1b7e94b72db62a3257c5fa242cbca10740eb40ae49044f5dcff1f9362001beb60405190565b9384938462001ac5565b5062001b583462001c0a620015ad8562000847565b14905062001b4d565b600162001c208162000847565b870362001c5b575062001c493462001c388462000847565b8111908162001c4f575b506200170a565b62001b58565b87915010153862001c42565b62001c669062000847565b86111562001b585762001c8562001c7d8362000847565b8611620015b5565b62001cf762001cef62001cd260208962001ca46200145b600262001619565b62001cc4639a0ba2ea62001cb760405190565b9586948593849360e01b90565b835260048301526024820190565b03915afa90811562001de5575b60009162001db0575b5062000277565b60036200137a565b62001c4962001d0b6200145b600362001619565b60206323b872dd91339062001d428762001d253062000277565b9562001d4e8d62001d3560405190565b9889978896879560e01b90565b8552600485016200168e565b03925af190811562001da0575b60009162001d6b575b50620016bd565b62001d91915060203d811162001d98575b62001d88818362000580565b8101906200166d565b3862001d64565b503d62001d7c565b62001daa6200135d565b62001d5b565b62001dd6915060203d811162001ddd575b62001dcd818362000580565b81019062001634565b3862001ce8565b503d62001dc1565b62001def6200135d565b62001cdf565b1562001dfd57565b60405162461bcd60e51b815260206004820152602160248201527f4b657920616e642076616c7565206d75737420686176652073616d652073697a6044820152606560f81b6064820152608490fd5b1562001e5457565b60405162461bcd60e51b815260206004820152602360248201527f4b657920616e64207369626c696e67206d75737420686176652073616d652073604482015262697a6560e81b6064820152608490fd5b62001eb3620015ad60029390565b6000915b83831062001ec55750505050565b62001eea62001ee360019262001edb85620009fa565b815260200190565b9260010190565b9201919062001eb7565b906200110a8160409362001ea5565b906200022062001f219262001f1760405190565b9384809262001ef4565b038362000580565b906200022062001b8c600462001f3e6200183c565b9462001f5262001f4e8262001f03565b8752565b62001f6b62001f6460028301620009fa565b6020880152565b62001f8462001f7d60038301620009fa565b6040880152565b01620009fa565b620002389062001f29565b906020809162001fa4845190565b81101562001fb3575b02010190565b62001fbd6200099a565b62001fad565b905051906200022082620005ef565b9062000238916020818303121562001fc35762001fed600080fd5b62001fc3565b906200200f62001ab462002005845190565b8084529260200190565b9060005b818110620020215750505090565b90919262002040620020396001928651815260200190565b9460200190565b92910162002013565b6200028d9062000847565b95939198979694929061010087018781036000890152620020759162001ff3565b986020870162002083919052565b604086015260608501620020979162002049565b60808401620020a69162002049565b151560a0830152151560c082015260e001620002209162002049565b15620020ca57565b60405162461bcd60e51b8152602060048201526015602482015274125b9d985b1a59081b9d5b1b1a599a595c949bdbdd605a1b6044820152606490fd5b90620011ac62000238620011b492151590565b90926200214162002129835190565b6200213a620015ad62000238885190565b1462001df5565b620021666200214e835190565b6200215f620015ad62000238875190565b1462001e4c565b620021726009620009fa565b92600091620021818362000847565b945b6200219062000238865190565b861015620022d85750620021a6836005620009b1565b50620021b29062001f8b565b50620021bf600c62001619565b620021ca9062000277565b946312a3654195620021dd828562001f96565b5196620021eb838862001f96565b5190620021f9848b62001f96565b51986014888080806200220b60405190565b9e8f98899860e01b8952620022249760048a0162002054565b03815a93602094fa958615620022c8575b6000966200228c575b50620022859062001bad60086200227f89620022656200225f828562000857565b620010fe565b6001939062002279901515851415620020c2565b62000857565b62002107565b9462002183565b62002285919650620022b89060203d8111620022c0575b620022af818362000580565b81019062001fd2565b95906200223e565b503d620022a3565b620022d26200135d565b62002235565b935094505050620022ec91506009620013d2565b620002386009620009fa565b9060209060085b8110156200230c57020190565b620005ea6200099a565b156200231e57565b60405162461bcd60e51b8152602060048201526016602482015275125b9d985b1a590819185d18481d1c9959481c9bdbdd60521b6044820152606490fd5b156200236457565b60405162461bcd60e51b815260206004820152601f60248201527f496e76616c6964206e756c6c696669657231207768656e206465706f736974006044820152606490fd5b15620023b157565b60405162461bcd60e51b815260206004820152601f60248201527f496e76616c6964206e756c6c696669657232207768656e206465706f736974006044820152606490fd5b62002404620015ad60029390565b6000915b838310620024165750505050565b6200242b62001ab46001928451815260200190565b9201919062002408565b906200110a81604093620023f6565b62002452620015ad60029390565b6000915b838310620024645750505050565b6200247762001ab4600192845162002435565b9201919062002456565b6200248f620015ad60089390565b6000915b838310620024a15750505050565b620024b662001ab46001928451815260200190565b9201919062002493565b620024ff6200022094620024f461010094989795620024e961020086019a600087019062001a7f565b604085019062002444565b60c083019062001a7f565b019062002481565b156200250f57565b60405162461bcd60e51b815260206004820152601560248201527424b73b30b634b2103232b837b9b4ba10383937b7b360591b6044820152606490fd5b62002558600062000847565b620025649085620022f8565b506001620025728162000847565b6200257e9086620022f8565b506200258b600262000847565b620025979086620022f8565b50620025a4600362000847565b620025b09086620022f8565b50600492620025bf8462000847565b620025cb9087620022f8565b5194620025d9600562000847565b620025e59088620022f8565b5196620025f3600662000847565b620025ff9082620022f8565b51958692600796620026118862000847565b6200261d9085620022f8565b506008976200262d868a62000857565b6200263890620010fe565b15620026449062002316565b8b620026518c8362000857565b6200265c90620010fe565b1562002668906200235c565b620026739162000857565b6200267e90620010fe565b156200268a90620023a9565b62002696600a62001619565b620026a19062000277565b9363c9219a7a92620026b260405190565b978895869560e01b8652850193620026ca94620024c0565b03815a93602094fa93841562002707956200227f94620026fa926200275a575b60009162002737575b5062002507565b62002279826009620013d2565b620012a97fbe4212065768908e69f6c63172b1d155abe731f87bfc61b83a5c3b93f12c853f9362000aa860405190565b62002753915060203d811162001d985762001d88818362000580565b38620026f3565b620027646200135d565b620026ea565b919082018092116200277857565b620002206200185f565b90620027926200061883620005c8565b918252565b369037565b9062000220620027b7620027b08462002782565b93620005c8565b601f19016020840162002797565b906020906002620022ff565b90620027e362001ab462002005845190565b9060005b818110620027f55750505090565b9091926200280d620020396001928651815260200190565b929101620027e7565b60208082526200023892910190620027d1565b62000618620002389162000ac1565b156200284057565b60405162461bcd60e51b8152602060048201526011602482015270496e76616c696420746f6b656e5479706560781b6044820152606490fd5b156200288157565b60405162461bcd60e51b815260206004820152601e60248201527f496e76616c6964206c6173746573742064617461207472656520726f6f7400006044820152606490fd5b15620028ce57565b60405162461bcd60e51b815260206004820152601460248201527334b73b30b634b21036b2b935b63290383937b7b360611b6044820152606490fd5b62002918620015ad60039390565b6000915b8383106200292a5750505050565b6200293f62001ab46001928451815260200190565b920191906200291c565b620029726200022094620024f461010094989795620024e961016086019a600087019062001a7f565b01906200290a565b156200298257565b60405162461bcd60e51b81528062001172600482016020808252818101527f546865206564647361207369676e6174757265206973206e6f742076616c6964604082015260600190565b9160206200022092949362000a7a6040820196600083019062000282565b15620029f257565b60405162461bcd60e51b815260206004820152600f60248201526e151c985b9cd9995c8819985a5b1959608a1b6044820152606490fd5b9062002a3b62001ab462002005845190565b9060005b81811062002a4d5750505090565b90919262002a65620020396001928651815260200190565b92910162002a3f565b90620002389162002a29565b9062002a9262002a88835190565b8083529160200190565b908162002aa56020830284019460200190565b926000915b83831062002aba57505050505090565b9091929394602062002ae062002ad98385600195038752895162002a6e565b9760200190565b930193019193929062002aaa565b80518252620002389161012062002b9962002b8662002b72610160850162002b1f60208801516020880190620023f6565b62002b2f60408801516060880152565b62002b3f60608801516080880152565b62002b4f608088015160a0880152565b62002b5f60a088015160c0880152565b60c087015186820360e088015262002a29565b60e086015185820361010087015262002a29565b6101008501518482038486015262002a29565b9201519061014081840391015262002a7a565b9291602062002bcc62000220936040870190878203600089015262002aee565b94019062000282565b94908562002c2b959360209562002bed608084015190565b9162002bfa60a085015190565b62002cbf62002ca862002c8262002c3162002c1760c08a01515190565b9d8e62002c25600662000847565b6200276a565b6200279c565b9b8862002c9a8e62002c5f62002c45845190565b62002c5c62002c55600062000847565b8462001f96565b52565b62002c5c62002c8662002c828686015162002c7b600062000847565b90620027c5565b5190565b9162002c93600162000847565b9062001f96565b015162002c7b600162000847565b62002c5c62002cb8600262000847565b8c62001f96565b62002cdf62002ccf60408d015190565b62002c5c62002cb8600362000847565b62002cff62002cef60608d015190565b62002c5c62002cb8600462000847565b62002d1f62002d0f60808d015190565b62002c5c62002cb8600562000847565b62002d2b600062000847565b8a5b81101562002d765762002d6e8162001bad8c8f62002d5c62002c8262002d2d9760c062002c5c94015162001f96565b9162002c938562002c25600662000847565b905062002d2b565b508a995062002ecf62002eda9162002ea962002dd5602062002ee596989a9c9f97999b9d62002db673__$1b25989371b4022db49653cc4d10b17012$__90565b62002dc96340ec6e4962001cb760405190565b83526004830162002816565b03915af490811562003349575b60009162003326575b509b9997959250509250604091509a9795939a0162002e08905190565b62002e1590600762000857565b62002e2090620010fe565b1562002e2c906200235c565b606089015162002e3e90600762000857565b62002e4990620010fe565b1562002e5590620023a9565b62002e61600362002829565b9760208a015162002e73600062000847565b62002e7e91620027c5565b51895260208a015162002e92600162000847565b62002e9d91620027c5565b5160208a015260408901525b62002eb5600062000847565b831162002ec29062002838565b62002ecf90600862000857565b62002eda90620010fe565b62002ee59062002879565b62002ef1600062000847565b985b62002f046200023860c08b01515190565b8a1015620030b35762002f18600062000847565b62002f24600262000847565b8110156200308f576200305d9062001bad8c62003056620015ad8e62002f6d62002f676200225f62002f5f62002c828860c087015162001f96565b600862000857565b62002316565b6020818762003031826200303d6200301262002c8262002f9662002c828d60c087015162001f96565b9b62002c9362002fab6200145b600c62001619565b9762002c256101006200300262002c8260e062002fe86101206312a365419d015162002c938862002c258c62002fe2600262000847565b62001876565b519e015162002c938662002c258a62002fe2600262000847565b9d01519362002fe2600262000847565b60008080806014946200302460405190565b9c8d9b8c9a8b9a60e01b90565b8a5260048a0162002054565b03915afa9081156200307f575b60009162003063575090565b14620028c6565b62002f18565b62000238915060203d8111620022c057620022af818362000580565b620030896200135d565b6200304a565b5091939598620030a490979193959762001a64565b98959391969492909662002ef3565b90929560209295995096620030f962003122959862003105620030db6200145b600b62001619565b936311479fea92620030ec60405190565b9889978896879660e01b90565b86526004860162002949565b03915afa90811562003316575b600091620032f3575b506200297a565b6200312e600162000847565b8103620031ea5750600080808093620031506200314b8762000277565b915190565b90828215620031e0575bf115620031d0575b6200318060016200227f62003178604086015190565b600762000857565b6200319660016200227f62003178606086015190565b7fea48de8e35406fdea36b4a516c25f7a98098d3bd4140a07c035c0433a736d81391620012a9620031c660405190565b9283928362002bac565b620031da6200135d565b62003162565b506108fc6200315a565b6020620031da926200322f62001cef6200321384620032789662001ca46200145b600262001619565b03915afa908115620032e3575b600091620032c8575062000277565b6200323f6200145b600362001619565b6200326b60006200325363a9059cbb945190565b936200325e60405190565b9687958694859360e01b90565b83528a60048401620029cc565b03925af1908115620032b8575b60009162003295575b50620029ea565b620032b1915060203d811162001d985762001d88818362000580565b386200328e565b620032c26200135d565b62003285565b62001dd69150853d811162001ddd5762001dcd818362000580565b620032ed6200135d565b62003220565b6200330f915060203d811162001d985762001d88818362000580565b386200311b565b620033206200135d565b62003112565b62003342915060203d8111620022c057620022af818362000580565b3862002deb565b620033536200135d565b62002de2565b60006200339891620033706200145b600262001619565b6200338c836309824a80833b15620033d8575b6040516200325e565b83526004830162000375565b03925af18015620033c8575b620033ac5750565b62000220906000620033bf818362000580565b8101906200020b565b620033d26200135d565b620033a4565b620033e1600080fd5b62003383565b50634e487b7160e01b600052600160045260246000fd5b156200340657565b62000220620033e7565b620002209062003435336200342e62001b2b62001b25600462001619565b14620033fe565b62003452565b908152604081019291620002209160209062001355565b620034da906200348860006200346d6200145b600262001619565b6380b2edd890803b156200358f575b60405193849260e01b90565b82528183816200349c886004830162000375565b03925af180156200357f575b62003565575b506020620034c16200145b600262001619565b638e499bcf90620034d160405190565b94859260e01b90565b825260049082905afa91821562003555575b60009262003530575b507f5dbaa701a7acef513f72a61799f7e50f4653f462b9f780d88d1b9bec89de216891620012a96200352660405190565b928392836200343b565b6200354d91925060203d8111620022c057620022af818362000580565b9038620034f5565b6200355f6200135d565b620034ec565b62003578906000620033bf818362000580565b38620034ae565b620035896200135d565b620034a8565b62003598600080fd5b6200347c565b62000220906200341056fe60806040523462000032575b62000020620000196200010f565b9062000196565b6040516107bb620001c582396107bb90f35b6200003b600080fd5b6200000b565b600080fd5b50634e487b7160e01b600052604160045260246000fd5b90601f01601f191681019081106001600160401b038211176200007f57604052565b6200008962000046565b604052565b90620000a56200009d60405190565b92836200005d565b565b6001600160a01b031690565b90565b6001600160a01b038116036200004157565b90505190620000a582620000b6565b9190620000b39060408482031262000100575b620000f68185620000c8565b93602001620000c8565b62000109600080fd5b620000ea565b62000132620009808038038062000126816200008e565b928339810190620000d7565b9091565b620000b390620000a7906001600160a01b031682565b620000b39062000136565b620000b3906200014c565b9062000176620000b3620001929262000157565b82546001600160a01b0319166001600160a01b03919091161790565b9055565b620000a591620001b6620001ae620001bc9362000157565b600062000162565b62000157565b60016200016256fe60806040526004361015610018575b610016600080fd5b005b60003560e01c6312a365410361000e57610030610217565b61000e565b600080fd5b50634e487b7160e01b600052604160045260246000fd5b90601f01601f1916810190811067ffffffffffffffff82111761007357604052565b61007b61003a565b604052565b9061009461008d60405190565b9283610051565b565b6020809167ffffffffffffffff81116100ae57020190565b6100b661003a565b020190565b805b0361003557565b90503590610094826100bb565b909291926100e66100e182610096565b610080565b9381855260208086019202830192818411610124575b915b83831061010b5750505050565b6020809161011984866100c4565b8152019201916100fe565b61012c600080fd5b6100fc565b9061014d9181601f82011215610150575b6020813591016100d1565b90565b610158600080fd5b610142565b8015156100bd565b905035906100948261015d565b91906101008382031261020a575b61019d81843567ffffffffffffffff81116101fd575b8501610131565b926101ab82602083016100c4565b926101b983604084016100c4565b926101c781606085016100c4565b926101d582608083016100c4565b9261014d6101e68460a08501610165565b936101f48160c08601610165565b9360e0016100c4565b610205600080fd5b610196565b610212600080fd5b610180565b5034610252575b61024e61023e61022f366004610172565b9695909594919493929361034e565b6040519182918290815260200190565b0390f35b61025a600080fd5b61021e565b61014d61014d61014d9290565b61014d9061028161027d61014d9490565b9190565b901c90565b61029361014d61014d9290565b60ff1690565b61014d61014d61014d9260ff1690565b50634e487b7160e01b600052601160045260246000fd5b919082018092116102cd57565b6100946102a9565b919080830392600090911280158285131691841216176102cd57565b600190600160ff1b8114610303570390565b61030b6102a9565b0390565b50634e487b7160e01b600052603260045260246000fd5b9060208091610333845190565b811015610341575b02010190565b61034961030f565b61033b565b9490939592979661035d600090565b9682889581610530575b5061045f575b50506103aa949596975060001461044c57509291925b9350610395610390835190565b61025f565b9060019384926103a48461025f565b906102d5565b935b6103b8575b5050505090565b909192936103c6600061025f565b85126104465761042f83916103da8761025f565b6103fd6103f86103f16103ed848b610326565b5190565b928761026c565b610286565b61040685610286565b1661041a61041386610286565b9160ff1690565b0361043857906104299161062e565b956102f1565b939291906103ac565b6104419161062e565b610429565b936103b1565b610457915082610729565b929192610383565b9496935096949160006104718161025f565b805b61047c8361025f565b811480610527575b156104de57506104d861049a6103f8838e61026c565b916104d26104cc8c6104bc6103f8856001986104b58a610286565b169361026c565b6104c587610286565b1618610299565b9361025f565b906102c0565b90610473565b919294979a939598969950506104f661027d8361025f565b1461051657506103aa94959661050b91610729565b91879695943861036d565b9550505050505061014d915061025f565b508a8210610484565b905038610367565b60209067ffffffffffffffff811161054e570290565b61055661003a565b0290565b6100e161014d91610538565b61014d905b6001600160a01b031690565b61014d9054610566565b61014d9061056b906001600160a01b031682565b61014d90610581565b61014d90610595565b90505190610094826100bb565b9061014d91602081830312156105a7576105cc600080fd5b6105a7565b6105dd61027d60029390565b6000915b8383106105ee5750505050565b6106086106016001928451815260200190565b9260200190565b920191906105e1565b60408101929161009491906105d1565b506040513d6000823e3d90fd5b60209061065961069493610640600090565b5061065361064e600261055a565b938452565b83830152565b61066b6106666000610577565b61059e565b6106896329a5f2f661067c60405190565b9586948593849360e01b90565b835260048301610611565b03915afa9081156106d3575b6000916106ab575090565b61014d915060203d81116106cc575b6106c48183610051565b8101906105b4565b503d6106ba565b6106db610621565b6106a0565b6106ec61027d60039390565b6000915b8383106106fd5750505050565b6107106106016001928451815260200190565b920191906106f0565b60608101929161009491906106e0565b6020906107496106949361073b600090565b5061065361064e600361055a565b610769610666600161076461075d8261025f565b6040860152565b610577565b61077a6325cc70e861067c60405190565b83526004830161071956fea2646970667358221220e648655cc964effef1cdf539fa64f7a6f7fe2b373ddffdf582e642567194d19764736f6c6343000810003360806040523461001b575b604051611829610029823961182990f35b610023600080fd5b61000a56fe60806040526004361015610018575b610016600080fd5b005b60003560e01c63c9219a7a0361000e5761003061026a565b61000e565b50634e487b7160e01b600052604160045260246000fd5b90601f01601f1916810190811067ffffffffffffffff82111761006e57604052565b610076610035565b604052565b9061008f61008860405190565b928361004c565b565b60209067ffffffffffffffff81116100a7570290565b6100af610035565b0290565b909291926100c86100c382610091565b61007b565b9360208592028301928184116100f8575b915b8383106100e85750505050565b82358152602092830192016100db565b610100600080fd5b6100d9565b9061011e9181601f82011215610121575b6002906100b3565b90565b610129600080fd5b610116565b9092919261013e6100c382610091565b936040859202830192818411610178575b915b83831061015e5750505050565b602060409161016d8486610105565b815201920191610151565b610180600080fd5b61014f565b9061011e9181601f8201121561019e575b60029061012e565b6101a6600080fd5b610196565b909291926101bb6100c382610091565b9360208592028301928184116101eb575b915b8383106101db5750505050565b82358152602092830192016101ce565b6101f3600080fd5b6101cc565b9061011e9181601f82011215610211575b6008906101ab565b610219600080fd5b610209565b6102008183031261025d575b6102348282610105565b9261011e6102458460408501610185565b936102538160c08601610105565b93610100016101f8565b610265600080fd5b61022a565b50346102a1575b61029d61028b61028236600461021e565b92919091610473565b60405191829182901515815260200190565b0390f35b6102a9600080fd5b610271565b61011e606061007b565b61011e604061007b565b6102ca6102b8565b906000825260006020830152565b905250565b61011e6102c2565b6100c361011e91610091565b369037565b9061008f61030c610306846102e5565b93610091565b836102f1565b61011e60026102f6565b6103246102b8565b9061032d610312565b825260208083016102d8610312565b61011e61031c565b61034c6102ae565b906103556102dd565b825260208080840161036561033c565b8152016102d86102dd565b61011e610344565b61011e61011e61011e9290565b50634e487b7160e01b600052603260045260246000fd5b9060209060025b8110156103b0575b020190565b6103ab610385565b6020809167ffffffffffffffff81116103d057020190565b6103ab610035565b906103e56100c3836103b8565b918252565b9061008f6104006103fa846103d8565b936103b8565b601f1901602084016102f1565b50634e487b7160e01b600052601160045260246000fd5b6001906000198114610434570190565b61043c61040d565b0190565b9060209060086103a3565b9060208091610458845190565b811015610466575b02010190565b61046e610385565b610460565b9290919061047f610370565b9160009361048c85610378565b610496908761039c565b516001966104a388610378565b6104ac9161039c565b516104b56102b8565b916104c09088840152565b6020820152858501526104d360026102e5565b906104dd86610378565b6104e7908261039c565b516104f187610378565b6104fa9161039c565b518683015261050886610378565b610512908261039c565b5161051c88610378565b6105259161039c565b51602083015261053560026102e5565b9061053f88610378565b610549908261039c565b5161055388610378565b61055c9161039c565b518783015261056a88610378565b6105739161039c565b5161057d88610378565b6105869161039c565b5160208201526105946102b8565b91868301906105a09152565b602082015260208401526105b384610378565b6105bd908261039c565b51906105c886610378565b6105d19161039c565b516105da6102b8565b916105e59086840152565b60208201526040830152836008916105fc836103ea565b928261060787610378565b905b61063a575b505050509061061c91610719565b61062c61062883610378565b9190565b03610635575090565b905090565b81811015610672578061066761065a61065661066c9487610440565b5190565b610664838961044b565b52565b610424565b83610609565b61060e565b9190820180921161068457565b61008f61040d565b1561069357565b60405162461bcd60e51b81526020600482015260126024820152711d995c9a599a595c8b5898590b5a5b9c1d5d60721b6044820152606490fd5b156106d457565b60405162461bcd60e51b815260206004820152601f60248201527f76657269666965722d6774652d736e61726b2d7363616c61722d6669656c64006044820152606490fd5b61076e91906107477f30644e72e131a029b85045b68181585d2833e84879b9709143e1f593f0000001610378565b91610750611144565b90610759835190565b93600195869561076887610378565b90610677565b9361078c608085019561078661062861011e89515190565b1461068c565b600094866107986102b8565b926107a288610378565b99846107af8c8b81980152565b6107ba866020830152565b9585935b61082c575b5050505061081694926107df61081a9795936107e6935161044b565b5190610a16565b6107f2848301516108f4565b93602083015190840151602085015191606060408088015196015196015196610c1a565b1590565b610822575090565b61011e9150610378565b91939461083e61011e86989395985190565b8710156108af575061089e6108a49161086461085d6106568a8961044b565b85116106cd565b610898610884885161087e61087889610378565b8c610677565b9061044b565b516108926106568b8a61044b565b90610b0e565b90610a16565b95610424565b918a949391816107be565b9493839196506107c3565b50634e487b7160e01b600052601260045260246000fd5b81156108db570690565b6108e36108ba565b0690565b9190820391821161068457565b6108fc6102dd565b506109267f30644e72e131a029b85045b68181585d97816a916871ca8d3c208c16d87cfd47610378565b81519160009261093861062885610378565b14806109a8575b610987576109806109718361096b61011e9561096660206109608a89015190565b97015190565b6108d1565b906108e7565b9161097a6102b8565b94850152565b6020830152565b505061011e6109946102b8565b916109806109a182610378565b8092850152565b5060208101516109ba61062885610378565b1461093f565b61011e60046102f6565b9060209060046103a3565b156109dc57565b60405162461bcd60e51b81526020600482015260126024820152711c185a5c9a5b99cb5859190b59985a5b195960721b6044820152606490fd5b919091610a216102dd565b9283610a2b6109c0565b91610a34845190565b93600094610a4186610378565b610a4b90866109ca565b5260200151610a5a6001610378565b610a6490856109ca565b5283810151610a736002610378565b610a7d90856109ca565b5260200151610a8c6003610378565b610a9690846109ca565b525a6107d09003606092600660c092fa809114610ab65761008f906109d5565bfe5b61011e60036102f6565b9060209060036103a3565b15610ad457565b60405162461bcd60e51b81526020600482015260126024820152711c185a5c9a5b99cb5b5d5b0b59985a5b195960721b6044820152606490fd5b6060610b4f919392936080610b216102dd565b91610b808397610b6d610b5a6020610b37610ab8565b95610b55610b43825190565b61066460009d8e610378565b8a610ac2565b015190565b610664610b676001610378565b86610ac2565b610664610b7a6002610378565b84610ac2565b60076107d05a03fa809114610ab65761008f90610acd565b60005b828110610ba757505050565b602090610bb26102dd565b8184015201610b9b565b9061008f610bcc6103fa846103d8565b601f190160208401610b98565b60005b828110610be857505050565b602090610bf361033c565b8184015201610bdc565b9061008f610c0d6103fa846103d8565b601f190160208401610bd9565b9693929594919095610c2a600090565b50610c356004610378565b97610c3f89610bbc565b98610c4990610bfd565b97600091610c5683610378565b610c60908c61044b565b52610c6a82610378565b610c74908b61044b565b50600193610c8185610378565b610c8b908c61044b565b52610c9584610378565b610c9f908b61044b565b50600295610cac87610378565b610cb6908c61044b565b52610cc086610378565b610cca908b61044b565b50600397610cd789610378565b610ce1908c61044b565b52610ceb88610378565b610cf5908b61044b565b50610cff82610378565b610d09908a61044b565b52610d1390610378565b610d1d908861044b565b50610d2782610378565b610d31908861044b565b52610d3b90610378565b610d45908661044b565b50610d4f82610378565b610d59908661044b565b52610d6390610378565b610d6d908461044b565b50610d7782610378565b610d81908461044b565b52610d8b90610378565b610d95908261044b565b5061011e91610e58565b15610da657565b60405162461bcd60e51b81526020600482015260166024820152751c185a5c9a5b99cb5b195b99dd1a1ccb59985a5b195960521b6044820152606490fd5b8060001904821181151516610df7570290565b6100af61040d565b61011e60016102f6565b15610e1057565b60405162461bcd60e51b81526020600482015260156024820152741c185a5c9a5b99cb5bdc18dbd9194b59985a5b1959605a1b6044820152606490fd5b9060209060016103a3565b90916000610e7b610e67845190565b610e7561062861011e885190565b14610d9f565b825193600693610e93610e8d86610378565b87610de4565b93610e9d856103ea565b94600094610eaa86610378565b895b8110156110925786610ebe828761044b565b510151610eca8a610378565b610ed49083610de4565b610edd89610378565b610ee691610677565b610ef0908a61044b565b52610efb818661044b565b5160200151610f098a610378565b610f139083610de4565b90600191610f2083610378565b610f2991610677565b610f33908b61044b565b5287610f3f838961044b565b510151610f4b89610378565b610f549161039c565b51610f5e8b610378565b610f689084610de4565b610f726002610378565b610f7b91610677565b610f85908b61044b565b5287610f91838961044b565b510151610f9d82610378565b610fa69161039c565b51610fb08b610378565b610fba9084610de4565b610fc46003610378565b610fcd91610677565b610fd7908b61044b565b52610fe2828861044b565b5160200151610ff089610378565b610ff99161039c565b516110038b610378565b61100d9084610de4565b6110176004610378565b61102091610677565b61102a908b61044b565b52611035828861044b565b51602001519061104490610378565b61104d9161039c565b516110578a610378565b6110619083610de4565b61106b6005610378565b61107491610677565b61107e908a61044b565b5261108b610eac91610424565b9050610eaa565b5093509491509550602092945082806110a9610dff565b9586945002910160086107d05a03fa808314610ab6576110e46106566110ea936110d561062894610e09565b6110de86610378565b90610e4d565b92610378565b141590565b61011e60a061007b565b6111016110ef565b9061110a6102dd565b8252602080808080860161111c61033c565b81520161112761033c565b81520161113261033c565b8152016060905250565b61011e6110f9565b61114c61113c565b906117f0827f2d4d9aa7e302d9df41749d5507949d05dbea33fbb16c643b22f599a2be6df2e26111b66109807f14bedd503c37ceb061d8ec60209fe345ce89830a19230301f076caff004d19266111b16111ad6111a76102b8565b95610378565b8552565b610378565b81526111c260026102e5565b6111f26111ee7f0967032fcbf776d1afc985f88877f182d38480a653f2decaa9794cbc3bf3060c610378565b8252565b61121e6109807f0e187847ad4c798374d0d6732bf501847dd68bc0e071241e0213bc7fc13db7ab610378565b61129361122b60026102e5565b6112576111ee7f304cfbd1e08a704a99f5e847d93f8c3caafddec46b7a0d379da69a4d112346a7610378565b6112836109807f1739c1b1a457a8c7313123d24d2f9192f896b7c63eea05a9d57f06547ad0cec8610378565b61098061128e6102b8565b938452565b60208201526112a260026102e5565b6113b16112ce7f198e9393920d483a7260bfb731fb5d25f1aa493335a9e71297e485b7aef312c2610378565b916112d7838252565b6112836113037f1800deef121f1e76426a00665e5c4479674322d4f75edadd46debd5cd992f6ed610378565b61130e816020850152565b6113a461131b60026102e5565b916113457f090689d0585ff075ec9e99ad690c3395bc4b313370b38ef355acdadcd122975b610378565b9461134e868552565b61138661137a7f12c85ea5db8c6deb4aab71808dcb408fe3d1e7690c43d37b4ce6cc0166fa7daa610378565b94611283866020830152565b604089015261139d61139860026102e5565b978852565b6020870152565b61098061128e60026102e5565b606082015260806113ca6113c56009610378565b610bbc565b910190815261087e7f2311215d34d84c0bd07eb74a767c69f03b1d97c92a6ef3390647721fe445d5899161143a6114337f20acdfa51f1382fdb8450bac27640c111b751f6e35f1ba6a34bd8dac8e3f362f6111b161142f6114296102b8565b97610378565b8752565b6020850152565b61145e815160009461145461144e87610378565b8361044b565b5261087e85610378565b506114df7f2cee5bab1d72cde928c6c75624dc16ddbe2dbd719f3b70095d698b22dbcc4ccf6114be6109807f06e891e0877a79cbf32471e75fe2b57c0efec36135ab78967801d8b630f4a0066111b16114b86111a76102b8565b89860152565b61087e8351916001906114d96114d383610378565b8561044b565b52610378565b5061154e7f1b0e4bedef2d13953dc337c19397df536ee4b8e32877d235fbee5e46df8e28906115396109807f04a4fa0beb6d947cf50e48558daded885f7646977b4b1a8c33b3efb0a3bea8736111b16114b86111a76102b8565b61087e8351916002906114d96114d383610378565b506115bd7f241fb156e4d11abecea9cf77c2ae1c93b557e6d51fdff459a3f09e22e12cacb96115a86109807f0420e18af65c4098bc9135a5b87c305ffdb7ee196520e8c9350c557711576f0d6111b16114b86111a76102b8565b61087e8351916003906114d96114d383610378565b5061162c7f24b87ebe873eab5caaa0c8f970ab5fcf1f3a5b0d045920b475a9853e4a759ae86116176109807f16eb181ef4a13a0c754a58ecfa3e69a11010a01548f14572e54febdb2d9dbdd46111b16114b86111a76102b8565b61087e8351916004906114d96114d383610378565b5061169b7f10d2b9fd57a080498fe4d373ce456aada138c87bbe4cf7a49b94745063b189916116866109807f09c9e64ee532d0fc191f30f665f67a90dd9ac2f5fe319d33a3158acb3806525f6111b16114b86111a76102b8565b61087e8351916005906114d96114d383610378565b5061170a7f305275a70d154c364bca9c5113311e79db229974de7f777475a4e0f202021aaf6116f56109807f02ed2ab99fc93761006d6241483daf6ba42d368d7adc04d345b9e929de1f2bdc6111b16114b86111a76102b8565b61087e8351916006906114d96114d383610378565b506117797f242ae1e9f4486ba27cd3c5156f4d6e78aeefff1afb25486b4007b4256d17dc896117646109807f15c6dd35f284512a052ffd98de10682d54cafff931a44e3cbbb15bf1693a00676111b16114b86111a76102b8565b61087e8351916007906114d96114d383610378565b51506117df6114337f273b477346c746570d014e8fcbf9ba7bd15f7c46393faa3de5970c2e6255704a946111b17f1440ea68ae1a18c94a9424607cdeecf5e5f4859d584a712204ca921477438f5a916117d96117d36102b8565b98610378565b90880152565b51916008906114d96114d383610378565b5056fea264697066735822122018db1c17e92a7783fec60c6dc7156f57908ad7bb219a13a9b4a73de968c0571d64736f6c6343000810003360806040523461001b575b6040516115f361002982396115f390f35b610023600080fd5b61000a56fe60806040526004361015610018575b610016600080fd5b005b60003560e01c6311479fea0361000e5761003061026a565b61000e565b50634e487b7160e01b600052604160045260246000fd5b90601f01601f1916810190811067ffffffffffffffff82111761006e57604052565b610076610035565b604052565b9061008f61008860405190565b928361004c565b565b60209067ffffffffffffffff81116100a7570290565b6100af610035565b0290565b909291926100c86100c382610091565b61007b565b9360208592028301928184116100f8575b915b8383106100e85750505050565b82358152602092830192016100db565b610100600080fd5b6100d9565b9061011e9181601f82011215610121575b6002906100b3565b90565b610129600080fd5b610116565b9092919261013e6100c382610091565b936040859202830192818411610178575b915b83831061015e5750505050565b602060409161016d8486610105565b815201920191610151565b610180600080fd5b61014f565b9061011e9181601f8201121561019e575b60029061012e565b6101a6600080fd5b610196565b909291926101bb6100c382610091565b9360208592028301928184116101eb575b915b8383106101db5750505050565b82358152602092830192016101ce565b6101f3600080fd5b6101cc565b9061011e9181601f82011215610211575b6003906101ab565b610219600080fd5b610209565b6101608183031261025d575b6102348282610105565b9261011e6102458460408501610185565b936102538160c08601610105565b93610100016101f8565b610265600080fd5b61022a565b50346102a1575b61029d61028b61028236600461021e565b92919091610473565b60405191829182901515815260200190565b0390f35b6102a9600080fd5b610271565b61011e606061007b565b61011e604061007b565b6102ca6102b8565b906000825260006020830152565b905250565b61011e6102c2565b6100c361011e91610091565b369037565b9061008f61030c610306846102e5565b93610091565b836102f1565b61011e60026102f6565b6103246102b8565b9061032d610312565b825260208083016102d8610312565b61011e61031c565b61034c6102ae565b906103556102dd565b825260208080840161036561033c565b8152016102d86102dd565b61011e610344565b61011e61011e61011e9290565b50634e487b7160e01b600052603260045260246000fd5b9060209060025b8110156103b0575b020190565b6103ab610385565b6020809167ffffffffffffffff81116103d057020190565b6103ab610035565b906103e56100c3836103b8565b918252565b9061008f6104006103fa846103d8565b936103b8565b601f1901602084016102f1565b50634e487b7160e01b600052601160045260246000fd5b6001906000198114610434570190565b61043c61040d565b0190565b9060209060036103a3565b9060208091610458845190565b811015610466575b02010190565b61046e610385565b610460565b9290919061047f610370565b9160009361048c85610378565b610496908761039c565b516001966104a388610378565b6104ac9161039c565b516104b56102b8565b916104c09088840152565b6020820152858501526104d360026102e5565b906104dd86610378565b6104e7908261039c565b516104f187610378565b6104fa9161039c565b518683015261050886610378565b610512908261039c565b5161051c88610378565b6105259161039c565b51602083015261053560026102e5565b9061053f88610378565b610549908261039c565b5161055388610378565b61055c9161039c565b518783015261056a88610378565b6105739161039c565b5161057d88610378565b6105869161039c565b5160208201526105946102b8565b91868301906105a09152565b602082015260208401526105b384610378565b6105bd908261039c565b51906105c886610378565b6105d19161039c565b516105da6102b8565b916105e59086840152565b60208201526040830152836003916105fc836103ea565b928261060787610378565b905b61063a575b505050509061061c91610719565b61062c61062883610378565b9190565b03610635575090565b905090565b81811015610672578061066761065a61065661066c9487610440565b5190565b610664838961044b565b52565b610424565b83610609565b61060e565b9190820180921161068457565b61008f61040d565b1561069357565b60405162461bcd60e51b81526020600482015260126024820152711d995c9a599a595c8b5898590b5a5b9c1d5d60721b6044820152606490fd5b156106d457565b60405162461bcd60e51b815260206004820152601f60248201527f76657269666965722d6774652d736e61726b2d7363616c61722d6669656c64006044820152606490fd5b61076e91906107477f30644e72e131a029b85045b68181585d2833e84879b9709143e1f593f0000001610378565b91610750611139565b90610759835190565b93600195869561076887610378565b90610677565b9361078c608085019561078661062861011e89515190565b1461068c565b600094866107986102b8565b926107a288610378565b99846107af8c8b81980152565b6107ba866020830152565b9585935b61082c575b5050505061081694926107df61081a9795936107e6935161044b565b5190610a16565b6107f2848301516108f4565b93602083015190840151602085015191606060408088015196015196015196610c0f565b1590565b610822575090565b61011e9150610378565b91939461083e61011e86989395985190565b8710156108af575061089e6108a49161086461085d6106568a8961044b565b85116106cd565b610898610884885161087e61087889610378565b8c610677565b9061044b565b516108926106568b8a61044b565b90610b03565b90610a16565b95610424565b918a949391816107be565b9493839196506107c3565b50634e487b7160e01b600052601260045260246000fd5b81156108db570690565b6108e36108ba565b0690565b9190820391821161068457565b6108fc6102dd565b506109267f30644e72e131a029b85045b68181585d97816a916871ca8d3c208c16d87cfd47610378565b81519160009261093861062885610378565b14806109a8575b610987576109806109718361096b61011e9561096660206109608a89015190565b97015190565b6108d1565b906108e7565b9161097a6102b8565b94850152565b6020830152565b505061011e6109946102b8565b916109806109a182610378565b8092850152565b5060208101516109ba61062885610378565b1461093f565b61011e60046102f6565b9060209060046103a3565b156109dc57565b60405162461bcd60e51b81526020600482015260126024820152711c185a5c9a5b99cb5859190b59985a5b195960721b6044820152606490fd5b919091610a216102dd565b9283610a2b6109c0565b91610a34845190565b93600094610a4186610378565b610a4b90866109ca565b5260200151610a5a6001610378565b610a6490856109ca565b5283810151610a736002610378565b610a7d90856109ca565b5260200151610a8c6003610378565b610a9690846109ca565b525a6107d09003606092600660c092fa809114610ab65761008f906109d5565bfe5b61011e60036102f6565b15610ac957565b60405162461bcd60e51b81526020600482015260126024820152711c185a5c9a5b99cb5b5d5b0b59985a5b195960721b6044820152606490fd5b6060610b44919392936080610b166102dd565b91610b758397610b62610b4f6020610b2c610ab8565b95610b4a610b38825190565b61066460009d8e610378565b8a610440565b015190565b610664610b5c6001610378565b86610440565b610664610b6f6002610378565b84610440565b60076107d05a03fa809114610ab65761008f90610ac2565b60005b828110610b9c57505050565b602090610ba76102dd565b8184015201610b90565b9061008f610bc16103fa846103d8565b601f190160208401610b8d565b60005b828110610bdd57505050565b602090610be861033c565b8184015201610bd1565b9061008f610c026103fa846103d8565b601f190160208401610bce565b9693929594919095610c1f600090565b50610c2a6004610378565b97610c3489610bb1565b98610c3e90610bf2565b97600091610c4b83610378565b610c55908c61044b565b52610c5f82610378565b610c69908b61044b565b50600193610c7685610378565b610c80908c61044b565b52610c8a84610378565b610c94908b61044b565b50600295610ca187610378565b610cab908c61044b565b52610cb586610378565b610cbf908b61044b565b50600397610ccc89610378565b610cd6908c61044b565b52610ce088610378565b610cea908b61044b565b50610cf482610378565b610cfe908a61044b565b52610d0890610378565b610d12908861044b565b50610d1c82610378565b610d26908861044b565b52610d3090610378565b610d3a908661044b565b50610d4482610378565b610d4e908661044b565b52610d5890610378565b610d62908461044b565b50610d6c82610378565b610d76908461044b565b52610d8090610378565b610d8a908261044b565b5061011e91610e4d565b15610d9b57565b60405162461bcd60e51b81526020600482015260166024820152751c185a5c9a5b99cb5b195b99dd1a1ccb59985a5b195960521b6044820152606490fd5b8060001904821181151516610dec570290565b6100af61040d565b61011e60016102f6565b15610e0557565b60405162461bcd60e51b81526020600482015260156024820152741c185a5c9a5b99cb5bdc18dbd9194b59985a5b1959605a1b6044820152606490fd5b9060209060016103a3565b90916000610e70610e5c845190565b610e6a61062861011e885190565b14610d94565b825193600693610e88610e8286610378565b87610dd9565b93610e92856103ea565b94600094610e9f86610378565b895b8110156110875786610eb3828761044b565b510151610ebf8a610378565b610ec99083610dd9565b610ed289610378565b610edb91610677565b610ee5908a61044b565b52610ef0818661044b565b5160200151610efe8a610378565b610f089083610dd9565b90600191610f1583610378565b610f1e91610677565b610f28908b61044b565b5287610f34838961044b565b510151610f4089610378565b610f499161039c565b51610f538b610378565b610f5d9084610dd9565b610f676002610378565b610f7091610677565b610f7a908b61044b565b5287610f86838961044b565b510151610f9282610378565b610f9b9161039c565b51610fa58b610378565b610faf9084610dd9565b610fb96003610378565b610fc291610677565b610fcc908b61044b565b52610fd7828861044b565b5160200151610fe589610378565b610fee9161039c565b51610ff88b610378565b6110029084610dd9565b61100c6004610378565b61101591610677565b61101f908b61044b565b5261102a828861044b565b51602001519061103990610378565b6110429161039c565b5161104c8a610378565b6110569083610dd9565b6110606005610378565b61106991610677565b611073908a61044b565b52611080610ea191610424565b9050610e9f565b50935094915095506020929450828061109e610df4565b9586945002910160086107d05a03fa808314610ab6576110d96106566110df936110ca61062894610dfe565b6110d386610378565b90610e42565b92610378565b141590565b61011e60a061007b565b6110f66110e4565b906110ff6102dd565b8252602080808080860161111161033c565b81520161111c61033c565b81520161112761033c565b8152016060905250565b61011e6110ee565b611141611131565b906115ba827f2d4d9aa7e302d9df41749d5507949d05dbea33fbb16c643b22f599a2be6df2e26111ab6109807f14bedd503c37ceb061d8ec60209fe345ce89830a19230301f076caff004d19266111a66111a261119c6102b8565b95610378565b8552565b610378565b81526111b760026102e5565b6111e76111e37f0967032fcbf776d1afc985f88877f182d38480a653f2decaa9794cbc3bf3060c610378565b8252565b6112136109807f0e187847ad4c798374d0d6732bf501847dd68bc0e071241e0213bc7fc13db7ab610378565b61128861122060026102e5565b61124c6111e37f304cfbd1e08a704a99f5e847d93f8c3caafddec46b7a0d379da69a4d112346a7610378565b6112786109807f1739c1b1a457a8c7313123d24d2f9192f896b7c63eea05a9d57f06547ad0cec8610378565b6109806112836102b8565b938452565b602082015261129760026102e5565b6113a66112c37f198e9393920d483a7260bfb731fb5d25f1aa493335a9e71297e485b7aef312c2610378565b916112cc838252565b6112786112f87f1800deef121f1e76426a00665e5c4479674322d4f75edadd46debd5cd992f6ed610378565b611303816020850152565b61139961131060026102e5565b9161133a7f090689d0585ff075ec9e99ad690c3395bc4b313370b38ef355acdadcd122975b610378565b94611343868552565b61137b61136f7f12c85ea5db8c6deb4aab71808dcb408fe3d1e7690c43d37b4ce6cc0166fa7daa610378565b94611278866020830152565b604089015261139261138d60026102e5565b978852565b6020870152565b61098061128360026102e5565b606082015260806113bf6113ba6004610378565b610bb1565b910190815261087e7f2093e8493deb7a4b972f6d6dfff1aed4bee267cc2e059d40cdbcd2e58a2a9be89161142f6114287f1dfcc6ed73b3e94b7cc8f22d3042e4e2878ea170125814897248f75fa7d947046111a661142461141e6102b8565b97610378565b8752565b6020850152565b611453815160009461144961144387610378565b8361044b565b5261087e85610378565b506114d47f14c91308ab95656ff35e966dc96e138df07b646005df0b1854e858ae346872a16114b36109807f08215eee1420b1d95e7dcea7a9cbf3c032b81c28da38620670174d0c90ae24666111a66114ad61119c6102b8565b89860152565b61087e8351916001906114ce6114c883610378565b8561044b565b52610378565b506115437f0c14c37264e19702f7d5d4f1ccf586624fd832fd2bf088d6d672356cae8c78f461152e6109807f305525a805d0800d123efe27790f0680687c2706dea189fe80fb4b97e6769d516111a66114ad61119c6102b8565b61087e8351916002906114ce6114c883610378565b51506115a96114287f22d9c2d063bcf7941393eeeab3e2605b7be2859f7c4e11cdc98ab2c4ff22db41946111a67f240bee8cb88692669601cbaa7d5c22ffc5f94d2efab827accdb5d66f5272a342916115a361159d6102b8565b98610378565b90880152565b51916003906114ce6114c883610378565b5056fea2646970667358221220630bd85e8bdb55d89f641e4afab438e2563f205320e37017ac7b7814eb4b537a64736f6c63430008100033a26469706673582212201f2b24d65c521e188f71f3acde7227e4635f94c7a458394c1a93202aef4e462f64736f6c63430008100033",
  "linkReferences": {
    "contracts/libs/Poseidon.sol": {
      "SpongePoseidon": [
        {
          "length": 20,
          "start": 11722
        }
      ]
    }
  },
  "deployedLinkReferences": {
    "contracts/libs/Poseidon.sol": {
      "SpongePoseidon": [
        {
          "length": 20,
          "start": 11680
        }
      ]
    }
  }
}