{
  "_format": "hh-sol-artifact-1",
  "contractName": "Rollup",
  "sourceName": "contracts/Rollup.sol",
  "abi": [
    {
      "anonymous": false,
      "inputs": [
        {
          "indexed": false,
          "internalType": "uint8",
          "name": "version",
          "type": "uint8"
        }
      ],
      "name": "Initialized",
      "type": "event"
    },
    {
      "anonymous": false,
      "inputs": [
        {
          "indexed": false,
          "internalType": "uint256",
          "name": "publicAssetId",
          "type": "uint256"
        },
        {
          "indexed": false,
          "internalType": "address",
          "name": "tokenContract",
          "type": "address"
        }
      ],
      "name": "RegisteredToken",
      "type": "event"
    },
    {
      "anonymous": false,
      "inputs": [
        {
          "indexed": false,
          "internalType": "uint256[2]",
          "name": "pubkey",
          "type": "uint256[2]"
        },
        {
          "indexed": false,
          "internalType": "uint256",
          "name": "publicValue",
          "type": "uint256"
        },
        {
          "indexed": false,
          "internalType": "uint256",
          "name": "publicAssetId",
          "type": "uint256"
        }
      ],
      "name": "RequestDeposit",
      "type": "event"
    },
    {
      "anonymous": false,
      "inputs": [
        {
          "indexed": false,
          "internalType": "uint256",
          "name": "",
          "type": "uint256"
        },
        {
          "indexed": false,
          "internalType": "uint256",
          "name": "",
          "type": "uint256"
        },
        {
          "indexed": false,
          "internalType": "uint256",
          "name": "",
          "type": "uint256"
        }
      ],
      "name": "UpdatedState",
      "type": "event"
    },
    {
      "anonymous": false,
      "inputs": [
        {
          "components": [
            {
              "internalType": "uint256",
              "name": "publicValue",
              "type": "uint256"
            },
            {
              "internalType": "uint256[2]",
              "name": "publicOwner",
              "type": "uint256[2]"
            },
            {
              "internalType": "uint256",
              "name": "outputNc1",
              "type": "uint256"
            },
            {
              "internalType": "uint256",
              "name": "outputNc2",
              "type": "uint256"
            },
            {
              "internalType": "uint256",
              "name": "publicAssetId",
              "type": "uint256"
            },
            {
              "internalType": "uint256",
              "name": "dataTreeRoot",
              "type": "uint256"
            },
            {
              "internalType": "uint256[]",
              "name": "roots",
              "type": "uint256[]"
            },
            {
              "internalType": "uint256[]",
              "name": "keys",
              "type": "uint256[]"
            },
            {
              "internalType": "uint256[]",
              "name": "values",
              "type": "uint256[]"
            },
            {
              "internalType": "uint256[][]",
              "name": "siblings",
              "type": "uint256[][]"
            }
          ],
          "indexed": false,
          "internalType": "struct Rollup.TxInfo",
          "name": "",
          "type": "tuple"
        },
        {
          "indexed": false,
          "internalType": "address",
          "name": "",
          "type": "address"
        }
      ],
      "name": "Withdraw",
      "type": "event"
    },
    {
      "inputs": [],
      "name": "PROOF_ID_TYPE_DEPOSIT",
      "outputs": [
        {
          "internalType": "uint8",
          "name": "",
          "type": "uint8"
        }
      ],
      "stateMutability": "view",
      "type": "function"
    },
    {
      "inputs": [],
      "name": "PROOF_ID_TYPE_INVALID",
      "outputs": [
        {
          "internalType": "uint8",
          "name": "",
          "type": "uint8"
        }
      ],
      "stateMutability": "view",
      "type": "function"
    },
    {
      "inputs": [],
      "name": "PROOF_ID_TYPE_SEND",
      "outputs": [
        {
          "internalType": "uint8",
          "name": "",
          "type": "uint8"
        }
      ],
      "stateMutability": "view",
      "type": "function"
    },
    {
      "inputs": [],
      "name": "PROOF_ID_TYPE_WITHDRAW",
      "outputs": [
        {
          "internalType": "uint8",
          "name": "",
          "type": "uint8"
        }
      ],
      "stateMutability": "view",
      "type": "function"
    },
    {
      "inputs": [
        {
          "internalType": "address",
          "name": "tokenContractAddress",
          "type": "address"
        }
      ],
      "name": "approveToken",
      "outputs": [],
      "stateMutability": "nonpayable",
      "type": "function"
    },
    {
      "inputs": [],
      "name": "coordinator",
      "outputs": [
        {
          "internalType": "address",
          "name": "",
          "type": "address"
        }
      ],
      "stateMutability": "view",
      "type": "function"
    },
    {
      "inputs": [],
      "name": "dataTreeRoot",
      "outputs": [
        {
          "internalType": "uint256",
          "name": "",
          "type": "uint256"
        }
      ],
      "stateMutability": "view",
      "type": "function"
    },
    {
      "inputs": [
        {
          "internalType": "uint256[2]",
          "name": "pubkey",
          "type": "uint256[2]"
        },
        {
          "internalType": "uint256",
          "name": "publicAssetId",
          "type": "uint256"
        },
        {
          "internalType": "uint256",
          "name": "publicValue",
          "type": "uint256"
        },
        {
          "internalType": "uint256",
          "name": "nonce",
          "type": "uint256"
        }
      ],
      "name": "deposit",
      "outputs": [],
      "stateMutability": "payable",
      "type": "function"
    },
    {
      "inputs": [
        {
          "internalType": "address",
          "name": "_poseidon2InputsContractAddr",
          "type": "address"
        },
        {
          "internalType": "address",
          "name": "_poseidon3InputsContractAddr",
          "type": "address"
        }
      ],
      "name": "initialize",
      "outputs": [],
      "stateMutability": "nonpayable",
      "type": "function"
    },
    {
      "inputs": [
        {
          "internalType": "address",
          "name": "_poseidon2ContractAddr",
          "type": "address"
        },
        {
          "internalType": "address",
          "name": "_poseidon3ContractAddr",
          "type": "address"
        },
        {
          "internalType": "address",
          "name": "_tokenRegistryAddr",
          "type": "address"
        }
      ],
      "name": "initialize",
      "outputs": [],
      "stateMutability": "nonpayable",
      "type": "function"
    },
    {
      "inputs": [],
      "name": "insPoseidon2",
      "outputs": [
        {
          "internalType": "contract IPoseidon2",
          "name": "",
          "type": "address"
        }
      ],
      "stateMutability": "view",
      "type": "function"
    },
    {
      "inputs": [],
      "name": "insPoseidon3",
      "outputs": [
        {
          "internalType": "contract IPoseidon3",
          "name": "",
          "type": "address"
        }
      ],
      "stateMutability": "view",
      "type": "function"
    },
    {
      "inputs": [
        {
          "internalType": "uint256",
          "name": "",
          "type": "uint256"
        }
      ],
      "name": "nullifierHashs",
      "outputs": [
        {
          "internalType": "bool",
          "name": "",
          "type": "bool"
        }
      ],
      "stateMutability": "view",
      "type": "function"
    },
    {
      "inputs": [
        {
          "internalType": "uint256",
          "name": "",
          "type": "uint256"
        }
      ],
      "name": "nullifierRoots",
      "outputs": [
        {
          "internalType": "bool",
          "name": "",
          "type": "bool"
        }
      ],
      "stateMutability": "view",
      "type": "function"
    },
    {
      "inputs": [
        {
          "internalType": "uint256",
          "name": "",
          "type": "uint256"
        }
      ],
      "name": "pendingDeposits",
      "outputs": [
        {
          "internalType": "uint256",
          "name": "publicAssetId",
          "type": "uint256"
        },
        {
          "internalType": "uint256",
          "name": "publicValue",
          "type": "uint256"
        },
        {
          "internalType": "uint256",
          "name": "nonce",
          "type": "uint256"
        }
      ],
      "stateMutability": "view",
      "type": "function"
    },
    {
      "inputs": [
        {
          "internalType": "uint256[]",
          "name": "keys",
          "type": "uint256[]"
        },
        {
          "internalType": "uint256[]",
          "name": "values",
          "type": "uint256[]"
        },
        {
          "internalType": "uint256[][]",
          "name": "siblings",
          "type": "uint256[][]"
        }
      ],
      "name": "processDeposits",
      "outputs": [
        {
          "internalType": "uint256",
          "name": "",
          "type": "uint256"
        }
      ],
      "stateMutability": "nonpayable",
      "type": "function"
    },
    {
      "inputs": [],
      "name": "queueNumber",
      "outputs": [
        {
          "internalType": "uint256",
          "name": "",
          "type": "uint256"
        }
      ],
      "stateMutability": "view",
      "type": "function"
    },
    {
      "inputs": [
        {
          "internalType": "address",
          "name": "tokenContractAddress",
          "type": "address"
        }
      ],
      "name": "registerToken",
      "outputs": [],
      "stateMutability": "nonpayable",
      "type": "function"
    },
    {
      "inputs": [
        {
          "internalType": "uint256[]",
          "name": "siblings",
          "type": "uint256[]"
        },
        {
          "internalType": "uint256",
          "name": "key",
          "type": "uint256"
        },
        {
          "internalType": "uint256",
          "name": "value",
          "type": "uint256"
        },
        {
          "internalType": "uint256",
          "name": "oldKey",
          "type": "uint256"
        },
        {
          "internalType": "uint256",
          "name": "oldValue",
          "type": "uint256"
        },
        {
          "internalType": "bool",
          "name": "isNonExistence",
          "type": "bool"
        },
        {
          "internalType": "bool",
          "name": "isOld",
          "type": "bool"
        },
        {
          "internalType": "uint256",
          "name": "maxLevels",
          "type": "uint256"
        }
      ],
      "name": "smtVerifier",
      "outputs": [
        {
          "internalType": "uint256",
          "name": "",
          "type": "uint256"
        }
      ],
      "stateMutability": "view",
      "type": "function"
    },
    {
      "inputs": [],
      "name": "tokenContract",
      "outputs": [
        {
          "internalType": "contract IERC20",
          "name": "",
          "type": "address"
        }
      ],
      "stateMutability": "view",
      "type": "function"
    },
    {
      "inputs": [],
      "name": "tokenRegistry",
      "outputs": [
        {
          "internalType": "contract ITokenRegistry",
          "name": "",
          "type": "address"
        }
      ],
      "stateMutability": "view",
      "type": "function"
    },
    {
      "inputs": [
        {
          "internalType": "uint256[2]",
          "name": "a",
          "type": "uint256[2]"
        },
        {
          "internalType": "uint256[2][2]",
          "name": "b",
          "type": "uint256[2][2]"
        },
        {
          "internalType": "uint256[2]",
          "name": "c",
          "type": "uint256[2]"
        },
        {
          "internalType": "uint256[24]",
          "name": "input",
          "type": "uint256[24]"
        }
      ],
      "name": "update",
      "outputs": [],
      "stateMutability": "payable",
      "type": "function"
    },
    {
      "inputs": [
        {
          "components": [
            {
              "internalType": "uint256",
              "name": "publicValue",
              "type": "uint256"
            },
            {
              "internalType": "uint256[2]",
              "name": "publicOwner",
              "type": "uint256[2]"
            },
            {
              "internalType": "uint256",
              "name": "outputNc1",
              "type": "uint256"
            },
            {
              "internalType": "uint256",
              "name": "outputNc2",
              "type": "uint256"
            },
            {
              "internalType": "uint256",
              "name": "publicAssetId",
              "type": "uint256"
            },
            {
              "internalType": "uint256",
              "name": "dataTreeRoot",
              "type": "uint256"
            },
            {
              "internalType": "uint256[]",
              "name": "roots",
              "type": "uint256[]"
            },
            {
              "internalType": "uint256[]",
              "name": "keys",
              "type": "uint256[]"
            },
            {
              "internalType": "uint256[]",
              "name": "values",
              "type": "uint256[]"
            },
            {
              "internalType": "uint256[][]",
              "name": "siblings",
              "type": "uint256[][]"
            }
          ],
          "internalType": "struct Rollup.TxInfo",
          "name": "txInfo",
          "type": "tuple"
        },
        {
          "internalType": "address payable",
          "name": "recipient",
          "type": "address"
        },
        {
          "internalType": "uint256[2]",
          "name": "a",
          "type": "uint256[2]"
        },
        {
          "internalType": "uint256[2][2]",
          "name": "b",
          "type": "uint256[2][2]"
        },
        {
          "internalType": "uint256[2]",
          "name": "c",
          "type": "uint256[2]"
        }
      ],
      "name": "withdraw",
      "outputs": [],
      "stateMutability": "nonpayable",
      "type": "function"
    }
  ],
  "bytecode": "0x608060405234801561001057600080fd5b50615506806100206000396000f3fe60806040526004361061013f5760003560e01c80637a5ef255116100b6578063c0c53b8b1161006f578063c0c53b8b146103a7578063ca66f7e8146103c7578063e1d75c92146103da578063e2c93102146103ef578063f0d17cbc14610404578063fa9f6a141461043457600080fd5b80637a5ef255146102b95780637b5758b1146102cc57806380b2edd81461030c5780638bff301f1461032c5780639d23c4c71461034c578063a79327941461036c57600080fd5b80632fa6779a116101085780632fa6779a146102075780633deaea441461021d5780633e8f23c514610244578063485cc9551461025957806355a373d6146102795780635654d3251461029957600080fd5b80620df5381461014457806309824a80146101815780630a009097146101a357806312a36541146101c3578063267fd768146101f1575b600080fd5b34801561015057600080fd5b50600354610164906001600160a01b031681565b6040516001600160a01b0390911681526020015b60405180910390f35b34801561018d57600080fd5b506101a161019c366004611c5c565b610454565b005b3480156101af57600080fd5b50600654610164906001600160a01b031681565b3480156101cf57600080fd5b506101e36101de366004611daa565b6104b7565b604051908152602001610178565b3480156101fd57600080fd5b506101e3600b5481565b34801561021357600080fd5b506101e360085481565b34801561022957600080fd5b50610232600081565b60405160ff9091168152602001610178565b34801561025057600080fd5b50610232600181565b34801561026557600080fd5b506101a1610274366004611e3f565b6105ce565b34801561028557600080fd5b50600554610164906001600160a01b031681565b3480156102a557600080fd5b506101e36102b4366004611ef8565b610678565b6101a16102c736600461201f565b6108b7565b3480156102d857600080fd5b506102fc6102e73660046120d8565b60096020526000908152604090205460ff1681565b6040519015158152602001610178565b34801561031857600080fd5b506101a1610327366004611c5c565b610b2a565b34801561033857600080fd5b50600254610164906001600160a01b031681565b34801561035857600080fd5b50600454610164906001600160a01b031681565b34801561037857600080fd5b5061038c6103873660046120d8565b610c5f565b60408051938452602084019290925290820152606001610178565b3480156103b357600080fd5b506101a16103c23660046120f1565b610c95565b6101a16103d536600461213c565b610e8b565b3480156103e657600080fd5b50610232600381565b3480156103fb57600080fd5b50610232600281565b34801561041057600080fd5b506102fc61041f3660046120d8565b600a6020526000908152604090205460ff1681565b34801561044057600080fd5b506101a161044f366004612186565b61127b565b600480546040516213049560e71b81526001600160a01b03848116938201939093529116906309824a8090602401600060405180830381600087803b15801561049c57600080fd5b505af11580156104b0573d6000803e3d6000fd5b5050505050565b6000808480156104c45750835b1561052a576000805b811580156104da57508481105b1561050757808b901c600116818a901c6001161860ff1691506001816105009190612307565b90506104cd565b8160000361051b57600093505050506105c2565b6105258989611af9565b925050505b6000856105405761053b8a8a611af9565b610542565b815b905060008060018d51610555919061231a565b90505b600081126105bb578c818151811061057257610572612341565b6020908102919091010151915060018c821c8116148061059b576105968484611b8e565b6105a5565b6105a58385611b8e565b93505080806105b390612357565b915050610558565b5090925050505b98975050505050505050565b600054610100900460ff1661063e5760405162461bcd60e51b815260206004820152602b60248201527f496e697469616c697a61626c653a20636f6e7472616374206973206e6f74206960448201526a6e697469616c697a696e6760a81b60648201526084015b60405180910390fd5b6000805462010000600160b01b031916620100006001600160a01b0394851602179055600180546001600160a01b03191691909216179055565b600082518451146106d55760405162461bcd60e51b815260206004820152602160248201527f4b657920616e642076616c7565206d75737420686176652073616d652073697a6044820152606560f81b6064820152608401610635565b81518451146107325760405162461bcd60e51b815260206004820152602360248201527f4b657920616e64207369626c696e67206d75737420686176652073616d652073604482015262697a6560e81b6064820152608401610635565b600b5460005b85518110156108a7576000600760008154811061075757610757612341565b600091825260209091206040805160c08101909152916005020181608081018260028282826020028201915b81548152602001906001019080831161078357505050505081526020016002820154815260200160038201548152602001600482015481525050905061081d8583815181106107d4576107d4612341565b60200260200101518884815181106107ee576107ee612341565b602002602001015188858151811061080857610808612341565b602002602001015160008060008060146104b7565b6000818152600a602052604090205490935060ff16151560010361087b5760405162461bcd60e51b8152602060048201526015602482015274125b9d985b1a59081b9d5b1b1a599a595c949bdbdd605a1b6044820152606401610635565b506000828152600a60205260409020805460ff191660011790558061089f81612374565b915050610738565b50600b81905590505b9392505050565b80516020808301516040808501516060860151608087015160a088015160c089015160e08a01516000828152600a90995295909720549596939592949193909290919060ff16156109435760405162461bcd60e51b8152602060048201526016602482015275125b9d985b1a590819185d18481d1c9959481c9bdbdd60521b6044820152606401610635565b60008481526009602052604090205460ff16156109a25760405162461bcd60e51b815260206004820152601f60248201527f496e76616c6964206e756c6c696669657231207768656e206465706f736974006044820152606401610635565b60008381526009602052604090205460ff1615610a015760405162461bcd60e51b815260206004820152601f60248201527f496e76616c6964206e756c6c696669657232207768656e206465706f736974006044820152606401610635565b600c546040516302680e2d60e51b81526001600160a01b0390911690634d01c5a090610a37908f908f908f908f906004016123de565b602060405180830381865afa158015610a54573d6000803e3d6000fd5b505050506040513d601f19601f82011682018060405250810190610a78919061243b565b610abc5760405162461bcd60e51b815260206004820152601560248201527424b73b30b634b2103232b837b9b4ba10383937b7b360591b6044820152606401610635565b600b8290556000828152600a6020908152604091829020805460ff1916600117905581518481529081018690529081018490527fbe4212065768908e69f6c63172b1d155abe731f87bfc61b83a5c3b93f12c853f9060600160405180910390a1505050505050505050505050565b6006546001600160a01b03163314610b4457610b44612458565b600480546040516310165dbb60e31b81526001600160a01b03848116938201939093529116906380b2edd890602401600060405180830381600087803b158015610b8d57600080fd5b505af1158015610ba1573d6000803e3d6000fd5b505050507f5dbaa701a7acef513f72a61799f7e50f4653f462b9f780d88d1b9bec89de2168600460009054906101000a90046001600160a01b03166001600160a01b0316638e499bcf6040518163ffffffff1660e01b8152600401602060405180830381865afa158015610c19573d6000803e3d6000fd5b505050506040513d601f19601f82011682018060405250810190610c3d919061246e565b604080519182526001600160a01b03841660208301520160405180910390a150565b60078181548110610c6f57600080fd5b600091825260209091206005909102016002810154600382015460049092015490925083565b600054610100900460ff1615808015610cb55750600054600160ff909116105b80610ccf5750303b158015610ccf575060005460ff166001145b610d325760405162461bcd60e51b815260206004820152602e60248201527f496e697469616c697a61626c653a20636f6e747261637420697320616c72656160448201526d191e481a5b9a5d1a585b1a5e995960921b6064820152608401610635565b6000805460ff191660011790558015610d55576000805461ff0019166101001790555b610d5f84846105ce565b600280546001600160a01b038087166001600160a01b03199283161790925560038054868416908316179055600480549285169282169290921790915560068054909116331790556000600b55604051610db890611bd7565b604051809103906000f080158015610dd4573d6000803e3d6000fd5b50600c80546001600160a01b0319166001600160a01b0392909216919091179055604051610e0190611be4565b604051809103906000f080158015610e1d573d6000803e3d6000fd5b50600d80546001600160a01b0319166001600160a01b03929092169190911790558015610e85576000805461ff0019169055604051600181527f7f26b83ff96e1f2b6a682f133852f6798a09c465da95921460cefb3847402498906020015b60405180910390a15b50505050565b82600003610f6f576006546001600160a01b03163314610f015760405162461bcd60e51b815260206004820152602b60248201527f7075626c696341737365744964203020697320726573657276656420666f722060448201526a31b7b7b93234b730ba37b960a91b6064820152608401610635565b81158015610f0d575034155b610f6a5760405162461bcd60e51b815260206004820152602860248201527f7075626c696341737365744964203020646f6573206e6f742068617665207265604482015267616c2076616c756560c01b6064820152608401610635565b6111aa565b82600103610ff957600034118015610f875750813410155b610f6a5760405162461bcd60e51b815260206004820152603760248201527f6d73672e76616c7565206d757374206174206c6561737420657175616c20737460448201527f61746564207075626c696356616c756520696e207765690000000000000000006064820152608401610635565b60018311156111aa576000821161105e5760405162461bcd60e51b8152602060048201526024808201527f746f6b656e206465706f736974206d75737420626520677265617465722074686044820152630616e20360e41b6064820152608401610635565b60048054604051634d05d17560e11b81529182018590526000916001600160a01b0390911690639a0ba2ea90602401602060405180830381865afa1580156110aa573d6000803e3d6000fd5b505050506040513d601f19601f820116820180604052508101906110ce9190612487565b600580546001600160a01b0319166001600160a01b0383169081179091556040516323b872dd60e01b815233600482015230602482015260448101869052919250906323b872dd906064016020604051808303816000875af1158015611138573d6000803e3d6000fd5b505050506040513d601f19601f8201168201806040525081019061115c919061243b565b6111a85760405162461bcd60e51b815260206004820152601b60248201527f746f6b656e207472616e73666572206e6f7420617070726f76656400000000006044820152606401610635565b505b60408051608081018252858152602081018590529081018390526060810182905260078054600181018255600091909152815160059091027fa66cc928b5edb82af9bd49922954155ab7b0942694bea4ce44661d9a8736c68801906112129082906002611bf1565b5060208201516002820155604082015160038201556060909101516004909101556008805490600061124383612374565b91905055507f595b7e310cd1b7e94b72db62a3257c5fa242cbca10740eb40ae49044f5dcff1f848385604051610e7c939291906124a4565b608085015160a086015160c0870151516000611298826006612307565b67ffffffffffffffff8111156112b0576112b0611c79565b6040519080825280602002602001820160405280156112d9578160200160208202803683370190505b5090508860000151816000815181106112f4576112f4612341565b602002602001018181525050886020015160006002811061131757611317612341565b60200201518160018151811061132f5761132f612341565b602002602001018181525050886020015160016002811061135257611352612341565b60200201518160028151811061136a5761136a612341565b60200260200101818152505088604001518160038151811061138e5761138e612341565b6020026020010181815250508860600151816004815181106113b2576113b2612341565b6020026020010181815250508860800151816005815181106113d6576113d6612341565b60200260200101818152505060005b82811015611446578960c00151818151811061140357611403612341565b6020026020010151828260066114199190612307565b8151811061142957611429612341565b60209081029190910101528061143e81612374565b9150506113e5565b506040516340ec6e4960e01b815260009073__$1b25989371b4022db49653cc4d10b17012$__906340ec6e49906114819085906004016124c3565b602060405180830381865af415801561149e573d6000803e3d6000fd5b505050506040513d601f19601f820116820180604052508101906114c2919061246e565b6040808c015160009081526009602052205490915060ff16156115275760405162461bcd60e51b815260206004820152601f60248201527f496e76616c6964206e756c6c696669657231207768656e206465706f736974006044820152606401610635565b60608a015160009081526009602052604090205460ff161561158b5760405162461bcd60e51b815260206004820152601f60248201527f496e76616c6964206e756c6c696669657232207768656e206465706f736974006044820152606401610635565b600060405180606001604052808c602001516000600281106115af576115af612341565b602002015181526020018c602001516001600281106115d0576115d0612341565b60200201518152602001838152509050600086116116245760405162461bcd60e51b8152602060048201526011602482015270496e76616c696420746f6b656e5479706560781b6044820152606401610635565b6000858152600a602052604090205460ff166116825760405162461bcd60e51b815260206004820152601e60248201527f496e76616c6964206c6173746573742064617461207472656520726f6f7400006044820152606401610635565b60005b8b60c001515181101561183d5760005b600281101561182a57600a60008e60c0015184815181106116b8576116b8612341565b60209081029190910181015182528101919091526040016000205460ff1661171b5760405162461bcd60e51b8152602060048201526016602482015275125b9d985b1a590819185d18481d1c9959481c9bdbdd60521b6044820152606401610635565b6101208d01516117b69082611731856002612507565b61173b9190612307565b8151811061174b5761174b612341565b60200260200101518e60e00151838560026117669190612507565b6117709190612307565b8151811061178057611780612341565b60200260200101518f61010001518486600261179c9190612507565b6117a69190612307565b8151811061080857610808612341565b8d60c0015183815181106117cc576117cc612341565b6020026020010151146118185760405162461bcd60e51b815260206004820152601460248201527334b73b30b634b21036b2b935b63290383937b7b360611b6044820152606401610635565b8061182281612374565b915050611695565b508061183581612374565b915050611685565b50600d546040516308a3cff560e11b81526001600160a01b03909116906311479fea90611874908c908c908c908790600401612549565b602060405180830381865afa158015611891573d6000803e3d6000fd5b505050506040513d601f19601f820116820180604052508101906118b5919061243b565b6119015760405162461bcd60e51b815260206004820181905260248201527f546865206564647361207369676e6174757265206973206e6f742076616c69646044820152606401610635565b85600103611945578a516040516001600160a01b038c169180156108fc02916000818181858888f1935050505015801561193f573d6000803e3d6000fd5b50611a7f565b60048054604051634d05d17560e11b81529182018890526000916001600160a01b0390911690639a0ba2ea90602401602060405180830381865afa158015611991573d6000803e3d6000fd5b505050506040513d601f19601f820116820180604052508101906119b59190612487565b600580546001600160a01b0319166001600160a01b038381169182179092558e5160405163a9059cbb60e01b8152928f166004840152602483015291925063a9059cbb906044016020604051808303816000875af1158015611a1b573d6000803e3d6000fd5b505050506040513d601f19601f82011682018060405250810190611a3f919061243b565b611a7d5760405162461bcd60e51b815260206004820152600f60248201526e151c985b9cd9995c8819985a5b1959608a1b6044820152606401610635565b505b60408b810151600090815260096020528181208054600160ff19918216811790925560608f01518352918390208054909216179055517fea48de8e35406fdea36b4a516c25f7a98098d3bd4140a07c035c0433a736d81390611ae4908d908d90612619565b60405180910390a15050505050505050505050565b604080516060810182528381526020810183905260018183018190525491516304b98e1d60e31b81526000926001600160a01b0316906325cc70e890611b439084906004016126f7565b602060405180830381865afa158015611b60573d6000803e3d6000fd5b505050506040513d601f19601f82011682018060405250810190611b84919061246e565b9150505b92915050565b604080518082018252838152602081018390526000805492516314d2f97b60e11b815290926201000090046001600160a01b0316906329a5f2f690611b43908490600401612705565b611bbd8061271483390190565b611200806142d183390190565b8260028101928215611c1f579160200282015b82811115611c1f578251825591602001919060010190611c04565b50611c2b929150611c2f565b5090565b5b80821115611c2b5760008155600101611c30565b6001600160a01b0381168114611c5957600080fd5b50565b600060208284031215611c6e57600080fd5b81356108b081611c44565b634e487b7160e01b600052604160045260246000fd5b604051610140810167ffffffffffffffff81118282101715611cb357611cb3611c79565b60405290565b6040805190810167ffffffffffffffff81118282101715611cb357611cb3611c79565b604051601f8201601f1916810167ffffffffffffffff81118282101715611d0557611d05611c79565b604052919050565b600067ffffffffffffffff821115611d2757611d27611c79565b5060051b60200190565b600082601f830112611d4257600080fd5b81356020611d57611d5283611d0d565b611cdc565b82815260059290921b84018101918181019086841115611d7657600080fd5b8286015b84811015611d915780358352918301918301611d7a565b509695505050505050565b8015158114611c5957600080fd5b600080600080600080600080610100898b031215611dc757600080fd5b883567ffffffffffffffff811115611dde57600080fd5b611dea8b828c01611d31565b9850506020890135965060408901359550606089013594506080890135935060a0890135611e1781611d9c565b925060c0890135611e2781611d9c565b8092505060e089013590509295985092959890939650565b60008060408385031215611e5257600080fd5b8235611e5d81611c44565b91506020830135611e6d81611c44565b809150509250929050565b600082601f830112611e8957600080fd5b81356020611e99611d5283611d0d565b82815260059290921b84018101918181019086841115611eb857600080fd5b8286015b84811015611d9157803567ffffffffffffffff811115611edc5760008081fd5b611eea8986838b0101611d31565b845250918301918301611ebc565b600080600060608486031215611f0d57600080fd5b833567ffffffffffffffff80821115611f2557600080fd5b611f3187838801611d31565b94506020860135915080821115611f4757600080fd5b611f5387838801611d31565b93506040860135915080821115611f6957600080fd5b50611f7686828701611e78565b9150509250925092565b600082601f830112611f9157600080fd5b611f99611cb9565b806040840185811115611fab57600080fd5b845b81811015611fc5578035845260209384019301611fad565b509095945050505050565b600082601f830112611fe157600080fd5b611fe9611cb9565b806080840185811115611ffb57600080fd5b845b81811015611fc55761200f8782611f80565b8452602090930192604001611ffd565b60008060008061040080868803121561203757600080fd5b6120418787611f80565b94506120508760408801611fd0565b935061205f8760c08801611f80565b92508661011f87011261207157600080fd5b604051610300810181811067ffffffffffffffff8211171561209557612095611c79565b6040529086019080888311156120aa57600080fd5b61010088015b838110156120c85780358252602091820191016120b0565b5050809250505092959194509250565b6000602082840312156120ea57600080fd5b5035919050565b60008060006060848603121561210657600080fd5b833561211181611c44565b9250602084013561212181611c44565b9150604084013561213181611c44565b809150509250925092565b60008060008060a0858703121561215257600080fd5b61215c8686611f80565b966040860135965060608601359560800135945092505050565b803561218181611c44565b919050565b60008060008060006101408087890312156121a057600080fd5b863567ffffffffffffffff808211156121b857600080fd5b90880190610160828b0312156121cd57600080fd5b6121d5611c8f565b823581526121e68b60208501611f80565b6020820152606083013560408201526080830135606082015260a0830135608082015260c083013560a082015260e08301358281111561222557600080fd5b6122318c828601611d31565b60c083015250610100808401358381111561224b57600080fd5b6122578d828701611d31565b60e084015250610120808501358481111561227157600080fd5b61227d8e828801611d31565b848401525094840135948386111561229457600080fd5b6122a08d878701611e78565b81840152508199506122b460208c01612176565b98506122c38c60408d01611f80565b97506122d28c60808d01611fd0565b96506122e08c828d01611f80565b955050505050509295509295909350565b634e487b7160e01b600052601160045260246000fd5b80820180821115611b8857611b886122f1565b818103600083128015838313168383128216171561233a5761233a6122f1565b5092915050565b634e487b7160e01b600052603260045260246000fd5b6000600160ff1b820161236c5761236c6122f1565b506000190190565b600060018201612386576123866122f1565b5060010190565b8060005b6002811015610e85578151845260209384019390910190600101612391565b8060005b6002811015610e85576123c884835161238d565b60409390930192602091909101906001016123b4565b61040081016123ed828761238d565b6123fa60408301866123b0565b61240760c083018561238d565b61010082018360005b601881101561242f578151835260209283019290910190600101612410565b50505095945050505050565b60006020828403121561244d57600080fd5b81516108b081611d9c565b634e487b7160e01b600052600160045260246000fd5b60006020828403121561248057600080fd5b5051919050565b60006020828403121561249957600080fd5b81516108b081611c44565b608081016124b2828661238d565b604082019390935260600152919050565b6020808252825182820181905260009190848201906040850190845b818110156124fb578351835292840192918401916001016124df565b50909695505050505050565b6000816000190483118215151615612521576125216122f1565b500290565b8060005b6003811015610e8557815184526020938401939091019060010161252a565b6101608101612558828761238d565b61256560408301866123b0565b61257260c083018561238d565b612580610100830184612526565b95945050505050565b600081518084526020808501945080840160005b838110156125b95781518752958201959082019060010161259d565b509495945050505050565b600081518084526020808501808196508360051b8101915082860160005b8581101561260c5782840389526125fa848351612589565b988501989350908401906001016125e2565b5091979650505050505050565b604081528251604082015260006020840151612638606084018261238d565b50604084015160a0830152606084015160c0830152608084015160e083015260a0840151610100818185015260c0860151915061016061012081818701526126846101a0870185612589565b935060e0880151603f1980888703016101408901526126a38683612589565b948a01518886038201858a01529495506126bd8686612589565b9550828a015194508088870301610180890152505050506126de82826125c4565b925050506108b060208301846001600160a01b03169052565b60608101611b888284612526565b60408101611b88828461238d56fe608060405234801561001057600080fd5b50611b9d806100206000396000f3fe608060405234801561001057600080fd5b506004361061002b5760003560e01c80634d01c5a014610030575b600080fd5b61004361003e3660046119dd565b610057565b604051901515815260200160405180910390f35b60006100616117f0565b60408051808201825287518152602080890151818301529083528151608081018352875151818401908152885183015160608301528152825180840184528883018051518252518301518184015281830152838201528151808301835286518152868201518183015283830152815160188082526103208201909352600092909182016103008036833701905050905060005b60188110156101435784816018811061010f5761010f611abb565b602002015182828151811061012657610126611abb565b60209081029190910101528061013b81611ae7565b9150506100f4565b5061014e818361016f565b60000361016057600192505050610167565b6000925050505b949350505050565b60007f30644e72e131a029b85045b68181585d2833e84879b9709143e1f593f00000018161019b610366565b9050806080015151855160016101b19190611b00565b146101f85760405162461bcd60e51b81526020600482015260126024820152711d995c9a599a595c8b5898590b5a5b9c1d5d60721b60448201526064015b60405180910390fd5b604080518082019091526000808252602082018190525b86518110156102e9578387828151811061022b5761022b611abb565b6020026020010151106102805760405162461bcd60e51b815260206004820152601f60248201527f76657269666965722d6774652d736e61726b2d7363616c61722d6669656c640060448201526064016101ef565b6102d5826102d085608001518460016102999190611b00565b815181106102a9576102a9611abb565b60200260200101518a85815181106102c3576102c3611abb565b602002602001015161113f565b6111d5565b9150806102e181611ae7565b91505061020f565b5061031281836080015160008151811061030557610305611abb565b60200260200101516111d5565b9050610348610324866000015161126e565b8660200151846000015185602001518587604001518b60400151896060015161130d565b6103585760019350505050610360565b600093505050505b92915050565b61036e611841565b6040805180820182527f2d4d9aa7e302d9df41749d5507949d05dbea33fbb16c643b22f599a2be6df2e281527f14bedd503c37ceb061d8ec60209fe345ce89830a19230301f076caff004d19266020808301919091529083528151608080820184527f0967032fcbf776d1afc985f88877f182d38480a653f2decaa9794cbc3bf3060c8285019081527f0e187847ad4c798374d0d6732bf501847dd68bc0e071241e0213bc7fc13db7ab606080850191909152908352845180860186527f304cfbd1e08a704a99f5e847d93f8c3caafddec46b7a0d379da69a4d112346a781527f1739c1b1a457a8c7313123d24d2f9192f896b7c63eea05a9d57f06547ad0cec8818601528385015285840192909252835180820185527f198e9393920d483a7260bfb731fb5d25f1aa493335a9e71297e485b7aef312c28186018181527f1800deef121f1e76426a00665e5c4479674322d4f75edadd46debd5cd992f6ed838601819052908352865180880188527f090689d0585ff075ec9e99ad690c3395bc4b313370b38ef355acdadcd122975b8082527f12c85ea5db8c6deb4aab71808dcb408fe3d1e7690c43d37b4ce6cc0166fa7daa8289018190528589019290925289890194909452875194850188528488019283528486019190915290835285518087018752918252818501528184015290840152815160198082526103408201909352919082015b604080518082019091526000808252602082015281526020019060019003908161057757505060808201908152604080518082019091527f0cac0e1b63c696e18f3304df391fa96a1422721c0eab3fc09e5ef954123a3d1081527f185137a6d641a06e75d9d898dc753a22f8d32815f9783ea75707d3e657d390d960208201529051805160009061060a5761060a611abb565b602002602001018190525060405180604001604052807eb0d468d13e89cf3f98b841cd2c96ba221e04cfe2914acc5dba55cb97a0759c81526020017f2544a2cb25e0455d418949b99b50b915f0472de0fb50fb21112e5f37b825a2ea815250816080015160018151811061068057610680611abb565b602002602001018190525060405180604001604052807f083a29b13ef07b0aa191b3848d7d9549ddfc750b20427ba69f78198a58a2870481526020017f0519ecbbcf896eaa78613cbe1e034b6e54e3e7c46627641e58b2593e7f50518181525081608001516002815181106106f7576106f7611abb565b602002602001018190525060405180604001604052807f1cd0f0857b4121ef97061f6b093bb83e23f754d8925bde24760d705e284cffda81526020017f209c68eb237bd191b9acf2e705328311a53c0cf72d8822f25260034d2d6353ec815250816080015160038151811061076e5761076e611abb565b602002602001018190525060405180604001604052807f0accb836ad3a59aa8a0af2e413c37cd207ca8ab6735ed25132707a66b08cac7781526020017f1269ae0291d57df88ba57e7f0732d52f051fcd9ef7a95144f1ca56fd293208f981525081608001516004815181106107e5576107e5611abb565b602002602001018190525060405180604001604052807f1ccf46f0c280958068dd51bb680a29de0240c9628f7441a04a519780eee0a95e81526020017f1ef764f5845f2c74d5a9ef3a0693231f9ccb82923cf791c0abbc04bfab5621cb815250816080015160058151811061085c5761085c611abb565b602002602001018190525060405180604001604052807f0a16a98155884f098811006c40e9deab1af7f8918cf03da068fded747ef97dd781526020017f10121db08cf6e1e8bf25e1f1358e9460b0a6dc1a81f2321a55b05d863f23de0e81525081608001516006815181106108d3576108d3611abb565b602002602001018190525060405180604001604052807f0419110199fb6abd7a898a4acd973663e55cf32712b70ef594a1cdad68e98d2e81526020017f2f13e70d38e91ba7255512ba0ed8774ac3580610dcb11c6eace23f30d8df6048815250816080015160078151811061094a5761094a611abb565b602002602001018190525060405180604001604052807f2819321ba9cc9031e61232e2e416b6bc880672e2f2dd691338876fd4eaf1462181526020017f01a54183d2689d5bed6fcd16538ef8aa1c6be02ec69410fd3aaac21ecb574f5481525081608001516008815181106109c1576109c1611abb565b602002602001018190525060405180604001604052807f18b4240088ba27498d9ac3388a4f40555a594b34fb074b6dfceceb349ab05b0281526020017f2122497f2c4ea8a8b62a566cca0f52a76041eb68ecae9b7bfd6c4663331a021d8152508160800151600981518110610a3857610a38611abb565b602002602001018190525060405180604001604052807f0ad3ec91b8ada0d517f3e16776271e7bca6844af49fb743bff083bc4c7dea1c381526020017f2c9ddfefb6b686d228fd1aa1f920596fdb43fb22b718a02b7e06f3f2fca276d58152508160800151600a81518110610aaf57610aaf611abb565b602002602001018190525060405180604001604052807f1c82580cfc1c06add39968cc8c11a2b312cef8050ba94cdb00fac333322e897781526020017f09f721ca357b31c29da0c9ab36d6dff1ee992079f16e5e2d1856370ffed8d3958152508160800151600b81518110610b2657610b26611abb565b602002602001018190525060405180604001604052807f138e9dff5d70c3c5077fcf041827ea8eed754339f7ab9bf4c3a0c10e194e5fd781526020017f21284a79a05b8a15ee83e18ea638a210fa36d4cd6e920fe63b30648a85f192828152508160800151600c81518110610b9d57610b9d611abb565b602002602001018190525060405180604001604052807f20b85b1a6b05a33cb59a62332e5d481745589a0065f06890f42269ac21c8742681526020017f21aa12c492649553aeebe62dcb2ee80052e4d46bdbef3edd788e5a6dc4ed16818152508160800151600d81518110610c1457610c14611abb565b602002602001018190525060405180604001604052807f2d592dbc8f8851105517424d9468b5177cdc0b78788532adfee774e3b0042cfd81526020017f16d60ea85fa7116bf77c43637c0e24fabf1ee8acef983d8ceef15b3ab9eec4f88152508160800151600e81518110610c8b57610c8b611abb565b602002602001018190525060405180604001604052807f2543af25d835ac4e5ab27dd768f24cb758cf712dc8a7d2a14cce6ccc1537877c81526020017f2086dbe287ba6848c957b13bddce295d749ac0895fd188c662fb1f8e57b1c0f18152508160800151600f81518110610d0257610d02611abb565b602002602001018190525060405180604001604052807f149cf52d962617f15b6d8aac5cae2de9b6c0ac6ef61134184941de1a0c7bf0ae81526020017f05d61b476a6779196272682add5f0daa8fbdde49678bf0a5dafb86b9b2cc99548152508160800151601081518110610d7957610d79611abb565b602002602001018190525060405180604001604052807f13fc60f3f6980354d39b5f7c7581cd574db39089b63ec7cc0957d5d2cbd5f29081526020017f2d0f09f0422f8080abb7568389391dcd3595edb814fcdb5c483dde1400eab4eb8152508160800151601181518110610df057610df0611abb565b602002602001018190525060405180604001604052807f1ccb7662d6389537f50aa7f9fdf7b225b97e0b0bd62a90bcdc2653d6321a478081526020017f136ab60a071a79bc35a7e05e74e65ab3b9b6e46dae5aeb7e1f2c4e0efa9c2a9d8152508160800151601281518110610e6757610e67611abb565b602002602001018190525060405180604001604052807f2d2f827f8d89b8f4f8baa6183a5e0eb94c7e446b47c8bea408b0222f7745226e81526020017f2de0f448a2a64b860b3bdac41d14c111b204b8f4b11cd01ecbc4ab856e32bec88152508160800151601381518110610ede57610ede611abb565b602002602001018190525060405180604001604052807f1835794fdedd470586f0a6683451009789a97c60a108aa1f583b003bc6e2942081526020017f1c581916d18b3228c99b7e1e630fb649e465c5d3ec7cb4200bd16f8fd68515cd8152508160800151601481518110610f5557610f55611abb565b602002602001018190525060405180604001604052807f1021cb8c259a26ce6b0dc796d0f0d7d35885be22b4827b1727490420a8d7cdf281526020017f18219c355e550df5ea1378044d045201fe99bd1f421c278f844e476fb85becea8152508160800151601581518110610fcc57610fcc611abb565b602002602001018190525060405180604001604052807f250faeda779ba0454fc4118d53d9ad5bd3c9ddd20db9aef3d5860cb9b5fe935c81526020017f13977e6ce239761a6d1fedbee8b2099971e7b0fb26e7b3d19685130b36524fe7815250816080015160168151811061104357611043611abb565b602002602001018190525060405180604001604052807f197cd43338dab8fbba57bffa5eb35da8fce738dbb959ecbfbddc16226f42122a81526020017f26972e95c693d94073e88f68eb7c3f1e6caa84127c4dd3b595773a0e050f6ec481525081608001516017815181106110ba576110ba611abb565b602002602001018190525060405180604001604052807f106640c5e4d2abb91e55416459746fc5cdf021cce06f0c546188572be773d11f81526020017f26e0cf407c811a19a9fdc1f7d495dc109805eaa1bf22d7af4879bc5c5cf610f7815250816080015160188151811061113157611131611abb565b602002602001018190525090565b604080518082019091526000808252602082015261115b611892565b835181526020808501519082015260408101839052600060608360808460076107d05a03fa9050808061118a57fe5b50806111cd5760405162461bcd60e51b81526020600482015260126024820152711c185a5c9a5b99cb5b5d5b0b59985a5b195960721b60448201526064016101ef565b505092915050565b60408051808201909152600080825260208201526111f16118b0565b8351815260208085015181830152835160408301528301516060808301919091526000908360c08460066107d05a03fa9050808061122b57fe5b50806111cd5760405162461bcd60e51b81526020600482015260126024820152711c185a5c9a5b99cb5859190b59985a5b195960721b60448201526064016101ef565b604080518082019091526000808252602082015281517f30644e72e131a029b85045b68181585d97816a916871ca8d3c208c16d87cfd47901580156112b557506020830151155b156112d55750506040805180820190915260008082526020820152919050565b6040518060400160405280846000015181526020018285602001516112fa9190611b13565b6113049084611b35565b90529392505050565b60408051600480825260a08201909252600091829190816020015b604080518082019091526000808252602082015281526020019060019003908161132857505060408051600480825260a0820190925291925060009190602082015b6113726118ce565b81526020019060019003908161136a5790505090508a8260008151811061139b5761139b611abb565b602002602001018190525088826001815181106113ba576113ba611abb565b602002602001018190525086826002815181106113d9576113d9611abb565b602002602001018190525084826003815181106113f8576113f8611abb565b6020026020010181905250898160008151811061141757611417611abb565b6020026020010181905250878160018151811061143657611436611abb565b6020026020010181905250858160028151811061145557611455611abb565b6020026020010181905250838160038151811061147457611474611abb565b60200260200101819052506114898282611498565b9b9a5050505050505050505050565b600081518351146114e45760405162461bcd60e51b81526020600482015260166024820152751c185a5c9a5b99cb5b195b99dd1a1ccb59985a5b195960521b60448201526064016101ef565b825160006114f3826006611b48565b905060008167ffffffffffffffff8111156115105761151061192a565b604051908082528060200260200182016040528015611539578160200160208202803683370190505b50905060005b838110156117745786818151811061155957611559611abb565b602002602001015160000151828260066115739190611b48565b61157e906000611b00565b8151811061158e5761158e611abb565b6020026020010181815250508681815181106115ac576115ac611abb565b602002602001015160200151828260066115c69190611b48565b6115d1906001611b00565b815181106115e1576115e1611abb565b6020026020010181815250508581815181106115ff576115ff611abb565b6020908102919091010151515182611618836006611b48565b611623906002611b00565b8151811061163357611633611abb565b60200260200101818152505085818151811061165157611651611abb565b6020908102919091018101515101518261166c836006611b48565b611677906003611b00565b8151811061168757611687611abb565b6020026020010181815250508581815181106116a5576116a5611abb565b6020026020010151602001516000600281106116c3576116c3611abb565b6020020151826116d4836006611b48565b6116df906004611b00565b815181106116ef576116ef611abb565b60200260200101818152505085818151811061170d5761170d611abb565b60200260200101516020015160016002811061172b5761172b611abb565b60200201518261173c836006611b48565b611747906005611b00565b8151811061175757611757611abb565b60209081029190910101528061176c81611ae7565b91505061153f565b5061177d6118ee565b6000602082602086026020860160086107d05a03fa9050808061179c57fe5b50806117e25760405162461bcd60e51b81526020600482015260156024820152741c185a5c9a5b99cb5bdc18dbd9194b59985a5b1959605a1b60448201526064016101ef565b505115159695505050505050565b6040805160a08101909152600060608201818152608083019190915281526020810161181a6118ce565b815260200161183c604051806040016040528060008152602001600081525090565b905290565b6040805160e08101909152600060a0820181815260c083019190915281526020810161186b6118ce565b81526020016118786118ce565b81526020016118856118ce565b8152602001606081525090565b60405180606001604052806003906020820280368337509192915050565b60405180608001604052806004906020820280368337509192915050565b60405180604001604052806118e161190c565b815260200161183c61190c565b60405180602001604052806001906020820280368337509192915050565b60405180604001604052806002906020820280368337509192915050565b634e487b7160e01b600052604160045260246000fd5b6040805190810167ffffffffffffffff811182821017156119635761196361192a565b60405290565b604051610300810167ffffffffffffffff811182821017156119635761196361192a565b600082601f83011261199e57600080fd5b6119a6611940565b8060408401858111156119b857600080fd5b845b818110156119d25780358452602093840193016119ba565b509095945050505050565b6000806000806104008086880312156119f557600080fd5b6119ff878761198d565b9450604087605f880112611a1257600080fd5b611a1a611940565b8060c089018a811115611a2c57600080fd5b838a015b81811015611a5157611a428c8261198d565b84526020909301928401611a30565b50819750611a5f8b8261198d565b9650505050508661011f870112611a7557600080fd5b611a7d611969565b908601908088831115611a8f57600080fd5b61010088015b83811015611aad578035835260209283019201611a95565b509598949750929550505050565b634e487b7160e01b600052603260045260246000fd5b634e487b7160e01b600052601160045260246000fd5b600060018201611af957611af9611ad1565b5060010190565b8082018082111561036057610360611ad1565b600082611b3057634e487b7160e01b600052601260045260246000fd5b500690565b8181038181111561036057610360611ad1565b6000816000190483118215151615611b6257611b62611ad1565b50029056fea26469706673582212205b23dff07190369fb16575239229c7cfac04d06783a671535919433e178a4fc764736f6c63430008100033608060405234801561001057600080fd5b506111e0806100206000396000f3fe608060405234801561001057600080fd5b506004361061002b5760003560e01c806311479fea14610030575b600080fd5b61004361003e366004611020565b610057565b604051901515815260200160405180910390f35b6000610061610e34565b60408051808201825287518152602080890151818301529083528151608080820184528851518285019081528951840151606080850191909152908352845180860186528a8501805151825251850151818601528385015285840192909252835180850185528851815288840151818501528585015283516003808252918101909452600093929091908301908036833701905050905060005b600381101561014a57848160038110610116576101166110fe565b602002015182828151811061012d5761012d6110fe565b6020908102919091010152806101428161112a565b9150506100fb565b506101558183610176565b6000036101675760019250505061016e565b6000925050505b949350505050565b60007f30644e72e131a029b85045b68181585d2833e84879b9709143e1f593f0000001816101a261036d565b9050806080015151855160016101b89190611143565b146101ff5760405162461bcd60e51b81526020600482015260126024820152711d995c9a599a595c8b5898590b5a5b9c1d5d60721b60448201526064015b60405180910390fd5b604080518082019091526000808252602082018190525b86518110156102f05783878281518110610232576102326110fe565b6020026020010151106102875760405162461bcd60e51b815260206004820152601f60248201527f76657269666965722d6774652d736e61726b2d7363616c61722d6669656c640060448201526064016101f6565b6102dc826102d785608001518460016102a09190611143565b815181106102b0576102b06110fe565b60200260200101518a85815181106102ca576102ca6110fe565b6020026020010151610783565b610819565b9150806102e88161112a565b915050610216565b5061031981836080015160008151811061030c5761030c6110fe565b6020026020010151610819565b905061034f61032b86600001516108b2565b8660200151846000015185602001518587604001518b604001518960600151610951565b61035f5760019350505050610367565b600093505050505b92915050565b610375610e85565b6040805180820182527f2d4d9aa7e302d9df41749d5507949d05dbea33fbb16c643b22f599a2be6df2e281527f14bedd503c37ceb061d8ec60209fe345ce89830a19230301f076caff004d19266020808301919091529083528151608080820184527f0967032fcbf776d1afc985f88877f182d38480a653f2decaa9794cbc3bf3060c8285019081527f0e187847ad4c798374d0d6732bf501847dd68bc0e071241e0213bc7fc13db7ab606080850191909152908352845180860186527f304cfbd1e08a704a99f5e847d93f8c3caafddec46b7a0d379da69a4d112346a781527f1739c1b1a457a8c7313123d24d2f9192f896b7c63eea05a9d57f06547ad0cec8818601528385015285840192909252835180820185527f198e9393920d483a7260bfb731fb5d25f1aa493335a9e71297e485b7aef312c28186018181527f1800deef121f1e76426a00665e5c4479674322d4f75edadd46debd5cd992f6ed838601819052908352865180880188527f090689d0585ff075ec9e99ad690c3395bc4b313370b38ef355acdadcd122975b8082527f12c85ea5db8c6deb4aab71808dcb408fe3d1e7690c43d37b4ce6cc0166fa7daa82890181905285890192909252898901949094528751948501885284880192835284860191909152908352855180870187529182528185015281840152908401528151600480825260a08201909352919082015b604080518082019091526000808252602082015281526020019060019003908161057d57505060808201908152604080518082019091527f2093e8493deb7a4b972f6d6dfff1aed4bee267cc2e059d40cdbcd2e58a2a9be881527f1dfcc6ed73b3e94b7cc8f22d3042e4e2878ea170125814897248f75fa7d94704602082015290518051600090610610576106106110fe565b602002602001018190525060405180604001604052807f14c91308ab95656ff35e966dc96e138df07b646005df0b1854e858ae346872a181526020017f08215eee1420b1d95e7dcea7a9cbf3c032b81c28da38620670174d0c90ae24668152508160800151600181518110610687576106876110fe565b602002602001018190525060405180604001604052807f0c14c37264e19702f7d5d4f1ccf586624fd832fd2bf088d6d672356cae8c78f481526020017f305525a805d0800d123efe27790f0680687c2706dea189fe80fb4b97e6769d5181525081608001516002815181106106fe576106fe6110fe565b602002602001018190525060405180604001604052807f22d9c2d063bcf7941393eeeab3e2605b7be2859f7c4e11cdc98ab2c4ff22db4181526020017f240bee8cb88692669601cbaa7d5c22ffc5f94d2efab827accdb5d66f5272a3428152508160800151600381518110610775576107756110fe565b602002602001018190525090565b604080518082019091526000808252602082015261079f610ed6565b835181526020808501519082015260408101839052600060608360808460076107d05a03fa905080806107ce57fe5b50806108115760405162461bcd60e51b81526020600482015260126024820152711c185a5c9a5b99cb5b5d5b0b59985a5b195960721b60448201526064016101f6565b505092915050565b6040805180820190915260008082526020820152610835610ef4565b8351815260208085015181830152835160408301528301516060808301919091526000908360c08460066107d05a03fa9050808061086f57fe5b50806108115760405162461bcd60e51b81526020600482015260126024820152711c185a5c9a5b99cb5859190b59985a5b195960721b60448201526064016101f6565b604080518082019091526000808252602082015281517f30644e72e131a029b85045b68181585d97816a916871ca8d3c208c16d87cfd47901580156108f957506020830151155b156109195750506040805180820190915260008082526020820152919050565b60405180604001604052808460000151815260200182856020015161093e9190611156565b6109489084611178565b90529392505050565b60408051600480825260a08201909252600091829190816020015b604080518082019091526000808252602082015281526020019060019003908161096c57505060408051600480825260a0820190925291925060009190602082015b6109b6610f12565b8152602001906001900390816109ae5790505090508a826000815181106109df576109df6110fe565b602002602001018190525088826001815181106109fe576109fe6110fe565b60200260200101819052508682600281518110610a1d57610a1d6110fe565b60200260200101819052508482600381518110610a3c57610a3c6110fe565b60200260200101819052508981600081518110610a5b57610a5b6110fe565b60200260200101819052508781600181518110610a7a57610a7a6110fe565b60200260200101819052508581600281518110610a9957610a996110fe565b60200260200101819052508381600381518110610ab857610ab86110fe565b6020026020010181905250610acd8282610adc565b9b9a5050505050505050505050565b60008151835114610b285760405162461bcd60e51b81526020600482015260166024820152751c185a5c9a5b99cb5b195b99dd1a1ccb59985a5b195960521b60448201526064016101f6565b82516000610b3782600661118b565b905060008167ffffffffffffffff811115610b5457610b54610f6e565b604051908082528060200260200182016040528015610b7d578160200160208202803683370190505b50905060005b83811015610db857868181518110610b9d57610b9d6110fe565b60200260200101516000015182826006610bb7919061118b565b610bc2906000611143565b81518110610bd257610bd26110fe565b602002602001018181525050868181518110610bf057610bf06110fe565b60200260200101516020015182826006610c0a919061118b565b610c15906001611143565b81518110610c2557610c256110fe565b602002602001018181525050858181518110610c4357610c436110fe565b6020908102919091010151515182610c5c83600661118b565b610c67906002611143565b81518110610c7757610c776110fe565b602002602001018181525050858181518110610c9557610c956110fe565b60209081029190910181015151015182610cb083600661118b565b610cbb906003611143565b81518110610ccb57610ccb6110fe565b602002602001018181525050858181518110610ce957610ce96110fe565b602002602001015160200151600060028110610d0757610d076110fe565b602002015182610d1883600661118b565b610d23906004611143565b81518110610d3357610d336110fe565b602002602001018181525050858181518110610d5157610d516110fe565b602002602001015160200151600160028110610d6f57610d6f6110fe565b602002015182610d8083600661118b565b610d8b906005611143565b81518110610d9b57610d9b6110fe565b602090810291909101015280610db08161112a565b915050610b83565b50610dc1610f32565b6000602082602086026020860160086107d05a03fa90508080610de057fe5b5080610e265760405162461bcd60e51b81526020600482015260156024820152741c185a5c9a5b99cb5bdc18dbd9194b59985a5b1959605a1b60448201526064016101f6565b505115159695505050505050565b6040805160a081019091526000606082018181526080830191909152815260208101610e5e610f12565b8152602001610e80604051806040016040528060008152602001600081525090565b905290565b6040805160e08101909152600060a0820181815260c0830191909152815260208101610eaf610f12565b8152602001610ebc610f12565b8152602001610ec9610f12565b8152602001606081525090565b60405180606001604052806003906020820280368337509192915050565b60405180608001604052806004906020820280368337509192915050565b6040518060400160405280610f25610f50565b8152602001610e80610f50565b60405180602001604052806001906020820280368337509192915050565b60405180604001604052806002906020820280368337509192915050565b634e487b7160e01b600052604160045260246000fd5b6040805190810167ffffffffffffffff81118282101715610fa757610fa7610f6e565b60405290565b6040516060810167ffffffffffffffff81118282101715610fa757610fa7610f6e565b600082601f830112610fe157600080fd5b610fe9610f84565b806040840185811115610ffb57600080fd5b845b81811015611015578035845260209384019301610ffd565b509095945050505050565b60008060008061016080868803121561103857600080fd5b6110428787610fd0565b9450604087605f88011261105557600080fd5b61105d610f84565b8060c089018a81111561106f57600080fd5b838a015b81811015611094576110858c82610fd0565b84526020909301928401611073565b508197506110a28b82610fd0565b9650505050508661011f8701126110b857600080fd5b6110c0610fad565b9086019080888311156110d257600080fd5b61010088015b838110156110f05780358352602092830192016110d8565b509598949750929550505050565b634e487b7160e01b600052603260045260246000fd5b634e487b7160e01b600052601160045260246000fd5b60006001820161113c5761113c611114565b5060010190565b8082018082111561036757610367611114565b60008261117357634e487b7160e01b600052601260045260246000fd5b500690565b8181038181111561036757610367611114565b60008160001904831182151516156111a5576111a5611114565b50029056fea26469706673582212205e9441c6aca7a4be3b6d6a8510c86b483777d0874acbec70ce84410debc8b8dc64736f6c63430008100033a2646970667358221220aa38ffd7be6a7e672d987f4f17127e264c4f607ee876b51e24360cd054e9103864736f6c63430008100033",
  "linkReferences": {
    "contracts/libs/Poseidon.sol": {
      "SpongePoseidon": [
        {
          "length": 20,
          "start": 5241
        }
      ]
    }
  },
  "deployedLinkReferences": {
    "contracts/libs/Poseidon.sol": {
      "SpongePoseidon": [
        {
          "length": 20,
          "start": 5209
        }
      ]
    }
  }
}