{
  "_format": "hh-sol-artifact-1",
  "contractName": "Rollup",
  "sourceName": "contracts/Rollup.sol",
  "abi": [
    {
      "inputs": [],
      "stateMutability": "nonpayable",
      "type": "constructor"
    },
    {
      "anonymous": false,
      "inputs": [
        {
          "indexed": false,
          "internalType": "uint8",
          "name": "version",
          "type": "uint8"
        }
      ],
      "name": "Initialized",
      "type": "event"
    },
    {
      "anonymous": false,
      "inputs": [
        {
          "indexed": false,
          "internalType": "uint256",
          "name": "publicAssetId",
          "type": "uint256"
        },
        {
          "indexed": false,
          "internalType": "address",
          "name": "tokenContract",
          "type": "address"
        }
      ],
      "name": "RegisteredToken",
      "type": "event"
    },
    {
      "anonymous": false,
      "inputs": [
        {
          "indexed": false,
          "internalType": "uint256[2]",
          "name": "pubkey",
          "type": "uint256[2]"
        },
        {
          "indexed": false,
          "internalType": "uint256",
          "name": "publicValue",
          "type": "uint256"
        },
        {
          "indexed": false,
          "internalType": "uint256",
          "name": "publicAssetId",
          "type": "uint256"
        }
      ],
      "name": "RequestDeposit",
      "type": "event"
    },
    {
      "anonymous": false,
      "inputs": [
        {
          "indexed": false,
          "internalType": "address",
          "name": "initializer",
          "type": "address"
        }
      ],
      "name": "RollupInitialized",
      "type": "event"
    },
    {
      "anonymous": false,
      "inputs": [
        {
          "indexed": false,
          "internalType": "uint256",
          "name": "",
          "type": "uint256"
        },
        {
          "indexed": false,
          "internalType": "uint256",
          "name": "",
          "type": "uint256"
        },
        {
          "indexed": false,
          "internalType": "uint256",
          "name": "",
          "type": "uint256"
        }
      ],
      "name": "UpdatedState",
      "type": "event"
    },
    {
      "anonymous": false,
      "inputs": [
        {
          "components": [
            {
              "internalType": "uint256",
              "name": "publicValue",
              "type": "uint256"
            },
            {
              "internalType": "uint256[2]",
              "name": "publicOwner",
              "type": "uint256[2]"
            },
            {
              "internalType": "uint256",
              "name": "outputNc1",
              "type": "uint256"
            },
            {
              "internalType": "uint256",
              "name": "outputNc2",
              "type": "uint256"
            },
            {
              "internalType": "uint256",
              "name": "publicAssetId",
              "type": "uint256"
            },
            {
              "internalType": "uint256",
              "name": "dataTreeRoot",
              "type": "uint256"
            },
            {
              "internalType": "uint256[]",
              "name": "roots",
              "type": "uint256[]"
            },
            {
              "internalType": "uint256[]",
              "name": "keys",
              "type": "uint256[]"
            },
            {
              "internalType": "uint256[]",
              "name": "values",
              "type": "uint256[]"
            },
            {
              "internalType": "uint256[][]",
              "name": "siblings",
              "type": "uint256[][]"
            }
          ],
          "indexed": false,
          "internalType": "struct Rollup.TxInfo",
          "name": "",
          "type": "tuple"
        },
        {
          "indexed": false,
          "internalType": "address",
          "name": "",
          "type": "address"
        }
      ],
      "name": "Withdraw",
      "type": "event"
    },
    {
      "inputs": [],
      "name": "PROOF_ID_TYPE_DEPOSIT",
      "outputs": [
        {
          "internalType": "uint8",
          "name": "",
          "type": "uint8"
        }
      ],
      "stateMutability": "view",
      "type": "function"
    },
    {
      "inputs": [],
      "name": "PROOF_ID_TYPE_INVALID",
      "outputs": [
        {
          "internalType": "uint8",
          "name": "",
          "type": "uint8"
        }
      ],
      "stateMutability": "view",
      "type": "function"
    },
    {
      "inputs": [],
      "name": "PROOF_ID_TYPE_SEND",
      "outputs": [
        {
          "internalType": "uint8",
          "name": "",
          "type": "uint8"
        }
      ],
      "stateMutability": "view",
      "type": "function"
    },
    {
      "inputs": [],
      "name": "PROOF_ID_TYPE_WITHDRAW",
      "outputs": [
        {
          "internalType": "uint8",
          "name": "",
          "type": "uint8"
        }
      ],
      "stateMutability": "view",
      "type": "function"
    },
    {
      "inputs": [
        {
          "internalType": "address",
          "name": "tokenContractAddress",
          "type": "address"
        }
      ],
      "name": "approveToken",
      "outputs": [],
      "stateMutability": "nonpayable",
      "type": "function"
    },
    {
      "inputs": [],
      "name": "coordinator",
      "outputs": [
        {
          "internalType": "address",
          "name": "",
          "type": "address"
        }
      ],
      "stateMutability": "view",
      "type": "function"
    },
    {
      "inputs": [],
      "name": "dataTreeRoot",
      "outputs": [
        {
          "internalType": "uint256",
          "name": "",
          "type": "uint256"
        }
      ],
      "stateMutability": "view",
      "type": "function"
    },
    {
      "inputs": [
        {
          "internalType": "uint256[2]",
          "name": "pubkey",
          "type": "uint256[2]"
        },
        {
          "internalType": "uint256",
          "name": "publicAssetId",
          "type": "uint256"
        },
        {
          "internalType": "uint256",
          "name": "publicValue",
          "type": "uint256"
        },
        {
          "internalType": "uint256",
          "name": "nonce",
          "type": "uint256"
        }
      ],
      "name": "deposit",
      "outputs": [],
      "stateMutability": "payable",
      "type": "function"
    },
    {
      "inputs": [
        {
          "internalType": "address",
          "name": "_poseidon2InputsContractAddr",
          "type": "address"
        },
        {
          "internalType": "address",
          "name": "_poseidon3InputsContractAddr",
          "type": "address"
        }
      ],
      "name": "initialize",
      "outputs": [],
      "stateMutability": "nonpayable",
      "type": "function"
    },
    {
      "inputs": [
        {
          "internalType": "address",
          "name": "_poseidon2ContractAddr",
          "type": "address"
        },
        {
          "internalType": "address",
          "name": "_poseidon3ContractAddr",
          "type": "address"
        },
        {
          "internalType": "address",
          "name": "_tokenRegistryAddr",
          "type": "address"
        }
      ],
      "name": "initialize",
      "outputs": [],
      "stateMutability": "nonpayable",
      "type": "function"
    },
    {
      "inputs": [],
      "name": "insPoseidon2",
      "outputs": [
        {
          "internalType": "contract IPoseidon2",
          "name": "",
          "type": "address"
        }
      ],
      "stateMutability": "view",
      "type": "function"
    },
    {
      "inputs": [],
      "name": "insPoseidon3",
      "outputs": [
        {
          "internalType": "contract IPoseidon3",
          "name": "",
          "type": "address"
        }
      ],
      "stateMutability": "view",
      "type": "function"
    },
    {
      "inputs": [
        {
          "internalType": "uint256",
          "name": "",
          "type": "uint256"
        }
      ],
      "name": "nullifierHashs",
      "outputs": [
        {
          "internalType": "bool",
          "name": "",
          "type": "bool"
        }
      ],
      "stateMutability": "view",
      "type": "function"
    },
    {
      "inputs": [
        {
          "internalType": "uint256",
          "name": "",
          "type": "uint256"
        }
      ],
      "name": "nullifierRoots",
      "outputs": [
        {
          "internalType": "bool",
          "name": "",
          "type": "bool"
        }
      ],
      "stateMutability": "view",
      "type": "function"
    },
    {
      "inputs": [
        {
          "internalType": "uint256",
          "name": "",
          "type": "uint256"
        }
      ],
      "name": "pendingDeposits",
      "outputs": [
        {
          "internalType": "uint256",
          "name": "publicAssetId",
          "type": "uint256"
        },
        {
          "internalType": "uint256",
          "name": "publicValue",
          "type": "uint256"
        },
        {
          "internalType": "uint256",
          "name": "nonce",
          "type": "uint256"
        }
      ],
      "stateMutability": "view",
      "type": "function"
    },
    {
      "inputs": [
        {
          "internalType": "uint256[]",
          "name": "keys",
          "type": "uint256[]"
        },
        {
          "internalType": "uint256[]",
          "name": "values",
          "type": "uint256[]"
        },
        {
          "internalType": "uint256[][]",
          "name": "siblings",
          "type": "uint256[][]"
        }
      ],
      "name": "processDeposits",
      "outputs": [
        {
          "internalType": "uint256",
          "name": "",
          "type": "uint256"
        }
      ],
      "stateMutability": "nonpayable",
      "type": "function"
    },
    {
      "inputs": [],
      "name": "queueNumber",
      "outputs": [
        {
          "internalType": "uint256",
          "name": "",
          "type": "uint256"
        }
      ],
      "stateMutability": "view",
      "type": "function"
    },
    {
      "inputs": [
        {
          "internalType": "address",
          "name": "tokenContractAddress",
          "type": "address"
        }
      ],
      "name": "registerToken",
      "outputs": [],
      "stateMutability": "nonpayable",
      "type": "function"
    },
    {
      "inputs": [
        {
          "internalType": "uint256[]",
          "name": "siblings",
          "type": "uint256[]"
        },
        {
          "internalType": "uint256",
          "name": "key",
          "type": "uint256"
        },
        {
          "internalType": "uint256",
          "name": "value",
          "type": "uint256"
        },
        {
          "internalType": "uint256",
          "name": "oldKey",
          "type": "uint256"
        },
        {
          "internalType": "uint256",
          "name": "oldValue",
          "type": "uint256"
        },
        {
          "internalType": "bool",
          "name": "isNonExistence",
          "type": "bool"
        },
        {
          "internalType": "bool",
          "name": "isOld",
          "type": "bool"
        },
        {
          "internalType": "uint256",
          "name": "maxLevels",
          "type": "uint256"
        }
      ],
      "name": "smtVerifier",
      "outputs": [
        {
          "internalType": "uint256",
          "name": "",
          "type": "uint256"
        }
      ],
      "stateMutability": "view",
      "type": "function"
    },
    {
      "inputs": [],
      "name": "tokenContract",
      "outputs": [
        {
          "internalType": "contract IERC20",
          "name": "",
          "type": "address"
        }
      ],
      "stateMutability": "view",
      "type": "function"
    },
    {
      "inputs": [],
      "name": "tokenRegistry",
      "outputs": [
        {
          "internalType": "contract ITokenRegistry",
          "name": "",
          "type": "address"
        }
      ],
      "stateMutability": "view",
      "type": "function"
    },
    {
      "inputs": [
        {
          "internalType": "uint256[2]",
          "name": "a",
          "type": "uint256[2]"
        },
        {
          "internalType": "uint256[2][2]",
          "name": "b",
          "type": "uint256[2][2]"
        },
        {
          "internalType": "uint256[2]",
          "name": "c",
          "type": "uint256[2]"
        },
        {
          "internalType": "uint256[8]",
          "name": "input",
          "type": "uint256[8]"
        }
      ],
      "name": "update",
      "outputs": [],
      "stateMutability": "payable",
      "type": "function"
    },
    {
      "inputs": [
        {
          "components": [
            {
              "internalType": "uint256",
              "name": "publicValue",
              "type": "uint256"
            },
            {
              "internalType": "uint256[2]",
              "name": "publicOwner",
              "type": "uint256[2]"
            },
            {
              "internalType": "uint256",
              "name": "outputNc1",
              "type": "uint256"
            },
            {
              "internalType": "uint256",
              "name": "outputNc2",
              "type": "uint256"
            },
            {
              "internalType": "uint256",
              "name": "publicAssetId",
              "type": "uint256"
            },
            {
              "internalType": "uint256",
              "name": "dataTreeRoot",
              "type": "uint256"
            },
            {
              "internalType": "uint256[]",
              "name": "roots",
              "type": "uint256[]"
            },
            {
              "internalType": "uint256[]",
              "name": "keys",
              "type": "uint256[]"
            },
            {
              "internalType": "uint256[]",
              "name": "values",
              "type": "uint256[]"
            },
            {
              "internalType": "uint256[][]",
              "name": "siblings",
              "type": "uint256[][]"
            }
          ],
          "internalType": "struct Rollup.TxInfo",
          "name": "txInfo",
          "type": "tuple"
        },
        {
          "internalType": "address payable",
          "name": "recipient",
          "type": "address"
        },
        {
          "internalType": "uint256[2]",
          "name": "a",
          "type": "uint256[2]"
        },
        {
          "internalType": "uint256[2][2]",
          "name": "b",
          "type": "uint256[2][2]"
        },
        {
          "internalType": "uint256[2]",
          "name": "c",
          "type": "uint256[2]"
        }
      ],
      "name": "withdraw",
      "outputs": [],
      "stateMutability": "nonpayable",
      "type": "function"
    }
  ],
  "bytecode": "0x608060405234801561001057600080fd5b50614dc8806100206000396000f3fe60806040526004361061013f5760003560e01c80637b5758b1116100b6578063c0c53b8b1161006f578063c0c53b8b146103a7578063ca66f7e8146103c7578063e1d75c92146103da578063e2c93102146103ef578063f0d17cbc14610404578063fa9f6a141461043457600080fd5b80637b5758b1146102b957806380b2edd8146102f95780638bff301f146103195780639d23c4c714610339578063a793279414610359578063bf5b52a51461039457600080fd5b80632fa6779a116101085780632fa6779a146102075780633deaea441461021d5780633e8f23c514610244578063485cc9551461025957806355a373d6146102795780635654d3251461029957600080fd5b80620df5381461014457806309824a80146101815780630a009097146101a357806312a36541146101c3578063267fd768146101f1575b600080fd5b34801561015057600080fd5b50600354610164906001600160a01b031681565b6040516001600160a01b0390911681526020015b60405180910390f35b34801561018d57600080fd5b506101a161019c366004611c8f565b610454565b005b3480156101af57600080fd5b50600654610164906001600160a01b031681565b3480156101cf57600080fd5b506101e36101de366004611ddd565b6104b7565b604051908152602001610178565b3480156101fd57600080fd5b506101e3600b5481565b34801561021357600080fd5b506101e360085481565b34801561022957600080fd5b50610232600081565b60405160ff9091168152602001610178565b34801561025057600080fd5b50610232600181565b34801561026557600080fd5b506101a1610274366004611e72565b6105ce565b34801561028557600080fd5b50600554610164906001600160a01b031681565b3480156102a557600080fd5b506101e36102b4366004611f2b565b610678565b3480156102c557600080fd5b506102e96102d4366004611fb3565b60096020526000908152604090205460ff1681565b6040519015158152602001610178565b34801561030557600080fd5b506101a1610314366004611c8f565b6108b7565b34801561032557600080fd5b50600254610164906001600160a01b031681565b34801561034557600080fd5b50600454610164906001600160a01b031681565b34801561036557600080fd5b50610379610374366004611fb3565b6109ec565b60408051938452602084019290925290820152606001610178565b6101a16103a236600461206b565b610a22565b3480156103b357600080fd5b506101a16103c2366004612122565b610c95565b6101a16103d536600461216d565b610ebe565b3480156103e657600080fd5b50610232600381565b3480156103fb57600080fd5b50610232600281565b34801561041057600080fd5b506102e961041f366004611fb3565b600a6020526000908152604090205460ff1681565b34801561044057600080fd5b506101a161044f3660046121b7565b6112ae565b600480546040516213049560e71b81526001600160a01b03848116938201939093529116906309824a8090602401600060405180830381600087803b15801561049c57600080fd5b505af11580156104b0573d6000803e3d6000fd5b5050505050565b6000808480156104c45750835b1561052a576000805b811580156104da57508481105b1561050757808b901c600116818a901c6001161860ff1691506001816105009190612338565b90506104cd565b8160000361051b57600093505050506105c2565b6105258989611b2c565b925050505b6000856105405761053b8a8a611b2c565b610542565b815b905060008060018d51610555919061234b565b90505b600081126105bb578c818151811061057257610572612372565b6020908102919091010151915060018c821c8116148061059b576105968484611bc1565b6105a5565b6105a58385611bc1565b93505080806105b390612388565b915050610558565b5090925050505b98975050505050505050565b600054610100900460ff1661063e5760405162461bcd60e51b815260206004820152602b60248201527f496e697469616c697a61626c653a20636f6e7472616374206973206e6f74206960448201526a6e697469616c697a696e6760a81b60648201526084015b60405180910390fd5b6000805462010000600160b01b031916620100006001600160a01b0394851602179055600180546001600160a01b03191691909216179055565b600082518451146106d55760405162461bcd60e51b815260206004820152602160248201527f4b657920616e642076616c7565206d75737420686176652073616d652073697a6044820152606560f81b6064820152608401610635565b81518451146107325760405162461bcd60e51b815260206004820152602360248201527f4b657920616e64207369626c696e67206d75737420686176652073616d652073604482015262697a6560e81b6064820152608401610635565b600b5460005b85518110156108a7576000600760008154811061075757610757612372565b600091825260209091206040805160c08101909152916005020181608081018260028282826020028201915b81548152602001906001019080831161078357505050505081526020016002820154815260200160038201548152602001600482015481525050905061081d8583815181106107d4576107d4612372565b60200260200101518884815181106107ee576107ee612372565b602002602001015188858151811061080857610808612372565b602002602001015160008060008060146104b7565b6000818152600a602052604090205490935060ff16151560010361087b5760405162461bcd60e51b8152602060048201526015602482015274125b9d985b1a59081b9d5b1b1a599a595c949bdbdd605a1b6044820152606401610635565b506000828152600a60205260409020805460ff191660011790558061089f816123a5565b915050610738565b50600b81905590505b9392505050565b6006546001600160a01b031633146108d1576108d16123be565b600480546040516310165dbb60e31b81526001600160a01b03848116938201939093529116906380b2edd890602401600060405180830381600087803b15801561091a57600080fd5b505af115801561092e573d6000803e3d6000fd5b505050507f5dbaa701a7acef513f72a61799f7e50f4653f462b9f780d88d1b9bec89de2168600460009054906101000a90046001600160a01b03166001600160a01b0316638e499bcf6040518163ffffffff1660e01b8152600401602060405180830381865afa1580156109a6573d6000803e3d6000fd5b505050506040513d601f19601f820116820180604052508101906109ca91906123d4565b604080519182526001600160a01b03841660208301520160405180910390a150565b600781815481106109fc57600080fd5b600091825260209091206005909102016002810154600382015460049092015490925083565b80516020808301516040808501516060860151608087015160a088015160c089015160e08a01516000828152600a90995295909720549596939592949193909290919060ff1615610aae5760405162461bcd60e51b8152602060048201526016602482015275125b9d985b1a590819185d18481d1c9959481c9bdbdd60521b6044820152606401610635565b60008481526009602052604090205460ff1615610b0d5760405162461bcd60e51b815260206004820152601f60248201527f496e76616c6964206e756c6c696669657231207768656e206465706f736974006044820152606401610635565b60008381526009602052604090205460ff1615610b6c5760405162461bcd60e51b815260206004820152601f60248201527f496e76616c6964206e756c6c696669657232207768656e206465706f736974006044820152606401610635565b600c54604051636490cd3d60e11b81526001600160a01b039091169063c9219a7a90610ba2908f908f908f908f9060040161243e565b602060405180830381865afa158015610bbf573d6000803e3d6000fd5b505050506040513d601f19601f82011682018060405250810190610be3919061249b565b610c275760405162461bcd60e51b815260206004820152601560248201527424b73b30b634b2103232b837b9b4ba10383937b7b360591b6044820152606401610635565b600b8290556000828152600a6020908152604091829020805460ff1916600117905581518481529081018690529081018490527fbe4212065768908e69f6c63172b1d155abe731f87bfc61b83a5c3b93f12c853f9060600160405180910390a1505050505050505050505050565b600054610100900460ff1615808015610cb55750600054600160ff909116105b80610ccf5750303b158015610ccf575060005460ff166001145b610d325760405162461bcd60e51b815260206004820152602e60248201527f496e697469616c697a61626c653a20636f6e747261637420697320616c72656160448201526d191e481a5b9a5d1a585b1a5e995960921b6064820152608401610635565b6000805460ff191660011790558015610d55576000805461ff0019166101001790555b6040513381527f693f35045aab5bda69d6ce1ceafd0dd5ded300b818fa5831fe0fdd815bc0ca3c9060200160405180910390a1610d9284846105ce565b600280546001600160a01b038087166001600160a01b03199283161790925560038054868416908316179055600480549285169282169290921790915560068054909116331790556000600b55604051610deb90611c0a565b604051809103906000f080158015610e07573d6000803e3d6000fd5b50600c80546001600160a01b0319166001600160a01b0392909216919091179055604051610e3490611c17565b604051809103906000f080158015610e50573d6000803e3d6000fd5b50600d80546001600160a01b0319166001600160a01b03929092169190911790558015610eb8576000805461ff0019169055604051600181527f7f26b83ff96e1f2b6a682f133852f6798a09c465da95921460cefb3847402498906020015b60405180910390a15b50505050565b82600003610fa2576006546001600160a01b03163314610f345760405162461bcd60e51b815260206004820152602b60248201527f7075626c696341737365744964203020697320726573657276656420666f722060448201526a31b7b7b93234b730ba37b960a91b6064820152608401610635565b81158015610f40575034155b610f9d5760405162461bcd60e51b815260206004820152602860248201527f7075626c696341737365744964203020646f6573206e6f742068617665207265604482015267616c2076616c756560c01b6064820152608401610635565b6111dd565b8260010361102c57600034118015610fba5750813410155b610f9d5760405162461bcd60e51b815260206004820152603760248201527f6d73672e76616c7565206d757374206174206c6561737420657175616c20737460448201527f61746564207075626c696356616c756520696e207765690000000000000000006064820152608401610635565b60018311156111dd57600082116110915760405162461bcd60e51b8152602060048201526024808201527f746f6b656e206465706f736974206d75737420626520677265617465722074686044820152630616e20360e41b6064820152608401610635565b60048054604051634d05d17560e11b81529182018590526000916001600160a01b0390911690639a0ba2ea90602401602060405180830381865afa1580156110dd573d6000803e3d6000fd5b505050506040513d601f19601f8201168201806040525081019061110191906124b8565b600580546001600160a01b0319166001600160a01b0383169081179091556040516323b872dd60e01b815233600482015230602482015260448101869052919250906323b872dd906064016020604051808303816000875af115801561116b573d6000803e3d6000fd5b505050506040513d601f19601f8201168201806040525081019061118f919061249b565b6111db5760405162461bcd60e51b815260206004820152601b60248201527f746f6b656e207472616e73666572206e6f7420617070726f76656400000000006044820152606401610635565b505b60408051608081018252858152602081018590529081018390526060810182905260078054600181018255600091909152815160059091027fa66cc928b5edb82af9bd49922954155ab7b0942694bea4ce44661d9a8736c68801906112459082906002611c24565b50602082015160028201556040820151600382015560609091015160049091015560088054906000611276836123a5565b91905055507f595b7e310cd1b7e94b72db62a3257c5fa242cbca10740eb40ae49044f5dcff1f848385604051610eaf939291906124d5565b608085015160a086015160c08701515160006112cb826006612338565b67ffffffffffffffff8111156112e3576112e3611cac565b60405190808252806020026020018201604052801561130c578160200160208202803683370190505b50905088600001518160008151811061132757611327612372565b602002602001018181525050886020015160006002811061134a5761134a612372565b60200201518160018151811061136257611362612372565b602002602001018181525050886020015160016002811061138557611385612372565b60200201518160028151811061139d5761139d612372565b6020026020010181815250508860400151816003815181106113c1576113c1612372565b6020026020010181815250508860600151816004815181106113e5576113e5612372565b60200260200101818152505088608001518160058151811061140957611409612372565b60200260200101818152505060005b82811015611479578960c00151818151811061143657611436612372565b60200260200101518282600661144c9190612338565b8151811061145c5761145c612372565b602090810291909101015280611471816123a5565b915050611418565b506040516340ec6e4960e01b815260009073__$1b25989371b4022db49653cc4d10b17012$__906340ec6e49906114b49085906004016124f4565b602060405180830381865af41580156114d1573d6000803e3d6000fd5b505050506040513d601f19601f820116820180604052508101906114f591906123d4565b6040808c015160009081526009602052205490915060ff161561155a5760405162461bcd60e51b815260206004820152601f60248201527f496e76616c6964206e756c6c696669657231207768656e206465706f736974006044820152606401610635565b60608a015160009081526009602052604090205460ff16156115be5760405162461bcd60e51b815260206004820152601f60248201527f496e76616c6964206e756c6c696669657232207768656e206465706f736974006044820152606401610635565b600060405180606001604052808c602001516000600281106115e2576115e2612372565b602002015181526020018c6020015160016002811061160357611603612372565b60200201518152602001838152509050600086116116575760405162461bcd60e51b8152602060048201526011602482015270496e76616c696420746f6b656e5479706560781b6044820152606401610635565b6000858152600a602052604090205460ff166116b55760405162461bcd60e51b815260206004820152601e60248201527f496e76616c6964206c6173746573742064617461207472656520726f6f7400006044820152606401610635565b60005b8b60c00151518110156118705760005b600281101561185d57600a60008e60c0015184815181106116eb576116eb612372565b60209081029190910181015182528101919091526040016000205460ff1661174e5760405162461bcd60e51b8152602060048201526016602482015275125b9d985b1a590819185d18481d1c9959481c9bdbdd60521b6044820152606401610635565b6101208d01516117e99082611764856002612538565b61176e9190612338565b8151811061177e5761177e612372565b60200260200101518e60e00151838560026117999190612538565b6117a39190612338565b815181106117b3576117b3612372565b60200260200101518f6101000151848660026117cf9190612538565b6117d99190612338565b8151811061080857610808612372565b8d60c0015183815181106117ff576117ff612372565b60200260200101511461184b5760405162461bcd60e51b815260206004820152601460248201527334b73b30b634b21036b2b935b63290383937b7b360611b6044820152606401610635565b80611855816123a5565b9150506116c8565b5080611868816123a5565b9150506116b8565b50600d546040516308a3cff560e11b81526001600160a01b03909116906311479fea906118a7908c908c908c90879060040161257a565b602060405180830381865afa1580156118c4573d6000803e3d6000fd5b505050506040513d601f19601f820116820180604052508101906118e8919061249b565b6119345760405162461bcd60e51b815260206004820181905260248201527f546865206564647361207369676e6174757265206973206e6f742076616c69646044820152606401610635565b85600103611978578a516040516001600160a01b038c169180156108fc02916000818181858888f19350505050158015611972573d6000803e3d6000fd5b50611ab2565b60048054604051634d05d17560e11b81529182018890526000916001600160a01b0390911690639a0ba2ea90602401602060405180830381865afa1580156119c4573d6000803e3d6000fd5b505050506040513d601f19601f820116820180604052508101906119e891906124b8565b600580546001600160a01b0319166001600160a01b038381169182179092558e5160405163a9059cbb60e01b8152928f166004840152602483015291925063a9059cbb906044016020604051808303816000875af1158015611a4e573d6000803e3d6000fd5b505050506040513d601f19601f82011682018060405250810190611a72919061249b565b611ab05760405162461bcd60e51b815260206004820152600f60248201526e151c985b9cd9995c8819985a5b1959608a1b6044820152606401610635565b505b60408b810151600090815260096020528181208054600160ff19918216811790925560608f01518352918390208054909216179055517fea48de8e35406fdea36b4a516c25f7a98098d3bd4140a07c035c0433a736d81390611b17908d908d9061264a565b60405180910390a15050505050505050505050565b604080516060810182528381526020810183905260018183018190525491516304b98e1d60e31b81526000926001600160a01b0316906325cc70e890611b76908490600401612728565b602060405180830381865afa158015611b93573d6000803e3d6000fd5b505050506040513d601f19601f82011682018060405250810190611bb791906123d4565b9150505b92915050565b604080518082018252838152602081018390526000805492516314d2f97b60e11b815290926201000090046001600160a01b0316906329a5f2f690611b76908490600401612736565b61144e8061274583390190565b61120080613b9383390190565b8260028101928215611c52579160200282015b82811115611c52578251825591602001919060010190611c37565b50611c5e929150611c62565b5090565b5b80821115611c5e5760008155600101611c63565b6001600160a01b0381168114611c8c57600080fd5b50565b600060208284031215611ca157600080fd5b81356108b081611c77565b634e487b7160e01b600052604160045260246000fd5b604051610140810167ffffffffffffffff81118282101715611ce657611ce6611cac565b60405290565b6040805190810167ffffffffffffffff81118282101715611ce657611ce6611cac565b604051601f8201601f1916810167ffffffffffffffff81118282101715611d3857611d38611cac565b604052919050565b600067ffffffffffffffff821115611d5a57611d5a611cac565b5060051b60200190565b600082601f830112611d7557600080fd5b81356020611d8a611d8583611d40565b611d0f565b82815260059290921b84018101918181019086841115611da957600080fd5b8286015b84811015611dc45780358352918301918301611dad565b509695505050505050565b8015158114611c8c57600080fd5b600080600080600080600080610100898b031215611dfa57600080fd5b883567ffffffffffffffff811115611e1157600080fd5b611e1d8b828c01611d64565b9850506020890135965060408901359550606089013594506080890135935060a0890135611e4a81611dcf565b925060c0890135611e5a81611dcf565b8092505060e089013590509295985092959890939650565b60008060408385031215611e8557600080fd5b8235611e9081611c77565b91506020830135611ea081611c77565b809150509250929050565b600082601f830112611ebc57600080fd5b81356020611ecc611d8583611d40565b82815260059290921b84018101918181019086841115611eeb57600080fd5b8286015b84811015611dc457803567ffffffffffffffff811115611f0f5760008081fd5b611f1d8986838b0101611d64565b845250918301918301611eef565b600080600060608486031215611f4057600080fd5b833567ffffffffffffffff80821115611f5857600080fd5b611f6487838801611d64565b94506020860135915080821115611f7a57600080fd5b611f8687838801611d64565b93506040860135915080821115611f9c57600080fd5b50611fa986828701611eab565b9150509250925092565b600060208284031215611fc557600080fd5b5035919050565b600082601f830112611fdd57600080fd5b611fe5611cec565b806040840185811115611ff757600080fd5b845b81811015612011578035845260209384019301611ff9565b509095945050505050565b600082601f83011261202d57600080fd5b612035611cec565b80608084018581111561204757600080fd5b845b818110156120115761205b8782611fcc565b8452602090930192604001612049565b60008060008061020080868803121561208357600080fd5b61208d8787611fcc565b945061209c876040880161201c565b93506120ab8760c08801611fcc565b92506101008761011f8801126120c057600080fd5b60405181810181811067ffffffffffffffff821117156120e2576120e2611cac565b6040529187019180898411156120f757600080fd5b918801915b838310156121145782358152602092830192016120fc565b509598949750929550505050565b60008060006060848603121561213757600080fd5b833561214281611c77565b9250602084013561215281611c77565b9150604084013561216281611c77565b809150509250925092565b60008060008060a0858703121561218357600080fd5b61218d8686611fcc565b966040860135965060608601359560800135945092505050565b80356121b281611c77565b919050565b60008060008060006101408087890312156121d157600080fd5b863567ffffffffffffffff808211156121e957600080fd5b90880190610160828b0312156121fe57600080fd5b612206611cc2565b823581526122178b60208501611fcc565b6020820152606083013560408201526080830135606082015260a0830135608082015260c083013560a082015260e08301358281111561225657600080fd5b6122628c828601611d64565b60c083015250610100808401358381111561227c57600080fd5b6122888d828701611d64565b60e08401525061012080850135848111156122a257600080fd5b6122ae8e828801611d64565b84840152509484013594838611156122c557600080fd5b6122d18d878701611eab565b81840152508199506122e560208c016121a7565b98506122f48c60408d01611fcc565b97506123038c60808d0161201c565b96506123118c828d01611fcc565b955050505050509295509295909350565b634e487b7160e01b600052601160045260246000fd5b80820180821115611bbb57611bbb612322565b818103600083128015838313168383128216171561236b5761236b612322565b5092915050565b634e487b7160e01b600052603260045260246000fd5b6000600160ff1b820161239d5761239d612322565b506000190190565b6000600182016123b7576123b7612322565b5060010190565b634e487b7160e01b600052600160045260246000fd5b6000602082840312156123e657600080fd5b5051919050565b8060005b6002811015610eb85781518452602093840193909101906001016123f1565b8060005b6002811015610eb8576124288483516123ed565b6040939093019260209190910190600101612414565b610200810161244d82876123ed565b61245a6040830186612410565b61246760c08301856123ed565b61010082018360005b600881101561248f578151835260209283019290910190600101612470565b50505095945050505050565b6000602082840312156124ad57600080fd5b81516108b081611dcf565b6000602082840312156124ca57600080fd5b81516108b081611c77565b608081016124e382866123ed565b604082019390935260600152919050565b6020808252825182820181905260009190848201906040850190845b8181101561252c57835183529284019291840191600101612510565b50909695505050505050565b600081600019048311821515161561255257612552612322565b500290565b8060005b6003811015610eb857815184526020938401939091019060010161255b565b610160810161258982876123ed565b6125966040830186612410565b6125a360c08301856123ed565b6125b1610100830184612557565b95945050505050565b600081518084526020808501945080840160005b838110156125ea578151875295820195908201906001016125ce565b509495945050505050565b600081518084526020808501808196508360051b8101915082860160005b8581101561263d57828403895261262b8483516125ba565b98850198935090840190600101612613565b5091979650505050505050565b60408152825160408201526000602084015161266960608401826123ed565b50604084015160a0830152606084015160c0830152608084015160e083015260a0840151610100818185015260c0860151915061016061012081818701526126b56101a08701856125ba565b935060e0880151603f1980888703016101408901526126d486836125ba565b948a01518886038201858a01529495506126ee86866125ba565b9550828a0151945080888703016101808901525050505061270f82826125f5565b925050506108b060208301846001600160a01b03169052565b60608101611bbb8284612557565b60408101611bbb82846123ed56fe608060405234801561001057600080fd5b5061142e806100206000396000f3fe608060405234801561001057600080fd5b506004361061002b5760003560e01c8063c9219a7a14610030575b600080fd5b61004361003e36600461126e565b610057565b604051901515815260200160405180910390f35b6000610061611081565b60408051808201825287518152602080890151818301529083528151608081018352875151818401908152885183015160608301528152825180840184528883018051518252518301518184015281830152838201528151808301835286518152868201518183015283830152815160088082526101208201909352600092909182016101008036833701905050905060005b60088110156101435784816008811061010f5761010f61134c565b60200201518282815181106101265761012661134c565b60209081029190910101528061013b81611378565b9150506100f4565b5061014e818361016f565b60000361016057600192505050610167565b6000925050505b949350505050565b60007f30644e72e131a029b85045b68181585d2833e84879b9709143e1f593f00000018161019b610366565b9050806080015151855160016101b19190611391565b146101f85760405162461bcd60e51b81526020600482015260126024820152711d995c9a599a595c8b5898590b5a5b9c1d5d60721b60448201526064015b60405180910390fd5b604080518082019091526000808252602082018190525b86518110156102e9578387828151811061022b5761022b61134c565b6020026020010151106102805760405162461bcd60e51b815260206004820152601f60248201527f76657269666965722d6774652d736e61726b2d7363616c61722d6669656c640060448201526064016101ef565b6102d5826102d085608001518460016102999190611391565b815181106102a9576102a961134c565b60200260200101518a85815181106102c3576102c361134c565b60200260200101516109d0565b610a66565b9150806102e181611378565b91505061020f565b506103128183608001516000815181106103055761030561134c565b6020026020010151610a66565b90506103486103248660000151610aff565b8660200151846000015185602001518587604001518b604001518960600151610b9e565b6103585760019350505050610360565b600093505050505b92915050565b61036e6110d2565b6040805180820182527f2d4d9aa7e302d9df41749d5507949d05dbea33fbb16c643b22f599a2be6df2e281527f14bedd503c37ceb061d8ec60209fe345ce89830a19230301f076caff004d19266020808301919091529083528151608080820184527f0967032fcbf776d1afc985f88877f182d38480a653f2decaa9794cbc3bf3060c8285019081527f0e187847ad4c798374d0d6732bf501847dd68bc0e071241e0213bc7fc13db7ab606080850191909152908352845180860186527f304cfbd1e08a704a99f5e847d93f8c3caafddec46b7a0d379da69a4d112346a781527f1739c1b1a457a8c7313123d24d2f9192f896b7c63eea05a9d57f06547ad0cec8818601528385015285840192909252835180820185527f198e9393920d483a7260bfb731fb5d25f1aa493335a9e71297e485b7aef312c28186018181527f1800deef121f1e76426a00665e5c4479674322d4f75edadd46debd5cd992f6ed838601819052908352865180880188527f090689d0585ff075ec9e99ad690c3395bc4b313370b38ef355acdadcd122975b8082527f12c85ea5db8c6deb4aab71808dcb408fe3d1e7690c43d37b4ce6cc0166fa7daa8289018190528589019290925289890194909452875194850188528488019283528486019190915290835285518087018752918252818501528184015290840152815160098082526101408201909352919082015b604080518082019091526000808252602082015281526020019060019003908161057757505060808201908152604080518082019091527f2311215d34d84c0bd07eb74a767c69f03b1d97c92a6ef3390647721fe445d58981527f20acdfa51f1382fdb8450bac27640c111b751f6e35f1ba6a34bd8dac8e3f362f60208201529051805160009061060a5761060a61134c565b602002602001018190525060405180604001604052807f2cee5bab1d72cde928c6c75624dc16ddbe2dbd719f3b70095d698b22dbcc4ccf81526020017f06e891e0877a79cbf32471e75fe2b57c0efec36135ab78967801d8b630f4a00681525081608001516001815181106106815761068161134c565b602002602001018190525060405180604001604052807f1b0e4bedef2d13953dc337c19397df536ee4b8e32877d235fbee5e46df8e289081526020017f04a4fa0beb6d947cf50e48558daded885f7646977b4b1a8c33b3efb0a3bea87381525081608001516002815181106106f8576106f861134c565b602002602001018190525060405180604001604052807f241fb156e4d11abecea9cf77c2ae1c93b557e6d51fdff459a3f09e22e12cacb981526020017f0420e18af65c4098bc9135a5b87c305ffdb7ee196520e8c9350c557711576f0d815250816080015160038151811061076f5761076f61134c565b602002602001018190525060405180604001604052807f24b87ebe873eab5caaa0c8f970ab5fcf1f3a5b0d045920b475a9853e4a759ae881526020017f16eb181ef4a13a0c754a58ecfa3e69a11010a01548f14572e54febdb2d9dbdd481525081608001516004815181106107e6576107e661134c565b602002602001018190525060405180604001604052807f10d2b9fd57a080498fe4d373ce456aada138c87bbe4cf7a49b94745063b1899181526020017f09c9e64ee532d0fc191f30f665f67a90dd9ac2f5fe319d33a3158acb3806525f815250816080015160058151811061085d5761085d61134c565b602002602001018190525060405180604001604052807f305275a70d154c364bca9c5113311e79db229974de7f777475a4e0f202021aaf81526020017f02ed2ab99fc93761006d6241483daf6ba42d368d7adc04d345b9e929de1f2bdc81525081608001516006815181106108d4576108d461134c565b602002602001018190525060405180604001604052807f242ae1e9f4486ba27cd3c5156f4d6e78aeefff1afb25486b4007b4256d17dc8981526020017f15c6dd35f284512a052ffd98de10682d54cafff931a44e3cbbb15bf1693a0067815250816080015160078151811061094b5761094b61134c565b602002602001018190525060405180604001604052807f273b477346c746570d014e8fcbf9ba7bd15f7c46393faa3de5970c2e6255704a81526020017f1440ea68ae1a18c94a9424607cdeecf5e5f4859d584a712204ca921477438f5a81525081608001516008815181106109c2576109c261134c565b602002602001018190525090565b60408051808201909152600080825260208201526109ec611123565b835181526020808501519082015260408101839052600060608360808460076107d05a03fa90508080610a1b57fe5b5080610a5e5760405162461bcd60e51b81526020600482015260126024820152711c185a5c9a5b99cb5b5d5b0b59985a5b195960721b60448201526064016101ef565b505092915050565b6040805180820190915260008082526020820152610a82611141565b8351815260208085015181830152835160408301528301516060808301919091526000908360c08460066107d05a03fa90508080610abc57fe5b5080610a5e5760405162461bcd60e51b81526020600482015260126024820152711c185a5c9a5b99cb5859190b59985a5b195960721b60448201526064016101ef565b604080518082019091526000808252602082015281517f30644e72e131a029b85045b68181585d97816a916871ca8d3c208c16d87cfd4790158015610b4657506020830151155b15610b665750506040805180820190915260008082526020820152919050565b604051806040016040528084600001518152602001828560200151610b8b91906113a4565b610b9590846113c6565b90529392505050565b60408051600480825260a08201909252600091829190816020015b6040805180820190915260008082526020820152815260200190600190039081610bb957505060408051600480825260a0820190925291925060009190602082015b610c0361115f565b815260200190600190039081610bfb5790505090508a82600081518110610c2c57610c2c61134c565b60200260200101819052508882600181518110610c4b57610c4b61134c565b60200260200101819052508682600281518110610c6a57610c6a61134c565b60200260200101819052508482600381518110610c8957610c8961134c565b60200260200101819052508981600081518110610ca857610ca861134c565b60200260200101819052508781600181518110610cc757610cc761134c565b60200260200101819052508581600281518110610ce657610ce661134c565b60200260200101819052508381600381518110610d0557610d0561134c565b6020026020010181905250610d1a8282610d29565b9b9a5050505050505050505050565b60008151835114610d755760405162461bcd60e51b81526020600482015260166024820152751c185a5c9a5b99cb5b195b99dd1a1ccb59985a5b195960521b60448201526064016101ef565b82516000610d848260066113d9565b905060008167ffffffffffffffff811115610da157610da16111bb565b604051908082528060200260200182016040528015610dca578160200160208202803683370190505b50905060005b8381101561100557868181518110610dea57610dea61134c565b60200260200101516000015182826006610e0491906113d9565b610e0f906000611391565b81518110610e1f57610e1f61134c565b602002602001018181525050868181518110610e3d57610e3d61134c565b60200260200101516020015182826006610e5791906113d9565b610e62906001611391565b81518110610e7257610e7261134c565b602002602001018181525050858181518110610e9057610e9061134c565b6020908102919091010151515182610ea98360066113d9565b610eb4906002611391565b81518110610ec457610ec461134c565b602002602001018181525050858181518110610ee257610ee261134c565b60209081029190910181015151015182610efd8360066113d9565b610f08906003611391565b81518110610f1857610f1861134c565b602002602001018181525050858181518110610f3657610f3661134c565b602002602001015160200151600060028110610f5457610f5461134c565b602002015182610f658360066113d9565b610f70906004611391565b81518110610f8057610f8061134c565b602002602001018181525050858181518110610f9e57610f9e61134c565b602002602001015160200151600160028110610fbc57610fbc61134c565b602002015182610fcd8360066113d9565b610fd8906005611391565b81518110610fe857610fe861134c565b602090810291909101015280610ffd81611378565b915050610dd0565b5061100e61117f565b6000602082602086026020860160086107d05a03fa9050808061102d57fe5b50806110735760405162461bcd60e51b81526020600482015260156024820152741c185a5c9a5b99cb5bdc18dbd9194b59985a5b1959605a1b60448201526064016101ef565b505115159695505050505050565b6040805160a0810190915260006060820181815260808301919091528152602081016110ab61115f565b81526020016110cd604051806040016040528060008152602001600081525090565b905290565b6040805160e08101909152600060a0820181815260c08301919091528152602081016110fc61115f565b815260200161110961115f565b815260200161111661115f565b8152602001606081525090565b60405180606001604052806003906020820280368337509192915050565b60405180608001604052806004906020820280368337509192915050565b604051806040016040528061117261119d565b81526020016110cd61119d565b60405180602001604052806001906020820280368337509192915050565b60405180604001604052806002906020820280368337509192915050565b634e487b7160e01b600052604160045260246000fd5b6040805190810167ffffffffffffffff811182821017156111f4576111f46111bb565b60405290565b604051610100810167ffffffffffffffff811182821017156111f4576111f46111bb565b600082601f83011261122f57600080fd5b6112376111d1565b80604084018581111561124957600080fd5b845b8181101561126357803584526020938401930161124b565b509095945050505050565b60008060008061020080868803121561128657600080fd5b611290878761121e565b9450604087605f8801126112a357600080fd5b6112ab6111d1565b8060c089018a8111156112bd57600080fd5b838a015b818110156112e2576112d38c8261121e565b845260209093019284016112c1565b508197506112f08b8261121e565b9650505050508661011f87011261130657600080fd5b61130e6111fa565b90860190808883111561132057600080fd5b61010088015b8381101561133e578035835260209283019201611326565b509598949750929550505050565b634e487b7160e01b600052603260045260246000fd5b634e487b7160e01b600052601160045260246000fd5b60006001820161138a5761138a611362565b5060010190565b8082018082111561036057610360611362565b6000826113c157634e487b7160e01b600052601260045260246000fd5b500690565b8181038181111561036057610360611362565b60008160001904831182151516156113f3576113f3611362565b50029056fea2646970667358221220767613e09600aae81efddca1f86903350466bf359f3981ca339255549f1568d164736f6c63430008100033608060405234801561001057600080fd5b506111e0806100206000396000f3fe608060405234801561001057600080fd5b506004361061002b5760003560e01c806311479fea14610030575b600080fd5b61004361003e366004611020565b610057565b604051901515815260200160405180910390f35b6000610061610e34565b60408051808201825287518152602080890151818301529083528151608080820184528851518285019081528951840151606080850191909152908352845180860186528a8501805151825251850151818601528385015285840192909252835180850185528851815288840151818501528585015283516003808252918101909452600093929091908301908036833701905050905060005b600381101561014a57848160038110610116576101166110fe565b602002015182828151811061012d5761012d6110fe565b6020908102919091010152806101428161112a565b9150506100fb565b506101558183610176565b6000036101675760019250505061016e565b6000925050505b949350505050565b60007f30644e72e131a029b85045b68181585d2833e84879b9709143e1f593f0000001816101a261036d565b9050806080015151855160016101b89190611143565b146101ff5760405162461bcd60e51b81526020600482015260126024820152711d995c9a599a595c8b5898590b5a5b9c1d5d60721b60448201526064015b60405180910390fd5b604080518082019091526000808252602082018190525b86518110156102f05783878281518110610232576102326110fe565b6020026020010151106102875760405162461bcd60e51b815260206004820152601f60248201527f76657269666965722d6774652d736e61726b2d7363616c61722d6669656c640060448201526064016101f6565b6102dc826102d785608001518460016102a09190611143565b815181106102b0576102b06110fe565b60200260200101518a85815181106102ca576102ca6110fe565b6020026020010151610783565b610819565b9150806102e88161112a565b915050610216565b5061031981836080015160008151811061030c5761030c6110fe565b6020026020010151610819565b905061034f61032b86600001516108b2565b8660200151846000015185602001518587604001518b604001518960600151610951565b61035f5760019350505050610367565b600093505050505b92915050565b610375610e85565b6040805180820182527f2d4d9aa7e302d9df41749d5507949d05dbea33fbb16c643b22f599a2be6df2e281527f14bedd503c37ceb061d8ec60209fe345ce89830a19230301f076caff004d19266020808301919091529083528151608080820184527f0967032fcbf776d1afc985f88877f182d38480a653f2decaa9794cbc3bf3060c8285019081527f0e187847ad4c798374d0d6732bf501847dd68bc0e071241e0213bc7fc13db7ab606080850191909152908352845180860186527f304cfbd1e08a704a99f5e847d93f8c3caafddec46b7a0d379da69a4d112346a781527f1739c1b1a457a8c7313123d24d2f9192f896b7c63eea05a9d57f06547ad0cec8818601528385015285840192909252835180820185527f198e9393920d483a7260bfb731fb5d25f1aa493335a9e71297e485b7aef312c28186018181527f1800deef121f1e76426a00665e5c4479674322d4f75edadd46debd5cd992f6ed838601819052908352865180880188527f090689d0585ff075ec9e99ad690c3395bc4b313370b38ef355acdadcd122975b8082527f12c85ea5db8c6deb4aab71808dcb408fe3d1e7690c43d37b4ce6cc0166fa7daa82890181905285890192909252898901949094528751948501885284880192835284860191909152908352855180870187529182528185015281840152908401528151600480825260a08201909352919082015b604080518082019091526000808252602082015281526020019060019003908161057d57505060808201908152604080518082019091527f2093e8493deb7a4b972f6d6dfff1aed4bee267cc2e059d40cdbcd2e58a2a9be881527f1dfcc6ed73b3e94b7cc8f22d3042e4e2878ea170125814897248f75fa7d94704602082015290518051600090610610576106106110fe565b602002602001018190525060405180604001604052807f14c91308ab95656ff35e966dc96e138df07b646005df0b1854e858ae346872a181526020017f08215eee1420b1d95e7dcea7a9cbf3c032b81c28da38620670174d0c90ae24668152508160800151600181518110610687576106876110fe565b602002602001018190525060405180604001604052807f0c14c37264e19702f7d5d4f1ccf586624fd832fd2bf088d6d672356cae8c78f481526020017f305525a805d0800d123efe27790f0680687c2706dea189fe80fb4b97e6769d5181525081608001516002815181106106fe576106fe6110fe565b602002602001018190525060405180604001604052807f22d9c2d063bcf7941393eeeab3e2605b7be2859f7c4e11cdc98ab2c4ff22db4181526020017f240bee8cb88692669601cbaa7d5c22ffc5f94d2efab827accdb5d66f5272a3428152508160800151600381518110610775576107756110fe565b602002602001018190525090565b604080518082019091526000808252602082015261079f610ed6565b835181526020808501519082015260408101839052600060608360808460076107d05a03fa905080806107ce57fe5b50806108115760405162461bcd60e51b81526020600482015260126024820152711c185a5c9a5b99cb5b5d5b0b59985a5b195960721b60448201526064016101f6565b505092915050565b6040805180820190915260008082526020820152610835610ef4565b8351815260208085015181830152835160408301528301516060808301919091526000908360c08460066107d05a03fa9050808061086f57fe5b50806108115760405162461bcd60e51b81526020600482015260126024820152711c185a5c9a5b99cb5859190b59985a5b195960721b60448201526064016101f6565b604080518082019091526000808252602082015281517f30644e72e131a029b85045b68181585d97816a916871ca8d3c208c16d87cfd47901580156108f957506020830151155b156109195750506040805180820190915260008082526020820152919050565b60405180604001604052808460000151815260200182856020015161093e9190611156565b6109489084611178565b90529392505050565b60408051600480825260a08201909252600091829190816020015b604080518082019091526000808252602082015281526020019060019003908161096c57505060408051600480825260a0820190925291925060009190602082015b6109b6610f12565b8152602001906001900390816109ae5790505090508a826000815181106109df576109df6110fe565b602002602001018190525088826001815181106109fe576109fe6110fe565b60200260200101819052508682600281518110610a1d57610a1d6110fe565b60200260200101819052508482600381518110610a3c57610a3c6110fe565b60200260200101819052508981600081518110610a5b57610a5b6110fe565b60200260200101819052508781600181518110610a7a57610a7a6110fe565b60200260200101819052508581600281518110610a9957610a996110fe565b60200260200101819052508381600381518110610ab857610ab86110fe565b6020026020010181905250610acd8282610adc565b9b9a5050505050505050505050565b60008151835114610b285760405162461bcd60e51b81526020600482015260166024820152751c185a5c9a5b99cb5b195b99dd1a1ccb59985a5b195960521b60448201526064016101f6565b82516000610b3782600661118b565b905060008167ffffffffffffffff811115610b5457610b54610f6e565b604051908082528060200260200182016040528015610b7d578160200160208202803683370190505b50905060005b83811015610db857868181518110610b9d57610b9d6110fe565b60200260200101516000015182826006610bb7919061118b565b610bc2906000611143565b81518110610bd257610bd26110fe565b602002602001018181525050868181518110610bf057610bf06110fe565b60200260200101516020015182826006610c0a919061118b565b610c15906001611143565b81518110610c2557610c256110fe565b602002602001018181525050858181518110610c4357610c436110fe565b6020908102919091010151515182610c5c83600661118b565b610c67906002611143565b81518110610c7757610c776110fe565b602002602001018181525050858181518110610c9557610c956110fe565b60209081029190910181015151015182610cb083600661118b565b610cbb906003611143565b81518110610ccb57610ccb6110fe565b602002602001018181525050858181518110610ce957610ce96110fe565b602002602001015160200151600060028110610d0757610d076110fe565b602002015182610d1883600661118b565b610d23906004611143565b81518110610d3357610d336110fe565b602002602001018181525050858181518110610d5157610d516110fe565b602002602001015160200151600160028110610d6f57610d6f6110fe565b602002015182610d8083600661118b565b610d8b906005611143565b81518110610d9b57610d9b6110fe565b602090810291909101015280610db08161112a565b915050610b83565b50610dc1610f32565b6000602082602086026020860160086107d05a03fa90508080610de057fe5b5080610e265760405162461bcd60e51b81526020600482015260156024820152741c185a5c9a5b99cb5bdc18dbd9194b59985a5b1959605a1b60448201526064016101f6565b505115159695505050505050565b6040805160a081019091526000606082018181526080830191909152815260208101610e5e610f12565b8152602001610e80604051806040016040528060008152602001600081525090565b905290565b6040805160e08101909152600060a0820181815260c0830191909152815260208101610eaf610f12565b8152602001610ebc610f12565b8152602001610ec9610f12565b8152602001606081525090565b60405180606001604052806003906020820280368337509192915050565b60405180608001604052806004906020820280368337509192915050565b6040518060400160405280610f25610f50565b8152602001610e80610f50565b60405180602001604052806001906020820280368337509192915050565b60405180604001604052806002906020820280368337509192915050565b634e487b7160e01b600052604160045260246000fd5b6040805190810167ffffffffffffffff81118282101715610fa757610fa7610f6e565b60405290565b6040516060810167ffffffffffffffff81118282101715610fa757610fa7610f6e565b600082601f830112610fe157600080fd5b610fe9610f84565b806040840185811115610ffb57600080fd5b845b81811015611015578035845260209384019301610ffd565b509095945050505050565b60008060008061016080868803121561103857600080fd5b6110428787610fd0565b9450604087605f88011261105557600080fd5b61105d610f84565b8060c089018a81111561106f57600080fd5b838a015b81811015611094576110858c82610fd0565b84526020909301928401611073565b508197506110a28b82610fd0565b9650505050508661011f8701126110b857600080fd5b6110c0610fad565b9086019080888311156110d257600080fd5b61010088015b838110156110f05780358352602092830192016110d8565b509598949750929550505050565b634e487b7160e01b600052603260045260246000fd5b634e487b7160e01b600052601160045260246000fd5b60006001820161113c5761113c611114565b5060010190565b8082018082111561036757610367611114565b60008261117357634e487b7160e01b600052601260045260246000fd5b500690565b8181038181111561036757610367611114565b60008160001904831182151516156111a5576111a5611114565b50029056fea26469706673582212205e9441c6aca7a4be3b6d6a8510c86b483777d0874acbec70ce84410debc8b8dc64736f6c63430008100033a264697066735822122085ad20dbdef40d77259dbb64a07b082175d9e09cd9fe33e8ce3046996188770164736f6c63430008100033",
  "linkReferences": {
    "contracts/libs/Poseidon.sol": {
      "SpongePoseidon": [
        {
          "length": 20,
          "start": 5292
        }
      ]
    }
  },
  "deployedLinkReferences": {
    "contracts/libs/Poseidon.sol": {
      "SpongePoseidon": [
        {
          "length": 20,
          "start": 5260
        }
      ]
    }
  }
}