{
  "_format": "hh-sol-artifact-1",
  "contractName": "Rollup",
  "sourceName": "contracts/Rollup.sol",
  "abi": [
    {
      "inputs": [
        {
          "internalType": "address",
          "name": "_poseidon2ContractAddr",
          "type": "address"
        },
        {
          "internalType": "address",
          "name": "_poseidon3ContractAddr",
          "type": "address"
        },
        {
          "internalType": "address",
          "name": "_tokenRegistryAddr",
          "type": "address"
        }
      ],
      "stateMutability": "nonpayable",
      "type": "constructor"
    },
    {
      "anonymous": false,
      "inputs": [
        {
          "indexed": false,
          "internalType": "uint256",
          "name": "publicAssetId",
          "type": "uint256"
        },
        {
          "indexed": false,
          "internalType": "address",
          "name": "tokenContract",
          "type": "address"
        }
      ],
      "name": "RegisteredToken",
      "type": "event"
    },
    {
      "anonymous": false,
      "inputs": [
        {
          "indexed": false,
          "internalType": "uint256[2]",
          "name": "pubkey",
          "type": "uint256[2]"
        },
        {
          "indexed": false,
          "internalType": "uint256",
          "name": "publicValue",
          "type": "uint256"
        },
        {
          "indexed": false,
          "internalType": "uint256",
          "name": "publicAssetId",
          "type": "uint256"
        }
      ],
      "name": "RequestDeposit",
      "type": "event"
    },
    {
      "anonymous": false,
      "inputs": [
        {
          "indexed": false,
          "internalType": "uint256",
          "name": "",
          "type": "uint256"
        },
        {
          "indexed": false,
          "internalType": "uint256",
          "name": "",
          "type": "uint256"
        },
        {
          "indexed": false,
          "internalType": "uint256",
          "name": "",
          "type": "uint256"
        }
      ],
      "name": "UpdatedState",
      "type": "event"
    },
    {
      "anonymous": false,
      "inputs": [
        {
          "components": [
            {
              "internalType": "uint256",
              "name": "publicValue",
              "type": "uint256"
            },
            {
              "internalType": "uint256[2]",
              "name": "publicOwner",
              "type": "uint256[2]"
            },
            {
              "internalType": "uint256",
              "name": "outputNc1",
              "type": "uint256"
            },
            {
              "internalType": "uint256",
              "name": "outputNc2",
              "type": "uint256"
            },
            {
              "internalType": "uint256",
              "name": "publicAssetId",
              "type": "uint256"
            },
            {
              "internalType": "uint256",
              "name": "dataTreeRoot",
              "type": "uint256"
            },
            {
              "internalType": "uint256[]",
              "name": "values",
              "type": "uint256[]"
            },
            {
              "internalType": "uint256[][]",
              "name": "siblings",
              "type": "uint256[][]"
            }
          ],
          "indexed": false,
          "internalType": "struct Rollup.TxInfo",
          "name": "",
          "type": "tuple"
        },
        {
          "indexed": false,
          "internalType": "address",
          "name": "",
          "type": "address"
        }
      ],
      "name": "Withdraw",
      "type": "event"
    },
    {
      "inputs": [],
      "name": "PROOF_ID_TYPE_DEPOSIT",
      "outputs": [
        {
          "internalType": "uint8",
          "name": "",
          "type": "uint8"
        }
      ],
      "stateMutability": "view",
      "type": "function"
    },
    {
      "inputs": [],
      "name": "PROOF_ID_TYPE_INVALID",
      "outputs": [
        {
          "internalType": "uint8",
          "name": "",
          "type": "uint8"
        }
      ],
      "stateMutability": "view",
      "type": "function"
    },
    {
      "inputs": [],
      "name": "PROOF_ID_TYPE_SEND",
      "outputs": [
        {
          "internalType": "uint8",
          "name": "",
          "type": "uint8"
        }
      ],
      "stateMutability": "view",
      "type": "function"
    },
    {
      "inputs": [],
      "name": "PROOF_ID_TYPE_WITHDRAW",
      "outputs": [
        {
          "internalType": "uint8",
          "name": "",
          "type": "uint8"
        }
      ],
      "stateMutability": "view",
      "type": "function"
    },
    {
      "inputs": [
        {
          "internalType": "address",
          "name": "tokenContractAddress",
          "type": "address"
        }
      ],
      "name": "approveToken",
      "outputs": [],
      "stateMutability": "nonpayable",
      "type": "function"
    },
    {
      "inputs": [],
      "name": "coordinator",
      "outputs": [
        {
          "internalType": "address",
          "name": "",
          "type": "address"
        }
      ],
      "stateMutability": "view",
      "type": "function"
    },
    {
      "inputs": [],
      "name": "dataTreeRoot",
      "outputs": [
        {
          "internalType": "uint256",
          "name": "",
          "type": "uint256"
        }
      ],
      "stateMutability": "view",
      "type": "function"
    },
    {
      "inputs": [
        {
          "internalType": "uint256[2]",
          "name": "pubkey",
          "type": "uint256[2]"
        },
        {
          "internalType": "uint256",
          "name": "publicAssetId",
          "type": "uint256"
        },
        {
          "internalType": "uint256",
          "name": "publicValue",
          "type": "uint256"
        },
        {
          "internalType": "uint256",
          "name": "nonce",
          "type": "uint256"
        }
      ],
      "name": "deposit",
      "outputs": [],
      "stateMutability": "payable",
      "type": "function"
    },
    {
      "inputs": [],
      "name": "insPoseidon2",
      "outputs": [
        {
          "internalType": "contract IPoseidon2",
          "name": "",
          "type": "address"
        }
      ],
      "stateMutability": "view",
      "type": "function"
    },
    {
      "inputs": [],
      "name": "insPoseidon3",
      "outputs": [
        {
          "internalType": "contract IPoseidon3",
          "name": "",
          "type": "address"
        }
      ],
      "stateMutability": "view",
      "type": "function"
    },
    {
      "inputs": [
        {
          "internalType": "uint256",
          "name": "",
          "type": "uint256"
        }
      ],
      "name": "nullifierHashs",
      "outputs": [
        {
          "internalType": "bool",
          "name": "",
          "type": "bool"
        }
      ],
      "stateMutability": "view",
      "type": "function"
    },
    {
      "inputs": [
        {
          "internalType": "uint256",
          "name": "",
          "type": "uint256"
        }
      ],
      "name": "nullifierRoots",
      "outputs": [
        {
          "internalType": "bool",
          "name": "",
          "type": "bool"
        }
      ],
      "stateMutability": "view",
      "type": "function"
    },
    {
      "inputs": [
        {
          "internalType": "uint256",
          "name": "",
          "type": "uint256"
        }
      ],
      "name": "pendingDeposits",
      "outputs": [
        {
          "internalType": "uint256",
          "name": "publicAssetId",
          "type": "uint256"
        },
        {
          "internalType": "uint256",
          "name": "publicValue",
          "type": "uint256"
        },
        {
          "internalType": "uint256",
          "name": "nonce",
          "type": "uint256"
        }
      ],
      "stateMutability": "view",
      "type": "function"
    },
    {
      "inputs": [
        {
          "internalType": "uint256[]",
          "name": "keys",
          "type": "uint256[]"
        },
        {
          "internalType": "uint256[]",
          "name": "values",
          "type": "uint256[]"
        },
        {
          "internalType": "uint256[][]",
          "name": "siblings",
          "type": "uint256[][]"
        }
      ],
      "name": "processDeposits",
      "outputs": [
        {
          "internalType": "uint256",
          "name": "",
          "type": "uint256"
        }
      ],
      "stateMutability": "nonpayable",
      "type": "function"
    },
    {
      "inputs": [],
      "name": "queueNumber",
      "outputs": [
        {
          "internalType": "uint256",
          "name": "",
          "type": "uint256"
        }
      ],
      "stateMutability": "view",
      "type": "function"
    },
    {
      "inputs": [
        {
          "internalType": "address",
          "name": "tokenContractAddress",
          "type": "address"
        }
      ],
      "name": "registerToken",
      "outputs": [],
      "stateMutability": "nonpayable",
      "type": "function"
    },
    {
      "inputs": [
        {
          "internalType": "uint256[]",
          "name": "siblings",
          "type": "uint256[]"
        },
        {
          "internalType": "uint256",
          "name": "key",
          "type": "uint256"
        },
        {
          "internalType": "uint256",
          "name": "value",
          "type": "uint256"
        },
        {
          "internalType": "uint256",
          "name": "oldKey",
          "type": "uint256"
        },
        {
          "internalType": "uint256",
          "name": "oldValue",
          "type": "uint256"
        },
        {
          "internalType": "bool",
          "name": "isNonExistence",
          "type": "bool"
        },
        {
          "internalType": "bool",
          "name": "isOld",
          "type": "bool"
        },
        {
          "internalType": "uint256",
          "name": "maxLevels",
          "type": "uint256"
        }
      ],
      "name": "smtVerifier",
      "outputs": [
        {
          "internalType": "uint256",
          "name": "",
          "type": "uint256"
        }
      ],
      "stateMutability": "view",
      "type": "function"
    },
    {
      "inputs": [],
      "name": "tokenContract",
      "outputs": [
        {
          "internalType": "contract IERC20",
          "name": "",
          "type": "address"
        }
      ],
      "stateMutability": "view",
      "type": "function"
    },
    {
      "inputs": [],
      "name": "tokenRegistry",
      "outputs": [
        {
          "internalType": "contract ITokenRegistry",
          "name": "",
          "type": "address"
        }
      ],
      "stateMutability": "view",
      "type": "function"
    },
    {
      "inputs": [
        {
          "internalType": "uint256[2]",
          "name": "a",
          "type": "uint256[2]"
        },
        {
          "internalType": "uint256[2][2]",
          "name": "b",
          "type": "uint256[2][2]"
        },
        {
          "internalType": "uint256[2]",
          "name": "c",
          "type": "uint256[2]"
        },
        {
          "internalType": "uint256[8]",
          "name": "input",
          "type": "uint256[8]"
        }
      ],
      "name": "update",
      "outputs": [],
      "stateMutability": "payable",
      "type": "function"
    },
    {
      "inputs": [
        {
          "components": [
            {
              "internalType": "uint256",
              "name": "publicValue",
              "type": "uint256"
            },
            {
              "internalType": "uint256[2]",
              "name": "publicOwner",
              "type": "uint256[2]"
            },
            {
              "internalType": "uint256",
              "name": "outputNc1",
              "type": "uint256"
            },
            {
              "internalType": "uint256",
              "name": "outputNc2",
              "type": "uint256"
            },
            {
              "internalType": "uint256",
              "name": "publicAssetId",
              "type": "uint256"
            },
            {
              "internalType": "uint256",
              "name": "dataTreeRoot",
              "type": "uint256"
            },
            {
              "internalType": "uint256[]",
              "name": "values",
              "type": "uint256[]"
            },
            {
              "internalType": "uint256[][]",
              "name": "siblings",
              "type": "uint256[][]"
            }
          ],
          "internalType": "struct Rollup.TxInfo",
          "name": "txInfo",
          "type": "tuple"
        },
        {
          "internalType": "address payable",
          "name": "recipient",
          "type": "address"
        },
        {
          "internalType": "uint256[2]",
          "name": "a",
          "type": "uint256[2]"
        },
        {
          "internalType": "uint256[2][2]",
          "name": "b",
          "type": "uint256[2][2]"
        },
        {
          "internalType": "uint256[2]",
          "name": "c",
          "type": "uint256[2]"
        }
      ],
      "name": "withdraw",
      "outputs": [],
      "stateMutability": "nonpayable",
      "type": "function"
    }
  ],
  "bytecode": "0x60806040523480156200001157600080fd5b5060405162004a1038038062004a10833981016040819052620000349162000172565b600080546001600160a01b038086166001600160a01b0319928316811784556001805483881690851681179091556002805485169092179091556003805484169091179055600480549185169183169190911790556006805490911633179055600b55604051620000a59062000139565b604051809103906000f080158015620000c2573d6000803e3d6000fd5b50600c80546001600160a01b0319166001600160a01b0392909216919091179055604051620000f19062000147565b604051809103906000f0801580156200010e573d6000803e3d6000fd5b50600d80546001600160a01b0319166001600160a01b039290921691909117905550620001bc915050565b61144e80620023c283390190565b611200806200381083390190565b80516001600160a01b03811681146200016d57600080fd5b919050565b6000806000606084860312156200018857600080fd5b620001938462000155565b9250620001a36020850162000155565b9150620001b36040850162000155565b90509250925092565b6121f680620001cc6000396000f3fe6080604052600436106101295760003560e01c80635654d325116100ab578063a79327941161006f578063a793279414610343578063bf5b52a51461037e578063ca66f7e814610391578063e1d75c92146103a4578063e2c93102146103b9578063f0d17cbc146103ce57600080fd5b80635654d325146102835780637b5758b1146102a357806380b2edd8146102e35780638bff301f146103035780639d23c4c71461032357600080fd5b8063267fd768116100f2578063267fd768146101fb5780632fa6779a146102115780633deaea44146102275780633e8f23c51461024e57806355a373d61461026357600080fd5b80620df5381461012e57806309824a801461016b5780630a0090971461018d57806312a36541146101ad578063207c4497146101db575b600080fd5b34801561013a57600080fd5b5060035461014e906001600160a01b031681565b6040516001600160a01b0390911681526020015b60405180910390f35b34801561017757600080fd5b5061018b61018636600461183a565b6103fe565b005b34801561019957600080fd5b5060065461014e906001600160a01b031681565b3480156101b957600080fd5b506101cd6101c836600461198f565b610461565b604051908152602001610162565b3480156101e757600080fd5b5061018b6101f6366004611b53565b610578565b34801561020757600080fd5b506101cd600b5481565b34801561021d57600080fd5b506101cd60085481565b34801561023357600080fd5b5061023c600081565b60405160ff9091168152602001610162565b34801561025a57600080fd5b5061023c600181565b34801561026f57600080fd5b5060055461014e906001600160a01b031681565b34801561028f57600080fd5b506101cd61029e366004611c74565b610cf3565b3480156102af57600080fd5b506102d36102be366004611cfc565b60096020526000908152604090205460ff1681565b6040519015158152602001610162565b3480156102ef57600080fd5b5061018b6102fe36600461183a565b610f1b565b34801561030f57600080fd5b5060025461014e906001600160a01b031681565b34801561032f57600080fd5b5060045461014e906001600160a01b031681565b34801561034f57600080fd5b5061036361035e366004611cfc565b611050565b60408051938452602084019290925290820152606001610162565b61018b61038c366004611d15565b611086565b61018b61039f366004611dcc565b6112f9565b3480156103b057600080fd5b5061023c600381565b3480156103c557600080fd5b5061023c600281565b3480156103da57600080fd5b506102d36103e9366004611cfc565b600a6020526000908152604090205460ff1681565b600480546040516213049560e71b81526001600160a01b03848116938201939093529116906309824a8090602401600060405180830381600087803b15801561044657600080fd5b505af115801561045a573d6000803e3d6000fd5b5050505050565b60008084801561046e5750835b156104d4576000805b8115801561048457508481105b156104b157808b901c600116818a901c6001161860ff1691506001816104aa9190611e1c565b9050610477565b816000036104c5576000935050505061056c565b6104cf89896116f7565b925050505b6000856104ea576104e58a8a6116f7565b6104ec565b815b905060008060018d516104ff9190611e2f565b90505b60008112610565578c818151811061051c5761051c611e56565b6020908102919091010151915060018c821c8116148061054557610540848461178c565b61054f565b61054f838561178c565b935050808061055d90611e6c565b915050610502565b5090925050505b98975050505050505050565b608085015160a086015160408051600780825261010082019092526000916020820160e0803683370190505090508760000151816000815181106105be576105be611e56565b60200260200101818152505087602001516000600281106105e1576105e1611e56565b6020020151816001815181106105f9576105f9611e56565b602002602001018181525050876020015160016002811061061c5761061c611e56565b60200201518160028151811061063457610634611e56565b60200260200101818152505087604001518160038151811061065857610658611e56565b60200260200101818152505087606001518160048151811061067c5761067c611e56565b6020026020010181815250508760a00151816005815181106106a0576106a0611e56565b6020026020010181815250508760800151816006815181106106c4576106c4611e56565b60209081029190910101526040516340ec6e4960e01b815260009073__$1b25989371b4022db49653cc4d10b17012$__906340ec6e4990610709908590600401611e89565b602060405180830381865af4158015610726573d6000803e3d6000fd5b505050506040513d601f19601f8201168201806040525081019061074a9190611ecd565b6040808b015160009081526009602052205490915060ff16156107b45760405162461bcd60e51b815260206004820152601f60248201527f496e76616c6964206e756c6c696669657231207768656e206465706f7369740060448201526064015b60405180910390fd5b606089015160009081526009602052604090205460ff16156108185760405162461bcd60e51b815260206004820152601f60248201527f496e76616c6964206e756c6c696669657232207768656e206465706f7369740060448201526064016107ab565b8860c00151516002146108645760405162461bcd60e51b8152602060048201526014602482015273092dcecc2d8d2c840d2dce0eae840d8cadccee8d60631b60448201526064016107ab565b600060405180606001604052808b6020015160006002811061088857610888611e56565b602002015181526020018b602001516001600281106108a9576108a9611e56565b60200201518152602001838152509050600085116108fd5760405162461bcd60e51b8152602060048201526011602482015270496e76616c696420746f6b656e5479706560781b60448201526064016107ab565b6040805180820182528b820151815260608c01516020808301919091526000878152600a909152919091205460ff166109715760405162461bcd60e51b8152602060048201526016602482015275125b9d985b1a590819185d18481d1c9959481c9bdbdd60521b60448201526064016107ab565b60005b6002811015610a37576109e08c60e00151828151811061099657610996611e56565b60200260200101518383600281106109b0576109b0611e56565b60200201518e60c0015184815181106109cb576109cb611e56565b60200260200101516000806000806014610461565b8614610a255760405162461bcd60e51b815260206004820152601460248201527324b73b30b634b21036b2b935b63290383937b7b360611b60448201526064016107ab565b80610a2f81611ee6565b915050610974565b50600d546040516308a3cff560e11b81526001600160a01b03909116906311479fea90610a6e908c908c908c908890600401611f79565b602060405180830381865afa158015610a8b573d6000803e3d6000fd5b505050506040513d601f19601f82011682018060405250810190610aaf9190611fb9565b610afb5760405162461bcd60e51b815260206004820181905260248201527f546865206564647361207369676e6174757265206973206e6f742076616c696460448201526064016107ab565b85600103610b3f578a516040516001600160a01b038c169180156108fc02916000818181858888f19350505050158015610b39573d6000803e3d6000fd5b50610c79565b60048054604051634d05d17560e11b81529182018890526000916001600160a01b0390911690639a0ba2ea90602401602060405180830381865afa158015610b8b573d6000803e3d6000fd5b505050506040513d601f19601f82011682018060405250810190610baf9190611fd6565b600580546001600160a01b0319166001600160a01b038381169182179092558e5160405163a9059cbb60e01b8152928f166004840152602483015291925063a9059cbb906044016020604051808303816000875af1158015610c15573d6000803e3d6000fd5b505050506040513d601f19601f82011682018060405250810190610c399190611fb9565b610c775760405162461bcd60e51b815260206004820152600f60248201526e151c985b9cd9995c8819985a5b1959608a1b60448201526064016107ab565b505b60408b810151600090815260096020528181208054600160ff19918216811790925560608f01518352918390208054909216179055517f397704937178e3fddc876e7c1a97ea9b4b2e9e24101340a60535a124209a231790610cde908d908d9061202e565b60405180910390a15050505050505050505050565b60008251845114610d505760405162461bcd60e51b815260206004820152602160248201527f4b657920616e642076616c7565206d75737420686176652073616d652073697a6044820152606560f81b60648201526084016107ab565b8151845114610dad5760405162461bcd60e51b815260206004820152602360248201527f4b657920616e64207369626c696e67206d75737420686176652073616d652073604482015262697a6560e81b60648201526084016107ab565b600b5460005b8551811015610f0d5760006007600081548110610dd257610dd2611e56565b600091825260209091206040805160c08101909152916005020181608081018260028282826020028201915b815481526020019060010190808311610dfe575050505050815260200160028201548152602001600382015481526020016004820154815250509050610e83858381518110610e4f57610e4f611e56565b6020026020010151888481518110610e6957610e69611e56565b60200260200101518885815181106109cb576109cb611e56565b6000818152600a602052604090205490935060ff161515600103610ee15760405162461bcd60e51b8152602060048201526015602482015274125b9d985b1a59081b9d5b1b1a599a595c949bdbdd605a1b60448201526064016107ab565b506000828152600a60205260409020805460ff1916600117905580610f0581611ee6565b915050610db3565b50600b819055949350505050565b6006546001600160a01b03163314610f3557610f35612112565b600480546040516310165dbb60e31b81526001600160a01b03848116938201939093529116906380b2edd890602401600060405180830381600087803b158015610f7e57600080fd5b505af1158015610f92573d6000803e3d6000fd5b505050507f5dbaa701a7acef513f72a61799f7e50f4653f462b9f780d88d1b9bec89de2168600460009054906101000a90046001600160a01b03166001600160a01b0316638e499bcf6040518163ffffffff1660e01b8152600401602060405180830381865afa15801561100a573d6000803e3d6000fd5b505050506040513d601f19601f8201168201806040525081019061102e9190611ecd565b604080519182526001600160a01b03841660208301520160405180910390a150565b6007818154811061106057600080fd5b600091825260209091206005909102016002810154600382015460049092015490925083565b80516020808301516040808501516060860151608087015160a088015160c089015160e08a01516000828152600a90995295909720549596939592949193909290919060ff16156111125760405162461bcd60e51b8152602060048201526016602482015275125b9d985b1a590819185d18481d1c9959481c9bdbdd60521b60448201526064016107ab565b60008481526009602052604090205460ff16156111715760405162461bcd60e51b815260206004820152601f60248201527f496e76616c6964206e756c6c696669657231207768656e206465706f7369740060448201526064016107ab565b60008381526009602052604090205460ff16156111d05760405162461bcd60e51b815260206004820152601f60248201527f496e76616c6964206e756c6c696669657232207768656e206465706f7369740060448201526064016107ab565b600c54604051636490cd3d60e11b81526001600160a01b039091169063c9219a7a90611206908f908f908f908f90600401612128565b602060405180830381865afa158015611223573d6000803e3d6000fd5b505050506040513d601f19601f820116820180604052508101906112479190611fb9565b61128b5760405162461bcd60e51b815260206004820152601560248201527424b73b30b634b2103232b837b9b4ba10383937b7b360591b60448201526064016107ab565b600b8290556000828152600a6020908152604091829020805460ff1916600117905581518481529081018690529081018490527fbe4212065768908e69f6c63172b1d155abe731f87bfc61b83a5c3b93f12c853f9060600160405180910390a1505050505050505050505050565b826000036113dd576006546001600160a01b0316331461136f5760405162461bcd60e51b815260206004820152602b60248201527f7075626c696341737365744964203020697320726573657276656420666f722060448201526a31b7b7b93234b730ba37b960a91b60648201526084016107ab565b8115801561137b575034155b6113d85760405162461bcd60e51b815260206004820152602860248201527f7075626c696341737365744964203020646f6573206e6f742068617665207265604482015267616c2076616c756560c01b60648201526084016107ab565b611618565b82600103611467576000341180156113f55750813410155b6113d85760405162461bcd60e51b815260206004820152603760248201527f6d73672e76616c7565206d757374206174206c6561737420657175616c20737460448201527f61746564207075626c696356616c756520696e2077656900000000000000000060648201526084016107ab565b600183111561161857600082116114cc5760405162461bcd60e51b8152602060048201526024808201527f746f6b656e206465706f736974206d75737420626520677265617465722074686044820152630616e20360e41b60648201526084016107ab565b60048054604051634d05d17560e11b81529182018590526000916001600160a01b0390911690639a0ba2ea90602401602060405180830381865afa158015611518573d6000803e3d6000fd5b505050506040513d601f19601f8201168201806040525081019061153c9190611fd6565b600580546001600160a01b0319166001600160a01b0383169081179091556040516323b872dd60e01b815233600482015230602482015260448101869052919250906323b872dd906064016020604051808303816000875af11580156115a6573d6000803e3d6000fd5b505050506040513d601f19601f820116820180604052508101906115ca9190611fb9565b6116165760405162461bcd60e51b815260206004820152601b60248201527f746f6b656e207472616e73666572206e6f7420617070726f766564000000000060448201526064016107ab565b505b60408051608081018252858152602081018590529081018390526060810182905260078054600181018255600091909152815160059091027fa66cc928b5edb82af9bd49922954155ab7b0942694bea4ce44661d9a8736c688019061168090829060026117cf565b506020820151600282015560408201516003820155606090910151600490910155600880549060006116b183611ee6565b91905055507f595b7e310cd1b7e94b72db62a3257c5fa242cbca10740eb40ae49044f5dcff1f8483856040516116e993929190612185565b60405180910390a150505050565b604080516060810182528381526020810183905260018183018190525491516304b98e1d60e31b81526000926001600160a01b0316906325cc70e8906117419084906004016121a4565b602060405180830381865afa15801561175e573d6000803e3d6000fd5b505050506040513d601f19601f820116820180604052508101906117829190611ecd565b9150505b92915050565b604080518082018252838152602081018390526000805492516314d2f97b60e11b815290926001600160a01b0316906329a5f2f6906117419084906004016121b2565b82600281019282156117fd579160200282015b828111156117fd5782518255916020019190600101906117e2565b5061180992915061180d565b5090565b5b80821115611809576000815560010161180e565b6001600160a01b038116811461183757600080fd5b50565b60006020828403121561184c57600080fd5b813561185781611822565b9392505050565b634e487b7160e01b600052604160045260246000fd5b604051610100810167ffffffffffffffff811182821017156118985761189861185e565b60405290565b6040805190810167ffffffffffffffff811182821017156118985761189861185e565b604051601f8201601f1916810167ffffffffffffffff811182821017156118ea576118ea61185e565b604052919050565b600067ffffffffffffffff82111561190c5761190c61185e565b5060051b60200190565b600082601f83011261192757600080fd5b8135602061193c611937836118f2565b6118c1565b82815260059290921b8401810191818101908684111561195b57600080fd5b8286015b84811015611976578035835291830191830161195f565b509695505050505050565b801515811461183757600080fd5b600080600080600080600080610100898b0312156119ac57600080fd5b883567ffffffffffffffff8111156119c357600080fd5b6119cf8b828c01611916565b9850506020890135965060408901359550606089013594506080890135935060a08901356119fc81611981565b925060c0890135611a0c81611981565b8092505060e089013590509295985092959890939650565b600082601f830112611a3557600080fd5b611a3d61189e565b806040840185811115611a4f57600080fd5b845b81811015611a69578035845260209384019301611a51565b509095945050505050565b600082601f830112611a8557600080fd5b81356020611a95611937836118f2565b82815260059290921b84018101918181019086841115611ab457600080fd5b8286015b8481101561197657803567ffffffffffffffff811115611ad85760008081fd5b611ae68986838b0101611916565b845250918301918301611ab8565b8035611aff81611822565b919050565b600082601f830112611b1557600080fd5b611b1d61189e565b806080840185811115611b2f57600080fd5b845b81811015611a6957611b438782611a24565b8452602090930192604001611b31565b60008060008060006101408688031215611b6c57600080fd5b853567ffffffffffffffff80821115611b8457600080fd5b90870190610120828a031215611b9957600080fd5b611ba1611874565b82358152611bb28a60208501611a24565b6020820152606083013560408201526080830135606082015260a0830135608082015260c083013560a082015260e083013582811115611bf157600080fd5b611bfd8b828601611916565b60c0830152506101008084013583811115611c1757600080fd5b611c238c828701611a74565b60e084015250819850611c3860208b01611af4565b9750611c478b60408c01611a24565b9650611c568b60808c01611b04565b9550611c648b828c01611a24565b9450505050509295509295909350565b600080600060608486031215611c8957600080fd5b833567ffffffffffffffff80821115611ca157600080fd5b611cad87838801611916565b94506020860135915080821115611cc357600080fd5b611ccf87838801611916565b93506040860135915080821115611ce557600080fd5b50611cf286828701611a74565b9150509250925092565b600060208284031215611d0e57600080fd5b5035919050565b600080600080610200808688031215611d2d57600080fd5b611d378787611a24565b9450611d468760408801611b04565b9350611d558760c08801611a24565b92506101008761011f880112611d6a57600080fd5b60405181810181811067ffffffffffffffff82111715611d8c57611d8c61185e565b604052918701918089841115611da157600080fd5b918801915b83831015611dbe578235815260209283019201611da6565b509598949750929550505050565b60008060008060a08587031215611de257600080fd5b611dec8686611a24565b966040860135965060608601359560800135945092505050565b634e487b7160e01b600052601160045260246000fd5b8082018082111561178657611786611e06565b8181036000831280158383131683831282161715611e4f57611e4f611e06565b5092915050565b634e487b7160e01b600052603260045260246000fd5b6000600160ff1b8201611e8157611e81611e06565b506000190190565b6020808252825182820181905260009190848201906040850190845b81811015611ec157835183529284019291840191600101611ea5565b50909695505050505050565b600060208284031215611edf57600080fd5b5051919050565b600060018201611ef857611ef8611e06565b5060010190565b8060005b6002811015611f22578151845260209384019390910190600101611f03565b50505050565b8060005b6002811015611f2257611f40848351611eff565b6040939093019260209190910190600101611f2c565b8060005b6003811015611f22578151845260209384019390910190600101611f5a565b6101608101611f888287611eff565b611f956040830186611f28565b611fa260c0830185611eff565b611fb0610100830184611f56565b95945050505050565b600060208284031215611fcb57600080fd5b815161185781611981565b600060208284031215611fe857600080fd5b815161185781611822565b600081518084526020808501945080840160005b8381101561202357815187529582019590820190600101612007565b509495945050505050565b6040815282516040820152600060208085015161204e6060850182611eff565b50604085015160a0840152606085015160c0840152608085015160e084015260a085015161010084015260c0850151610120808186015250612094610160850182611ff3565b60e0870151858203603f1901610140870152805180835291925083019083830190600581901b8401850160005b828110156120ef57601f198683030184526120dd828651611ff3565b948701949387019391506001016120c1565b506001600160a01b03891688870152955061210a9350505050565b509392505050565b634e487b7160e01b600052600160045260246000fd5b61020081016121378287611eff565b6121446040830186611f28565b61215160c0830185611eff565b61010082018360005b600881101561217957815183526020928301929091019060010161215a565b50505095945050505050565b608081016121938286611eff565b604082019390935260600152919050565b606081016117868284611f56565b604081016117868284611eff56fea2646970667358221220e48a6bfeb443f6062fc55a4d1d19de83aaadec08f8dee41748602c8b0094954364736f6c63430008100033608060405234801561001057600080fd5b5061142e806100206000396000f3fe608060405234801561001057600080fd5b506004361061002b5760003560e01c8063c9219a7a14610030575b600080fd5b61004361003e36600461126e565b610057565b604051901515815260200160405180910390f35b6000610061611081565b60408051808201825287518152602080890151818301529083528151608081018352875151818401908152885183015160608301528152825180840184528883018051518252518301518184015281830152838201528151808301835286518152868201518183015283830152815160088082526101208201909352600092909182016101008036833701905050905060005b60088110156101435784816008811061010f5761010f61134c565b60200201518282815181106101265761012661134c565b60209081029190910101528061013b81611378565b9150506100f4565b5061014e818361016f565b60000361016057600192505050610167565b6000925050505b949350505050565b60007f30644e72e131a029b85045b68181585d2833e84879b9709143e1f593f00000018161019b610366565b9050806080015151855160016101b19190611391565b146101f85760405162461bcd60e51b81526020600482015260126024820152711d995c9a599a595c8b5898590b5a5b9c1d5d60721b60448201526064015b60405180910390fd5b604080518082019091526000808252602082018190525b86518110156102e9578387828151811061022b5761022b61134c565b6020026020010151106102805760405162461bcd60e51b815260206004820152601f60248201527f76657269666965722d6774652d736e61726b2d7363616c61722d6669656c640060448201526064016101ef565b6102d5826102d085608001518460016102999190611391565b815181106102a9576102a961134c565b60200260200101518a85815181106102c3576102c361134c565b60200260200101516109d0565b610a66565b9150806102e181611378565b91505061020f565b506103128183608001516000815181106103055761030561134c565b6020026020010151610a66565b90506103486103248660000151610aff565b8660200151846000015185602001518587604001518b604001518960600151610b9e565b6103585760019350505050610360565b600093505050505b92915050565b61036e6110d2565b6040805180820182527f2d4d9aa7e302d9df41749d5507949d05dbea33fbb16c643b22f599a2be6df2e281527f14bedd503c37ceb061d8ec60209fe345ce89830a19230301f076caff004d19266020808301919091529083528151608080820184527f0967032fcbf776d1afc985f88877f182d38480a653f2decaa9794cbc3bf3060c8285019081527f0e187847ad4c798374d0d6732bf501847dd68bc0e071241e0213bc7fc13db7ab606080850191909152908352845180860186527f304cfbd1e08a704a99f5e847d93f8c3caafddec46b7a0d379da69a4d112346a781527f1739c1b1a457a8c7313123d24d2f9192f896b7c63eea05a9d57f06547ad0cec8818601528385015285840192909252835180820185527f198e9393920d483a7260bfb731fb5d25f1aa493335a9e71297e485b7aef312c28186018181527f1800deef121f1e76426a00665e5c4479674322d4f75edadd46debd5cd992f6ed838601819052908352865180880188527f090689d0585ff075ec9e99ad690c3395bc4b313370b38ef355acdadcd122975b8082527f12c85ea5db8c6deb4aab71808dcb408fe3d1e7690c43d37b4ce6cc0166fa7daa8289018190528589019290925289890194909452875194850188528488019283528486019190915290835285518087018752918252818501528184015290840152815160098082526101408201909352919082015b604080518082019091526000808252602082015281526020019060019003908161057757505060808201908152604080518082019091527f2311215d34d84c0bd07eb74a767c69f03b1d97c92a6ef3390647721fe445d58981527f20acdfa51f1382fdb8450bac27640c111b751f6e35f1ba6a34bd8dac8e3f362f60208201529051805160009061060a5761060a61134c565b602002602001018190525060405180604001604052807f2cee5bab1d72cde928c6c75624dc16ddbe2dbd719f3b70095d698b22dbcc4ccf81526020017f06e891e0877a79cbf32471e75fe2b57c0efec36135ab78967801d8b630f4a00681525081608001516001815181106106815761068161134c565b602002602001018190525060405180604001604052807f1b0e4bedef2d13953dc337c19397df536ee4b8e32877d235fbee5e46df8e289081526020017f04a4fa0beb6d947cf50e48558daded885f7646977b4b1a8c33b3efb0a3bea87381525081608001516002815181106106f8576106f861134c565b602002602001018190525060405180604001604052807f241fb156e4d11abecea9cf77c2ae1c93b557e6d51fdff459a3f09e22e12cacb981526020017f0420e18af65c4098bc9135a5b87c305ffdb7ee196520e8c9350c557711576f0d815250816080015160038151811061076f5761076f61134c565b602002602001018190525060405180604001604052807f24b87ebe873eab5caaa0c8f970ab5fcf1f3a5b0d045920b475a9853e4a759ae881526020017f16eb181ef4a13a0c754a58ecfa3e69a11010a01548f14572e54febdb2d9dbdd481525081608001516004815181106107e6576107e661134c565b602002602001018190525060405180604001604052807f10d2b9fd57a080498fe4d373ce456aada138c87bbe4cf7a49b94745063b1899181526020017f09c9e64ee532d0fc191f30f665f67a90dd9ac2f5fe319d33a3158acb3806525f815250816080015160058151811061085d5761085d61134c565b602002602001018190525060405180604001604052807f305275a70d154c364bca9c5113311e79db229974de7f777475a4e0f202021aaf81526020017f02ed2ab99fc93761006d6241483daf6ba42d368d7adc04d345b9e929de1f2bdc81525081608001516006815181106108d4576108d461134c565b602002602001018190525060405180604001604052807f242ae1e9f4486ba27cd3c5156f4d6e78aeefff1afb25486b4007b4256d17dc8981526020017f15c6dd35f284512a052ffd98de10682d54cafff931a44e3cbbb15bf1693a0067815250816080015160078151811061094b5761094b61134c565b602002602001018190525060405180604001604052807f273b477346c746570d014e8fcbf9ba7bd15f7c46393faa3de5970c2e6255704a81526020017f1440ea68ae1a18c94a9424607cdeecf5e5f4859d584a712204ca921477438f5a81525081608001516008815181106109c2576109c261134c565b602002602001018190525090565b60408051808201909152600080825260208201526109ec611123565b835181526020808501519082015260408101839052600060608360808460076107d05a03fa90508080610a1b57fe5b5080610a5e5760405162461bcd60e51b81526020600482015260126024820152711c185a5c9a5b99cb5b5d5b0b59985a5b195960721b60448201526064016101ef565b505092915050565b6040805180820190915260008082526020820152610a82611141565b8351815260208085015181830152835160408301528301516060808301919091526000908360c08460066107d05a03fa90508080610abc57fe5b5080610a5e5760405162461bcd60e51b81526020600482015260126024820152711c185a5c9a5b99cb5859190b59985a5b195960721b60448201526064016101ef565b604080518082019091526000808252602082015281517f30644e72e131a029b85045b68181585d97816a916871ca8d3c208c16d87cfd4790158015610b4657506020830151155b15610b665750506040805180820190915260008082526020820152919050565b604051806040016040528084600001518152602001828560200151610b8b91906113a4565b610b9590846113c6565b90529392505050565b60408051600480825260a08201909252600091829190816020015b6040805180820190915260008082526020820152815260200190600190039081610bb957505060408051600480825260a0820190925291925060009190602082015b610c0361115f565b815260200190600190039081610bfb5790505090508a82600081518110610c2c57610c2c61134c565b60200260200101819052508882600181518110610c4b57610c4b61134c565b60200260200101819052508682600281518110610c6a57610c6a61134c565b60200260200101819052508482600381518110610c8957610c8961134c565b60200260200101819052508981600081518110610ca857610ca861134c565b60200260200101819052508781600181518110610cc757610cc761134c565b60200260200101819052508581600281518110610ce657610ce661134c565b60200260200101819052508381600381518110610d0557610d0561134c565b6020026020010181905250610d1a8282610d29565b9b9a5050505050505050505050565b60008151835114610d755760405162461bcd60e51b81526020600482015260166024820152751c185a5c9a5b99cb5b195b99dd1a1ccb59985a5b195960521b60448201526064016101ef565b82516000610d848260066113d9565b905060008167ffffffffffffffff811115610da157610da16111bb565b604051908082528060200260200182016040528015610dca578160200160208202803683370190505b50905060005b8381101561100557868181518110610dea57610dea61134c565b60200260200101516000015182826006610e0491906113d9565b610e0f906000611391565b81518110610e1f57610e1f61134c565b602002602001018181525050868181518110610e3d57610e3d61134c565b60200260200101516020015182826006610e5791906113d9565b610e62906001611391565b81518110610e7257610e7261134c565b602002602001018181525050858181518110610e9057610e9061134c565b6020908102919091010151515182610ea98360066113d9565b610eb4906002611391565b81518110610ec457610ec461134c565b602002602001018181525050858181518110610ee257610ee261134c565b60209081029190910181015151015182610efd8360066113d9565b610f08906003611391565b81518110610f1857610f1861134c565b602002602001018181525050858181518110610f3657610f3661134c565b602002602001015160200151600060028110610f5457610f5461134c565b602002015182610f658360066113d9565b610f70906004611391565b81518110610f8057610f8061134c565b602002602001018181525050858181518110610f9e57610f9e61134c565b602002602001015160200151600160028110610fbc57610fbc61134c565b602002015182610fcd8360066113d9565b610fd8906005611391565b81518110610fe857610fe861134c565b602090810291909101015280610ffd81611378565b915050610dd0565b5061100e61117f565b6000602082602086026020860160086107d05a03fa9050808061102d57fe5b50806110735760405162461bcd60e51b81526020600482015260156024820152741c185a5c9a5b99cb5bdc18dbd9194b59985a5b1959605a1b60448201526064016101ef565b505115159695505050505050565b6040805160a0810190915260006060820181815260808301919091528152602081016110ab61115f565b81526020016110cd604051806040016040528060008152602001600081525090565b905290565b6040805160e08101909152600060a0820181815260c08301919091528152602081016110fc61115f565b815260200161110961115f565b815260200161111661115f565b8152602001606081525090565b60405180606001604052806003906020820280368337509192915050565b60405180608001604052806004906020820280368337509192915050565b604051806040016040528061117261119d565b81526020016110cd61119d565b60405180602001604052806001906020820280368337509192915050565b60405180604001604052806002906020820280368337509192915050565b634e487b7160e01b600052604160045260246000fd5b6040805190810167ffffffffffffffff811182821017156111f4576111f46111bb565b60405290565b604051610100810167ffffffffffffffff811182821017156111f4576111f46111bb565b600082601f83011261122f57600080fd5b6112376111d1565b80604084018581111561124957600080fd5b845b8181101561126357803584526020938401930161124b565b509095945050505050565b60008060008061020080868803121561128657600080fd5b611290878761121e565b9450604087605f8801126112a357600080fd5b6112ab6111d1565b8060c089018a8111156112bd57600080fd5b838a015b818110156112e2576112d38c8261121e565b845260209093019284016112c1565b508197506112f08b8261121e565b9650505050508661011f87011261130657600080fd5b61130e6111fa565b90860190808883111561132057600080fd5b61010088015b8381101561133e578035835260209283019201611326565b509598949750929550505050565b634e487b7160e01b600052603260045260246000fd5b634e487b7160e01b600052601160045260246000fd5b60006001820161138a5761138a611362565b5060010190565b8082018082111561036057610360611362565b6000826113c157634e487b7160e01b600052601260045260246000fd5b500690565b8181038181111561036057610360611362565b60008160001904831182151516156113f3576113f3611362565b50029056fea26469706673582212203a7dcbf774febc37c2e98b04b97eb433d1960e14570cfd4b9306253303d9325064736f6c63430008100033608060405234801561001057600080fd5b506111e0806100206000396000f3fe608060405234801561001057600080fd5b506004361061002b5760003560e01c806311479fea14610030575b600080fd5b61004361003e366004611020565b610057565b604051901515815260200160405180910390f35b6000610061610e34565b60408051808201825287518152602080890151818301529083528151608080820184528851518285019081528951840151606080850191909152908352845180860186528a8501805151825251850151818601528385015285840192909252835180850185528851815288840151818501528585015283516003808252918101909452600093929091908301908036833701905050905060005b600381101561014a57848160038110610116576101166110fe565b602002015182828151811061012d5761012d6110fe565b6020908102919091010152806101428161112a565b9150506100fb565b506101558183610176565b6000036101675760019250505061016e565b6000925050505b949350505050565b60007f30644e72e131a029b85045b68181585d2833e84879b9709143e1f593f0000001816101a261036d565b9050806080015151855160016101b89190611143565b146101ff5760405162461bcd60e51b81526020600482015260126024820152711d995c9a599a595c8b5898590b5a5b9c1d5d60721b60448201526064015b60405180910390fd5b604080518082019091526000808252602082018190525b86518110156102f05783878281518110610232576102326110fe565b6020026020010151106102875760405162461bcd60e51b815260206004820152601f60248201527f76657269666965722d6774652d736e61726b2d7363616c61722d6669656c640060448201526064016101f6565b6102dc826102d785608001518460016102a09190611143565b815181106102b0576102b06110fe565b60200260200101518a85815181106102ca576102ca6110fe565b6020026020010151610783565b610819565b9150806102e88161112a565b915050610216565b5061031981836080015160008151811061030c5761030c6110fe565b6020026020010151610819565b905061034f61032b86600001516108b2565b8660200151846000015185602001518587604001518b604001518960600151610951565b61035f5760019350505050610367565b600093505050505b92915050565b610375610e85565b6040805180820182527f2d4d9aa7e302d9df41749d5507949d05dbea33fbb16c643b22f599a2be6df2e281527f14bedd503c37ceb061d8ec60209fe345ce89830a19230301f076caff004d19266020808301919091529083528151608080820184527f0967032fcbf776d1afc985f88877f182d38480a653f2decaa9794cbc3bf3060c8285019081527f0e187847ad4c798374d0d6732bf501847dd68bc0e071241e0213bc7fc13db7ab606080850191909152908352845180860186527f304cfbd1e08a704a99f5e847d93f8c3caafddec46b7a0d379da69a4d112346a781527f1739c1b1a457a8c7313123d24d2f9192f896b7c63eea05a9d57f06547ad0cec8818601528385015285840192909252835180820185527f198e9393920d483a7260bfb731fb5d25f1aa493335a9e71297e485b7aef312c28186018181527f1800deef121f1e76426a00665e5c4479674322d4f75edadd46debd5cd992f6ed838601819052908352865180880188527f090689d0585ff075ec9e99ad690c3395bc4b313370b38ef355acdadcd122975b8082527f12c85ea5db8c6deb4aab71808dcb408fe3d1e7690c43d37b4ce6cc0166fa7daa82890181905285890192909252898901949094528751948501885284880192835284860191909152908352855180870187529182528185015281840152908401528151600480825260a08201909352919082015b604080518082019091526000808252602082015281526020019060019003908161057d57505060808201908152604080518082019091527f2093e8493deb7a4b972f6d6dfff1aed4bee267cc2e059d40cdbcd2e58a2a9be881527f1dfcc6ed73b3e94b7cc8f22d3042e4e2878ea170125814897248f75fa7d94704602082015290518051600090610610576106106110fe565b602002602001018190525060405180604001604052807f14c91308ab95656ff35e966dc96e138df07b646005df0b1854e858ae346872a181526020017f08215eee1420b1d95e7dcea7a9cbf3c032b81c28da38620670174d0c90ae24668152508160800151600181518110610687576106876110fe565b602002602001018190525060405180604001604052807f0c14c37264e19702f7d5d4f1ccf586624fd832fd2bf088d6d672356cae8c78f481526020017f305525a805d0800d123efe27790f0680687c2706dea189fe80fb4b97e6769d5181525081608001516002815181106106fe576106fe6110fe565b602002602001018190525060405180604001604052807f22d9c2d063bcf7941393eeeab3e2605b7be2859f7c4e11cdc98ab2c4ff22db4181526020017f240bee8cb88692669601cbaa7d5c22ffc5f94d2efab827accdb5d66f5272a3428152508160800151600381518110610775576107756110fe565b602002602001018190525090565b604080518082019091526000808252602082015261079f610ed6565b835181526020808501519082015260408101839052600060608360808460076107d05a03fa905080806107ce57fe5b50806108115760405162461bcd60e51b81526020600482015260126024820152711c185a5c9a5b99cb5b5d5b0b59985a5b195960721b60448201526064016101f6565b505092915050565b6040805180820190915260008082526020820152610835610ef4565b8351815260208085015181830152835160408301528301516060808301919091526000908360c08460066107d05a03fa9050808061086f57fe5b50806108115760405162461bcd60e51b81526020600482015260126024820152711c185a5c9a5b99cb5859190b59985a5b195960721b60448201526064016101f6565b604080518082019091526000808252602082015281517f30644e72e131a029b85045b68181585d97816a916871ca8d3c208c16d87cfd47901580156108f957506020830151155b156109195750506040805180820190915260008082526020820152919050565b60405180604001604052808460000151815260200182856020015161093e9190611156565b6109489084611178565b90529392505050565b60408051600480825260a08201909252600091829190816020015b604080518082019091526000808252602082015281526020019060019003908161096c57505060408051600480825260a0820190925291925060009190602082015b6109b6610f12565b8152602001906001900390816109ae5790505090508a826000815181106109df576109df6110fe565b602002602001018190525088826001815181106109fe576109fe6110fe565b60200260200101819052508682600281518110610a1d57610a1d6110fe565b60200260200101819052508482600381518110610a3c57610a3c6110fe565b60200260200101819052508981600081518110610a5b57610a5b6110fe565b60200260200101819052508781600181518110610a7a57610a7a6110fe565b60200260200101819052508581600281518110610a9957610a996110fe565b60200260200101819052508381600381518110610ab857610ab86110fe565b6020026020010181905250610acd8282610adc565b9b9a5050505050505050505050565b60008151835114610b285760405162461bcd60e51b81526020600482015260166024820152751c185a5c9a5b99cb5b195b99dd1a1ccb59985a5b195960521b60448201526064016101f6565b82516000610b3782600661118b565b905060008167ffffffffffffffff811115610b5457610b54610f6e565b604051908082528060200260200182016040528015610b7d578160200160208202803683370190505b50905060005b83811015610db857868181518110610b9d57610b9d6110fe565b60200260200101516000015182826006610bb7919061118b565b610bc2906000611143565b81518110610bd257610bd26110fe565b602002602001018181525050868181518110610bf057610bf06110fe565b60200260200101516020015182826006610c0a919061118b565b610c15906001611143565b81518110610c2557610c256110fe565b602002602001018181525050858181518110610c4357610c436110fe565b6020908102919091010151515182610c5c83600661118b565b610c67906002611143565b81518110610c7757610c776110fe565b602002602001018181525050858181518110610c9557610c956110fe565b60209081029190910181015151015182610cb083600661118b565b610cbb906003611143565b81518110610ccb57610ccb6110fe565b602002602001018181525050858181518110610ce957610ce96110fe565b602002602001015160200151600060028110610d0757610d076110fe565b602002015182610d1883600661118b565b610d23906004611143565b81518110610d3357610d336110fe565b602002602001018181525050858181518110610d5157610d516110fe565b602002602001015160200151600160028110610d6f57610d6f6110fe565b602002015182610d8083600661118b565b610d8b906005611143565b81518110610d9b57610d9b6110fe565b602090810291909101015280610db08161112a565b915050610b83565b50610dc1610f32565b6000602082602086026020860160086107d05a03fa90508080610de057fe5b5080610e265760405162461bcd60e51b81526020600482015260156024820152741c185a5c9a5b99cb5bdc18dbd9194b59985a5b1959605a1b60448201526064016101f6565b505115159695505050505050565b6040805160a081019091526000606082018181526080830191909152815260208101610e5e610f12565b8152602001610e80604051806040016040528060008152602001600081525090565b905290565b6040805160e08101909152600060a0820181815260c0830191909152815260208101610eaf610f12565b8152602001610ebc610f12565b8152602001610ec9610f12565b8152602001606081525090565b60405180606001604052806003906020820280368337509192915050565b60405180608001604052806004906020820280368337509192915050565b6040518060400160405280610f25610f50565b8152602001610e80610f50565b60405180602001604052806001906020820280368337509192915050565b60405180604001604052806002906020820280368337509192915050565b634e487b7160e01b600052604160045260246000fd5b6040805190810167ffffffffffffffff81118282101715610fa757610fa7610f6e565b60405290565b6040516060810167ffffffffffffffff81118282101715610fa757610fa7610f6e565b600082601f830112610fe157600080fd5b610fe9610f84565b806040840185811115610ffb57600080fd5b845b81811015611015578035845260209384019301610ffd565b509095945050505050565b60008060008061016080868803121561103857600080fd5b6110428787610fd0565b9450604087605f88011261105557600080fd5b61105d610f84565b8060c089018a81111561106f57600080fd5b838a015b81811015611094576110858c82610fd0565b84526020909301928401611073565b508197506110a28b82610fd0565b9650505050508661011f8701126110b857600080fd5b6110c0610fad565b9086019080888311156110d257600080fd5b61010088015b838110156110f05780358352602092830192016110d8565b509598949750929550505050565b634e487b7160e01b600052603260045260246000fd5b634e487b7160e01b600052601160045260246000fd5b60006001820161113c5761113c611114565b5060010190565b8082018082111561036757610367611114565b60008261117357634e487b7160e01b600052601260045260246000fd5b500690565b8181038181111561036757610367611114565b60008160001904831182151516156111a5576111a5611114565b50029056fea26469706673582212205e9441c6aca7a4be3b6d6a8510c86b483777d0874acbec70ce84410debc8b8dc64736f6c63430008100033",
  "linkReferences": {
    "contracts/libs/Poseidon.sol": {
      "SpongePoseidon": [
        {
          "length": 20,
          "start": 2221
        }
      ]
    }
  },
  "deployedLinkReferences": {
    "contracts/libs/Poseidon.sol": {
      "SpongePoseidon": [
        {
          "length": 20,
          "start": 1761
        }
      ]
    }
  }
}